:102000000080002059620000556200005562000007
:1020100000000000000000000000000000000000C0
:1020200000000000000000000000000055620000F9
:10203000000000000000000055620000AD620000DA
:1020400055620000556200005562000055620000B4
:10205000556200005562000059610000ED730000F8
:1020600055620000A1610000556200005562000049
:10207000B95F000055620000B161000055620000C8
:102080005562000055620000556200005562000074
:102090001177000055620000556200005562000093
:1020A0005562000055620000556200005562000054
:1020B0000000000010B5064C2378002B07D1054B1B
:1020C000002B02D0044800E000BF0123237010BDA4
:1020D0004002002000000000A4840100044B10B561
:1020E000002B03D00349044800E000BF10BDC046E8
:1020F0000000000044020020A4840100002070477A
:102100007047F8B507000C0000258E18B44207D0C0
:102110003B6821781B683800984701342D18F5E793
:102120002800F8BDF8B5070003000837B4331B6872
:10213000040038009847124A0300904214D8250042
:102140002600BA35B8362A883188380002F042FFB6
:10215000903403002078032806D808F019FA020703
:102160000B0E32889B1833800120F8BD2A889B18FB
:102170002B80F9E73288D31AF5E72A88D31AF7E7D4
:10218000FDFF000010B50A004369016903F0B4FBCC
:1021900010BD10B54269016903F0FEFB10BD10B51A
:1021A0000A004369016903F009FC10BD10B508304D
:1021B00002F010FF10BD10B5083002F075FF10BD21
:1021C000F0B5DC4B95B01D780400002D28D1DA4B1A
:1021D0000222196811A805F009FE11A9200005F0D6
:1021E000EAFD11A805F003FDD449200005F04FFEDB
:1021F000D34B09211B78002B03D00321012B00D1E5
:10220000062149420A2211A805F077FD11A92000F4
:1022100005F037FE11A805F0EAFC012015B0F0BD6D
:10222000012D0AD1C44B0222196811A805F0DEFD68
:1022300011A9200005F0BFFDECE7022D31D1C14B03
:102240000A22196811A805F06AFD11A9200005F0FD
:10225000B2FD11A805F0CBFCBB4E2000310005F00B
:1022600016FEB74B0A22197811A805F035FD11A901
:10227000200005F006FE11A805F0B9FC3100200091
:1022800005F005FEAC4B18680AF098FEAF4AB04B5B
:102290000AF01CF802000B00009511A805F0C0FD23
:1022A000B4E7032D1DD1A74B0A22196811A805F028
:1022B00036FD11A9200005F07EFD11A805F097FC60
:1022C000A149200005F0E3FD9B4B18680AF076FE5B
:1022D000A04AA14B09F0FAFF0B0002210200009175
:1022E000DBE7042D24D19D4B002219680BA805F0D3
:1022F0007DFD0BA90EA805F054FD99490EA805F027
:10230000E2FD0500974B0022196811A805F06EFD4B
:1023100011A9280005F0CAFD0100200005F0B1FD5B
:1023200011A805F064FC0EA805F061FC0BA872E78B
:10233000052D00D071E78C4D02A8290005F09FFC07
:10234000290005A805F09BFC884908A805F097FC22
:10235000794D7B4B2E681F78002F0BD0301C0AF074
:102360002DFE7A4A7A4B09F0B1FF0AF079FE013F5F
:10237000061CF1E77E4B1B78002B00D10EE17D4956
:10238000301C08F0FDFA212700281AD17A49301CA8
:1023900008F0E2FA002814D1301C0AF00FFE774A48
:1023A000774B06000F0008F0B1FA002808D039007A
:1023B000724A744B300008F095FA7E27002800D14D
:1023C0002927714E0222316811A805F00FFD11A9CD
:1023D00002A805F0F0FC11A805F009FC0021306806
:1023E00008F0D8FA002815D020210EA805F066FCC8
:1023F0000EA911A805F0D5FC02A911A805F056FDFB
:10240000010002A805F0BDFC11A805F0F0FB0EA824
:1024100005F0EDFB0222296811A805F0E7FC11A9DF
:1024200005A805F0C8FC11A805F0E1FB002128680B
:1024300008F0B0FA002815D020210EA805F03EFCC7
:102440000EA911A805F0ADFC05A911A805F02EFDF7
:10245000010005A805F095FC11A805F0C8FB0EA821
:1024600005F0C5FB49490EA805F009FC344B484A64
:102470001B780BA8D15C05F021FC0BA90EA805F078
:1024800015FD444905F01FFD0500390011A805F0B0
:1024900015FC11A9280005F009FD3F4905F013FDC1
:1024A0000100200005F06DFC11A805F0A0FB0BA8B1
:1024B00005F09DFB0EA805F09AFB049A0A9B08A95B
:1024C0009B1A0EA8002205F021FD0EA911A805F007
:1024D00068FC02A911A805F0E9FC0100200005F044
:1024E000D0FC11A805F083FB0EA805F080FB079A2D
:1024F0000A9B08A99B1A0EA8002205F007FD0EA949
:1025000011A805F04EFC05A911A805F0CFFC0100AB
:10251000200005F0B6FC11A805F069FB0EA805F037
:1025200066FB08A805F063FB05A805F060FB02A8A0
:1025300071E6C0466D02002084040020F91A0100F3
:102540009802002070020020FB1A0100FCA9F1D2C1
:102550004D62503F8DEDB5A0F7C6B03E500400204F
:10256000FD1A01005C040020FE1A0100FF1A0100A0
:10257000650200200000AF440000AFC466666666D6
:102580006666F6BF6666F63F500300200F1B01002B
:10259000161B0100BC1401000D1B01000B49301C6F
:1025A00008F0EEF92127002800D00AE70849301C7E
:1025B00008F0D2F9002800D003E7301C0AF0FEFC36
:1025C000044A054B08F08EF95D37F7E600002F4509
:1025D0000000E0C16666666666660640F0B58B4B35
:1025E0008FB01B78002B00D1CFE2894902A805F0FB
:1025F00046FB884B884D1B7828000093874B1C684E
:1026000002F08EFA8649280002F08EFD854B1B7879
:10261000002B05D0844B0A2268218448FFF7C6FDB1
:10262000834B1B68181C01930AF0C8FC814A824B3B
:1026300006000F0008F06AF900285BD07F4B0A22E1
:1026400073217A48FFF7B2FD28007D4902F06CFD46
:102650007C4B1D78002D00D1CAE07B4B0A22002163
:102660007248FFF7A8FD794B1B78012B00D080E062
:10267000774B0A2222216D48FFF79DFD754B1C68A0
:102680000021201C08F07CF9002800D189E0724963
:10269000201C08F075F9002800D0B0E06F49201C1C
:1026A00008F06EF90223061E009313D16C49201C1A
:1026B00008F066F9002800D0A5E06A49201C012531
:1026C00008F05EF9002800D1051CEDB22A00531E67
:1026D0009A410092009E002E00D1F9E0201C0AF0E1
:1026E0006DFC614A614B09F0F1FD0AF0B9FC013E55
:1026F000041CF0E75E4A5F4B3000390008F006F931
:10270000002801D05C4B9AE75C4A5D4B30003900F1
:1027100008F0FCF8002801D05A4B90E75A4A5B4B6E
:102720003000390008F0F2F8002801D0584B86E755
:102730005849019808F024F9002801D0564B7EE74B
:102740003C4A564B3000390008F0E0F8002801D030
:10275000534B74E7534B374A3000390008F0D6F832
:10276000031E324803D0504B0A2273216AE74F4BB5
:10277000FAE7023B012B83D84D4B22210A222B483A
:10278000FFF719FD4B4B00211C68201C08F0DEF8F8
:1027900000282BD1484B211C186808F0BDFA041CF6
:1027A0006EE74649201C08F0D7F8002827D1002101
:1027B000201C08F0E5F8002800D06FE74049201CF5
:1027C00008F0CAF80223061E009383D13D49201C5D
:1027D00008F0C2F8012335000093002800D079E703
:1027E0003949201C012508F0B7F86BE70024F7E70A
:1027F000364B0A2229000D48FFF7DDFC6AE7002569
:102800000223009366E735000123FAE76F020020F8
:10281000FE1A0100980200209C03002050030020B3
:10282000D4490100840300200BE000009403002041
:102830005404002033333333333311403AE2000081
:102840007F21010064020020C9140100240300203C
:10285000CE140100700400208096184B00247449A7
:1028600000401C4600007A44FCA9F1D24D62503F62
:1028700066666666666610404BE200009A99999912
:1028800099990F4049E20000CDCCCCCCCCCC0E4085
:1028900047E200000000704045E2000033330D4085
:1028A00044E2000033330B4043E2000042E2000008
:1028B000D31401006C04002080040020809618CB03
:1028C000002474C900401CC600007AC4D81401005A
:1028D000D24B1F78002F00D159E1D149201C08F0BC
:1028E0004FF8002800D062E1CE49201C08F034F8EF
:1028F000002800D05DE13700CB4B1968CB4B9942E3
:1029000000D15BE10A220BA805F009FA0BA908A87F
:1029100005F047FAC64908A805F0D5FA010005A850
:1029200005F03FFA012605A902A805F04CFA05A812
:1029300005F05DF9002E05D008A805F058F90BA8A0
:1029400005F055F9BB4B1B78002B00D13CE1BA498F
:102950000BA805F094F902A90BA805F0A7FAB7494E
:1029600005F0B1FA010002A805F00BFA0BA805F07A
:102970003EF90621049B49425943B14E6631029B00
:102980000A2289B23000FFF716FCAE49AE4802F0C9
:10299000CBFB0022AD4B01921B78934265D0AC4B30
:1029A0001B78023B012B2AD803F088FCFA21A94BA3
:1029B00089001B68C01A07F009FE0A2201000BA853
:1029C00005F0ADF90BA908A805F0EBF9984908A89E
:1029D00005F079FA010002A805F0D3F908A805F07E
:1029E00006F90BA805F003F90821049B4942594355
:1029F0004A3189B2029B19223000FFF7DCFB00222A
:102A0000934B01921B78032B2FD103F057FCFA2133
:102A1000904B89001B680126C01A07F0D7FD08F00B
:102A2000EFFC011C201C08F04FFB0021041C07F0E8
:102A3000A7FF002800D1D2E08749201C07F0AAFF99
:102A4000002800D1061C7323F6B20193002E0CD08F
:102A50008149201C08F060F98049041C07F090FFB0
:102A6000002800D0C0E0682301937D4B009A08A89D
:102A7000995C05F023F908A905A805F092F97949B0
:102A800005A805F020FA060001990BA805F016F933
:102A90000BA9300005F00AFA010002A805F071F94F
:102AA0000BA805F0A4F805A805F0A1F808A805F002
:102AB0009EF80921049B49425943614E803189B2F5
:102AC000029B19223000FFF776FB002F0BD0192252
:102AD0000A21654B3000FFF76EFBDC211E22090145
:102AE000012004F045FD6149574802F01DFB4B4BA6
:102AF0001B78002B10D1201C0AF060FA5C4A5D4B59
:102B000007F0F0FE002800D071E00021201C07F043
:102B100023FF002800D071E00021201C07F030FFC7
:102B2000002865D05449201C012707F033FF0028F6
:102B300000D1071CFFB2002F62D00022211C0BA87D
:102B400005F054F90BA908A805F02BF94B4908A882
:102B500005F0B9F9010002A805F013F908A805F07D
:102B600046F80BA805F043F81421049B4942594349
:102B70007D3189B2029B40223000FFF71CFB3248B6
:102B800001F0DBFF02A805F032F80FB0F0BD3C49C0
:102B9000201C07F0F5FE00280DD13A49201C07F053
:102BA000DBFE002800D1A7E60127364CA4E61C4C2A
:102BB000A2E61C4CA0E60127314C9DE6324905A84F
:102BC00005F05DF80026AEE6304E0BA8310005F0AA
:102BD00056F802A90BA805F069F93100C0E62C49A6
:102BE000201C07F0C3FE2BE737001C4C3BE7294CA9
:102BF0002949201C012707F0B9FE98E70024F7E7D0
:102C00002A00551EAA41211C01320BA805F0EEF83E
:102C10000BA902A805F0CFF8A3E7C0466502002083
:102C20000080BB440080BBC408000020FFFF000000
:102C3000DD140100A0020020DF140100E1140100F6
:102C400094030020F73201009C030020640200205E
:102C5000240300206802002000006145003C1C465F
:102C6000EF140100E3140100E5140100BC3D010074
:102C70000AD7A3703D0AB7BF00007A442E21010095
:102C800000803B45000020C1FE1A01000D1B010021
:102C9000000061C50AD723BC00007AC402220F4B92
:102CA0001A7080220E4B92019A618022D2015A61E1
:102CB000802212025A610B4A1278002A0AD080211F
:102CC000094A09011160802252015A618022074B92
:102CD000D2001A600222064B1A7070479802002038
:102CE000004400416C02002098440041944400419B
:102CF000A802002001220F4B1A7080220E4B920175
:102D00005A618022D2019A61802212025A610B4AD2
:102D10001278002A09D08021094A09011160802116
:102D2000490199618023DB0013600222054B1A7070
:102D30007047C04698020020004400416C02002009
:102D400094440041A802002000220F4B1A708022F8
:102D50000E4B92015A618022D2015A6180221202E6
:102D60009A610B4A1278002A0AD08021094A090187
:102D70001160802252015A618022074BD2001A60F2
:102D80000222064B1A70704798020020004400414E
:102D90006C0200209444004198440041A8020020A5
:102DA000012310B5084C22785340237003F086FAB3
:102DB000064B21781860042003F074FD21780D2063
:102DC00003F070FD10BDC0466E02002038030020E5
:102DD000012310B50A4C22785340237003F06EFA99
:102DE000084B0A2118602378002B01D0802189002C
:102DF0000E2003F041FC21780B2003F053FD10BDA1
:102E0000650200203C03002010B503F057FA044B84
:102E1000044A1860012311784B40137010BDC0465E
:102E2000A40200206402002070B502000D0004001E
:102E30000749012004F09CFB002D07D00A2003F075
:102E400073FA22000349012004F092FB70BDC046D2
:102E50005A10000094110000022210B50E4C002000
:102E600023789343237003F0C3FB627ED209FCD125
:102E70006178803A0A436270084AA280084A126860
:102E8000D2B2A2700722E2702178053A0A4322707A
:102E9000627ED209FCD110BD004000421102000048
:102EA0005C02002070B518256843144C144B2018A0
:102EB000067C1F201A690640824332431A61192298
:102EC000002903D069436418227C024019690D4827
:102ED000120201400A431A615A7ED209FCD1197BC1
:102EE00002320A431A731A7ED207FCD501221A76DF
:102EF0005A7ED209FCD1588B00B270BD047A010011
:102F000000400042FFE0FFFF10B503F0D7F9064C88
:102F10002368C01A054B984205D9A522044B1A72A2
:102F200003F0CCF9206010BD78020020571B000090
:102F30000010004070B5334D2C6803F0BFF9FA2142
:102F4000314B8900E418201A07F040FB2F4B304E1C
:102F50001B88304C3060A3420AD02F4A93420BD1D9
:102F60002E4B1B78002B03D12D4B1B78002B03D04D
:102F700003F0A4F93460286003F0A0F92B68294A13
:102F8000C01A294B90422ED901241C7003F096F9E7
:102F9000264E3368C01AFA235B0098420DD903F01D
:102FA0008DF9234B30601A78514251411970002A33
:102FB00015D12049200004F0DBFA03F07FF92B68DB
:102FC000C01A1D4B98421CD901211B2003F03AFC6A
:102FD00000211B2003F066FCFFF796FFFCE72000B2
:102FE00004F0B2FAE9E71A78002A0AD00022104960
:102FF0001B200A7001211A7003F054FC012004F018
:10300000A3FA70BD2C030020B4290900A2020020FD
:1030100008000020FFFF0000FEFF000075020020F6
:103020000600002038140900A10200209C020020A4
:10303000A00200206F0F0000C0270900154B164AA0
:1030400010B59A60154A5A605A78D209FCD11449D1
:10305000144C59802270E379DB09FCD122790133C9
:1030600013430F222371637893431A000A231343F7
:1030700004226370237893432370E379DB09FCD146
:10308000FFF742FF0223227813432370E379DB0921
:10309000FCD110BD000C004002040000020311002E
:1030A0000342000000100040054B10B518680549A8
:1030B00008F00AF8044907F02FFE044B186010BD11
:1030C0003403002000007A4400FEFF463003002055
:1030D0000A4B10B51B88002B05D10622084B1A603D
:1030E000FFF7BAFE10BD012B02D1054B0422F6E713
:1030F000022BF5D1024B0822F1E7C0460400002064
:103100005C02002037B51B4C1B49200003F0AAFCD1
:103110001A49200003F095FC194B0A221968200077
:1031200003F0F1FC1749200003F08BFC164B0A2238
:103130001968200003F0E7FC1449200003F081FC2B
:10314000134B0325186809F039FF009502000B00A6
:10315000200003F0B8FD0F49200003F072FC0E4B75
:10316000186809F02BFF009502000B00200003F007
:10317000AAFD37BD80150020751701008F170100CB
:10318000440300209717010040030020A01701000E
:1031900028030020A61701003403002010B5264C98
:1031A0002649200003F05EFC2549200003F049FC7D
:1031B000244B25491B78002B0CD02449012B09D026
:1031C0002349022B06D02349032B03D02249042B89
:1031D00000D02249200003F045FC2149200003F0E3
:1031E00030FC204B20491B88002B06D01F49012BA7
:1031F00003D01F49022B00D01849200003F032FCF5
:103200001C49200003F01DFC1B4B19881B4B9942E5
:1032100008D11B49200003F025FC1A49200003F0C7
:1032200021FC10BD184B994201D11849F2E70A223E
:10323000200003F068FCF0E780150020AB170100C8
:10324000BE1701006D0200207016010088160100F3
:103250009D160100B3160100C9160100CD1701002B
:10326000D517010004000020F71601000E17010019
:1032700026170100E7170100A2020020FFFF00004F
:1032800033170100FE1A0100FEFF00005417010071
:1032900010B53F4C3F49200003F0E4FB3E492000BD
:1032A00003F0CFFB3D49200003F0DCFB3C4920004C
:1032B00003F0C7FB3B4B0A221978200003F039FCCE
:1032C0003949200003F0BDFB384B0A221978200051
:1032D00003F02FFCFFF716FFFFF760FF34492000D3
:1032E00003F0C0FB3349200003F0ABFB0A22E121CD
:1032F0002000914003F003FC2F49200003F0B2FBB3
:103300002E49200003F0AEFB2D49200003F0AAFB5C
:103310002C49200003F0A6FB2B49200003F0A2FB60
:103320002A49200003F09EFB2949200003F09AFB64
:103330002849200003F096FB2749200003F092FB68
:103340002649200003F08EFB2549200003F08AFB6C
:103350002449200003F086FB2349200003F082FB70
:103360002249200003F07EFB2149200003F07AFB74
:103370002049200003F076FB1F49200003F072FB78
:103380001E49200003F06EFB200003F063FB10BD1C
:1033900080150020F0170100031801001618010025
:1033A0001C180100060000202918010075020020E9
:1033B0003718010053180100721801007818010035
:1033C000A4180100BB180100011901003B190100FC
:1033D000531901006E190100A6190100D31901004B
:1033E000F1190100141A0100331A0100521A0100E8
:1033F000731A0100941A0100B51A0100D61A0100CF
:1034000010B50C4B02001978012910D002394B1E5F
:103410009941094B49421940084BC918002A00D16B
:103420001432012004F0A4F8FFF7D8F810BD0449C5
:10343000F4E7C04698020020E0FDFFFF4D0A0000BF
:103440002D090000F8B502F039FFC14F3B68C01AE2
:10345000312847D9BF4BC04C1B78002B22D020000D
:1034600002F00AFBBD4D0A220100280003F047FBD1
:103470000921280003F0E9FA2000103002F0FCFADC
:103480000A220100280003F03AFB0921280003F07A
:10349000DCFA2000203002F0EFFA0A2201002800B6
:1034A00003F031FB2000203002F0E6FA0600200095
:1034B000103002F0E1FA0500200002F0DDFA04000D
:1034C00002F0FCFEC82338605B00A54F9E420AD97B
:1034D0009D420CD99C420AD902F0F0FEA14B186023
:1034E00001233B70F8BD9D4201D89C4253D902F0A4
:1034F000E5FE9C4B1860FF233B7091339E4200D841
:10350000F9E09D4200D90EE19C4219D8964E3368ED
:10351000002B02D102F0D2FE3060944B1B78022BBC
:103520003FD0934B1B78002B3BD1FFF7B7FB142008
:10353000FFF766FFC8235B009C42D3D99D42D1D8D8
:1035400002F0BCFE8B4B1B68C01AFA239B0098420A
:10355000C8D9FFF759FC00211420FFF765FC322081
:1035600002F0E2FE00211420FFF75EFC0022824BF5
:103570001A7002F0A3FE814B814A18600023136089
:10358000804A1360804A1360794B1B78002BA9D0C6
:10359000FFF7DAFBA6E70023734A13607B4A137038
:1035A000A9E7754B1A78002A06D0714A1278002ACA
:1035B00002D000221A70BAE73368002BBAD002F0AA
:1035C0007DFE3368C01AFA23DB009842B2D9704BF3
:1035D000704A1988914208D00122524214201A8060
:1035E000FFF70EFF00233360A4E796229200F5E771
:1035F0009C426FD85C4C2368002B02D102F05EFE27
:1036000020605A4B1B78012B09D0594B1B78002B9B
:1036100005D1FFF76FFB1420FFF7F2FE62E7564B70
:103620001A78012A06D0524A1278002A02D00122C2
:103630001A70F0E72368002B00D153E702F03EFE3A
:103640002368C01AFA23DB00984200D84AE7484BA7
:103650001B78002B05D000224B4B1A601420FFF77B
:10366000CFFE002323603DE7434B1A78022A0ED099
:103670002A78002A14D0454E3278002A10D102321E
:1036800014201A70FFF7BCFE012333702AE72A7852
:10369000002A05D03D4E3278002A01D10332EFE7EF
:1036A0002368002B00D11DE702F008FE2368C01A32
:1036B000FA23DB00984200D814E72B78002BD0D0F7
:1036C00002F0FCFD2D4B2E4A1860002313602D4A9A
:1036D0001360C3E702F0F2FD2F4B1B68C01AFA23F8
:1036E0009B00984200D8FDE6FFF772FB0021032003
:1036F000FFF79AFBF6E69D4200D979E79C4200D895
:10370000F0E6194C2368002B02D102F0D7FD2060AF
:10371000164B174D1B78002BA6D02B78002BA3D16E
:10372000FFF712FB77E79C4200D9DBE602F0C6FD0B
:103730001A4B1B68C01AFA239B00984200D8F9E67E
:10374000FFF72EFB00210320FFF76EFBF2E6C046D9
:1037500088030020740200205403002080150020FC
:10376000900300202C0300208C03002098020020EE
:1037700064020020A402002024030020680200202C
:10378000800400206C040020700400208C020020C3
:10379000A2020020FFFF00003C03002038030020AD
:1037A000F7B5324E0327300001F0BAF93000304946
:1037B00001F0BAFC2F4C304B2500B8352B602F4957
:1037C000200003F03EF930002D4901F0ADFCA023AC
:1037D0005B032B602B49200003F033F92A4B0A22AC
:1037E0002B602A4B2000196803F089F9284B0A2224
:1037F0002B60284B2000196803F081F980239B037C
:103800002B602549200003F01CF9244B2B60244B2E
:10381000186809F0D3FB009702000B00200003F0AA
:1038200049FAB0239B032B601E49200003F009F9DD
:103830001D4B2B601D4B186809F0C0FB0097020060
:103840000B00200003F036FAE0239B032B6018499D
:10385000200003F0F6F8174B17492B60200003F007
:10386000F0F8300001F069F9F7BDC0469C03002074
:1038700068290100940300200F000A009814010039
:103880007F210100A6140100400014004403002021
:103890006000140040030020AF140100400020002D
:1038A00028030020B714010040002C00340300203E
:1038B000BF140100400038001618010010B5094B74
:1038C0001B78002B01D0FFF76BFF074B074A1A60EC
:1038D000BFF34F8F064B074ADA60BFF34F8FC046E6
:1038E000FDE7C0466F020020FC7F0020EF6916F064
:1038F00000ED00E00400FA0513B504000191FEF7A5
:1039000048FC01A92000FEF73DFC13BD13B50400DF
:103910000191FEF73EFC01A92000FEF733FC13BD28
:1039200010B5044B011C18600348FFF7EFFFFFF7C9
:10393000BBFB10BD34030020F40200200122F0B5CF
:10394000B84E97B033680400B74F13420BD1B74D50
:103950003900280004F093F90123B54AB54928003D
:10396000336006F003FE390004A804F088F902F081
:10397000A5FCB14B1860632C00D179E276D83F2CBE
:1039800000D1E9E12CD80D2C00D1C2E213D80A2CC9
:1039900000D1BEE2210013A804F090F9A34C13A9B2
:1039A000200004F06EFA13A804F021F9A368502B4C
:1039B00000D8C6E0FAE23C2C00D1D3E03E2CE9D19D
:1039C0009E4C206809F0FAFA9D4A9E4B07F058FD7C
:1039D00009F046FB2060FFF7A3FF9B4D9B4920E0C9
:1039E0005D2C0DD02BD85B2CD4D1994C206809F0DC
:1039F000E5FA934A974B08F0DBFE09F031FB2060B3
:103A0000934C206809F0DAFA8D4A8E4B07F038FDA6
:103A100009F026FB011C20608F48FFF777FF8A4DD5
:103A20008E49280003F00DF8206809F0C7FA0B0052
:103A3000032102000091280003F045F981E0612C88
:103A400000D16EE1622CA5D1854B7F481A78854B59
:103A5000002A00D1CBE01A785142514119708249B5
:103A6000002A00D0814902F0FDFF6AE0732C00D1EA
:103A70003EE136D8672C00D18CE01AD8662C89D16B
:103A80007B4C23780133DBB2052B00D9B2E0794DB2
:103A90002370237813AE28003370FEF77AFB3100D1
:103AA0002800FEF76FFB2378002B00D0A4E07249BA
:103AB00029E0692C00D190E0722C00D06AE7624DB9
:103AC0006E49280002F0BDFF1F24013CE4B2002C27
:103AD00054D00A2002F028FC2E21280002F0B5FF65
:103AE000F3E7762C00D13AE10FD8742C48D0752C2E
:103AF00000D04FE7624A1378594259411170614929
:103B0000002B00D060495048ADE77B2C1ED000212F
:103B10007D2C00D03EE75D4B01311B784A4C002BD9
:103B200017D05B4D5B482B68C9182960FFF7E4FE8E
:103B30005949200002F085FF0A222968200002F07E
:103B4000E2FF04A804F053F817B0F0BD0221494287
:103B5000E1E7524D52482B68C9182960FFF7CCFEA7
:103B60005049E6E7354C206809F028FA344A394BC9
:103B700008F01EFE09F074FA206021E7FFF79EFEB0
:103B8000494A13785942594111704849002BBAD01B
:103B90004749B8E7474A1378594259411170464995
:103BA000002BB0D180248020444B24011B78444A50
:103BB00040014449022B09D1434D2C605061002B38
:103BC00009D1414B8022D2001A609CE73F4D2C6006
:103BD000012BF3D190613D4BF4E7FFF7F9F82B4B44
:103BE0003B491B78002B00D08DE73A498BE71A70D0
:103BF000394938E700234AE73849012B00D182E7E9
:103C00003749022B00D17EE73649032B00D17AE7F2
:103C10003549042B00D176E73449052B00D090E7D5
:103C200071E7C0467C020020FE1A010080020020DD
:103C300000000020EF7B00002C0300203403002054
:103C4000FCA9F1D24D62503F801500200B160100F7
:103C5000280300204D62603FAC020020B615010031
:103C600066020020060000208F150100A215010049
:103C70006D0200200C030020611601001C160100DB
:103C800075020020F31401000715010065020020F1
:103C900040030020C4020020D1150100440300208D
:103CA000DC020020EE150100740200201C1501004A
:103CB000301501006C0200206115010098020020FF
:103CC00000440041451501009844004194440041DE
:103CD0007E150100861501003616010079160100D7
:103CE0008E160100A4160100BA160100CD160100BF
:103CF000B14A138801339BB2022B10D8138013886A
:103D0000AE49002B05D0AE49012B02D0022B03D1C6
:103D1000AC49AD4802F0A6FEFFF7DAF911E700233F
:103D2000ECE79625A94CAD002388A748AB4206D105
:103D3000A74902F097FE01235B42238001E7A54AD1
:103D4000934204D1A44902F08DFE2580F9E6A349EF
:103D500002F088FE0223EFE7FFF79AFAF1E602F09D
:103D6000B3FA102104001120FFF79CF8050002F0BF
:103D7000ABFA9B49041B10A803F081FF0A22210023
:103D80000DA803F0CCFF0DA910A804F08FF8954EF4
:103D9000310004F098F804000A22290013A803F067
:103DA000ACFF13A9200004F081F8010004A803F07F
:103DB000E8FF13A803F01BFF0DA803F018FF10A8DD
:103DC00003F015FF804C0499200002F04BFE02F036
:103DD0007BFA002105001320FFF764F8070002F0CA
:103DE00073FA8149451B10A803F049FF0A222900F4
:103DF0000DA803F094FF0DA910A804F057F83100A6
:103E000004F061F805000A22390013A803F075FFD9
:103E100013A9280004F04AF8010004A803F0B1FF38
:103E200013A803F0E4FE0DA803F0E1FE10A803F0D0
:103E3000DEFE0499200002F015FE6C4913A803F081
:103E40001EFF6B4B0222196810A803F0CFFF10A9C8
:103E500013A804F02BF8010004A803F092FF10A8A7
:103E600003F0C5FE13A803F0C2FE04992000FAE592
:103E7000604C0AA8210003F002FF5F4B0A22196878
:103E800007A803F03AFF07A90AA804F00FF82100D9
:103E900004F019F80500594B0A2219680DA803F01F
:103EA0002CFF0DA9280004F001F8210004F00BF804
:103EB0000500534B0322196810A803F097FF10A9BF
:103EC000280003F0F3FF210003F0FDFF04004D4B39
:103ED0000322196813A803F089FF13A9200003F037
:103EE000E5FF494903F0EFFF010004A803F049FF93
:103EF00013A803F07CFE10A803F079FE0DA803F0D0
:103F000076FE07A803F073FE0AA803F070FE04997A
:103F1000F9E500243D4E2C48316802F0A3FD0394DE
:103F2000039A3A21300003F0E2FF00283ADB431CF9
:103F30000393039AB368310013A803F0E7FF13A8B3
:103F400004F012F8051C13A803F051FE032C04D84A
:103F5000200006F01DFB040F1A220134E0E7281CA4
:103F600007F0E4F9244B010018602948FFF7C4FC6E
:103F70000124D5E7281C07F0D9F9204B010018606F
:103F80002448FFF7B9FC0224CAE71D4B291C22482C
:103F90001D600324FFF7BAFCC2E7281CFFF7C0FC32
:103FA0000424BDE7002C01D0FFF7ACF83900174816
:103FB00003F011FFC5E5C04604000020E41601002F
:103FC000FB1601001317010080150020A20200203B
:103FD0002B170100FEFF00003C1701004C170100E9
:103FE0005A17010060170100641701006A170100E9
:103FF00054040020BD1401004403002040030020AD
:1040000028030020340300207017010080020020E4
:10401000DC020020C4020020AC02002073B5284B53
:10402000284D294A2B602B00B4331A602B00002442
:10403000264EB83330006C601C6001F02FFA244B20
:1040400030002B60234A244B244900F0CFFDFF238E
:1040500030001A00190001F0D6FD214D2200280081
:1040600000940223082101F03FFD28002200009463
:1040700002230921103001F037FD2800022322001D
:1040800000941221203001F02FFD0422154916481A
:1040900001F01AFC04221549154801F015FC042210
:1040A0001449154801F010FC04221449144801F089
:1040B0000BFC01221349144801F006FC73BDC046F5
:1040C0000C14010094030020895400009C0300207C
:1040D000241401001D5C0000355B000054730100D6
:1040E00054030020001F0100DC020020001E01001C
:1040F000C4020020001D0100AC020020001C0100D1
:10410000F4020020002001000C030020F0B5322052
:104110009BB002F009F9BD4C200001F011FE3C21DA
:10412000200001F03BFE200001F0ADFE061E00D095
:10413000B8E0B749B74802F084FC0A223C21B548F0
:1041400002F0E1FCB44C200001F062FB200000F022
:1041500039FD3100200001F062FBB04BB04A1A6219
:104160000122B04B1A7001210E2002F06BFB0021DE
:10417000112002F067FB0021102002F063FB0021F8
:10418000132002F05FFB02211B2002F05BFB0121E8
:104190000B2002F057FB01210D2002F053FB0121FF
:1041A000042002F04FFB0121080002F04BFB8022AB
:1041B0009D4B92019A608022D2019A6080228021D8
:1041C00012029A60994A090111608021490199609F
:1041D0008023974CDB001360200001F0F5FB2000EA
:1041E000103001F0F1FB2000203001F0EDFB0A203F
:1041F00002F0F8F90A210E2002F03EFA8D4B1A88DF
:10420000002A01D1023A1A8001AD29008A48FDF73F
:10421000C6FF2A78894B290089481A70FDF7BFFF2D
:10422000019A884B290088481A60FDF7B8FF019B66
:10423000864F290086483B60FDF7B1FF019B854C06
:10424000290085482360FDF7AAFF844E019B336057
:10425000FEF73EFF0021306806F078FB002814D0FE
:104260007F48FFF75DFB0021764B75481960FE2300
:104270009B0539602360FFF73FFB39687248FFF701
:104280003BFB21687248FFF741FBFEF70DFF0A2454
:104290000023744E33700023F356002B07D1FFF731
:1042A000D1F8F8E770495B4802F0DCFB5BE7013CC2
:1042B000002CEDD1012B01D1FFF700FB594B1B78EE
:1042C000002B24D0FFF76CFA64226849280008F01C
:1042D000F5FF2B19285B5E8807F048F8FC211727AB
:1042E000890506F0F1FE08F069FE614B002207F037
:1042F000C7F806F059FB774301003A00012003F0AC
:1043000037F90434700102F00FF8642CE1D15949F7
:10431000404802F096FBE1210A2289023D4802F062
:10432000EEFB55493B4802F08CFB9620800001F0E3
:10433000FBFFE121514C8902200003F023FA504990
:10434000200002F07EFB01F0B9FF060001F0B6FF8D
:104350004C4B801B984211D8200003F037FB0228F9
:10436000F4D1200003F01AFC4F28EFD1200003F015
:1043700015FC4B28EAD10122434B1A70424E4349A7
:104380003378002B00D14249224802F05AFB33789F
:10439000002B2ED13F49200002F053FB01F08EFF8D
:1043A000070001F08BFFC01B31281AD8200003F052
:1043B0000DFB0428F5D1200003F0F0FB4F28F0D1CD
:1043C000200003F0EBFB4B28EBD1200003F0E6FBD1
:1043D0000D28E6D1200003F0E1FB0A28E1D10123FA
:1043E000337033782949002B00D12B49094802F05A
:1043F00039FB3278294B1A70FEF74AFFFEF71EFE92
:10440000FEF74CFCFEF7CCFC1BB0F0BDA40C00206A
:104410003D210100801500209C0300209403002012
:10442000006A18006F0200200044004188440041E7
:1044300054030020A20200200C0300206D02002083
:10444000DC02002044030020C402002040030020BE
:10445000AC02002028030020F402002034030020D6
:1044600033335340900300204E21010034140100E7
:104470000000E03F5F210100742101006012002074
:10448000111A0100E703000066020020002101006C
:10449000042101007C2101003021010006000020E0
:1044A000F0B5102187B01120FEF7FCFC06F05EFF8E
:1044B000C24B186008F082FDC14B04001B780D0050
:1044C000002B36D0BF4B186808F00CFD0022BE4B05
:1044D00007F0F2FA02000B002000290006F0D0FFDE
:1044E00008F0BEFDB94B1860B94B196806F0ECFD39
:1044F000B84B196806F0E8FD051C01F0DFFEB64B6D
:10450000B64E1860B64B291C1C78A400A05906F0C2
:1045100069FAFE21B34FA0518905E05906F062FA0D
:10452000B14AE05113680133072B04DC136007B074
:10453000F0BDAE4BC7E70023082500241360AC494B
:10454000201C06F0C1FD7B59041C0021181C01939E
:1045500006F0FCF9002808D10199705906F0DCFB3F
:10456000011C201C06F03EFA041C002373517B51F1
:10457000043D2B1DE3D19F4A1378002B02D0013B51
:104580001370D4E79C4D9D4E2868211C346006F0C2
:1045900029FA9B4A9B4F136828603D6801331360DA
:1045A0000021281C06F0ECF9002802D180231B060C
:1045B000ED180021201C06F0E3F9211C002802D18F
:1045C00080231B06E118281C06F0C6F9002800D03D
:1045D0003C6001F073FE8C4C2368984225D301F0B7
:1045E0006DFEFA239B00C018206000211320FEF707
:1045F00059FC06F0BBFE08F0E1FC0022834B07F0FB
:104600005BFA834B040018680D0008F0D7FC020029
:104610000B002000290007F059FE7E4B002207F016
:1046200055FE08F01DFD7C4B18607C4C200002F00C
:104630006BFE002806DD200002F089FEC0B2FFF705
:104640007DF9F2E7764B1B78002B0FD0754903A854
:1046500003F015FB03A8FDF7B3FD002803D0039971
:10466000200002F0FFF903A803F0C1FA00226E4B0C
:104670001A706E4A1278002A11D00122694903A8E3
:104680001A7003F0FCFA03A8FDF79AFD002803D086
:104690000399674802F0E6F903A803F0A8FA504B23
:1046A00034681D78002D0BD0201C08F087FC614A6F
:1046B000614B07F00BFE08F0D3FC013D041CF1E751
:1046C0005E4B1B78002B1BD001F0F8FD5C4B1B6888
:1046D000984215D93A4B1B78002B62D05949201CBF
:1046E00006F03AF9002805D15749201C06F048F990
:1046F00000283AD03A4B1B78002B31D1FEF7FAFA5A
:1047000001F0DCFD514C2368984222D301F0D6FD24
:10471000F530FF3020603A4C374D206806F026FE19
:10472000011C286806F0F8FA494B011C18600023A8
:104730002B6000232360474C206806F053F9FE21CC
:104740002060454C8905206806F04CF92060FDF793
:1047500045FFFEF7D9FBFEF775FEFEF7EBFBE6E63D
:10476000012BCDD1FEF79AFACAE7201C08F026FCEF
:104770003A4A3B4B04000D0006F0C8F80028BFD0B1
:1047800020002900354A374B06F0ACF80028B7D096
:10479000134B1B78022BB1D0012BB1D1FEF7D4FA09
:1047A000AEE73149201C06F0EBF80028A2D1201C0E
:1047B00008F004FC294A2D4BE6E7C04650040020CF
:1047C0006502002040030020000024405C0400201B
:1047D0003003002028030020700200207404002011
:1047E000980200206004002094020020440300206E
:1047F00000007A44A80200204C030020840400201A
:10480000900200207004002058040020C0FFDF4008
:10481000340300200000F83F5404002080150020DD
:1048200075020020FE1A010084030020060000200B
:1048300060120020FCA9F1D24D62503F64020020BA
:10484000600200200000AFC40000AF444803002015
:1048500050030020800400206C040020CDCCCCCC80
:10486000CCCCF4BFCCCCF43F00002F45CCCC0440E2
:104870004378DB09FCD1704701235B42038003339B
:1048800083700023C370037180239B01C3803F2387
:1048900003727047F8B50F0009783E4A4B09DB01F7
:1048A0009B181F2211401E3A04008A400F2965D927
:1048B0008020110C00060143374804260143996209
:1048C00020005A60FFF7D4FF022223782000934390
:1048D0002370FFF7CDFF0822237920009343237133
:1048E0002379053AB3432371237901259343237137
:1048F000FFF7BEFF6022237B200093432373FFF763
:10490000B7FF1022237B200093432373FFF7B0FFF0
:104910000F22237B20009343237363792B4363711E
:1049200023781E432670FFF7A3FF0222237A20007C
:1049300013432372FFF79CFF237A20002B4323723B
:10494000FFF796FF0123FB56072B1ADC2000FFF729
:104950008FFF0122BA56237D95401D43EDB2257588
:104960002000FFF785FF2000FFF782FF0223227857
:10497000200013432370FFF77BFFF8BD91B20020A6
:1049800099E70F2BEFDC083B9D40627D1543EDB2AC
:104990006575E8E70044004100000151042370B54B
:1049A0000400022502780E0013430370FFF760FF36
:1049B000237820002B432370FFF75AFF237A20002F
:1049C0002B432372FFF754FFA37A20001D43A572E7
:1049D0000125FFF74DFFA37A20002B43A372FFF7B9
:1049E00047FF2000FFF744FF0123F3560022072B67
:1049F0004DDC9D40EDB2257462742000FFF738FF56
:104A00000321F278E37E0A408B431343E3762000D0
:104A1000FFF72EFF0721B278637B0A408B431343D5
:104A200063732000FFF724FF32791023002A34D16A
:104A3000227B9A4322730F22237B93433F252373C8
:104A40002000FFF715FFF3882000DAB22276627E9D
:104A50001B0AAA432B4013436376FFF709FF327A00
:104A6000A37E2A40AB431343A3762000FFF700FF49
:104A7000A422631CDA772000FFF7FAFE8023627B12
:104A80005B42134363732000FFF7F2FE70BD083BE7
:104A90009D40EDB222746574AFE70F21227B134372
:104AA00023737279237B0A408B431343C6E7437B0E
:104AB0000120DB095840704710B50400FFF7D8FE0D
:104AC000237F607F0002184310BD0300F0B5503310
:104AD0001B7885B0029303000500002651331F7830
:104AE00003685B7C03932B68B0B21B7CF4B2D900E3
:104AF0004143E86C89B241183A190091D2B20021C1
:104B0000280000F071FE0134029BE4B2A34205D9F3
:104B10000136BB19039ADBB29A42E4D805B0F0BD66
:104B200010B5036800211A7C030050331B78C06C59
:104B3000DB005A4308F0DEFB10BD10B50400FFF7A0
:104B4000C4FF200000F072FE10BD030010B5040089
:104B500051331970836C1B689847A36C20005B6805
:104B6000984710BD030010B5AB331B780400002B31
:104B700001D0FFF7D5FF00212000FFF7E6FF10BDB1
:104B800070B50400FFF7A1FF230051331D78013BEE
:104B90001B78ED182368EDB25B7CAB4204D8200093
:104BA00000F044FE002070BD2300AB331B78002BC7
:104BB00002D02000FFF7B4FF20002900FFF7C5FF57
:104BC0000120F0E710B50400FFF7CCFF2000FFF74D
:104BD000D7FF011EFAD12000FFF7B7FF10BD00007C
:104BE0000823037000487047880400207FB50F2514
:104BF0000E006D44009308491300084A040000F0B9
:104C00003DFE2800FFF7ECFF2A7801000096044BD8
:104C1000200000F017FC7FBD45570000AD55000097
:104C20008B520000411808784B780002C01880B2FF
:104C300070470020704770B50B780D0003704B78FB
:104C4000040043708B788370CB78C3700B79037149
:104C50004B7943718B798371CB79C3710B7A037272
:104C60004B7A43728B7A8372CB7AC3720B7B03735A
:104C70004B7B43738B7B8373CB7BC3730B7C112187
:104C800003742800FFF7CEFF132160822800FFF78E
:104C9000C9FF1521A0822800FFF7C4FFE08270BD84
:104CA00070B50468067B257872183541D2B2EBB234
:104CB000072A0AD9631C036063780824A41BE4B2A2
:104CC000A340083A2B43DBB2D2B202730122524214
:104CD0008A409343180070BD70B5040000237834F7
:104CE0008167237303000500903319782000FFF7D4
:104CF000D7FF2B00A072913319782000FFF7D0FF67
:104D0000AA35E0722B78A3735A425341E37370BD06
:104D100010B50C00FFF7C4FF0123013CE4B2A3402F
:104D2000C01A40B210BD012B08D0002B03D0022BBB
:104D300006D0401A00E0801880B270474018FBE7A8
:104D4000801AF9E7012B08D0002B03D0022B06D0E4
:104D5000801800E0401880B27047801AFBE7401AC4
:104D6000F9E70300F0B504000F008DB00B92783323
:104D70001A7A04925B7A079325007835AB7A049A05
:104D80009B1ADBB20593059A3B1C974201D96B46EF
:104D90001B7DDBB20893EB88A88810260A936B462C
:104DA0009E571B7F31005BB206932B7C069A0393C0
:104DB000FFF7C8FF039B0990069A31000A98FFF796
:104DC000B2FF0B9B0200002B17D0A97B2300AA3354
:104DD00019706B4603991B8C20000091099900F013
:104DE000BCF9059B9F420DD3FF1A079BFFB201330D
:104DF000DBB2079300230493BEE76B7B002BF0D15B
:104E0000E97BE3E7049B7834FB1823726B461B7E37
:104E100063720DB0F0BDF0B5040089B00700FFF774
:104E20005BFF230083331B7878375BB20293230048
:104E3000923319783800FFF76BFF23000690933305
:104E400019783800FFF764FF2300943319780500C0
:104E50003800FFF75DFF0A230790FB560393002BF2
:104E600059DD029B06995B195B425BB205933B7C63
:104E7000059A0493B888FFF765FF049BB880059AEC
:104E8000069906000500F888FFF74DFF049B020015
:104E90000100F880032B62D8180005F079FB023F6F
:104EA0004956039B0298F5181118ABB289B20091CC
:104EB0002000310000F0D0F900282CD0230000227F
:104EC000012580331A8023008E3319783800FFF7CC
:104ED000E7FE230003908F3319783800FFF7E0FED8
:104EE0000600002203992000FFF73BFF310020005D
:104EF0002A00FFF736FF29003800FFF7D1FE00280F
:104F0000EFD12300092278339A5602998A42DADBDC
:104F10009B7BAA342370079809B0F0BD029B0398CD
:104F2000F61A013511180136ABB289B2B6B2BEE736
:104F30000122039B0298D61AAE19AD18121A8A18CC
:104F40000131ABB289B292B2F0E7039A029B8A1A9E
:104F5000F51801320131ABB289B292B2A7E7330042
:104F6000A5E7F8B5046F0D001734FF2912D86029A2
:104F70000AD9A0300388E4186078002803D0237889
:104F8000AB4205D1A01CF8BD4029F5D99E30F1E710
:104F90002418F1E7A23000880227241826000021F7
:104FA0003000FFF73FFE390024183000FFF73AFECB
:104FB00004368542F3D8607823780002184340BA5B
:104FC00080B20028DFD0854201D1E01CDBE7A37866
:104FD000E418F0E7F8B51F000300883304001878E0
:104FE0000E001500032808D8636F05F0D1FA0217E8
:104FF0001C20200098472D18ADB223007C333900C7
:105000001E805D802000FFF7ACFF01000020814280
:1050100003D02000FFF7FFFE80B2F8BD20009847C4
:10502000361AB6B2E9E7200098472D1AE4E72000C7
:1050300098473618F5E70000F7B51F0006000C008A
:10504000150000F02BFA00230193736839783000C3
:105050009847134A030090421FD0124A01379042EA
:10506000F3D02A0021003000FFF7B4FF320088326D
:1050700003001078032805D805F08AFA02080B0D02
:10508000E418A4B2019AD3189BB2DDE7ED18ADB2D3
:10509000F8E7E41AF5E7ED1AF9E70198FEBDC04616
:1050A000FFFF0000FEFF000010B5024C4460FFF758
:1050B000C3FF10BD89540000036F70B5002B1DD0D5
:1050C0000300002605000124020099339E57A635EF
:1050D0002E701C57A73214700C331B78002B0DD088
:1050E000012B0CD103009B331B785BB29E4200DA8C
:1050F0002B709C23C3569C4200DD137070BD0300CF
:10510000982196331B7841565BB25B189E4200DAB9
:105110002B708C42F2DD1170F0E70000014B436709
:105120007047C046334C0000036F10B504008B423B
:1051300006D001678C30FFF77EFD2000FFF7BCFF33
:1051400010BD37B5050056352D8806AC2478521BA6
:10515000009492B2446CA04737BDF7B50500A43562
:105160002D7808AC2478002D3FD0002B3DD0012BAA
:1051700004D9022C30D10131C91A89B201252C4041
:105180000500002C32D164352D8895422DD80500BC
:1051900066352D88954228D905000600CB18603564
:1051A00062369BB22D8836888B421CD28E4219D92A
:1051B000731E9BB29D4218D22F1C8D4200D20F1C31
:1051C000B9B2351C9E4200D91D1C6B1A856C009427
:1051D0009BB2AC68A04708E0032CCFD10132D21AB1
:1051E00092B2CBE729008E42E4D8F7BD60352D8816
:1051F0008D42FAD8050062352D888D42F5D905001B
:10520000D31864352E889BB202352D88934211D273
:1052100095420ED96B1E9BB29E42E6D2371C964237
:1052200000D2171CBAB22E1C9D4200D91E1CB31A04
:10523000CCE732009542D8D9EEE710B504008A4297
:1052400006D20120A34202D893429B41584210BD8E
:105250008342F9D80020FAE770B50D000100040080
:105260001E00663104AB64301B8809880088FFF794
:10527000E4FF002808D023006034623319882088B6
:1052800033002A00FFF7D9FF70BDF7B508AC2478CA
:105290000726019414003440A44601246546AC401E
:1052A0000500AA352F78E4B20025012F02D8250089
:1052B000012F29D0B24316000268127C724392B2C9
:1052C0005118C26C5118019A002A1FD007000126FC
:1052D000523701970A7807272A4362400A706246CC
:1052E00001321740013BBC469BB2002F18D1019AF6
:1052F000128889180200AA321278012A02D83500D1
:10530000012A11D034000FE00024D3E70A78013BD2
:105310002A4362409BB20A700131002BF6D1F7BDDF
:105320006D006400EDB2E4B2002BD3D1F7E70300C7
:10533000F0B550331D780168AAB2D4009C800400F7
:105340000B7C5234DB002380030051331F78BEB244
:10535000F300A3804C7CED19A54201DDA21B92B2A3
:105360000400D200583423809B1802005A32138064
:1053700003008A8A5C331A80CB8A5E300380F0BDDA
:1053800010B5FFF7D4FF10BD13B504AC247800941A
:10539000FFF7D7FE13BDF0B50600050007000400B7
:1053A00085B06E306A366C35683733882A8839881C
:1053B0000390008800902000FFF74EFF2300A433E5
:1053C000002802D1187005B0F0BD01221A70230028
:1053D00060333A881988914200D21A8023006233E0
:1053E00032881988914200D91A80230064332A88B0
:1053F0001988914200D21A80039B66341B88228848
:105400009A42E0D92380DEE703000022603310B522
:105410001A8002005C3212885A80020058321288C8
:105420009A8002005A321288DA80FFF7B4FF10BD6A
:10543000034B10B58366C366836C5B68984710BDE9
:105440000000FFFF70B504006364230000255033A3
:10545000E16425671A705D7035331D7022002433B6
:105460001D700123AA320498137053700368A0645E
:10547000200098472000FFF7DBFF20008834FFF76B
:105480004DFE257070BD0000002902D088B20A29A7
:1054900000D101487047C046FFFF000000230730DD
:1054A000C377704710B5130004690A001721A0479D
:1054B00010BD07B56B46DA1D11700121FFF7F2FF31
:1054C0000EBD002310B51A0004691821A04710BDB5
:1054D000002310B51A0004691921A04710BD70B54A
:1054E000040016000D00FFF7ECFF40212000FFF73D
:1054F000E0FF33002A00172125692000A84720007B
:10550000FFF7E6FF70BD10B50A00C468002315213F
:10551000A04710BD10B50A00C46800231621A0479B
:1055200010BD10B51300C4680A001721A04710BDB4
:10553000002310B51A00C4681821A04710BD00232D
:1055400010B51A00C4681921A04710BD73B5050035
:105550000C002178172918D002D815290CD273BD58
:1055600019291BD9FE29FAD16B4662782921280016
:10557000DA7100F062F906E06B4662782800DA71B1
:10558000EE680023B0470234E3E76B46DA1D637828
:10559000012128001370FFF7C4FFF4E7002328005F
:1055A0001A00EE680134B047D3E700001439F8B5AB
:1055B000040015001E000020052919D8080004F079
:1055C000E7FF3703181E4448274E3378002B02D0DC
:1055D0002000FFF77DFF2000FFF773FF0021200070
:1055E000FFF767FF29002000FFF763FF01203070FD
:1055F000F8BD11002000FFF75CFF0120F8E71A4F0B
:105600003B78002B02D02000FFF762FF3200182DFC
:1056100006D829002000FFF762FF00233B70ECE76B
:1056200018212000183DFFF75AFFEDB21836EDE7BC
:10563000631DDA7FFF2A01D1873ADA7727693300C1
:105640002A0014212000B847D2E70022064B1A7026
:10565000D3E7054D2B78002B02D02000FFF738FF51
:1056600000232B70C9E7C046880800200B39F8B525
:10567000040016001F000800042958D804F088FF11
:1056800003570C1E2D002B49002A00D02A49200068
:10569000FFF75CFF0120F8BDE51C002A07D1274970
:1056A0002000FFF753FF23689B7CEB77F2E7244948
:1056B0002000FFF74BFF2368DB7CF6E72000FFF7B5
:1056C00037FF81212000FFF71EFF31002000FFF788
:1056D00021FF2000FFF733FFDCE72000FFF728FF62
:1056E000E31C7D79D97FED006D1820004021FFF784
:1056F0000AFF1021EDB22B0919432000FFF703FF29
:105700000F2120002940FFF705FFB023B9792000C1
:105710001943FFF7FFFE3979013EC900C9B23A6863
:105720002000F6B2FFF7FDFE002EF4D1D1E70020F5
:10573000B1E7C046A3730100A873010060730100C4
:105740006773010070B504000D00FFF78FFF00289C
:105750000AD1092D0AD00A2D07D1200000F015F832
:1057600005492000FFF7F2FE012070BD034920002B
:1057700000F006F8F8E7C0466E730100B073010050
:1057800001608B7C0330C3777047002370B51A002B
:10579000282145690400A8470023E5681A00142160
:1057A0002000A847200001224B2100F046F8236882
:1057B00020001A79292100F040F8200000224B2116
:1057C00000F03BF8236820001A79292100F035F811
:1057D000200001224B2100F030F8236829215A795A
:1057E000200000F02AF870BD13B56C462371049BAD
:1057F0006171A271009384686B4601220F21A0475A
:1058000016BD002310B51A0084680921A04710BDF9
:10581000002310B51A0084680A21A04710BD10B5F6
:105820000A00846800230B21A04710BD002310B597
:105830001A0084681021A04710BD10B500234469E8
:10584000A04710BD0020704700230B4A0360826010
:10585000C26002614261021DD377C21DD3778361AA
:10586000421DFF33D377233213704230043213705A
:1058700001328242FBD1704745580000F8B5040060
:105880000F0016001D00FFF7DFFF069BA760E66014
:10589000256163612000FFF7B4FFF8BD10B5054A2C
:1058A0000549064800F010F80022054B05491A701A
:1058B0005A5410BD01040000007401008C0C00203B
:1058C000890800200204000030B5094D094CAB687E
:1058D0005B035B0F9B001C590460AB6801619BB2CA
:1058E00043606343A4008360C460426130BDC0462E
:1058F0000040004100790100F7B580261A4D019162
:105900006F6803333E439B086E60002B2BD0174E0D
:105910002E802E7DF107FCD51E000768991BBF085D
:105920008F4219D9002E17D0FF2117788C433C43A2
:105930000F4957780C403F023C439778013E3904A9
:105940000C4F2740D478BFB20F43240601993C4343
:1059500010C101910432E0E7074B2B802B7DDB0760
:10596000FCD53300D1E7F7BD0040004144A5FFFF5F
:10597000FF00FFFFFFFF00FF04A5FFFF044B054AE8
:105980004908D9611A801A7DD207FCD57047C046F4
:105990000040004102A5FFFF70B504000D00160095
:1059A000E36829002000B34205D2FFF7E7FFE36870
:1059B000ED18F61AF4E7FFF7E1FF70BD10B510001F
:1059C0001A0007F07BFC10BD052370B5C35601001B
:1059D000002001332DD072B622231648164A0370D8
:1059E000164B174E5D885C882D0514405C805C88E2
:1059F0002D0F344080265C801400F6015A88324214
:105A0000FCD15A882D0222402A435A8062B60D4AA0
:105A100004315A80222202705A8832435A808023ED
:105A2000094A1B03106A034313620848FEF732FF5A
:105A3000012070BD020C0040FFF0FFFF000C004091
:105A4000FFBFFFFF2203000000040040004C0042A3
:105A5000011D10B50748FEF7A1FF0648FFF727F81C
:105A6000002802D102F087FAF7E70248FFF724F88E
:105A700010BDC046004C004210B50400FFF7E8FF1F
:105A80000200A079062805D804F082FD05070A0C5B
:105A90000E101200074A100010BD53089AB2FAE720
:105AA0009308FBE7D308F9E71309F7E75309F5E78C
:105AB0009309F3E7FFFF000018230168094A4B43ED
:105AC000D1189B564868002B03D10238052806D808
:105AD0007047012B03D1092801D80630F8E70120CF
:105AE0004042F5E7047A0100F7B51E0008AB1B78C9
:105AF000040004300D0017000193FEF7BDFE1823CB
:105B000025605D430A4A2000AB565519013B5942B6
:105B10004B416A685B019B182371FFF7CDFF6B4611
:105B20001B796071A771E67120002372FEBDC0462B
:105B3000047A010070B5060015002B2915D8012044
:105B40002A2939D2282927D029293CD000203F29C9
:105B500032D93F23194073182C331C78FF2C2AD0DC
:105B60000F2944D82900200013E02D292FD024D359
:105B70000B004C3B012BE9D83F24214041182C312C
:105B80000C000878002A2ED1012100F05BFE2900CC
:105B9000207800F087FE0EE0002423002C33F05C18
:105BA000FF2805D001210F2C00D9022100F04AFE68
:105BB0000134162CF1D1012070BD002AFBD0102336
:105BC000013BFDD1F7E7100000F0AEFBF3E7022345
:105BD0009A4200D8033330200321584304F0F6FCE6
:105BE0000138FDD1E7E7022100F02CFEE3E71029A0
:105BF00001D102F0C0F9200000F080FE431E984160
:105C00000836F077D7E710B504003734217001006B
:105C1000393038310A70037010BD0000143970B586
:105C2000040008000C292AD804F0B2FC0D29290729
:105C300019252929292929290B001900114800F0C3
:105C400025F8012070BDA369002B04D123685A7B7D
:105C50000D4B5343A3610B4800F072F8F1E7094D77
:105C6000A1692800053400F08BF8E17F280049087D
:105C700000F094F8E5E7034800F005F9E1E70020BB
:105C8000E0E7C046A40C0020A0860100F8B505009E
:105C90000E0017000024BC4208D02B68315D1B6841
:105CA00028009847002801D00134F4E72000F8BD0F
:105CB00070470300FC33196ADA69914203D01B6A0A
:105CC000C018007E704701204042FBE70300FC3310
:105CD000D8691B6AC01A01D50130FF307047000037
:105CE000F7B50193FA238026002504009B0083600A
:105CF000124B760008330F004560290000920360C4
:105D00003200183007F0F6FA23002000FC3321306F
:105D1000DD6132001D622900FF3007F0EBFA8723B6
:105D20009B00E3185D609D606B461B7827612375BF
:105D30006B461B79A57520006375FEBD20790100B7
:105D400070B5060018250C49006901F027FA306982
:105D500001F0A2F82B000821307D084C4343E318E2
:105D6000595600F0E3FD0821707D454364196156E2
:105D700000F0DCFD70BDC046A0860100047A010081
:105D800070B504000D00006901F09BF8290020693E
:105D900001F004FA206901F07FF870BD8A23002227
:105DA0009B00C1540C3BC3185A609A600123837551
:105DB0007047020010B5FC32536894680133DBB2BF
:105DC0009C4202D054680155536010BD002210B5AA
:105DD000837D93420DD087239B00C4186368A46819
:105DE0000133DBB2A34204D02130FF30FFF7E1FFE3
:105DF0000122100010BD0300FC3399685A689142DB
:105E000006D09A68805C9A680132D2B29A60704774
:105E100001204042FBE700228A2370B59B00827577
:105E200005000E00C15C006901F07EF8002806D173
:105E30000321286901F062F80224200070BD872345
:105E400028009B00EA18536894682130FF301C1B1F
:105E500001D50134FF34002C0ED02C69FFF7CBFFA5
:105E6000C1B2200001F09EF80028E8D10321286982
:105E700001F044F80324E0E7002EDED00321286976
:105E800001F03CF8D9E710B50121FFF7C4FF10BDC0
:105E900010B51830FFF7AFFF10BD70B504000069F2
:105EA00001F0A0F8002814D0206901F0A9F800281A
:105EB00010D0206901F018F80321206901F01EF8C4
:105EC0008C239B00E558002D39D10023FC34E3617D
:105ED000236270BD206901F09DF8002809D0206977
:105EE00001F093F8002804D0206901F098F8002808
:105EF000DFD0206901F08EF8002826D1206901F05A
:105F00007AF80028E5D0206901F089F8002837D018
:105F100087239B00E218536892689B1A01D50133CE
:105F2000FF33FF21002B05D020002130FF30FFF789
:105F300062FFC1B2206901F047F8A075C9E7236884
:105F400020001B699847A847BFE7206900F0CCFFF5
:105F50002069032100F0D2FF206901F060F80028D9
:105F6000B7D0872300229B00E3185A609A60012370
:105F7000A3758B239B00E3589342AAD09847A8E7C8
:105F80002200FC32D369126A0133DBB220699342EA
:105F900006D100F0A0FF0321206900F0AFFF98E7D1
:105FA00001F042F8010020001830FFF702FF2069DD
:105FB00000F09AFFEFE7000010B50248FFF76DFF11
:105FC00010BDC046A40C002010B5152314220249B0
:105FD0000248FFF785FE10BD68150020A40C0020C4
:105FE000F0B5040085B01E000AAB1B781030019399
:105FF0000BAB1B78170002930CAB1B780D000393BF
:1060000000F076F82000243000F072F8220000231F
:106010004832A363E3632364636413705370637251
:106020009D4205D10A4B0B4A22210B4807F0BAF8D2
:106030006B461B79200063716B461B7A2560E37108
:106040006B461B7B2771A671237205B0F0BDC0465D
:1060500044790100AF790100557901001FB5094A63
:10606000094B0A49136000235371137102930133E2
:10607000019316330093162201330548FFF7B0FF52
:1060800005B000BD240F002000093D006C15002064
:10609000D80E0020094B1868002809D1EFF31082B0
:1060A0000749002A08D172B6BFF35F8F01320A7028
:1060B0001A6801321A6070470870F9E7300F002043
:1060C0002C0F0020084B1A68002A0CD01A68013ADD
:1060D0001A601B68002B06D1044B1B78002B02D0E2
:1060E000BFF35F8F62B67047300F00202C0F002087
:1060F000FF23002110B504000370FC3B4170817048
:10610000C170017143710C22083007F0F3F82000D0
:1061100010BD000001220B0010B5134008D00D4B3C
:106120001A70042343708368002B00D0984710BD79
:106130000222114204D007490A704370C368F3E792
:1061400004231942F3D0034A1370033343700369E5
:10615000EAE7C0464E48004110B5FFF79BFF0C4BE5
:106160001B8C1B071B0F0B2B0FD80A4A9900885852
:1061700000280AD00F2408490A78A24313430B7061
:10618000064B1978C9B2FFF7C5FFFFF79BFF10BD9B
:1061900000480041340F00203F4800414E48004174
:1061A00010B5024801F02EFC10BDC046640F00205F
:1061B00010B5024801F026FC10BDC0466012002058
:1061C000F7B501240326154F1549380000F0CEFD20
:1061D0001449154800F0CAFD1449154800F0C6FDE1
:1061E0001449154800F0C2FD1449154800F0BEFDE1
:1061F000144D1549280000F0B9FD39000096230020
:1062000001940022114801F091FB009629000194AD
:106210001E231F220E4801F089FBF7BD5C150020EC
:1062200000080042000C00426015002000100042EF
:106230006415002000140042681500200018004278
:106240006C15002070150020001C0042640F002017
:1062500060120020FEE7000070B50F490F4CA1420C
:1062600004D100F085F801F08DFEFEE70C4D00230F
:106270008D42F6D0CA18E818A24205D3094B8242D3
:10628000EFD00949002204E0006804331060F1E710
:1062900004C38B42FCD3E4E700000020400200204E
:1062A000A884010040020020F821002010B500F071
:1062B0005DF8002801D100F04FF810BD014B1868BF
:1062C0007047C04674150020F7B513480122844674
:1062D0001249134C8E68636805689B0E1340019247
:1062E00088686268019F920E3A4067463F68934211
:1062F0000ED1BD420CD186420AD35B19FA254868FB
:10630000AD00861B07486B437043000DC018FEBDEF
:106310003D0013000600E3E77415002010E000E0E4
:1063200000ED00E05555000070B5041E10D0FFF7D9
:10633000CBFF050001F01FFEFFF7C6FF054B401B1A
:106340009842F7D9FA23013C9B00ED18002CF3D1B9
:1063500070BDC046E703000010B5034A136801335F
:10636000136000F0C7FC10BD7415002000207047BA
:106370001E22F0B5504851494368514D93431A00CD
:1063800002231343436008238A691343FE228B616F
:106390002B68D2039B0213404A4A13434A4A936133
:1063A00013000422DC681442FCD00124474A147014
:1063B0001678264203D0567876B2002EF8DB0124F8
:1063C0009460547864B2002CFBDB414C54605478E8
:1063D00064B2002CFBDB8224E4015480547864B264
:1063E000002CFBDB02249C840E34DE682642FCD0A9
:1063F000384CDC621024DE682642FCD02C68A40EE7
:106400003F2C00D1203C9E6A334FA4023E403443CF
:106410009C629C6A314EA40AA40234439C62304CB4
:10642000DC6200249C841034DE682642FCD02D4CB3
:106430009C841024DE682642FCD002249E8C3443C7
:106440009C841024DE682642FCD00024946054789A
:1064500064B2002CFBDB244C5460547864B2002CF2
:10646000FBDB1C6A214E344080261C621C6AB4434C
:106470001C62032393601E4B536053785BB2002B66
:10648000FBDB0023FF240B721A4A4B728B72CB7218
:10649000194B1A60194A2B6811689A065B01C90EDC
:1064A0002340520F12020B431343154A13858023D6
:1064B000426813434360F0BD0040004100040040C7
:1064C000246080000606000000080040000C004028
:1064D00001040100B905FF7DFF03FFFFFF0100007C
:1064E00080BB0A1C2405000000070300FFFCFFFF1F
:1064F00003060100006CDC02240000202060800004
:1065000000400042FA212D4B10B51868890004F0B4
:106510005DF82B4B013898424FD82A492A4A4860E7
:10652000C020136A00061B021B0A034313620023E8
:106530008B6007330B608021136A09061B021B0A5C
:106540000B431362FC22214B196A0A431A62FF2291
:10655000196A12020A431A62A022196AD2020A4375
:106560001A621B4B1C005A7852B2002AFBDB194AF4
:106570005A80194B1A00597EC9090129FBD0C8213C
:10658000890099800521D970537EDB09012BFBD04E
:10659000C02300205B011361907000F029F863783C
:1065A0005BB2002BFBDB0D4B0D4A6380D379DB091B
:1065B000012BFBD04123537010BDFEE724000020C7
:1065C000FFFFFF0010E000E000ED00E000040040ED
:1065D000000C00401E40000000400042214000002E
:1065E00000480042014B18607047C0462800002058
:1065F0001F4900B50B004A7ED209012AFBD00138A1
:106600000A282FD803F0C4FF1B2E2E2E2E2E062E66
:106610002E2411001A6917490A400F211A615A786D
:106620008A43110001220A4310E01A6911490A4005
:106630000F211A615A788A4311000322F3E71A697D
:106640000C490A400F211A615A788A435A7000BDDA
:106650001A6908490A400F211A615A788A431100C1
:106660000222E0E7F022196912050A43F3E7C04667
:1066700000400042FFFFFFF018234343F0B5684A93
:106680000E009B18D96885B004008A0718D50E281B
:1066900016D1644A1300D179C9090129FBD0B60586
:1066A000B60D1681DA79D209012AFBD002221978B7
:1066B0000A431A70DA79D209012AFBD005B0F0BD7D
:1066C0000825594F294200D194E03A68102A02D097
:1066D00044D9103AD64012255D5FCB0642D504213D
:1066E000200000F023F92F12504BBA00D458504B21
:1066F000EDB2DA5D002A5CD10132DA554D490F3234
:10670000684606F0DBFD6A467B009B5A8022D20178
:106710001A43494B5A805A78D209012AFBD00222E7
:10672000974223D9238893432380E37BDB09FCD161
:106730002288403313432380E37BDB09FCD10C35F3
:10674000B6B26D002E53E37BDB09FCD12288023305
:1067500013432380E37BDB09FCD1AFE71020821ACF
:106760009640B8E78B06A9D50521B9E7236893437E
:10677000324A23601300A1681142FCD10222E16B6E
:106780000A43E263A2681A42FCD11035AD006519D4
:106790006E60A2681A42FCD1294A2264A2681A4299
:1067A000FCD1022221680A432260A2681A42FCD16D
:1067B00084E7022F07D90C35B6B26D002E53E37B68
:1067C000DB09FCD17AE702236279134363711B4B27
:1067D0001A00A1681942FCD11C35AD002E51A368E6
:1067E0001342FCD1022321790B432371A368134286
:1067F000FCD163E70121200000F024F83B68082B5E
:1068000002D009D9083BDE4000217F2E00D90121AA
:10681000200000F047F851E7EB1A9E40F4E7C0462D
:10682000047A010000480042280000200C000020EB
:1068300078150020547E0100000C0040FF0F7F00FF
:10684000FFFF0000182310B508244343134AD01853
:106850000457013412D001249A5643689C400329FE
:106860000CD808000E49D2015218D318403303F057
:106870008FFE0210060B02211970546010BD062114
:10688000197054609461F9E70621197054605461DD
:10689000F4E7022119709460F0E7C046047A010021
:1068A000004400411823F0B508245843114A131836
:1068B0001C5701341BD0012635005F688356BD404C
:1068C0000D4ADB019A18906805420BD10C00601E3E
:1068D0008441D2194032107834400336A400B043CA
:1068E00020431070044A9B18002901D15D61F0BD5E
:1068F0009D61FCE7047A010000440041182310B5B3
:106900000824434307490020CA181457013408D00B
:106910005B560549DB015B18186A5368D8400123B0
:10692000184010BD047A010000440041182242437F
:1069300070B52D4E0300B218127A52B21400013213
:106940000ED0481C00240C280AD803F021FE071F93
:106950001F1F1F1F1F1F1F0B0B0B0B000124644267
:10696000200070BD092905D100211800FFF76AFF3A
:106970000024F5E70A2901D10839F6E700240B299C
:10698000EED10A391800FFF75DFFE9E71822012070
:106990005343F218F3565568144ADB016C089B18F0
:1069A000C9B228401C1900280ED00F20303422789C
:1069B0000901024011434122C9B25B1921704033E1
:1069C00019780A431A70D3E722000F263032147860
:1069D0005B19B443214311704122403319780400FC
:1069E0000A431A70BCE7C046047A01000044004123
:1069F000F7B506000D000C008B180193019B671B77
:106A00009C4207D0336821781B68300098470134D6
:106A10000028F3D13800FEBD70B5040008000D0059
:106A200007F006FB2368020029005B6820009847F6
:106A300070BD10B50B1E02D0FFF7EEFF030018006B
:106A400010BD10B5FFF7F5FF10BD10B503681B684A
:106A5000984710BD10B50249FFF7DEFF10BDC046D4
:106A60007C21010070B50400FFF7E3FF0500200062
:106A7000FFF7F0FF401970BDF0B58BB06B46150005
:106A8000002205330600DA770800012D00D80A2518
:106A900009AC290003F020FECAB213003733070007
:106AA000DBB2092902D813003033DBB2013C23707A
:106AB000002FEED121003000FFF7BBFF0BB0F0BD7F
:106AC000F8B506000C00151E04D10368C9B21B6896
:106AD0009847F8BD0A2A0CD100290BDA2D21FFF7BF
:106AE000B4FF614207002A003000FFF7C5FF3818E5
:106AF000EFE7D2B221003000FFF7BEFFE9E710B5A3
:106B0000FFF7DEFF10BD70B50400FFF7D9FF0500E9
:106B10002000FFF79FFF401970BD10B5002A04D177
:106B20000368C9B21B68984710BDD2B2FFF7A4FF33
:106B3000FAE770B50400FFF7F0FF05002000FFF74B
:106B400089FF401970BD0000F7B51E0008AB1B7827
:106B500031000193050033001000170006F070F9B2
:106B60004B49002814D10122740064085242494B59
:106B70003800210006F064F900280FD10122454BAE
:106B800052423800210003F0B7FE002806D14249E6
:106B90002800FFF741FF04002000FEBDE0223F4B2C
:106BA00012063800310003F0B1FE002801D03C4944
:106BB000EEE7E0223B4B12063800310003F092FE74
:106BC0000028F4D1002200233800310003F08AFEAF
:106BD000041E07D02D212800FFF737FF8023040073
:106BE0001B06F618002300202F490093019B009AF2
:106BF000934208D02D4B002204F05EFF009B01332E
:106C0000DBB20093F2E733003A0004F039FC0F00E6
:106C1000060003F0C9FE0A22019001002800FFF7D8
:106C20002BFF009B0419002BB6D0019806F094F9B5
:106C300002000B003000390005F0BAFD06000F001D
:106C400028001B49FFF7E8FE2418009B013BDBB23C
:106C50000093FF2BA0D0154B00223000390005F027
:106C600035FB0F00060003F09FFE0A220100019091
:106C70002800FFF701FF2418019806F06DF90200C3
:106C80000B003000390005F093FD06000F00DCE733
:106C9000647E0100FFFFEF7F687E0100FFFFEF4190
:106CA0006C7E0100FFFFEFC10000E03F00002440C8
:106CB0002E21010037B51D00069BDBB200932B008F
:106CC000FFF742FF3EBD37B519000400069B2000C8
:106CD000DBB200930B00FFF737FF05002000FFF742
:106CE000B9FE40193EBD0000014B18607047C04618
:106CF0002C000020164A10B51368591C26D0013B01
:106D00001360002B22D172B6124B134A0433934204
:106D100013D9124A01211000147D0C42FCD020210D
:106D2000148BFF319B085B0021431183D3610C4B13
:106D300013800123027D1A42FCD0BFF34F8F094B11
:106D4000094ADA60BFF34F8FC046FDE710BDC04669
:106D50002C00002000200000030200000040004141
:106D600002A5FFFF00ED00E00400FA050160704796
:106D70009446F0B59E1E721E9641624605689207C3
:106D80002F6836063A4332432A60072505AC24783B
:106D90000068A4012940214342680024022B00D04E
:106DA0005C03114321434160F0BD30B5C025036849
:106DB000AD031C6812052A402243C0240904A40222
:106DC00021401143196003685A6814435C6030BD68
:106DD0000123026811680B43136003681A68D20725
:106DE000FCD4DA69D207F9D470470223026811682B
:106DF0000B4313600268D3699B07FCD47047036898
:106E00001A7ED20702D41A7E9207FCD57047002260
:106E100003685A8370470368187E4007C00F7047A5
:106E20000368187EC0097047802302685B42117EA8
:106E30000B43137670470368588B8007C00F704769
:106E400002230268518B0B43538370470368187EFB
:106E5000C007C00F70470368188DC0B27047036841
:106E60001A7ED207FCD589B201201985704701220C
:106E700003689A757047012203681A7570470123E9
:106E8000026811680B43136003681A68D207FCD4C8
:106E9000DA69D207F9D470470223026811680B43FC
:106EA00013600368DA699207FCD430215A8B8A4355
:106EB000110010220A435A830268D3695B07FCD48D
:106EC00070470221026813688B4313600268D3691C
:106ED0009B07FCD4704780230268DB02116851686D
:106EE0000B43536070470000036803491A685A68EF
:106EF0000A405A607047C046FFFFFBFF032230B5CF
:106F0000036811401C68074D5A6809042A40E406CA
:106F10001143640F5960052C03D10268D3695B07E4
:106F2000FCD430BDFFFFFCFF30B503680400588B74
:106F30008006800F022814D05D8B0020AD06AD0FB7
:106F4000032D2ED0588B800705D55D8B0020AD0614
:106F5000AD0F012D25D100205D8BAD06AD0F854213
:106F60001FD04800596A1043C90AC0B2C902014380
:106F700059622368002A08D11A7ED207FCD5588BA3
:106F80004007C30F012058400BE0187E8007C00F58
:106F9000F5D11A7ED207F8D5C022596892020A4369
:106FA0005A6030BD0368283319700368187EC00723
:106FB000C00F03D15A8BD207F8D57047588B4007C2
:106FC000C30F01205840F8E703682833197003689D
:106FD00000201A7E520704D5588B01234007C00FAA
:106FE0005840704703681868C006400F0438434291
:106FF0005841C0B270470368187E4007C00F704701
:107000000368187EC007C00F70470368588BC0061E
:10701000C00F70470368187E8007C00F7047036871
:10702000588B0007C00F704703681A68D206520FCA
:10703000052A02D11A7E9207FCD528331878C0B2EF
:10704000704700000368104A934213D00F4A9342DE
:1070500012D00F4A934211D00E4A934210D00E4ADA
:1070600093420FD001200D4A4042934201D1063095
:1070700040B270470020FBE70120F9E70220F7E764
:107080000320F5E70420F3E700080042000C00426B
:10709000001000420014004200180042001C004290
:1070A000F8B5FFF7CFFF00282EDBC3001C481F22D6
:1070B000C01805230579C35601201A4090400326C5
:1070C000C022184952001E40F6008850813AB24052
:1070D000C024D243B440002B17DA0F263340083BBC
:1070E000114E9B089B009B19DE6932401443DC6102
:1070F0003F231D408023DB011D430C4B08605D8056
:107100005A7852B2002AFBDBF8BD064E9B089B0062
:107110009B19C026B6009F593A4014439C51E7E79B
:10712000707E010000E100E000ED00E0000C004096
:10713000F8B504000F0016001D00FFF7B1FF200096
:10714000FFF746FE1C21BB000B4071072268090CAB
:107150000B431360842322689375012F1AD11021E9
:10716000012E00D008390C4B69431868C00003F0A9
:107170002DFA0722216802408B895203DB04DB0CC5
:1071800013438B81226803049089DB0C400B40037E
:1071900018439081F8BDC04624000020F8B50400D3
:1071A0000F00FFF77DFF2000FFF769FE1422236820
:1071B00079001A600C4B25681E68300003F006FA4F
:1071C0000A490400300003F001FA7D23FA215843F4
:1071D000C90003F0FBF9FF23241AE868053C1C40B2
:1071E00098430443EC60F8BD2400002040420F00A7
:1071F000F0B595B003AC01920D00422200212000B1
:107200001F0006F077F80020412F5CD92F4F04268D
:10721000089701272E49277621812E4902AFA181A7
:10722000FD39FF392430E676CE19F077A074207747
:10723000380006260630C67738000730C5776A1C46
:10724000A570A5720825D2B204A8C2772248234BA4
:107250000C900DA80570912000016085043D0EA8DA
:1072600005703120C0190270A276332223800223D8
:107270000A20D21913700FAA1070194A11A8A286F9
:107280003B22D21913704022E37023716371A37300
:1072900061746377A377E17702703F200725C019F7
:1072A000057012A8017080203C31C9190870422174
:1072B000C9190B704133DB191A7021000232019891
:1072C00005F0FCFF422015B0F0BDC04620010524AA
:1072D000090400000102000007058003080B0000FC
:1072E0000705000008B4024B9C46103808BC6047F4
:1072F000F171000013B56B460268D9710733546809
:1073000019000122A04716BD10B5002000F09EFE16
:10731000041E01D100F02FFE200010BD10B500208A
:1073200000F0CEFE10BD10B5002000F003FF10BD30
:1073300013B56B460021DC1D2200080000F0A4FEFE
:10734000002801D0207816BD01204042FBE713B58C
:107350006B46DC1D01222100002000F081FE002888
:1073600001D0207816BD01204042FBE770B50E0029
:1073700015001400002C10D0002000F03FFE002863
:107380000BD022003100002000F08CFE241A3618A9
:10739000002C02D000F0EFFDECE7281B70BD0000D0
:1073A0000023FA2243604361044B920082601A007A
:1073B00030330832026003617047C046A07E01008E
:1073C00007B5081E09D1694600F030FE9623009AE1
:1073D000DB009A4201D100F06FF807BD10B50248FA
:1073E000FFF7DEFF10BDC0468015002010B500205D
:1073F00001F0E4FF10BD000010B5234B234C244ADC
:1074000024495A61200002F021F99B21224AC90037
:10741000200002F081F9200002F081F901211A20F8
:10742000FFF710FA01211A20FFF73CFA20231B4A2C
:107430000F20D1690B43D361012219490B78134303
:107440000B70184B19788143197006211C78214361
:10745000197015490C7822430A701A7802401A7084
:10746000602219780A431A70104B114A5A805A78D0
:10747000D209FCD1C1220F4992008B581B021B0A72
:107480008B5002F003F810BD80150020001A002078
:10749000E47E0100901500204CEE00000004004046
:1074A000584400413C44004159440041000C004014
:1074B0000640000000E100E010B5FA20FFF714FCE0
:1074C00010BD000070B588B068460200124B70CB4A
:1074D00070C21B6804AC13600023C258E518126820
:1074E000160AEA70AE70160C120E6E701A5504333E
:1074F000102BF2D100230F260848E25C013315005F
:1075000012113540455D825C4D800A800431102B9C
:10751000F3D1202008B070BDD47E0100F37E0100BD
:107520000221084B1A888A431A80DA7BD209FCD1DF
:1075300001321A80DA7BD209FCD11A88D207FCD436
:107540007047C04600340042074B10B51B7804005A
:10755000002B08D0FFF7E4FF00212000FFF7A2F97D
:107560000022024B1A7010BD98150020B0150020A3
:10757000F7B504000E1E019202D1FFF7E5FFF7BD3B
:107580008023514A5B03D367C022504D5200AB5059
:107590004F4B1A78002A10D1C52101321A70890088
:1075A0006B58FE3293431A00402313436B50494AF1
:1075B000494B5A805A78D209FCD1484B1B78002B92
:1075C00005D0474B1868A04201D0FFF7BDFF454BDF
:1075D0003100186802F0FAFF434A431E00939446B4
:1075E00000230427009A624510D901005A1CD1409B
:1075F000013900911900B943C9B2032902D0D2B2AE
:10760000062A01D10233DAB21300EBE7013B00276F
:10761000092B02D8354A5B009F5A019B002B4FD0A3
:10762000FA2158007043890002F0D0FF00230200C5
:107630002F49304E0A604B60FFF772FF20233288DB
:1076400013431F433780F37BDB09FCD16B461B8858
:107650003383F17BC909FCD11820274F6043BC4616
:10766000264B274FC356DB019C4462463A60254AAD
:10767000254F9B183B600127204B1A1853683A008E
:107680009A40224B1A601023727B13437373144B7E
:107690001A68A24209D020001C60FFF703F93900E4
:1076A0002000FFF7CFF80D4B1F70022332881343E1
:1076B0003380F37BDB09FCD180235B032B605EE727
:1076C00001225242D317B3E704E100E000E100E0F9
:1076D000981500201C400000000C0040B015002050
:1076E0003000002034000020FFFF0000047F010074
:1076F000A8150020003400421C440041047A010017
:10770000A415002014440041A01500209C15002061
:10771000154B70B5186859680500144C0D4319D005
:10772000134A21681268116018685968002902DC40
:107730000AD1002808D01868596801246442E51766
:10774000001969411860596010230A4A917B0B4364
:10775000937370BDFFF7E4FE074B22681B681A6045
:10776000064B1D70F5E7C046A81500209C150020AB
:10777000A415002000340042A0150020B015002000
:107780000120704710B50368014A1B6A984710BD75
:10779000130400000300FC33D96F9A6F914203D0A9
:1077A000DB6FC018007D704701204042FBE710B539
:1077B00004000069FFF70CFB22000023FC329367F2
:1077C000D3679E229200A4186366A36610BDF020C2
:1077D00001403039484248417047F0231B011940AD
:1077E000802306209B0099420AD00133FF330130E9
:1077F000994205D0802302385B00994200D00020D6
:1078000070470F2001400020012903D00239481E93
:107810008141481C70470000B923F0B5182685B097
:1078200002919B000400C05C330008214343324DA9
:107830001700EB185956FFF779F8304B0821E05C38
:1078400033004343EB185956FFF770F82C4BE25CBA
:107850000393022A09D11133E05CFF2805D00821E7
:107860004643AE197156FFF761F8BA26B600A05D1F
:10787000FF2819D00121FEF7E5FF1822A35D214959
:107880005A43AB56AD18DB015818BB218900605034
:107890001D4901225B18BC218900635069688A4038
:1078A000BD21890062501A600122029B11002069EB
:1078B000FFF73EFC39002000FFF78FFF390005007D
:1078C0002000FFF79EFF390006002000FFF77FFF32
:1078D00033000090290020690122FFF749FA0B4B81
:1078E0002069E25C039BE15CFFF75FFA2069FFF728
:1078F0007CFA05B0F0BDC046047A0100E502000044
:10790000E70200001844004114440041E602000070
:10791000AF2210B504005200002105F0EBFC23005B
:107920000022FC335A6620009A6610BDF7B51D0090
:1079300008AB1B780400009309AB1B781600019379
:1079400000234360FA239B008360114B0F00083330
:1079500003601430FFF7DCFF20007D30FF30FFF7BD
:10796000D7FFB9236A469B002761E654094B12787A
:10797000E554094B2000E2546A46084B1279E25460
:10798000BA22E93BFF3B9200A3541032A354FEBD40
:10799000187F0100E5020000E6020000E702000097
:1079A0000300FC33586E9B6EC01A01D55F30FF3068
:1079B000704710B5040020007D30FF30FFF7F0FF66
:1079C0000028F8D12069FFF71AFA10BD10B514305D
:1079D000FFF7E6FF10BD0300FC33596E9A6E91422B
:1079E00005DB5A6E986E801A5E30FF307047986ED5
:1079F0005B6EC01A0138F9E710B57D30FF30FFF734
:107A0000EAFF10BD70B504000069FFF714FA002802
:107A100005D02069FFF71FFA2069FFF711FA2069E6
:107A2000FFF7F9F9002824D020692500FFF713FAA1
:107A3000AF21FC350600A86F4900013002F04CFE72
:107A4000EB6F994203D0AB6FE3181E75A967BA2399
:107A50009B00E35CFF2B0CD020001430FFF7BBFF32
:107A6000092806DCBB23BD229B009200E358A258E4
:107A70001A602069FFF7EAF900281DD020007D3048
:107A8000FF30FFF78DFF002825D09E239B00E618CE
:107A9000B26E736E9A421BD0BE22AF21B36EB06E2F
:107AA000E3185200013049009D5C02F015FEB166FA
:107AB000E9B22069FFF7D3F92069FFF7B1F900288F
:107AC00005D02069FFF7B0F92069FFF7A0F970BD74
:107AD00001256D42ECE72069FFF7CDF9ECE70000E6
