:1020000000800020B56000009D6000009D60000021
:1020100000000000000000000000000000000000C0
:102020000000000000000000000000009D600000B3
:1020300000000000000000009D6000000961000039
:102040009D6000009D6000009D6000009D6000009C
:102050009D6000009D600000A15F0000A160000085
:102060009D600000E95F00009D6000009D60000031
:10207000015E00009D600000F95F00009D600000AF
:102080009D6000009D6000009D6000009D6000005C
:10209000297200009D6000009D6000009D600000AE
:1020A0009D6000009D6000009D6000009D6000003C
:1020B0000000000010B5064C2378002B07D1054B1B
:1020C000002B02D0044800E000BF0123237010BDA4
:1020D000B002002000000000EC6A0100044B10B5C3
:1020E000002B03D00349044800E000BF10BDC046E8
:1020F00000000000B4020020EC6A010000207047DC
:102100007047F8B507000C0000258E18B44207D0C0
:102110003B6821781B683800984701342D18F5E793
:102120002800F8BDF8B5070003000837B4331B6872
:10213000040038009847124A0300904214D8250042
:102140002600BA35B8362A883188380002F066FE93
:10215000903403002078032806D806F0E7FD020734
:102160000B0E32889B1833800120F8BD2A889B18FB
:102170002B80F9E73288D31AF5E72A88D31AF7E7D4
:10218000FDFF000010B50A004369016903F0D8FAA9
:1021900010BD10B54269016903F022FB10BD10B5F6
:1021A0000A004369016903F02DFB10BD10B508302A
:1021B00002F034FE10BD10B5083002F099FE10BDDB
:1021C000F0B5CD4B95B01D780400002D28D1CB4B38
:1021D0000222196811A806F0A6FB11A9200006F03A
:1021E00087FB11A806F0B1FAC549200006F0ECFB08
:1021F000C44B09211B78002B03D00321012B00D1F4
:10220000062149420A2211A806F014FB11A9200058
:1022100006F0D4FB11A806F098FA012015B0F0BD25
:10222000012D0AD1B54B0222196811A806F07BFBDB
:1022300011A9200006F05CFBECE7022D0ED1AF4B9C
:10224000186809F035FAB04AB04B08F0B9FB020043
:102250000B00009511A806F080FBD7E7032D0CD1E9
:10226000A64B186809F024FAA94AAA4B08F0A8FB63
:102270000B00022102000091ECE7042D24D1A64BB3
:10228000002219680BA806F04EFB0BA90EA806F059
:1022900025FBA2490EA806F0B3FB0500A04B0022C7
:1022A000196811A806F03FFB11A9280006F09BFB56
:1022B0000100200006F082FB11A806F046FA0EA8E5
:1022C00006F043FA0BA8A6E7052DA6D1954D02A866
:1022D000290006F082FA290005A806F07EFA924944
:1022E00008A806F07AFA854D864B2E681F78002FD5
:1022F0000BD0301C09F0DCF9834A844B08F060FBFA
:1023000009F028FA013F061CF1E7884B1B78002BE7
:1023100000D1D9E08649301C06F0ECFE21270028C8
:102320001AD18449301C06F0D1FE002814D1301C8B
:1023300009F0BEF9804A814B06000F0006F0A0FEAE
:10234000002808D039007C4A7D4B300006F084FE1E
:102350007E27002800D129277A4E0222316811A851
:1023600006F0E1FA11A902A806F0C2FA11A806F0D7
:10237000ECF90021306806F0C7FE002815D02021B6
:102380000EA806F049FA0EA911A806F0A7FA02A9AC
:1023900011A806F028FB010002A806F08FFA11A888
:1023A00006F0D3F90EA806F0D0F90222296811A888
:1023B00006F0B9FA11A905A806F09AFA11A806F0D4
:1023C000C4F90021286806F09FFE002815D02021BE
:1023D0000EA806F021FA0EA911A806F07FFA05A9A9
:1023E00011A806F000FB010005A806F067FA11A885
:1023F00006F0ABF90EA806F0A8F953490EA806F0AE
:10240000ECF9404B514A1B780BA8D15C06F004FA5A
:102410000BA90EA806F0E7FA4D4906F0F1FA0500FF
:10242000390011A806F0F8F911A9280006F0DBFA26
:10243000484906F0E5FA0100200006F03FFA11A82D
:1024400006F083F90BA806F080F90EA806F07DF9D6
:10245000049A0A9B08A99B1A0EA8002206F0F4FA17
:102460000EA911A806F03AFA02A911A806F0BBFAC3
:102470000100200006F0A2FA11A806F066F90EA8E5
:1024800006F063F9079A0A9B08A99B1A0EA8002276
:1024900006F0DAFA0EA911A806F020FA05A911A88B
:1024A00006F0A1FA0100200006F088FA11A806F053
:1024B0004CF90EA806F049F908A806F046F905A857
:1024C00006F043F902A8A6E62349301C06F012FEE6
:1024D0002127002800D03FE72049301C06F0F6FDF8
:1024E000002800D038E7301C09F0E2F8124A1C4BF3
:1024F00006F0B2FD5D372CE7DD020020E804002085
:10250000ED01010000030020FCA9F1D24D62503F13
:102510008DEDB5A0F7C6B03EB4040020EF01010078
:10252000C0040020F0010100F1010100D5020020EB
:102530000000AF440000AFC4666666666666F6BF1C
:102540006666F63FB80300200102010008020100A0
:10255000B0FB0000FF01010000002F450000E0C1BA
:1025600066660640F0B5D94B91B01B78002B00D1C0
:1025700095E2D74904A806F030F9D64BD64D1E781F
:10258000D64B28001C6802F0EFF9D549280002F06C
:10259000EFFCD44BD44F1B78002B05D0D34B0A2231
:1025A00068213800FFF702FED14B1B68181C03930B
:1025B00009F07EF8CF4AD04B0090019106F060FD03
:1025C000002800D1F1E0CD4B0A227321C648FFF765
:1025D000EDFD2800CA4902F0CBFCCA4B1D78002D46
:1025E00000D15FE1C84B0A2200213800FFF7E3FD6C
:1025F000C64B1B78012B00D016E1C54B0A222221C5
:102600003800FFF7D8FDC34B1C680021201C06F0E2
:1026100071FD002800D11FE1BF49201C06F06AFDB2
:10262000002800D045E1BD49201C06F063FD0226CC
:10263000071E12D1BA49201C06F05CFD002800D00C
:102640003AE1B849201C012506F054FD002800D1CC
:10265000051CEDB22E00731E9E41B34B1968B34B9F
:10266000994200D12BE10A220DA806F0F5F80DA938
:102670000AA806F033F9AE490AA806F0C1F901002C
:1026800007A806F02BF9012707A904A806F038F9D6
:1026900007A806F05AF8002F05D00AA806F055F84A
:1026A0000DA806F052F8A34B1B78002B00D183E154
:1026B000A1490DA806F091F804A90DA806F093F918
:1026C0009E4906F09DF9010004A806F0F7F80DA850
:1026D00006F03BF80621069B49425943824F66317A
:1026E0000A22049B89B23800FFF765FD94497A48B5
:1026F00002F03EFC934B0DA8995D06F08DF80DA9F4
:102700000AA806F0EBF890490AA806F079F901004A
:1027100004A806F0D3F80AA806F017F80DA806F0EA
:1027200014F8049B19226E213800FFF744FD774B03
:102730001B78022B2AD103F0F5FCFA21834B890088
:102740001B68C01A06F0FCFA0A2201000DA806F068
:1027500083F80DA90AA806F0C1F875490AA806F081
:102760004FF9010004A806F0A9F80AA805F0EDFF4A
:102770000DA805F0EAFF0821069B494259434A315A
:1027800089B2049B19223800FFF715FD002E00D1F5
:102790001DE1201C08F08CFF6D4A6E4B08F010F90B
:1027A00008F0D8FF013E041CF0E76B4A6B4B009821
:1027B000019906F065FC002801D0694B04E7694ADD
:1027C000694B0098019906F05BFC002801D0674B2B
:1027D000FAE6674A674B0098019906F051FC002819
:1027E00001D0654BF0E66549039806F083FC0028AC
:1027F00001D0634BE8E63F4A624B0098019906F02E
:102800003FFC002801D0604BDEE6604B394A00985F
:10281000019906F035FC031E334803D05C4B0A22B5
:102820007321D4E65B4BFAE7022B00D0EDE65A4B5E
:1028300022210A223800FFF7BEFC584B00211C68F9
:10284000201C06F03DFC00282AD1554B211C18689D
:1028500006F01CFE041CD8E65249201C06F036FC8B
:10286000002826D10021201C06F044FC002800D0BE
:10287000D9E64D49201C06F029FC0226071E00D08F
:10288000EBE64A49201C06F021FC3D000126002809
:1028900000D0E2E64649201C012506F017FCD5E6EB
:1028A0000024F7E7434B0A2229000F48FFF783FC77
:1028B000D3E600250226D0E63D000126CDE60449F8
:1028C00007A805F08AFF0027DEE6C046DF020020E9
:1028D000F00101000003002000040020B8030020E4
:1028E000D4300100EC030020F80300200BE00000CE
:1028F000B804002033333333333311403AE200005D
:102900007F080100D4020020BDFB00008C030020E2
:10291000C2FB0000D40400208096184B00247449A8
:1029200000401C4600007A4408000020FFFF000021
:10293000D1FB000008030020D3FB0000D5FB000002
:10294000F7190100E3FB0000D7FB0000D8020020CC
:10295000FCA9F1D24D62503F66666666666610401D
:102960004BE200009A99999999990F4049E2000029
:10297000CDCCCCCCCCCC0E4047E200000000704067
:1029800045E2000033330D4044E2000033330B4096
:1029900043E2000042E20000C7FB0000D004002038
:1029A000E4040020809618CB002474C900401CC6A3
:1029B00000007AC4CCFB0000564F0DA8390005F08A
:1029C0000CFF04A90DA806F00EF8390079E6524B69
:1029D000524F1B78002B64D05149201C06F08AFB13
:1029E000002800D077E04F49201C06F06FFB00283C
:1029F00000D072E04C4E4D49300002F0B9FA464B1F
:102A00001B78002B0ED1201C08F052FE484A494B7F
:102A100006F022FB002864D10021201C06F056FBA2
:102A2000002867D10021201C06F064FB002859D043
:102A300001236A4640491370201C06F065FB0028FC
:102A400001D16B4618706B461B78002B54D00022C6
:102A5000211C0DA805F067FF0DA90AA805F03EFF8F
:102A600036490AA805F0CCFF010004A805F026FFAE
:102A70000AA805F06AFE0DA805F067FE1421069B62
:102A8000494259437D3189B2049B40223800FFF707
:102A900092FB300001F075FF04A805F056FE11B05E
:102AA000F0BD2749201C06F025FB002817D1254939
:102AB000201C06F00BFB00289CD0224C224B192234
:102AC0000A213800FFF777FBDC211E2209010120D3
:102AD00004F0DAFA8EE7124CF0E7124CEEE7184CED
:102AE000ECE71A4C01236A4619491370201C06F0C2
:102AF000F7FAA4E70024F5E72A00551EAA41211C95
:102B000001320DA805F00FFF0DA904A805F0F0FE95
:102B1000B1E7C046FF010100D5020020F803002004
:102B20000080BB440080BBC400040020BC24010022
:102B30000AD7A3703D0AB7BF00007A442E080100EF
:102B400000803B45000020C1D9FB00000AD723BC10
:102B500000007AC402220F4B1A7080220E4B9201A1
:102B60009A618022D2015A61802212025A610B4A74
:102B70001278002A0AD08021094A090111608022B6
:102B800052015A618022074BD2001A600222064B82
:102B90001A7070470003002000440041DC0200204E
:102BA00098440041944400411003002001220F4B3F
:102BB0001A7080220E4B92015A618022D2019A61D2
:102BC000802212025A610B4A1278002A09D0802111
:102BD000094A090111608021490199618023DB00C4
:102BE00013600222054B1A707047C0460003002094
:102BF00000440041DC020020944400411003002006
:102C000000220F4B1A7080220E4B92015A618022D3
:102C1000D2015A61802212029A610B4A1278002A6C
:102C20000AD08021094A09011160802252015A61AB
:102C30008022074BD2001A600222064B1A7070479E
:102C40000003002000440041DC02002094440041C5
:102C50009844004110030020012310B5084C22784D
:102C60005340237003F05EFA064B2178186004206D
:102C700003F034FD21780D2003F030FD10BDC04677
:102C8000DE020020A0030020012310B50A4C2278A8
:102C90005340237003F046FA084B0A21186023784A
:102CA000002B01D0802189000E2003F001FC217847
:102CB0000B2003F013FD10BDD5020020A40300205B
:102CC00010B503F02FFA044B044A18600123117861
:102CD0004B40137010BDC0460C030020D4020020EE
:102CE00070B502000D0004000749012004F0CCF982
:102CF000002D07D00A2003F04BFA220003490120DF
:102D000004F0C2F970BDC0465A10000094110000D2
:102D1000022210B50E4C002023789343237003F059
:102D200083FB627ED209FCD16178803A0A436270EB
:102D3000084AA280084A1268D2B2A2700722E27042
:102D40002178053A0A432270627ED209FCD110BD77
:102D50000040004211020000CC02002070B518258E
:102D60006843144C144B2018067C1F201A69064037
:102D7000824332431A611922002903D0694364183F
:102D8000227C024019690D48120201400A431A616F
:102D90005A7ED209FCD1197B02320A431A731A7E79
:102DA000D207FCD501221A765A7ED209FCD1588B63
:102DB00000B270BDFC60010000400042FFE0FFFF78
:102DC00010B503F0AFF9064C2368C01A054B9842C2
:102DD00005D9A522044B1A7203F0A4F9206010BD96
:102DE000E4020020571B00000010004070B5334D76
:102DF0002C6803F097F9FA21314B8900E418201A66
:102E000005F09EFF2F4B304E1B88304C3060A342A4
:102E10000AD02F4A93420BD12E4B1B78002B03D1A3
:102E20002D4B1B78002B03D003F07CF93460286015
:102E300003F078F92B68294AC01A294B90422ED901
:102E400001241C7003F06EF9264E3368C01AFA2371
:102E50005B0098420DD903F065F9234B30601A7876
:102E6000514251411970002A15D12049200004F027
:102E70000BF903F057F92B68C01A1D4B98421CD967
:102E800001211B2003F0FAFB00211B2003F026FC8C
:102E9000FFF796FFFCE7200004F0E2F8E9E71A7874
:102EA000002A0AD0002210491B200A7001211A7042
:102EB00003F014FC012004F0D3F870BD940300204B
:102EC000B42909000A03002008000020FFFF0000C9
:102ED000FEFF0000E1020020060000203814090077
:102EE0000903002004030020080300206F0F0000E6
:102EF000C0270900154B164A10B59A60154A5A604A
:102F00005A78D209FCD11449144C59802270E379C3
:102F1000DB09FCD12279013313430F22237163783B
:102F200093431A000A2313430422637023789343C4
:102F30002370E379DB09FCD1FFF742FF02232278FB
:102F400013432370E379DB09FCD110BD000C004072
:102F500002040000020311000342000000100040C0
:102F6000054B10B51868054906F068FC044906F0E1
:102F70008DFA044B186010BD9C03002000007A44B9
:102F800000FEFF46980300200A4B10B51B88002B5B
:102F900005D10622084B1A60FFF7BAFE10BD012BBF
:102FA00002D1054B0422F6E7022BF5D1024B082291
:102FB000F1E7C04604000020CC02002037B51B4CCE
:102FC0001B49200003F06AFC1A49200003F055FC5D
:102FD000194B0A221968200003F0B1FC17492000A0
:102FE00003F04BFC164B0A221968200003F0A7FCE3
:102FF0001449200003F041FC134B0325186808F026
:1030000057FB009502000B00200003F078FD0F49EC
:10301000200003F032FC0E4B186808F049FB0095C5
:1030200002000B00200003F06AFD37BD04160020EB
:1030300069FE000083FE0000AC0300208BFE000050
:10304000A803002094FE0000900300209AFE0000D8
:103050009C03002010B5264C2649200003F01EFCDE
:103060002549200003F009FC244B25491B78002B3F
:103070000CD02449012B09D02349022B06D0234927
:10308000032B03D02249042B00D02249200003F057
:1030900005FC2149200003F0F0FB204B20491B8850
:1030A000002B06D01F49012B03D01F49022B00D053
:1030B0001849200003F0F2FB1C49200003F0DDFB5F
:1030C0001B4B19881B4B994208D11B49200003F068
:1030D000E5FB1A49200003F0E1FB10BD184B9942B3
:1030E00001D11849F2E70A22200003F028FCF0E79A
:1030F000041600209FFE0000B2FE0000DD0200204A
:1031000064FD00007CFD000091FD0000A7FD0000B3
:10311000BDFD0000C1FE0000C9FE0000040000204B
:10312000EBFD000002FE00001AFE0000DBFE0000C6
:103130000A030020FFFF000027FE0000F00101004D
:10314000FEFF000048FE000010B53F4C3F49200044
:1031500003F0A4FB3E49200003F08FFB3D49200013
:1031600003F09CFB3C49200003F087FB3B4B0A2209
:103170001978200003F0F9FB3949200003F07DFBAA
:10318000384B0A221978200003F0EFFBFFF716FFF7
:10319000FFF760FF3449200003F080FB3349200033
:1031A00003F06BFB0A22E1212000914003F0C3FBF6
:1031B0002F49200003F072FB2E49200003F06EFB24
:1031C0002D49200003F06AFB2C49200003F066FB28
:1031D0002B49200003F062FB2A49200003F05EFB2C
:1031E0002949200003F05AFB2849200003F056FB30
:1031F0002749200003F052FB2649200003F04EFB34
:103200002549200003F04AFB2449200003F046FB37
:103210002349200003F042FB2249200003F03EFB3B
:103220002149200003F03AFB2049200003F036FB3F
:103230001F49200003F032FB1E49200003F02EFB43
:10324000200003F023FB10BD04160020E4FE000064
:10325000F7FE00000AFF000010FF0000060000203B
:103260001DFF0000E10200202BFF000047FF0000CF
:1032700066FF00006CFF000098FF0000AFFF000039
:10328000F5FF00002F00010047000100620001006F
:103290009A000100C7000100E500010008010100DB
:1032A00027010100460101006701010088010100BA
:1032B000A9010100CA01010010B50C4B02001978E8
:1032C000012910D002394B1E9941094B494219403E
:1032D000084BC918002A00D11432012003F0D4FE93
:1032E000FFF740F910BD0449F4E7C0460003002091
:1032F000E0FDFFFF4D0A00002D090000F8B502F0C7
:1033000011FFB24C2368C01A312800D8C0E0B04B7E
:10331000B04D1B78002B22D0280002F0D1FAAE4E1F
:103320000A220100300003F006FB0921300003F0FF
:10333000A8FA2800103002F0C3FA0A220100300077
:1033400003F0F9FA0921300003F09BFA280020303D
:1033500002F0B6FA0A220100300003F0F0FA280069
:10336000203002F0ADFA07002800103002F0A8FA71
:103370000600280002F0A4FA050002F0D3FEC823DC
:103380005B0020601C009F4203D89E4201D89D42F2
:103390001DD902F0C7FE914B1860A74220D8A64263
:1033A00060D8A54274D98E4C2368002B02D102F05C
:1033B000B9FE20608B4B1B78002B00D18CE08A4B30
:1033C0001B78002B00D087E0FFF71AFC5DE000229D
:1033D000834B1A60C8235B009F4200D9C0E057E0CE
:1033E000A64200D9ABE0A54200D9C1E07C4C2368DD
:1033F000002B02D102F096FE20607A4B1B78022B44
:1034000009D0794B1B78002B05D1FFF7A3FB1420C3
:10341000FFF752FFDEE7754B1A78002A06D0724A92
:103420001278002A02D000221A70F0E72368002BDD
:10343000D0D002F077FE2368C01AFA23DB0098424E
:10344000C8D96B4B6B4A1988914208D0012252426D
:1034500014201A80FFF730FF00232360BAE796227A
:103460009200F5E7A5425AD85D4C2368002B02D1A3
:1034700002F058FE20605B4B1B78012B09D05A4BA1
:103480001B78002B05D1FFF791FB1420FFF714FFE9
:10349000F8BD564B1A78012A06D0534A1278002AF2
:1034A00002D001221A70F0E72368002BF0D002F05E
:1034B00039FE2368C01AFA23DB009842E8D94A4B48
:1034C0001B78002B05D000224B4B1A601420FFF70D
:1034D000F3FE00232360DBE7444B1A78022A05D071
:1034E000414A1278002A01D00222DBE72368002B30
:1034F000CED002F017FE2368C01AFA23DB009842F0
:10350000C6D9394B1B78002BE3D002F00BFE3B4BA6
:103510003B4A1860002313603A4A1360D6E702F072
:1035200001FE394B1B68C01AFA239B009842AFD9A1
:10353000FFF7AAFB00210320FFF7D2FBA8E7A54273
:10354000A6D802F0EFFD314B1B68C01AFA239B008E
:10355000984205D9FFF780FB00210320FFF7C0FB4D
:10356000C8235B009D4200D892E79E4200D98FE7B6
:1035700002F0D8FD264B1B68C01AFA239B00984224
:1035800000D885E7FFF79CFB00211420FFF7A8FB7C
:10359000322002F0FDFD00211420FFF7A1FB0022E4
:1035A000124B1A7002F0BEFD144B154A186000232E
:1035B0001360144A1360104A13600B4B1B78002BE6
:1035C00000D165E7FFF71CFB62E7C046F00300206F
:1035D000E0020020BC030020041600209403002019
:1035E000F403002000030020D40200208C030020FC
:1035F0000A030020FFFF0000D4040020D8020020AE
:10360000E4040020D0040020A4030020A003002034
:103610000C030020F7B5324E0327300001F0A4F967
:103620003000304901F0A4FC2F4C304B2500B83558
:103630002B602F49200003F020F930002D4901F0C4
:1036400097FCA0235B032B602B49200003F015F9A6
:103650002A4B0A222B602A4B2000196803F06BF9D1
:10366000284B0A222B60284B2000196803F063F9CD
:1036700080239B032B602549200003F0FEF8244B98
:103680002B60244B186808F013F8009702000B0019
:10369000200003F02BFAB0239B032B601E4920006F
:1036A00003F0EBF81D4B2B601D4B186808F000F879
:1036B000009702000B00200003F018FAE0239B03A0
:1036C0002B601849200003F0D8F8174B17492B60DE
:1036D000200003F0D2F8300001F053F9F7BDC046E6
:1036E0000004002068100100F80300200F000A0009
:1036F0008CFB00007F0801009AFB000040001400D2
:10370000AC03002060001400A8030020A3FB00000D
:103710004000200090030020ABFB000040002C0084
:103720009C030020B3FB0000400038000AFF0000AB
:1037300010B5094B1B78002B01D0FFF76BFF074B2F
:10374000074A1A60BFF34F8F064B074ADA60BFF390
:103750004F8FC046FDE7C046DF020020FC7F0020FF
:10376000EF6916F000ED00E00400FA0513B504005F
:103770000191FEF70EFD01A92000FEF703FD13BD28
:1037800013B504000191FEF704FD01A92000FEF726
:10379000F9FC13BD10B5044B011C18600348FFF77A
:1037A000EFFFFFF7DDFB10BD9C0300205C03002052
:1037B0000122F0B5B84E97B033680400B74F1342FA
:1037C0000BD1B74D3900280005F007F80123B54AA1
:1037D000B5492800336005F0A1FA390004A804F0C7
:1037E000FCFF02F09FFCB14B1860632C00D179E222
:1037F00076D83F2C00D1E9E12CD80D2C00D1C2E2C3
:1038000013D80A2C00D1BEE2210013A805F004F859
:10381000A34C13A9200005F0D1F813A804F095FFDC
:10382000A368502B00D8C6E0FAE23C2C00D1D3E0CC
:103830003E2CE9D19E4C206807F03AFF9D4A9E4BF2
:1038400006F098F907F086FF2060FFF7A3FF9B4D75
:103850009B4920E05D2C0DD02BD85B2CD4D1994C0A
:10386000206807F025FF934A974B07F01BFB07F0F2
:1038700071FF2060934C206807F01AFF8D4A8E4B31
:1038800006F078F907F066FF011C20608F48FFF70B
:1038900077FF8A4D8E49280002F0EFFF206807F07D
:1038A00007FF0B00032102000091280003F027F915
:1038B00081E0612C00D16EE1622CA5D1854B7F485F
:1038C0001A78854B002A00D1CBE01A785142514139
:1038D00019708249002A00D0814902F0DFFF6AE0B6
:1038E000732C00D13EE136D8672C00D18CE01AD879
:1038F000662C89D17B4C23780133DBB2052B00D9B0
:10390000B2E0794D2370237813AE28003370FEF7B0
:1039100040FC31002800FEF735FC2378002B00D056
:10392000A4E0724929E0692C00D190E0722C00D00B
:103930006AE7624D6E49280002F09FFF1F24013C98
:10394000E4B2002C54D00A2002F022FC2E212800E0
:1039500002F097FFF3E7762C00D13AE10FD8742CF0
:1039600048D0752C00D04FE7624A1378594259412C
:1039700011706149002B00D060495048ADE77B2CA5
:103980001ED000217D2C00D03EE75D4B01311B781D
:103990004A4C002B17D05B4D5B482B68C918296037
:1039A000FFF7E4FE5949200002F067FF0A22296868
:1039B000200002F0C4FF04A804F0C7FE17B0F0BD59
:1039C00002214942E1E7524D52482B68C91829604B
:1039D000FFF7CCFE5049E6E7354C206807F068FE5B
:1039E000344A394B07F05EFA07F0B4FE206021E755
:1039F000FFF79EFE494A13785942594111704849D0
:103A0000002BBAD04749B8E7474A13785942594181
:103A100011704649002BB0D180248020444B2401F2
:103A20001B78444A40014449022B09D1434D2C6084
:103A30005061002B09D1414B8022D2001A609CE7D3
:103A40003F4D2C60012BF3D190613D4BF4E7FFF724
:103A50001BF92B4B3B491B78002B00D08DE73A49D3
:103A60008BE71A70394938E700234AE73849012BB8
:103A700000D182E73749022B00D17EE73649032B7C
:103A800000D17AE73549042B00D176E73449052B7C
:103A900000D090E771E7C046E8020020F001010085
:103AA000EC020020000000204B870000940300205F
:103AB0009C030020FCA9F1D24D62503F0416002067
:103AC000FFFC0000900300204D62603F14030020C3
:103AD000AAFC0000D60200200600002083FC0000A3
:103AE00096FC0000DD0200207403002055FD00005C
:103AF00010FD0000E1020020E7FB0000FBFB0000DE
:103B0000D5020020A80300202C030020C5FC0000E3
:103B1000AC03002044030020E2FC0000E00200208F
:103B200010FC000024FC0000DC02002055FC00001A
:103B3000000300200044004139FC0000984400418B
:103B40009444004172FC00007AFC00002AFD000051
:103B50006DFD000082FD000098FD0000AEFD00003C
:103B6000C1FD0000B14A138801339BB2022B10D86B
:103B700013801388AE49002B05D0AE49012B02D02B
:103B8000022B03D1AC49AD4802F088FEFFF7FCF9E7
:103B900011E70023ECE79625A94CAD002388A74840
:103BA000AB4206D1A74902F079FE01235B42238094
:103BB00001E7A54A934204D1A44902F06FFE258093
:103BC000F9E6A34902F06AFE0223EFE7FFF7BCFA29
:103BD000F1E602F0ADFA102104001120FFF7BEF863
:103BE000050002F0A5FA9B49041B10A804F0F5FD9E
:103BF0000A2221000DA804F02FFE0DA910A804F040
:103C0000F2FE954E310004F0FBFE04000A2229006A
:103C100013A804F00FFE13A9200004F0E4FE010035
:103C200004A804F04BFE13A804F08FFD0DA804F0C7
:103C30008CFD10A804F089FD804C0499200002F04E
:103C40002DFE02F075FA002105001320FFF786F81B
:103C5000070002F06DFA8149451B10A804F0BDFD74
:103C60000A2229000DA804F0F7FD0DA910A804F000
:103C7000BAFE310004F0C4FE05000A22390013A880
:103C800004F0D8FD13A9280004F0ADFE010004A83B
:103C900004F014FE13A804F058FD0DA804F055FD1F
:103CA00010A804F052FD0499200002F0F7FD6C49C1
:103CB00013A804F092FD6B4B0222196810A804F0BF
:103CC00032FE10A913A804F08EFE010004A804F02F
:103CD000F5FD10A804F039FD13A804F036FD049991
:103CE0002000FAE5604C0AA8210004F076FD5F4B45
:103CF0000A22196807A804F09DFD07A90AA804F084
:103D000072FE210004F07CFE0500594B0A2219685E
:103D10000DA804F08FFD0DA9280004F064FE210019
:103D200004F06EFE0500534B0322196810A804F03E
:103D3000FAFD10A9280004F056FE210004F060FEF0
:103D400004004D4B0322196813A804F0ECFD13A9DD
:103D5000200004F048FE494904F052FE010004A886
:103D600004F0ACFD13A804F0F0FC10A804F0EDFC86
:103D70000DA804F0EAFC07A804F0E7FC0AA804F088
:103D8000E4FC0499F9E500243D4E2C48316802F02A
:103D900085FD0394039A3A21300004F045FE002883
:103DA0003ADB431C0393039AB368310013A804F071
:103DB0004BFE13A804F076FE051C13A804F0C5FC06
:103DC000032C04D8200004F0B1FF040F1A220134A0
:103DD000E0E7281C05F064FE244B01001860294828
:103DE000FFF7C4FC0124D5E7281C05F059FE204B41
:103DF000010018602448FFF7B9FC0224CAE71D4BF4
:103E0000291C22481D600324FFF7BAFCC2E7281CC6
:103E1000FFF7C0FC0424BDE7002C01D0FFF7CEF86B
:103E20003900174804F074FDC5E5C04604000020C1
:103E3000D8FD0000EFFD000007FE00000416002082
:103E40000A0300201FFE0000FEFF000030FE0000FD
:103E500040FE00004EFE000054FE000058FE000030
:103E60005EFE0000B8040020B1FB0000AC0300209F
:103E7000A8030020900300209C03002064FE0000A3
:103E8000EC020020440300202C0300201403002037
:103E900073B5284B284D294A2B602B00B4331A6088
:103EA0002B000024264EB83330006C601C6001F0FB
:103EB00019FA244B30002B60234A244B244900F08C
:103EC000B9FDFF2330001A00190001F0C0FD214D9B
:103ED0002200280000940223082101F029FD280077
:103EE0002200009402230921103001F021FD280056
:103EF0000223220000941221203001F019FD042237
:103F00001549164801F004FC04221549154801F032
:103F1000FFFB04221449154801F0FAFB042214495E
:103F2000144801F0F5FB01221349144801F0F0FB9D
:103F300073BDC04600FB0000F8030020D152000012
:103F40000004002018FB0000655A00007D590000A5
:103F5000545A0100BC030020000601004403002065
:103F6000000501002C0300200004010014030020C0
:103F7000000301005C03002000070100740300201F
:103F8000F0B532209DB002F003F9B74C200001F0EB
:103F9000FBFD20003C2101F025FE200001F097FEF2
:103FA000B24C061E00D059E1B149200002F065FC78
:103FB0000A223C21200002F0C2FCAE4D280001F094
:103FC0004BFB280000F022FD3100280001F04BFBE4
:103FD000A94BAA4A1A620122A94B1A7001210E208C
:103FE00002F04CFB0021112002F048FB00211020C0
:103FF00002F044FB0021132002F040FB02211B20B1
:1040000002F03CFB01210B2002F038FB01210D20C6
:1040100002F034FB0121042002F030FB01210800F2
:1040200002F02CFB8022974B92019A608022D201F1
:104030009A608022802112029A60934A09011160DD
:104040008021490199608023904DDB001360280096
:1040500001F0DEFB2800103001F0DAFB28002030F0
:1040600001F0D6FB0A2002F0D9F90A210E2002F055
:104070001FFA874B1A88002A01D1023A1A8003AE30
:1040800031008448FEF78BF83278834B3100834847
:104090001A70FEF784F8039A814B310081481A6048
:1040A000FEF77DF8039B804F310080483B60FEF7B0
:1040B00076F8039B7E4D31007E482B60FEF76FF84B
:1040C0007D4B039A1A60FEF75FFF7B4B0021186857
:1040D00004F0F6FF002814D07848FFF75BFB0021BE
:1040E0006F4B6E481960FE239B0539602B60FFF70C
:1040F0003DFB39686B48FFF739FB29686B48FFF7D0
:104100003FFBFEF72DFF5E4B1B78002B27D0FFF700
:1041100081FA64226A49300007F04AFC002517271B
:1041200073195B88705B5F43019305F0D9FCFC2138
:10413000890505F083FB07F0BBFA624B002205F00E
:1041400019FD04F0EBFF3A000100012002F09CFF92
:10415000019B0435580102F01BF8642DDFD15A4948
:10416000200002F08AFBE1210A228902200002F0ED
:10417000E2FB5649200002F080FB9620800002F00E
:1041800007F8E121524D8902280004F0A9F85149AD
:10419000280002F072FB01F0C5FF060001F0C2FF2B
:1041A0004D4B801B984211D8280004F0BDF902281D
:1041B000F4D1280004F0A0FA4F28EFD1280004F031
:1041C0009BFA4B28EAD10122444B1A70434E4449D2
:1041D0003378002B00D14349200002F04EFB3378A6
:1041E000002B2ED14049280002F047FB01F09AFF36
:1041F000070001F097FFC01B31281AD8280004F0EF
:1042000093F90428F5D1280004F076FA4F28F0D16C
:10421000280004F071FA4B28EBD1280004F06CFA66
:104220000D28E6D1280004F067FA0A28E1D101231D
:10423000337033782A49002B00D12C49200002F03A
:104240002DFB32782A4B1A70FEF77EFFFEF752FEE6
:10425000FEF780FCFEF700FD1DB0F0BD25492000F3
:1042600002F01CFBBAE6C046080D00200416002030
:104270003D08010000040020F8030020006A180037
:10428000DF0200200044004188440041BC030020BC
:104290000A03002074030020DD02002044030020F4
:1042A000AC0300202C030020A803002014030020EE
:1042B000900300205C0300209C0300203333534014
:1042C00028FB00000000E03F5F08010074080100C7
:1042D000C412002005010100E7030000D6020020FF
:1042E00000080100040801007C08010030080100FA
:1042F000060000204E080100F0B5102187B0112003
:10430000FEF72CFD05F0ECFBBF4B186007F0D0F971
:10431000BE4B04001B780D00002B30D0BC4B18683E
:1043200007F05AF90022BB4B05F040FF02000B00DA
:104330002000290005F01EFC07F00CFAB64BB74E22
:104340001860B74B1C78B74BA400196805F076FAD3
:10435000B54B196805F072FAA15904F0FDFEFE2173
:10436000B24FA0518905E05904F0F6FEB04AE05181
:1043700013680133072B04DC136007B0F0BDAD4BAD
:10438000CDE70023082500241360AB49201C05F06D
:1043900055FA7B59041C0021181C019304F090FE6F
:1043A000002808D10199705905F070F8011C201CF3
:1043B00004F0D2FE041C002373517B51043D2B1DDD
:1043C000E3D19E4A1378002B02D0013B1370D4E74F
:1043D0009B4D9C4E2868211C346004F0BDFE9A4A17
:1043E0009A4F136828603D68013313600021281C30
:1043F00004F080FE002802D180231B06ED18002166
:10440000201C04F077FE211C002802D180231B060B
:10441000E118281C04F05AFE002800D03C6001F08E
:1044200081FE8B4C2368984225D301F07BFEFA2352
:104430009B00C018206000211320FEF78FFC05F0C0
:104440004FFB07F035F90022824B05F0AFFE824B9F
:10445000040018680D0007F02BF902000B00200083
:10446000290006F0ADFA7D4B002206F0A9FA07F00C
:1044700071F97B4B18607B4C200002F019FF00287B
:1044800006DD200002F044FFC0B2FFF791F9F2E729
:10449000754B1B78002B0FD0744903A804F09DF9CD
:1044A00003A8FDF78DFE002803D00399200002F039
:1044B000F5F903A804F049F900226D4B1A706D4A12
:1044C0001278002A11D00122684903A81A7004F05A
:1044D00084F903A8FDF774FE002803D00399664809
:1044E00002F0DCF903A804F030F94D4B34681D7874
:1044F000002D0BD0201C07F0DBF8604A604B06F063
:104500005FFA07F027F9013D041CF1E75D4B1B78CA
:10451000002B1BD001F006FE5B4B1B68984215D99F
:104520003A4B1B78002B62D05849201C04F0CEFD7A
:10453000002805D15649201C04F0DCFD00283AD0A3
:10454000374B1B78002B31D1FEF730FB01F0EAFD31
:10455000504C2368984222D301F0E4FDF530FF303F
:104560002060394C364D206805F0BAFA011C2868E5
:1045700004F08CFF484B011C186000232B600023C3
:104580002360464C206804F0E7FDFE212060444C87
:104590008905206804F0E0FD2060FDF7E3FFFEF7E9
:1045A0000FFCFEF7ABFEFEF721FCE6E6012BCDD1BA
:1045B000FEF7D0FACAE7201C07F07AF8394A3A4BDE
:1045C00004000D0004F05CFD0028BFD0200029008D
:1045D000344A364B04F040FD0028B7D0104B1B780E
:1045E000022BB1D0012BB1D1FEF70AFBAEE7304967
:1045F000201C04F07FFD0028A2D1201C07F058F8F1
:10460000284A2C4BE6E7C046B4040020D50200201F
:10461000A803002000002440C0040020D80400208B
:10462000000300209803002090030020C404002011
:10463000FC020020AC03002000007A44100300209C
:10464000B4030020E8040020F8020020D404002075
:10465000BC040020C0FFDF409C0300200000F83FA6
:10466000B804002004160020E1020020F00101003F
:10467000EC03002006000020C4120020FCA9F1D2A7
:104680004D62503FD4020020D00200200000AFC491
:104690000000AF44B0030020B8030020E404002071
:1046A000D0040020CDCCCCCCCCCCF4BFCCCCF43FCF
:1046B00000002F45CCCC04404378DB09FCD1704787
:1046C00001235B420380033383700023C3700371B3
:1046D00080239B01C3803F2303727047F8B50F000E
:1046E00009783E4A4B09DB019B181F2211401E3AF4
:1046F00004008A400F2965D98020110C000601436F
:10470000374804260143996220005A60FFF7D4FF1E
:1047100002222378200093432370FFF7CDFF082265
:1047200023792000934323712379053AB3432371FE
:104730002379012593432371FFF7BEFF6022237B7A
:10474000200093432373FFF7B7FF1022237B200041
:1047500093432373FFF7B0FF0F22237B2000934383
:10476000237363792B43637123781E432670FFF70D
:10477000A3FF0222237A200013432372FFF79CFF3A
:10478000237A20002B432372FFF796FF0123FB5669
:10479000072B1ADC2000FFF78FFF0122BA56237D7A
:1047A00095401D43EDB225752000FFF785FF2000E1
:1047B000FFF782FF02232278200013432370FFF7C4
:1047C0007BFFF8BD91B2002099E70F2BEFDC083B8F
:1047D0009D40627D1543EDB26575E8E700440041F8
:1047E00000000151042370B50400022502780E0078
:1047F00013430370FFF760FF237820002B432370DF
:10480000FFF75AFF237A20002B432372FFF754FF50
:10481000A37A20001D43A5720125FFF74DFFA37A5F
:1048200020002B43A372FFF747FF2000FFF744FF50
:104830000123F3560022072B4DDC9D40EDB2257479
:1048400062742000FFF738FF0321F278E37E0A400C
:104850008B431343E3762000FFF72EFF0721B27846
:10486000637B0A408B43134363732000FFF724FFED
:1048700032791023002A34D1227B9A4322730F22EB
:10488000237B93433F2523732000FFF715FFF38815
:104890002000DAB22276627E1B0AAA432B40134321
:1048A0006376FFF709FF327AA37E2A40AB431343B6
:1048B000A3762000FFF700FFA422631CDA77200014
:1048C000FFF7FAFE8023627B5B4213436373200091
:1048D000FFF7F2FE70BD083B9D40EDB22274657497
:1048E000AFE70F21227B134323737279237B0A40A6
:1048F0008B431343C6E7437B0120DB0958407047D5
:1049000010B50400FFF7D8FE237F607F0002184334
:1049100010BD0300F0B550331B7885B0029303003F
:104920000500002651331F7803685B7C03932B68D6
:10493000B0B21B7CF4B2D9004143E86C89B2411893
:104940003A190091D2B20021280000F071FE013422
:10495000029BE4B2A34205D90136BB19039ADBB22C
:104960009A42E4D805B0F0BD10B5036800211A7C66
:10497000030050331B78C06CDB005A4307F034F857
:1049800010BD10B50400FFF7C4FF200000F072FE58
:1049900010BD030010B5040051331970836C1B68FF
:1049A0009847A36C20005B68984710BD030010B5C2
:1049B000AB331B780400002B01D0FFF7D5FF00219B
:1049C0002000FFF7E6FF10BD70B50400FFF7A1FF60
:1049D000230051331D78013B1B78ED182368EDB29D
:1049E0005B7CAB4204D8200000F044FE002070BD88
:1049F0002300AB331B78002B02D02000FFF7B4FF5D
:104A000020002900FFF7C5FF0120F0E710B50400E2
:104A1000FFF7CCFF2000FFF7D7FF011EFAD12000DF
:104A2000FFF7B7FF10BD0000082303700048704770
:104A3000EC0400207FB50F250E006D44009308495B
:104A40001300084A040000F03DFE2800FFF7ECFFC9
:104A50002A7801000096044B200000F017FC7FBD6F
:104A60008D550000F5530000D35000004118087820
:104A70004B780002C01880B270470020704770B5B4
:104A80000B780D0003704B78040043708B788370B3
:104A9000CB78C3700B7903714B7943718B79837138
:104AA000CB79C3710B7A03724B7A43728B7A837220
:104AB000CB7AC3720B7B03734B7B43738B7B837308
:104AC000CB7BC3730B7C112103742800FFF7CEFF4F
:104AD000132160822800FFF7C9FF1521A08228005A
:104AE000FFF7C4FFE08270BD70B50468067B2578CF
:104AF00072183541D2B2EBB2072A0AD9631C03609F
:104B000063780824A41BE4B2A340083A2B43DBB229
:104B1000D2B20273012252428A409343180070BD00
:104B200070B5040000237834816723730300050007
:104B3000903319782000FFF7D7FF2B00A072913334
:104B400019782000FFF7D0FFAA35E0722B78A37305
:104B50005A425341E37370BD10B50C00FFF7C4FF18
:104B60000123013CE4B2A340C01A40B210BD012BA6
:104B700008D0002B03D0022B06D0401A00E080188A
:104B800080B270474018FBE7801AF9E7012B08D084
:104B9000002B03D0022B06D0801800E0401880B212
:104BA0007047801AFBE7401AF9E70300F0B50400EC
:104BB0000F008DB00B9278331A7A04925B7A0793C8
:104BC00025007835AB7A049A9B1ADBB20593059AD7
:104BD0003B1C974201D96B461B7DDBB20893EB88E7
:104BE000A88810260A936B469E571B7F31005BB244
:104BF00006932B7C069A0393FFF7C8FF039B09904B
:104C0000069A31000A98FFF7B2FF0B9B0200002BB7
:104C100017D0A97B2300AA3319706B4603991B8C0C
:104C200020000091099900F0BCF9059B9F420DD32B
:104C3000FF1A079BFFB20133DBB2079300230493F3
:104C4000BEE76B7B002BF0D1E97BE3E7049B783474
:104C5000FB1823726B461B7E63720DB0F0BDF0B57E
:104C6000040089B00700FFF75BFF230083331B7844
:104C700078375BB202932300923319783800FFF73C
:104C80006BFF23000690933319783800FFF764FF19
:104C900023009433197805003800FFF75DFF0A23DD
:104CA0000790FB560393002B59DD029B06995B1975
:104CB0005B425BB205933B7C059A0493B888FFF78F
:104CC00065FF049BB880059A069906000500F888E0
:104CD000FFF74DFF049B02000100F880032B62D810
:104CE000180004F023F8023F4956039B0298F51878
:104CF0001118ABB289B200912000310000F0D0F958
:104D000000282CD023000022012580331A802300A4
:104D10008E3319783800FFF7E7FE230003908F33B6
:104D200019783800FFF7E0FE060000220399200002
:104D3000FFF73BFF310020002A00FFF736FF290074
:104D40003800FFF7D1FE0028EFD123000922783385
:104D50009A5602998A42DADB9B7BAA342370079821
:104D600009B0F0BD029B0398F61A013511180136FF
:104D7000ABB289B2B6B2BEE70122039B0298D61A43
:104D8000AE19AD18121A8A180131ABB289B292B2BB
:104D9000F0E7039A029B8A1AF51801320131ABB28F
:104DA00089B292B2A7E73300A5E7F8B5046F0D000A
:104DB0001734FF2912D860290AD9A0300388E418D3
:104DC0006078002803D02378AB4205D1A01CF8BD41
:104DD0004029F5D99E30F1E72418F1E7A230008888
:104DE00002272418260000213000FFF73FFE39007B
:104DF00024183000FFF73AFE04368542F3D8607875
:104E000023780002184340BA80B20028DFD08542E0
:104E100001D1E01CDBE7A378E418F0E7F8B51F0048
:104E200003008833040018780E001500032808D802
:104E3000636F03F07BFF02171C20200098472D189A
:104E4000ADB223007C3339001E805D802000FFF767
:104E5000ACFF01000020814203D02000FFF7FFFEDD
:104E600080B2F8BD20009847361AB6B2E9E72000B4
:104E700098472D1AE4E7200098473618F5E7000018
:104E8000F7B51F0006000C00150000F02BFA0023F8
:104E900001937368397830009847134A03009042B1
:104EA0001FD0124A01379042F3D02A00210030006F
:104EB000FFF7B4FF3200883203001078032805D8CA
:104EC00003F034FF02080B0DE418A4B2019AD318C2
:104ED0009BB2DDE7ED18ADB2F8E7E41AF5E7ED1A9D
:104EE000F9E70198FEBDC046FFFF0000FEFF00008D
:104EF00010B5024C4460FFF7C3FF10BDD152000053
:104F0000036F70B5002B1DD003000026050001249F
:104F1000020099339E57A6352E701C57A732147085
:104F20000C331B78002B0DD0012B0CD103009B33CD
:104F30001B785BB29E4200DA2B709C23C3569C42C6
:104F400000DD137070BD0300982196331B78415625
:104F50005BB25B189E4200DA2B708C42F2DD11705E
:104F6000F0E70000014B43677047C0467B4A0000F2
:104F7000036F10B504008B4206D001678C30FFF739
:104F80007EFD2000FFF7BCFF10BD37B5050056358C
:104F90002D8806AC2478521B009492B2446CA04732
:104FA00037BDF7B50500A4352D7808AC2478002D61
:104FB0003FD0002B3DD0012B04D9022C30D1013140
:104FC000C91A89B201252C400500002C32D1643564
:104FD0002D8895422DD8050066352D88954228D913
:104FE00005000600CB18603562369BB22D883688E6
:104FF0008B421CD28E4219D9731E9BB29D4218D28D
:105000002F1C8D4200D20F1CB9B2351C9E4200D914
:105010001D1C6B1A856C00949BB2AC68A04708E01D
:10502000032CCFD10132D21A92B2CBE729008E42A3
:10503000E4D8F7BD60352D888D42FAD80500623579
:105040002D888D42F5D90500D31864352E889BB282
:1050500002352D88934211D295420ED96B1E9BB218
:105060009E42E6D2371C964200D2171CBAB22E1CC2
:105070009D4200D91E1CB31ACCE732009542D8D904
:10508000EEE710B504008A4206D20120A34202D8FE
:1050900093429B41584210BD8342F9D80020FAE761
:1050A00070B50D00010004001E00663104AB6430D1
:1050B0001B8809880088FFF7E4FF002808D0230038
:1050C000603462331988208833002A00FFF7D9FF43
:1050D00070BDF7B508AC247807260194140034405D
:1050E000A44601246546AC400500AA352F78E4B2F9
:1050F0000025012F02D82500012F29D0B243160028
:105100000268127C724392B25118C26C5118019A13
:10511000002A1FD007000126523701970A78072777
:105120002A4362400A70624601321740013BBC4686
:105130009BB2002F18D1019A128889180200AA3256
:105140001278012A02D83500012A11D034000FE06C
:105150000024D3E70A78013B2A4362409BB20A70DD
:105160000131002BF6D1F7BD6D006400EDB2E4B261
:10517000002BD3D1F7E70300F0B550331D78016859
:10518000AAB2D4009C8004000B7C5234DB00238044
:10519000030051331F78BEB2F300A3804C7CED199D
:1051A000A54201DDA21B92B20400D2005834238034
:1051B0009B1802005A32138003008A8A5C331A80DB
:1051C000CB8A5E300380F0BD10B5FFF7D4FF10BD71
:1051D00013B504AC24780094FFF7D7FE13BDF0B5E7
:1051E000060005000700040085B06E306A366C3595
:1051F000683733882A883988039000880090200017
:10520000FFF74EFF2300A433002802D1187005B029
:10521000F0BD01221A70230060333A881988914248
:1052200000D21A802300623332881988914200D953
:105230001A80230064332A881988914200D21A8088
:10524000039B66341B8822889A42E0D92380DEE7DC
:1052500003000022603310B51A8002005C3212880D
:105260005A800200583212889A8002005A321288FC
:10527000DA80FFF7B4FF10BD034B10B58366C36639
:10528000836C5B68984710BD0000FFFF70B5040099
:105290006364230000255033E16425671A705D7054
:1052A00035331D70220024331D700123AA32049867
:1052B000137053700368A064200098472000FFF724
:1052C000DBFF20008834FFF74DFE257070BD000025
:1052D000002902D088B20A2900D101487047C0468F
:1052E000FFFF000000230730C377704710B513009D
:1052F00004690A001721A04710BD07B56B46DA1DE7
:1053000011700121FFF7F2FF0EBD002310B51A0046
:1053100004691821A04710BD002310B51A000469C4
:105320001921A04710BD70B5040016000D00FFF74D
:10533000ECFF40212000FFF7E0FF33002A00172197
:1053400025692000A8472000FFF7E6FF70BD10B5D3
:105350000A00C46800231521A04710BD10B50A003B
:10536000C46800231621A04710BD10B51300C468FF
:105370000A001721A04710BD002310B51A00C46809
:105380001821A04710BD002310B51A00C4681921C8
:10539000A04710BD73B505000C002178172918D05F
:1053A00002D815290CD273BD19291BD9FE29FAD1AF
:1053B0006B46627829212800DA7100F062F906E074
:1053C0006B4662782800DA71EE680023B047023439
:1053D000E3E76B46DA1D6378012128001370FFF7BD
:1053E000C4FFF4E7002328001A00EE680134B04738
:1053F000D3E700001439F8B5040015001E000020A2
:10540000052919D8080003F091FC3703181E4448F9
:10541000274E3378002B02D02000FFF77DFF2000BD
:10542000FFF773FF00212000FFF767FF290020002E
:10543000FFF763FF01203070F8BD11002000FFF777
:105440005CFF0120F8E71A4F3B78002B02D02000C8
:10545000FFF762FF3200182D06D829002000FFF761
:1054600062FF00233B70ECE718212000183DFFF796
:105470005AFFEDB21836EDE7631DDA7FFF2A01D13E
:10548000873ADA77276933002A0014212000B847C9
:10549000D2E70022064B1A70D3E7054D2B78002B7C
:1054A00002D02000FFF738FF00232B70C9E7C04669
:1054B000EC0800200B39F8B5040016001F000800A6
:1054C000042958D803F032FC03570C1E2D002B4939
:1054D000002A00D02A492000FFF75CFF0120F8BD18
:1054E000E51C002A07D127492000FFF753FF236856
:1054F0009B7CEB77F2E724492000FFF74BFF236802
:10550000DB7CF6E72000FFF737FF81212000FFF763
:105510001EFF31002000FFF721FF2000FFF733FFBF
:10552000DCE72000FFF728FFE31C7D79D97FED0041
:105530006D1820004021FFF70AFF1021EDB22B0962
:1055400019432000FFF703FF0F2120002940FFF738
:1055500005FFB023B97920001943FFF7FFFE397921
:10556000013EC900C9B23A682000F6B2FFF7FDFE5D
:10557000002EF4D1D1E70020B1E7C046A35A0100C4
:10558000A85A0100605A0100675A010070B5040072
:105590000D00FFF78FFF00280AD1092D0AD00A2D30
:1055A00007D1200000F015F805492000FFF7F2FEB2
:1055B000012070BD0349200000F006F8F8E7C0465E
:1055C0006E5A0100B05A010001608B7C0330C37732
:1055D0007047002370B51A00282145690400A847C8
:1055E0000023E5681A0014212000A84720000122AA
:1055F0004B2100F046F8236820001A79292100F099
:1056000040F8200000224B2100F03BF823682000E6
:105610001A79292100F035F8200001224B2100F0F1
:1056200030F8236829215A79200000F02AF870BD4B
:1056300013B56C462371049B6171A2710093846859
:105640006B4601220F21A04716BD002310B51A009A
:1056500084680921A04710BD002310B51A00846892
:105660000A21A04710BD10B50A00846800230B2151
:10567000A04710BD002310B51A0084681021A04770
:1056800010BD10B500234469A04710BD002070472D
:1056900000230B4A03608260C26002614261021D06
:1056A000D377C21DD3778361421DFF33D377233273
:1056B000137042300432137001328242FBD17047C2
:1056C0008D560000F8B504000F0016001D00FFF70E
:1056D000DFFF069BA760E660256163612000FFF79E
:1056E000B4FFF8BD10B5054A0549064800F010F8AA
:1056F0000022054B05491A705A5410BD01040000E0
:10570000005B0100F00C0020ED0800200204000006
:1057100030B5094D094CAB685B035B0F9B001C590E
:105720000460AB6801619BB243606343A400836083
:10573000C460426130BDC0460040004100600100CD
:10574000F7B580261A4D01916F6803333E439B08DD
:105750006E60002B2BD0174E2E802E7DF107FCD5CE
:105760001E000768991BBF088F4219D9002E17D059
:10577000FF2117788C433C430F4957780C403F0278
:105780003C439778013E39040C4F2740D478BFB290
:105790000F43240601993C4310C101910432E0E714
:1057A000074B2B802B7DDB07FCD53300D1E7F7BD02
:1057B0000040004144A5FFFFFF00FFFFFFFF00FF87
:1057C00004A5FFFF044B054A4908D9611A801A7DD8
:1057D000D207FCD57047C0460040004102A5FFFF3C
:1057E00070B504000D001600E36829002000B342E4
:1057F00005D2FFF7E7FFE368ED18F61AF4E7FFF7C5
:10580000E1FF70BD10B510001A0006F0D1F810BD10
:10581000052370B5C3560100002001332DD072B6A8
:1058200022231648164A0370164B174E5D885C8873
:105830002D0514405C805C882D0F344080265C80F0
:105840001400F6015A883242FCD15A882D022240B7
:105850002A435A8062B60D4A04315A8022220270CD
:105860005A8832435A808023094A1B03106A034333
:1058700013620848FEF732FF012070BD020C0040A1
:10588000FFF0FFFF000C0040FFBFFFFF22030000FE
:1058900000040040004C0042011D10B50748FEF70F
:1058A000A1FF0648FFF727F8002802D100F092FC7C
:1058B000F7E70248FFF724F810BDC046004C00424D
:1058C00010B50400FFF7E8FF0200A079062805D80C
:1058D00003F02CFA05070A0C0E101200074A1000FC
:1058E00010BD53089AB2FAE79308FBE7D308F9E72B
:1058F0001309F7E75309F5E79309F3E7FFFF000002
:1059000018230168094A4B43D1189B564868002B5D
:1059100003D10238052806D87047012B03D1092886
:1059200001D80630F8E701204042F5E7FC600100AD
:10593000F7B51E0008AB1B78040004300D001700FB
:105940000193FEF7BDFE182325605D430A4A20003F
:10595000AB565519013B59424B416A685B019B1894
:105960002371FFF7CDFF6B461B796071A771E6715C
:1059700020002372FEBDC046FC60010070B5060029
:1059800015002B2915D801202A2939D2282927D0FA
:1059900029293CD000203F2932D93F2319407318D0
:1059A0002C331C78FF2C2AD00F2944D82900200042
:1059B00013E02D292FD024D30B004C3B012BE9D829
:1059C0003F24214041182C310C000878002A2ED1A8
:1059D000012100F053FE2900207800F07FFE0EE048
:1059E000002423002C33F05CFF2805D001210F2C6C
:1059F00000D9022100F042FE0134162CF1D1012021
:105A000070BD002AFBD01023013BFDD1F7E7100049
:105A100000F0BEFBF3E702239A4200D803333020A4
:105A20000321584303F08CF90138FDD1E7E7022147
:105A300000F024FEE3E7102901D100F0CBFB2000A9
:105A400000F078FE431E98410836F077D7E710B58E
:105A50000400373421700100393038310A70037086
:105A600010BD0000143970B5040008000C292AD8B4
:105A700003F05CF90D292907192529292929292944
:105A80000B001900114800F025F8012070BDA36932
:105A9000002B04D123685A7B0D4B5343A3610B4861
:105AA00000F072F8F1E7094DA1692800053400F013
:105AB0008BF8E17F2800490800F094F8E5E70348F7
:105AC00000F005F9E1E70020E0E7C046080D0020FE
:105AD000A0860100F8B505000E0017000024BC42A6
:105AE00008D02B68315D1B6828009847002801D03A
:105AF0000134F4E72000F8BD70470300FC33196A55
:105B0000DA69914203D01B6AC018007E70470120F9
:105B10004042FBE70300FC33D8691B6AC01A01D579
:105B20000130FF3070470000F7B50193FA2380265B
:105B3000002504009B008360124B760008330F00A1
:105B400045602900009203603200183005F04CFFD8
:105B500023002000FC332130DD6132001D6229006A
:105B6000FF3005F041FF87239B00E3185D609D60D7
:105B70006B461B78276123756B461B79A575200042
:105B80006375FEBD2060010070B5060018250C4944
:105B9000006901F027FA306901F0A2F82B00082112
:105BA000307D084C4343E318595600F0DBFD0821D3
:105BB000707D45436419615600F0D4FD70BDC04648
:105BC000A0860100FC60010070B504000D000069B2
:105BD00001F09BF82900206901F004FA206901F026
:105BE0007FF870BD8A2300229B00C1540C3BC31870
:105BF0005A609A60012383757047020010B5FC3229
:105C0000536894680133DBB29C4202D0546801555A
:105C1000536010BD002210B5837D93420DD08723C1
:105C20009B00C4186368A4680133DBB2A34204D0AC
:105C30002130FF30FFF7E1FF0122100010BD03000B
:105C4000FC3399685A68914206D09A68805C9A68D9
:105C50000132D2B29A60704701204042FBE7002235
:105C60008A2370B59B00827505000E00C15C006937
:105C700001F07EF8002806D10321286901F062F8BE
:105C80000224200070BD872328009B00EA18536877
:105C900094682130FF301C1B01D50134FF34002CE7
:105CA0000ED02C69FFF7CBFFC1B2200001F09EF8A7
:105CB0000028E8D10321286901F044F80324E0E733
:105CC000002EDED00321286901F03CF8D9E710B599
:105CD0000121FFF7C4FF10BD10B51830FFF7AFFF6B
:105CE00010BD70B50400006901F0A0F8002814D0C0
:105CF000206901F0A9F8002810D0206901F018F8F7
:105D00000321206901F01EF88C239B00E558002D2B
:105D100039D10023FC34E361236270BD206901F0B6
:105D20009DF8002809D0206901F093F8002804D0DC
:105D3000206901F098F80028DFD0206901F08EF882
:105D4000002826D1206901F07AF80028E5D02069E2
:105D500001F089F8002837D087239B00E2185368A8
:105D600092689B1A01D50133FF33FF21002B05D028
:105D700020002130FF30FFF762FFC1B2206901F03F
:105D800047F8A075C9E7236820001B699847A84712
:105D9000BFE7206900F0CCFF2069032100F0D2FFAB
:105DA000206901F060F80028B7D0872300229B000B
:105DB000E3185A609A600123A3758B239B00E35874
:105DC0009342AAD09847A8E72200FC32D369126A0E
:105DD0000133DBB22069934206D100F0A0FF03211A
:105DE000206900F0AFFF98E701F042F801002000C1
:105DF0001830FFF702FF206900F09AFFEFE700007C
:105E000010B50248FFF76DFF10BDC046080D002019
:105E100010B51523142202490248FFF785FE10BD74
:105E2000CC150020080D0020F0B5040085B01E0040
:105E30000AAB1B78103001930BAB1B781700029351
:105E40000CAB1B780D00039300F076F82000243093
:105E500000F072F8220000234832A363E363236456
:105E600063641370537063729D4205D10A4B0B4AF1
:105E700022210B4805F010FD6B461B792000637151
:105E80006B461B7A2560E3716B461B7B2771A671FD
:105E9000237205B0F0BDC04644600100A760010058
:105EA000556001001FB5094A094B0A4913600023D8
:105EB0005371137102930133019316330093162229
:105EC00001330548FFF7B0FF05B000BD880F002083
:105ED00000093D00D01500203C0F0020094B186838
:105EE000002809D1EFF310820749002A08D172B6C1
:105EF000BFF35F8F01320A701A6801321A6070476F
:105F00000870F9E7940F0020900F0020084B1A68E2
:105F1000002A0CD01A68013A1A601B68002B06D1BF
:105F2000044B1B78002B02D0BFF35F8F62B6704723
:105F3000940F0020900F0020FF23002110B50400D3
:105F40000370FC3B41708170C170017143710C2280
:105F5000083005F049FD200010BD000001220B00B3
:105F600010B5134008D00D4B1A700423437083689A
:105F7000002B00D0984710BD0222114204D00749DF
:105F80000A704370C368F3E704231942F3D0034A4D
:105F90001370033343700369EAE7C0464E4800417B
:105FA00010B5FFF79BFF0C4B1B8C1B071B0F0B2B1C
:105FB0000FD80A4A9900885800280AD00F240849A7
:105FC0000A78A24313430B70064B1978C9B2FFF746
:105FD000C5FFFFF79BFF10BD00480041980F002050
:105FE0003F4800414E48004110B5024802F0B8FA5F
:105FF00010BDC046C80F002010B5024802F0B0FA2C
:1060000010BDC046C4120020F7B501240326154F69
:106010001549380000F0CEFD1449154800F0CAFDBE
:106020001449154800F0C6FD1449154800F0C2FD9A
:106030001449154800F0BEFD144D1549280000F024
:10604000B9FD39000096230001940022114802F0A6
:106050001BFA0096290001941E231F220E4802F00D
:1060600013FAF7BDC015002000080042000C0042E2
:10607000C415002000100042C81500200014004282
:10608000CC15002000180042D0150020D4150020A7
:10609000001C0042C80F0020C4120020FEE70000D0
:1060A000034B10B51B68002B00D0984710BDC046AD
:1060B000D815002070B50F490F4CA14204D100F053
:1060C0008DF802F0F7FCFEE70C4D00238D42F6D070
:1060D000CA18E818A24205D3094B8242EFD00949F9
:1060E000002204E0006804331060F1E704C38B422F
:1060F000FCD3E4E700000020B0020020F06A0100B9
:10610000B0020020F81B002010B500F064F8002851
:1061100001D100F055F810BD014B18607047C04622
:10612000D8150020014B18687047C046DC150020C8
:10613000F7B51348012284461249134C8E686368F0
:1061400005689B0E1340019288686268019F920E59
:106150003A4067463F6893420ED1BD420CD1864219
:106160000AD35B19FA254868AD00861B07486B43C4
:106170007043000DC018FEBD3D0013000600E3E7AC
:10618000DC15002010E000E000ED00E055550000B7
:1061900070B5041E10D0FFF7CBFF050000F01AF811
:1061A000FFF7C6FF054B401B9842F7D9FA23013C85
:1061B0009B00ED18002CF3D170BDC046E703000032
:1061C00010B5034A13680133136000F0B7FC10BD2B
:1061D000DC15002070470020704700001E2270B5BB
:1061E00046484749436893431C3A13434360082396
:1061F0008C6923438B61434C434B9C829C8A1443A0
:106200009C82DC681442FCD00124404A147015784A
:10621000254203D055786DB2002DF8DB012494603F
:10622000547864B2002CFBDB394C5460547864B26F
:10623000002CFBDB8224E4015480547864B2002CEF
:10624000FBDB02249C840E34DD682542FCD0314CFB
:10625000DC621024DD682542FCD09D8C2E4C2C4342
:106260009C841024DD682542FCD002249D8C80266D
:106270002C439C844024DD683542FCD0DD682542F7
:10628000F9D01024DD682542FCD0002494605478B5
:1062900064B2002CFBDB214C5460547864B2002CB7
:1062A000FBDB1C6A1E4D2C4080251C621C6AAC4323
:1062B0001C62032393601B4B536053785BB2002B2B
:1062C000FBDB0023FF240B72174A4B728B72CB72DD
:1062D000164B1A60164B174A1B6811689A065B0129
:1062E000C90E2340520F12020B431343124A138567
:1062F000802342681343436070BDC04600400041A4
:10630000000400400C06000000080040000C0040A3
:1063100001050100B905FF7D040A00000007030024
:10632000FFFCFFFF03060100006CDC0224000020DC
:10633000246080002060800000400042FA212D4B44
:1063400010B51868890002F0FBFC2B4B013898420D
:106350004FD82A492A4A4860C020136A00061B0207
:106360001B0A0343136200238B6007330B608021F9
:10637000136A09061B021B0A0B431362FC22214B02
:10638000196A0A431A62FF22196A12020A431A6240
:10639000A022196AD2020A431A621B4B1C005A78C7
:1063A00052B2002AFBDB194A5A80194B1A00597E57
:1063B000C9090129FBD0C821890099800521D9701C
:1063C000537EDB09012BFBD0C02300205B0113614E
:1063D000907000F029F863785BB2002BFBDB0D4B6B
:1063E0000D4A6380D379DB09012BFBD04123537025
:1063F00010BDFEE724000020FFFFFF0010E000E0DA
:1064000000ED00E000040040000C00401E400000D1
:10641000004000422140000000480042014B18604B
:106420007047C046280000201F4900B50B004A7E77
:10643000D209012AFBD001380A282FD802F076FCB5
:106440001B2E2E2E2E2E062E2E2411001A691749D1
:106450000A400F211A615A788A43110001220A4327
:1064600010E01A6911490A400F211A615A788A43CB
:1064700011000322F3E71A690C490A400F211A613F
:106480005A788A435A7000BD1A6908490A400F2198
:106490001A615A788A4311000222E0E7F022196952
:1064A00012050A43F3E7C04600400042FFFFFFF039
:1064B00018234343F0B5684A0E009B18D96885B08D
:1064C00004008A0718D50E2816D1644A1300D17922
:1064D000C9090129FBD0B605B60D1681DA79D209B2
:1064E000012AFBD0022219780A431A70DA79D209FC
:1064F000012AFBD005B0F0BD0825594F294200D133
:1065000094E03A68102A02D044D9103AD6401225B5
:106510005D5FCB0642D50421200000F023F92F1245
:10652000504BBA00D458504BEDB2DA5D002A5CD122
:106530000132DA554D490F32684605F039FA6A469C
:106540007B009B5A8022D2011A43494B5A805A78C9
:10655000D209012AFBD00222974223D923889343F0
:106560002380E37BDB09FCD1228840331343238063
:10657000E37BDB09FCD10C35B6B26D002E53E37B17
:10658000DB09FCD12288023313432380E37BDB0940
:10659000FCD1AFE71020821A9640B8E78B06A9D548
:1065A0000521B9E723689343324A23601300A168A9
:1065B0001142FCD10222E16B0A43E263A2681A4253
:1065C000FCD11035AD0065196E60A2681A42FCD18D
:1065D000294A2264A2681A42FCD1022221680A4395
:1065E0002260A2681A42FCD184E7022F07D90C3539
:1065F000B6B26D002E53E37BDB09FCD17AE70223B0
:106600006279134363711B4B1A00A1681942FCD1D4
:106610001C35AD002E51A3681342FCD10223217911
:106620000B432371A3681342FCD163E701212000CF
:1066300000F024F83B68082B02D009D9083BDE4063
:1066400000217F2E00D90121200000F047F851E7FA
:10665000EB1A9E40F4E7C046FC600100004800428F
:10666000280000200C000020E01500204C650100EF
:10667000000C0040FF0F7F00FFFF0000182310B543
:1066800008244343134AD0180457013412D001247C
:106690009A5643689C4003290CD808000E49D20141
:1066A0005218D318403302F041FB0210060B0221AE
:1066B0001970546010BD0621197054609461F9E797
:1066C0000621197054605461F4E702211970946036
:1066D000F0E7C046FC600100004400411823F0B51B
:1066E00008245843114A13181C5701341BD00126A3
:1066F00035005F688356BD400D4ADB019A189068EB
:1067000005420BD10C00601E8441D2194032107832
:1067100034400336A400B04320431070044A9B1851
:10672000002901D15D61F0BD9D61FCE7FC600100C5
:1067300000440041182310B50824434307490020B2
:10674000CA181457013408D05B560549DB015B18A1
:10675000186A5368D8400123184010BDFC6001003E
:10676000004400411822424370B52D4E0300B21878
:10677000127A52B2140001320ED0481C00240C28A8
:106780000AD802F0D3FA071F1F1F1F1F1F1F1F0B5E
:106790000B0B0B0001246442200070BD092905D1B8
:1067A00000211800FFF76AFF0024F5E70A2901D14C
:1067B0000839F6E700240B29EED10A391800FFF753
:1067C0005DFFE9E7182201205343F218F35655689C
:1067D000144ADB016C089B18C9B228401C19002818
:1067E0000ED00F203034227809010240114341229B
:1067F000C9B25B192170403319780A431A70D3E784
:1068000022000F26303214785B19B44321431170F3
:1068100041224033197804000A431A70BCE7C0468D
:10682000FC60010000440041F7B506000D000C00BB
:106830008B180193019B671B9C4207D0336821781A
:106840001B683000984701340028F3D13800FEBDA2
:1068500070B5040008000D0005F064FF2368020015
:1068600029005B682000984770BD10B50B1E02D050
:10687000FFF7EEFF0300180010BD10B5FFF7F5FF9E
:1068800010BD10B503681B68984710BD10B50249CC
:10689000FFF7DEFF10BDC0467C08010070B50400A4
:1068A000FFF7E3FF05002000FFF7F0FF401970BD80
:1068B000F0B58BB06B461500002205330600DA7781
:1068C0000800012D00D80A2509AC290002F0BEFA03
:1068D000CAB2130037330700DBB2092902D813000C
:1068E0003033DBB2013C2370002FEED121003000A9
:1068F000FFF7BBFF0BB0F0BDF8B506000C00151E8E
:1069000004D10368C9B21B689847F8BD0A2A0CD1A4
:1069100000290BDA2D21FFF7B4FF614207002A009E
:106920003000FFF7C5FF3818EFE7D2B22100300082
:10693000FFF7BEFFE9E710B5FFF7DEFF10BD70B54A
:106940000400FFF7D9FF05002000FFF79FFF401963
:1069500070BD10B5002A04D10368C9B21B689847FE
:1069600010BDD2B2FFF7A4FFFAE770B50400FFF73D
:10697000F0FF05002000FFF789FF401970BD0000FF
:10698000F7B51E0008AB1B783100019305003300FA
:106990001000170004F0CEFD4B49002814D101224D
:1069A000740064085242494B3800210004F0C2FDD3
:1069B00000280FD10122454B52423800210002F03D
:1069C00055FB002806D142492800FFF741FF04008B
:1069D0002000FEBDE0223F4B12063800310002F0DD
:1069E0004FFB002801D03C49EEE7E0223B4B12066A
:1069F0003800310002F030FB0028F4D100220023DF
:106A00003800310002F028FB041E07D02D21280099
:106A1000FFF737FF802304001B06F6180023002031
:106A20002F490093019B009A934208D02D4B0022DE
:106A300003F0BCFB009B0133DBB20093F2E73300B1
:106A40003A0003F097F80F00060002F067FB0A22F5
:106A5000019001002800FFF72BFF009B0419002B79
:106A6000B6D0019804F0F2FD02000B0030003900AE
:106A700004F018FA06000F0028001B49FFF7E8FE93
:106A80002418009B013BDBB20093FF2BA0D0154BD9
:106A900000223000390003F093FF0F00060002F0DF
:106AA0003DFB0A22010001902800FFF701FF241896
:106AB000019804F0CBFD02000B003000390004F017
:106AC000F1F906000F00DCE75C650100FFFFEF7FD6
:106AD00060650100FFFFEF4164650100FFFFEFC14A
:106AE0000000E03F000024402E08010037B51D00E3
:106AF000069BDBB200932B00FFF742FF3EBD37B58C
:106B000019000400069B2000DBB200930B00FFF786
:106B100037FF05002000FFF7B9FE40193EBD000019
:106B2000014B18607047C0462C0000200122024B28
:106B300052421A607047C0462C000020164A10B519
:106B40001368591C26D0013B1360002B22D172B66A
:106B5000124B134A0433934213D9124A01211000F5
:106B6000147D0C42FCD02021148BFF319B085B006C
:106B700021431183D3610C4B13800123027D1A4200
:106B8000FCD0BFF34F8F094B094ADA60BFF34F8F38
:106B9000C046FDE710BDC0462C00002000200000CC
:106BA000030200000040004102A5FFFF00ED00E0ED
:106BB0000400FA05016070479446F0B59E1E721EEF
:106BC00096416246056892072F6836063A4332437B
:106BD0002A60072505AC24780068A40129402143D8
:106BE00042680024022B00D05C0311432143416022
:106BF000F0BD30B5C0250368AD031C6812052A40FE
:106C00002243C0240904A4022140114319600368EF
:106C10005A6814435C6030BD0123026811680B435D
:106C2000136003681A68D207FCD4DA69D207F9D472
:106C300070470223026811680B4313600268D3692E
:106C40009B07FCD4704703681A7ED20702D41A7ED1
:106C50009207FCD57047002203685A837047036887
:106C6000187E4007C00F70470368187EC009704740
:106C7000802302685B42117E0B43137670470368E2
:106C8000588B8007C00F704702230268518B0B435B
:106C9000538370470368187EC007C00F70470368AE
:106CA000188DC0B2704703681A7ED207FCD589B22E
:106CB000012019857047012203689A7570470122E7
:106CC00003681A7570470123026811680B4313604B
:106CD00003681A68D207FCD4DA69D207F9D470477E
:106CE0000223026811680B4313600368DA69920794
:106CF000FCD430215A8B8A43110010220A435A8354
:106D00000268D3695B07FCD47047022102681368EC
:106D10008B4313600268D3699B07FCD470478023C0
:106D20000268DB02116851680B4353607047000032
:106D3000036803491A685A680A405A607047C04697
:106D4000FFFFFBFF032230B5036811401C68074DAD
:106D50005A6809042A40E4061143640F5960052C5F
:106D600003D10268D3695B07FCD430BDFFFFFCFF91
:106D700030B503680400588B8006800F022814D0B9
:106D80005D8B0020AD06AD0F032D2ED0588B8007F4
:106D900005D55D8B0020AD06AD0F012D25D100205E
:106DA0005D8BAD06AD0F85421FD04800596A104378
:106DB000C90AC0B2C902014359622368002A08D136
:106DC0001A7ED207FCD5588B4007C30F01205840CC
:106DD0000BE0187E8007C00FF5D11A7ED207F8D5D8
:106DE000C022596892020A435A6030BD03682833B2
:106DF00019700368187EC007C00F03D15A8BD207E1
:106E0000F8D57047588B4007C30F01205840F8E76A
:106E1000036828331970036800201A7E520704D5CE
:106E2000588B01234007C00F58407047036818680B
:106E3000C006400F043843425841C0B2704703684F
:106E4000187E4007C00F70470368187EC007C00F48
:106E500070470368588BC006C00F70470368187EE0
:106E60008007C00F70470368588B0007C00F70473A
:106E700003681A68D206520F052A02D11A7E9207B9
:106E8000FCD528331878C0B2704700000368104A58
:106E9000934213D00F4A934212D00F4A934211D01B
:106EA0000E4A934210D00E4A93420FD001200D4A51
:106EB0004042934201D1063040B270470020FBE7C8
:106EC0000120F9E70220F7E70320F5E70420F3E7C4
:106ED00000080042000C0042001000420014004272
:106EE00000180042001C0042F8B5FFF7CFFF002851
:106EF0002EDBC3001C481F22C01805230579C3568A
:106F000001201A4090400326C022184952001E401A
:106F1000F6008850813AB240C024D243B440002BDE
:106F200017DA0F263340083B114E9B089B009B1934
:106F3000DE6932401443DC613F231D408023DB01C6
:106F40001D430C4B08605D805A7852B2002AFBDB6F
:106F5000F8BD064E9B089B009B19C026B6009F59A2
:106F60003A4014439C51E7E76865010000E100E006
:106F700000ED00E0000C0040F8B504000F00160022
:106F80001D00FFF7B1FF2000FFF746FE1C21BB00EC
:106F90000B4071072268090C0B431360842322689D
:106FA0009375012F1AD11021012E00D008390C4BF6
:106FB00069431868C00001F0C3FE0722216802403F
:106FC0008B895203DB04DB0C13438B81226803049F
:106FD0009089DB0C400B400318439081F8BDC046FC
:106FE00024000020F8B504000F00FFF77DFF20000B
:106FF000FFF769FE1422236879001A600C4B25689C
:107000001E68300001F09CFE0A490400300001F0C7
:1070100097FE7D23FA215843C90001F091FEFF231A
:10702000241AE868053C1C4098430443EC60F8BD12
:107030002400002040420F000221084B1A888A4396
:107040001A80DA7BD209FCD101321A80DA7BD209AC
:10705000FCD11A88D207FCD47047C04600340042E5
:10706000074B10B51B780400002B08D0FFF7E4FF96
:1070700000212000FFF732FB0022024B1A7010BDE6
:10708000E615002000160020F7B504000E1E019240
:1070900002D1FFF7E5FFF7BD8023514A5B03D367B9
:1070A000C022504D5200AB504F4B1A78002A10D1DD
:1070B000C52101321A7089006B58FE3293431A00C1
:1070C000402313436B50494A494B5A805A78D2099E
:1070D000FCD1484B1B78002B05D0474B1868A042C9
:1070E00001D0FFF7BDFF454B3100186801F028FEC5
:1070F000434A431E0093944600230427009A6245A6
:1071000010D901005A1CD140013900911900B9432E
:10711000C9B2032902D0D2B2062A01D10233DAB2AF
:107120001300EBE7013B0027092B02D8354A5B002F
:107130009F5A019B002B4FD0FA21580070438900C1
:1071400001F0FEFD002302002F49304E0A604B6023
:10715000FFF772FF2023328813431F433780F37BEE
:10716000DB09FCD16B461B883383F17BC909FCD159
:107170001820274F6043BC46264B274FC356DB01E0
:107180009C4462463A60254A254F9B183B60012784
:10719000204B1A1853683A009A40224B1A60102369
:1071A000727B13437373144B1A68A24209D02000F8
:1071B0001C60FFF793FA39002000FFF75FFA0D4BD0
:1071C0001F700223328813433380F37BDB09FCD129
:1071D00080235B032B605EE701225242D317B3E7A3
:1071E00004E100E000E100E0E61500201C400000A2
:1071F000000C004000160020300000203400002069
:10720000FFFF000098650100F815002000340042DF
:107210001C440041FC600100F015002014440041B2
:10722000EC150020E8150020154B70B5186859685A
:107230000500144C0D4319D0134A216812681160DF
:1072400018685968002902DC0AD1002808D018689B
:10725000596801246442E5170019694118605960B2
:1072600010230A4A917B0B43937370BDFFF7E4FE32
:10727000074B22681B681A60064B1D70F5E7C04675
:10728000F8150020E8150020F01500200034004219
:10729000EC150020001600203F20704713B56B4608
:1072A0000268D9710733546819000122A04716BD3E
:1072B00010B50221006900F02BFC10BD10B50321B0
:1072C000006900F03BFC10BD10B51300084A040033
:1072D000D279002A03D101230020636010BD0A0087
:1072E0000069032100F016FD0028F4D0F6E7C0463F
:1072F0003C00002010B5054C23685A1C04D10368DB
:107300005B69984703002060180010BD88000020CA
:10731000074B0200186810B5411C03D001225242ED
:107320001A6010BD0221106900F0E6FCF9E7C046C2
:107330008800002010B5037842220233037002490E
:10734000024800F093FD10BD4400002020160020EC
:1073500010B50178020043780020A12908D1212B23
:1073600005D107221649174800F080FD012010BD05
:107370002129FCD1202B13D107221149114800F0FB
:1073800021FC96220E4BD200196891420ED10124A5
:10739000D87904400AD1FA20FFF7C2FB0020E6E7C3
:1073A000222B06D19278064BDA71EAE7FFF7BEFB93
:1073B000F4E7232BDBD15288034B1A60D7E7C04692
:1073C0003C0000202016002038000020FA22002176
:1073D000054B92009A60054A596008321A60044AC7
:1073E00019761A617047C04604160020AC6501008A
:1073F00020160020704770B50F26CB1D0139020002
:107400003240D5B22C0000093034092A00DD07349F
:107410001C70013B8B42F2D170BD10B50400806935
:1074200004F0AAFAA06A04F0A7FA200010BD10B573
:107430000400FFF7F2FF200001F062FB200010BD06
:1074400070B5032908D1324B8000C058002802D003
:107450000368DB68984770BD82291FD1C3B22D4DE8
:107460005A01AA1891692C4C80010C40C021890551
:1074700021439161294908334018802150612A68CD
:107480005B01D01804794942214301717020995C55
:1074900081430800302101439954DCE70029DAD107
:1074A000C024C1B21B4E4A01B21893681A4DA405FC
:1074B0002B40234393601A4B8001C0180B0050608F
:1074C0003068072608335B01195CB1430E000121C7
:1074D0003143195491690D402C43946170240F4934
:1074E0005161195CA1430C0010212143195491688A
:1074F0000C4CC3180C4080214903214391609168D2
:10750000890B89039160402259790A435A71A2E795
:1075100024160020D81A0020FFFFFF8F4C160020F1
:107520000C180020FF3F00F0EFF3108303600123ED
:10753000436072B670470368002B02D162B6BFF396
:107540006F8F704737B5056904006846002D14D168
:10755000FFF7EAFF019B621D013B02D3D57FEDB22D
:10756000FAE768460193FFF7E6FF002D01D10020FE
:107570003EBD206AE369C01AFAE7FFF7D5FF220093
:107580000025019B3432013B02D31578EDB2FAE7B6
:1075900068460193FFF7CFFF002DE8D0206BE36A28
:1075A000E9E70000FF2130B54368164D1A6883688B
:1075B0000B405B01D21801235218947A2343937233
:1075C000836842680B405B01D418C268A3689204C8
:1075D0002B4012091343A360836842680B405B0190
:1075E000D3189A68920B92039A6043681A6883686A
:1075F0000B4008335B01D318402219790A431A71F2
:1076000030BDC046FF3F00F0F7B5036904000E002F
:1076100017006846002B45D1FFF786FF019B611DCF
:10762000013B5A1C0CD0CD7F5A1EEDB2002D05D166
:1076300068460193FFF77FFF2800FEBD1300F0E7C7
:10764000684601930025FFF776FFE369AF420AD051
:10765000226A9A4207D95A1CE261A269D3181B78A0
:1076600073550135F1E7226A9A42E5D10023E361BF
:10767000013323616846FFF757FF22000021019B79
:10768000671D013B3532581CD2D0F97710785E1E49
:10769000002805D0117020000193FFF783FFECE76D
:1076A0003300F0E7FFF740FF2100019B3431013B3D
:1076B0005A1C06D00D785A1EEDB2002DB8D013001A
:1076C000F6E7684601930025FFF735FFE36ABD4200
:1076D00002D0226B9A421CD8226B9A42ACD1002372
:1076E0006846E3622361FFF71FFF270022000021A5
:1076F000019B3437013B3532581C99D039701078D2
:107700005E1E00280DD0117020000193FFF74AFF84
:10771000EBE75A1CE262A26AD3181B787355013555
:10772000D4E73300E8E7F7B5FF21826843680A40F1
:107730001B68083252019A18D3790400DB072AD556
:107740000125D571836842680B405B01D3189A68A4
:1077500040699204920C002821D12262226A002AF8
:107760003ED0A26A656168465A60FFF7DDFE2700D9
:107770002100019B661D013B343735315A1C2BD04B
:10778000F5773A78581ED2B2002A05D001936846A0
:107790000D70FFF7D0FEF7BD0A700300EEE722631D
:1077A000226B002A1CD000226261A26968465A60DE
:1077B000FFF7BAFE26002100019B3436013B671D0E
:1077C00035315A1C08D03570FA7F581ED2B2002AC3
:1077D000DCD10A700300F4E768460193FFF7ABFEC3
:1077E0002000FFF7DFFED6E737B56B46DC1D002330
:1077F0000D0020002370FFF79DFD2B6818182860EE
:1078000001F032FA210001F0FBF92B68181828600A
:1078100020783EBD03290ED180220E4B62311B68B9
:10782000FF31585C524202435A5468226339FF3296
:10783000FF39995470470129FCD18022054B24312E
:107840001B68FF31585C524202435A5428222339A4
:10785000FF32EDE7D81A002000222C4B70B5012131
:1078600004001A201A70FEF709FF01211A20FEF702
:1078700035FF2023264A0F20D1690B43D361012213
:1078800024490B7813430B70234B197881431970EB
:1078900006211D782943197020490D782A430A7062
:1078A0001A7802401A70602219780A431A701C4B29
:1078B0001C4A5A805A78D209FCD11B48FEF72CFC8E
:1078C0001A4D280001F0E2F9280001F0F7F97F21B4
:1078D0002A68C120137880000B40137004232A68A3
:1078E00011780B430C2113702A6813898B431049BC
:1078F00013810B581B021B0A0B5080230B6011785D
:107900007E3B0B4313700123237070BD4016002093
:1079100000040040584400413C44004159440041A7
:10792000000C004006400000BD820000D81A002074
:1079300000E100E00078002810D00121084B1B680E
:107940001A898A431A810822198B0A431A8304224E
:10795000198B0A431A830022024B1A607047C046F3
:10796000D81A0020D01A002010B50F4A93699B0B3B
:107970009B03936113680222FF331A729879823A4B
:1079800002439A711A7A9207FCD57F24074A214054
:10799000937A0800A3431900802301439172917ADE
:1079A0005B420B43937210BDD81A00200050004177
:1079B00010B50B790C00002B0CD10800FFF7C8FCA8
:1079C000002801D0012010BD094A93699B0B9B033D
:1079D0009361F7E701F048F9210001F035F900283B
:1079E000F0D1034A93699B0B9B039361EBE7C0467D
:1079F000D81A0020F8B50D00832A19D1CBB2364C25
:107A00005A01A21891693548AD010840C021890585
:107A100001439161324920686D1870210833556126
:107A20005B011A5C8A43110040220A431A54F8BDD4
:107A3000022A4CD12B4A8B009858002802D00368A8
:107A40005B699847382001F057F8274B802703607F
:107A50000023214E7F00421D036203614361C36125
:107A600046608560C760D3772F320400C36203632A
:107A700013703800537003F075FFA061380003F0F5
:107A800071FF2A00A062FF200240510171188B682B
:107A9000124FAD001F40C0239B053B438B6013007A
:107AA0003168072608335B015A5CB2431600032293
:107AB00032435A54A368626803405B01D318A26939
:107AC00020005A60FFF76EFD064B5C51AFE71100D6
:107AD0002800FFF7B5FCAAE7D81A0020FFFFFF8FA8
