:10200000008000200D560000F5550000F555000039
:1020100000000000000000000000000000000000C0
:10202000000000000000000000000000F555000066
:102030000000000000000000F5550000615600009F
:10204000F5550000F5550000F5550000F555000068
:10205000F5550000F5550000F9540000F955000051
:10206000F555000041550000F5550000F5550000FC
:1020700059530000F555000051550000F55500007A
:10208000F5550000F5550000F5550000F555000028
:1020900081670000F5550000F5550000F55500007A
:1020A000F5550000F5550000F5550000F555000008
:1020B0000000000010B5064C2378002B07D1054B1B
:1020C000002B02D0044800E000BF0123237010BDA4
:1020D000400100200000000070640100044B10B5B6
:1020E000002B03D00349044800E000BF10BDC046E8
:1020F00000000000440100207064010000207047CF
:102100007047F8B507000C0000258E18B44207D0C0
:102110003B6821781B683800984701342D18F5E793
:102120002800F8BDF8B5070003000837B4331B6872
:10213000040038009847124A0300904214D8250042
:102140002600BA35B8362A883188380002F012F9EC
:10215000903403002078032806D805F05BFE0207C0
:102160000B0E32889B1833800120F8BD2A889B18FB
:102170002B80F9E73288D31AF5E72A88D31AF7E7D4
:10218000FDFF000010B50A004369016902F084FDFB
:1021900010BD10B54269016902F0CEFD10BD10B549
:1021A0000A004369016902F0D9FD10BD10B508307D
:1021B00002F0E0F810BD0000F8B52B4B2B4A1B884D
:1021C000934207D12A4A1278002A03D1294A127869
:1021D000002A34D0FA24A4005C4303F04FFA264DC1
:1021E000264A2B68A218C01A254B90422DD90126E9
:1021F0001E7003F043FA234F3B68C01AFA235B00BA
:1022000098420DD903F03AFA1F4B38601A785142C0
:1022100051411970002A14D11C49300004F0E0F932
:1022200003F02CFA2B68C01AA04207D901211B2009
:1022300003F0D0FC00211B2003F0FCFCF8BD144C83
:10224000CBE7300004F0B8F9EAE71A78002AF5D0B5
:1022500000220D491B200A7001211A7003F0EAFCCC
:10226000012004F0A9F9E9E77A010020FEFF00004F
:102270006A010020000000201802002078ECFFFF17
:102280007901002074010020780100206F0F000008
:10229000C027090010B503F0F1F90C4B0C4C186085
:1022A00023785A425A412270002B05D1094B1B78E2
:1022B000002B01D000F034F82378002B05D0064B1A
:1022C0001B78002B01D100F009F810BD7C01002023
:1022D00062010020630100206701002010B50D4C51
:1022E00023785A425341237003F0C8F90A4B2178EE
:1022F0001860042003F09EFC21780D2003F09AFC66
:10230000064B1B78002B04D02378002B01D1FFF75C
:10231000C1FF10BD670100202402002062010020DF
:1023200010B5104C23785A425341237003F0A6F99C
:102330000D4B0A2118602378002B01D080218900E1
:102340000E2003F061FB21780B2003F073FC074B98
:102350001B78002B04D02378002B01D0FFF79AFFC5
:1023600010BDC046630100202C0200206201002045
:1023700070B502000D0004000749012004F030F997
:10238000002D07D00A2003F0AFF9220003490120F5
:1023900004F026F970BDC0465A10000094110000E8
:1023A00002210E4B1A788A431A705A7ED209FCD148
:1023B0005978803A0A435A70802292009A80084ADB
:1023C0001268D2B29A700722DA701978053A0A4375
:1023D0001A705A7ED209FCD17047C04600400042B4
:1023E0005C010020182343430D48C018017C1F20C6
:1023F0000C4B01401A6982430A431A615A7ED20982
:10240000FCD1197B02320A431A731A7ED207FCD51B
:1024100001221A765A7ED209FCD1588B80B27047BD
:10242000FC5C01000040004210B503F027F9064CA7
:102430002368C01A054B984205D9A522044B1A728D
:1024400003F01CF9206010BD70010020571B000034
:1024500000100040154B164A10B59A60154A5A6094
:102460005A78D209FCD11449144C59802270E3796E
:10247000DB09FCD12279013313430F2223716378E6
:1024800093431A000A23134304226370237893436F
:102490002370E379DB09FCD1FFF7C6FF0223227822
:1024A00013432370E379DB09FCD110BD000C00401D
:1024B000020400000203110003420000001000406B
:1024C00010B5084B084C1868084B1B78002B07D038
:1024D000074905F0A3FF074905F0C8FD206010BDBE
:1024E0000549F6E7200200201C0200200100002020
:1024F0000000FA4300F07F4500007A4413B5074B13
:10250000074C186001902000FFF743FE01A920004E
:10251000FFF738FEFFF7D4FF13BDC04620020020AE
:10252000E40100200A4B10B51B88002B05D1462280
:10253000084B1A60FFF734FF10BD012B02D1054B89
:102540004422F6E7022BF5D1024B4822F1E7C046C0
:10255000600100205C01002013B52E4C2E492000A4
:1025600003F048FC2D49200003F033FC2C4B0A22D9
:102570001968200003F08FFC2A49200003F029FC91
:10258000294B0A221988200003F085FC27492000E6
:1025900003F01FFC264B186807F020FE0B000321F8
:1025A00002000091200003F056FD2249200003F0B4
:1025B00021FC2149200003F00CFC204B0A22197851
:1025C000200003F07EFC1E49200003F002FC1D4B9E
:1025D0000A221988200003F05EFC1B49200003F04A
:1025E000F8FB1A4B19881A4B994208D11949200057
:1025F00003F000FC1849200003F0FCFB13BD174B4F
:10260000994201D11649F2E70A22200003F043FC67
:10261000F0E7C04644140020B0B40000CAB4000083
:1026200028020020D2B4000014020020D8B4000018
:1026300020020020DDB40000F0B40000660100209C
:10264000FFB400006001002011B500007A010020F5
:10265000FFFF000007C00000F9C00000FEFF0000FF
:1026600028C0000010B5364C3649200003F0C2FBEC
:102670003549200003F0ADFB3449200003F0BAFBDC
:102680003349200003F0A5FB324B0A2219782000C1
:1026900003F017FC3049200003F09BFB2F4B0A226C
:1026A0001978200003F00DFCFFF756FF2C4920009D
:1026B00003F0A0FB2B49200003F08BFB0A22E12151
:1026C0002000914003F0E3FB2749200003F092FB38
:1026D0002649200003F08EFB2549200003F08AFBE9
:1026E0002449200003F086FB2349200003F082FBED
:1026F0002249200003F07EFB2149200003F07AFBF1
:102700002049200003F076FB1F49200003F072FBF4
:102710001E49200003F06EFB1D49200003F06AFBF8
:102720001C49200003F066FB1B49200003F062FBFC
:102730001A49200003F05EFB200003F053FB10BD9C
:10274000441400201AB500002DB5000040B500006B
:1027500046B500000000002053B500006A010020CB
:1027600061B500007DB500009CB50000A2B5000079
:10277000DFB5000019B6000034B600006CB60000EA
:1027800099B60000B7B60000D6B60000F5B6000056
:1027900013B7000031B7000051B7000071B7000057
:1027A000074B10B518700300581E83410A225B4284
:1027B0001A40100003F0E4F8FFF782FE10BDC04697
:1027C00001000020F8B502F059FF1B4C2368C01A25
:1027D0001A4B98422FD902F051FF194B20601D78F7
:1027E000002D02D00020FFF7DBFF1320FFF7FAFDDA
:1027F00005F046FF134C2060002D02D00120FFF7AA
:10280000CFFF206807F0EAFC00220F4B06F09EFA8B
:102810000E4B060018680F0007F0E0FC02000B00EA
:102820003000390006F09CFE0022094B06F098FEAD
:1028300007F026FD2060F8BD04000020871300008B
:10284000010000202C03002000FEAF4020020020E9
:102850000000F83F6D22104B10B51A7080220F4B0C
:1028600092019A618022D2015A61802212025A6139
:102870000B4A1278002A0AD080210A4A0901116005
:10288000802252015A618022074BD2001A60012037
:10289000FFF786FF10BDC046020000200044004143
:1028A00065010020984400419444004175220F4B7B
:1028B00010B51A7080220E4B92015A618022D2010B
:1028C0009A61802212025A610A4A1278002A09D0BB
:1028D0008021094A09011160802149019961802301
:1028E000DB0013600120FFF75BFF10BD020000203A
:1028F0000044004165010020944400416E22104BC9
:1029000010B51A7080220F4B92015A618022D201B9
:102910005A61802212029A610B4A1278002A0AD068
:1029200080210A4A09011160802252015A618022E5
:10293000074BD2001A600120FFF732FF10BDC046DE
:102940000200002000440041650100209444004141
:102950009844004110B51120FFF744FD04001020F9
:10296000FFF740FD114B201A1C68001905F088FE86
:102970000F4B041C18600F4B1B78002B0ED10E4917
:1029800005F042FB002810D00C49201C05F028FB64
:1029900000280AD00120FFF703FFDCE7084905F013
:1029A0003DFB002801D00020F5E710BD28020020E3
:1029B00068020020010000200000C0400080A24406
:1029C00000C073450822074B00050905090D000DDD
:1029D000D884998499880A439A805A7ED209FCD176
:1029E0007047C0460040004210B5034B1860034BCF
:1029F0001980FFF7E7FF10BD280200201402002015
:102A000010B50B4B0200197875290ED06D394B1E8D
:102A10009941084B49421940074BC918002A00D177
:102A20001432012003F0DCFD10BD0449F6E7C04676
:102A300002000020E0FDFFFF4D0A00002D0900000C
:102A4000F8B502F01BFE604C2368C01A312867D924
:102A50005E4B5F4D1B78002B22D0280002F0DCF982
:102A60005C4E0A220100300003F011FA0921300007
:102A700003F0B3F92800103002F0CEF90A22010069
:102A8000300003F004FA0921300003F0A6F9280011
:102A9000203002F0C1F90A220100300003F0FBF9F6
:102AA0002800203002F0B8F906002800103002F0AB
:102AB000B3F90700280002F0AFF9050002F0DEFDCF
:102AC0002060C8246400A64203D8A74201D8A542CA
:102AD00003D902F0D3FD404B1860404B1B78002B0C
:102AE0001FD1A6424FD9A74258D8A54232D83C4B55
:102AF0001B786D2B04D0FFF7ADFE1420FFF780FF8D
:102B0000C8235B009E4221D80AE0A5424BD8344B33
:102B10001B78752B04D0FFF7C9FE1420FFF770FF58
:102B2000F8BDA742ECD9A5423BD8A642F8D902F09D
:102B3000A5FD2C4B1B68C01AFA239B00984205D9AF
:102B4000FFF7CCFB00210320FFF712FCC8235B003A
:102B50009D42E5D9C8235B009F42E1D802F08EFD7B
:102B6000214B1B68C01AFA239B009842D8D9FFF763
:102B700091FB00211420FFF7FBFB322002F0B4FD93
:102B8000002114201CE0A742BFD8A542B8D9144B9D
:102B90001B786E2BC4D0FFF7B1FEBEE7A542BFD8AD
:102BA000C5E7A642BCD802F069FD104B1B68C01AED
:102BB000FA239B009842B3D9FFF7B2FB0021032010
:102BC000FFF7D6FBACE7C0466C020020690100208D
:102BD000340200204414002018020020620100206A
:102BE00002000020240200207C0100202C02002092
:102BF000054B064A1A60BFF34F8F054B054ADA6052
:102C0000BFF34F8FC046FDE7FC7F0020EF6916F051
:102C100000ED00E00400FA0537B56B4604009D1D89
:102C2000D980FFF7B6FA29002000FFF7ABFA37BDCD
:102C300073B52A4B2A4D2B4A2B602B00B4331A60F4
:102C40002B000024284EB83330006C601C6001F06B
:102C5000F5FD264B30002B60254A264B264901F016
:102C600095F9FF2330001A00190002F09CF9234D5A
:102C70002200280000940223082102F005F9280010
:102C80002200009402230921103002F0FDF82800F0
:102C90000223220000941221203002F0F5F80422D1
:102CA0001749184801F0E0FF02221749174801F0C0
:102CB000DBFF04221649174801F0D6FF022216490D
:102CC000164801F0D1FF01221549164801F0CCFF4A
:102CD00001221549154801F0C7FF73BD24B4000057
:102CE0007002002029480000780200203CB4000057
:102CF000BD4F0000D54E00001056010034020020E8
:102D000000BB0000B401002000BA00009C010020BC
:102D100000B80000E401002000B90000CC01002050
:102D200000BC0000FC01002000BD00008401002068
:102D3000F0B532209DB002F0D7FCDC4C200002F050
:102D4000CFF93C21200002F0F9F9200002F06BFAE3
:102D5000051E00D0A4E1D649D64803F03AF80A226D
:102D60003C21D44803F097F8D34C200001F020FF19
:102D7000200001F0F7F82900200001F020FFCF4BE0
:102D8000CF4A1A620123CF4A137001210E2002F0AC
:102D900021FF0021112002F01DFF0021102002F070
:102DA00019FF0021132002F015FF02211B2002F061
:102DB00011FF01210B2002F00DFF01210D2002F077
:102DC00009FF0121042002F005FF0121080002F0A3
:102DD00001FF8022BC4B92019A608022D2019A604E
:102DE0008022802112029A60B84A09011160802174
:102DF000490199608023B64CDB001360200001F08C
:102E0000B3FF2000103001F0AFFF2000203001F0B0
:102E1000ABFF0A2002F0AEFD0120FFF7C1FC0A2142
:102E20000E2002F0F1FDAB4C03AE31002000FFF7A5
:102E3000B6F93288A84B002A00D19BE11A803100F4
:102E4000A648FFF7ACF9A64D3278A64B3100280012
:102E50001A70FFF7A4F9039BA34F3100A3483B600E
:102E6000FFF79DF93288A24B3100A2481A80FFF784
:102E700096F9039AA04B00211A60101C05F0AAF8DD
:102E8000002800D17DE19D48FFF738FB9C483100C8
:102E9000FFF785F932789B4B1A80FFF743FB944C80
:102EA0002088002800D16FE101003868FFF79CFD01
:102EB000844B1B78002B78D07F4801F001F89249B1
:102EC0007D4801F001FB7D4C904B2500B8352B600F
:102ED0008F49200002F07DFF8E49774801F0F4FA17
:102EE000A0235B032B608C49200002F072FF8B4B08
:102EF0000A222B603968200002F0C9FF80239B035F
:102F00002B608749200002F064FF864B0A222B6069
:102F1000774B2000198802F0BAFFB0239B032B6087
:102F20008149200002F055FF804B2B60724B1868DE
:102F300007F054F90B00032102000091200003F078
:102F400081F8E0239B032B607949200002F041FFC8
:102F5000784B79492B60200002F03BFF564800F087
:102F6000BCFF64227549300007F092FA002433193F
:102F7000305B5F8805F084FBFC211725890505F08F
:102F80004DFA07F02BF96E4B002205F0C3FB05F05C
:102F90004FF87D4301002A00012003F021FB043497
:102FA000780102F0A1FB642CE1D16649414802F0AE
:102FB00010FFE1210A2289023E4802F068FF6249BF
:102FC0003C4802F006FF9620800002F08DFBE121D4
:102FD0005E4C8902200004F02FFC5D49200002F0C5
:102FE000F8FE02F04BFB050002F048FB594B401B7A
:102FF000984211D8200004F043FD0228F4D12000AB
:1030000004F026FE4F28EFD1200004F021FE4B28CB
:10301000EAD10122504B1A704F4D50492B78002BAA
:1030200000D14F49234802F0D4FE2B78002B2ED13B
:103030004C49200002F0CDFE02F020FB060002F019
:103040001DFB801B31281AD8200004F019FD04282C
:10305000F5D1200004F0FCFD4F28F0D1200004F051
:10306000F7FD4B28EBD1200004F0F2FD0D28E6D14E
:10307000200004F0EDFD0A28E1D101232B702B780C
:103080003649002B00D138490A4802F0B3FE2A78AD
:10309000364B1A70FFF7E6FAFFF7DCF91DB0F0BD0A
:1030A0003349044802F0A6FE6FE6C0464C0B0020F0
:1030B00085C0000044140020780200207002002027
:1030C000006A180068010020004400418844004163
:1030D00034020020CC0100207A010020FC010020F5
:1030E000B401002066010020280200209C0100207D
:1030F00014020020E401002020020020333353405A
:103100008401002060010020E3C800000F000A00D5
:10311000A7C00000FAC00000B5C0000040001400C5
:10312000BDC0000040002000C5C0000040002C00D1
:10313000CDC000004000380040B500004CB4000095
:103140000000E03FD7C00000ECC0000008110020E4
:10315000F4C00000E70300006401002048C0000044
:103160004CC00000F7C0000078C000000000002044
:1031700096C000009621200089001980FFF74CFDC1
:103180005DE6FFF79DF981E680210901FFF72CFC40
:103190003B6828000293FEF7FCFF02A92800FEF717
:1031A000F1FF21880148FFF737FD81E69C010020EF
:1031B000F0B587B0B74C200003F026FB002800DCF8
:1031C000CAE1200003F050FB050002F057FAFF238C
:1031D000B14E1D403060612D00D133E142DC2F2D16
:1031E0006CD01DDC2B2D6DD02D2D00D183E02A2D30
:1031F000E0D1AA4D2988013189B2A9482980FFF779
:103200000BFDA84B29881868FFF7DCFBA6492000B6
:1032100002F0DFFD0A222988200002F03CFEC9E707
:103220003E2D73D03F2D00D130E13C2DC2D19F4DBA
:10323000286806F0D3FF9E4A9E4B06F003FC07F079
:103240001FF8FFF75BF99C49200002F0C2FD2868D7
:1032500006F0C4FF0B00032102000091200002F0E1
:10326000FAFEA7E7722D5AD015DC662D00D199E041
:10327000672D71D0622D9DD1904B1A78904B002A0A
:1032800000D18CE01A785142514119708D49002AC1
:1032900010D18D490EE0742D54D000DAADE0752DBB
:1032A00088D18A4A13785942594111708849002BB4
:1032B00000D18849200002F09DFD7BE7774D2988E9
:1032C000013999E7774D844E2B68300001332B602C
:1032D0000493FEF75EFF04A93000FEF753FF6F4B27
:1032E00028681988FFF76EFB7C49200002F071FD09
:1032F0000A22296890E76B4D774E2B683000013B1E
:103300002B600593FEF745FF05A9E5E7674D2868A3
:1033100006F064FF664A674B05F0FCF98FE77049D9
:10332000200002F056FD1F25013DEDB2002D07D013
:103330000A2002F0D9F92E21200002F04EFDF3E719
:10334000FFF756FC674A1378594259411170664994
:10335000002BAFD16549ADE7654A13785942594111
:1033600011706449002BA5D180258020624B2D016E
:103370001B78624A400162496D2B09D1614E35606C
:1033800050616E2B09D15F4B8022D2001A6091E709
:103390005D4E3560752BF3D190615B4BF4E71A708D
:1033A0005A4987E75A4D2B780133DBB2042B22D8D8
:1033B0000E27584E2B702B786F4430003B70FEF771
:1033C000E8FE39003000FEF7DDFE2B785249002B75
:1033D00000D16FE75149012B00D16BE75049022B17
:1033E00000D167E74F49032B00D163E7042B00D0DE
:1033F000E0E64D495EE70023DAE74C4D2B880133C8
:103400009BB2022B1CD82B802B884949002B05D05E
:103410004849012B02D0022B03D14749200002F07A
:10342000E9FC0F26454C2B886E4420003370FEF7D4
:10343000B0FE31002000FEF7A5FEFFF773F8B9E6F5
:103440000023E0E796273E4DBF002B88BB4207D103
:103450003C49200002F0CEFC01235B422B800AE0B5
:10346000394A93420CD13949200002F0C3FC2F8025
:1034700002F004F9306029883548FFF7CDFB99E662
:103480003449200002F0B6FC0223E6E7FFF7EAF831
:1034900090E6C046441400201802002014020020C8
:1034A0009C01002028020020BEBE00002002002057
:1034B000FCA9F1D24D62503FF6BE0000640100202D
:1034C000000000209EBE00008BBE00006A010020AC
:1034D00014BE000000BE0000B4010020D9BE0000F0
:1034E00007BF0000690100203DBE000029BE0000AA
:1034F000650100206EBE0000020000200044004173
:1035000052BE0000984400419444004121BF000095
:1035100066010020FC0100204CBF000064BF0000D9
:1035200079BF00008FBF0000A5BF00006001002030
:10353000B8BF0000CFBF0000E7BF0000840100203B
:103540007A010020FFBF0000FEFF000010C0000055
:10355000CC01002020C00000834D2B78002B34D0FC
:10356000FFF7F8F9814B82491F68381C04F042FDCF
:10357000804E00281AD0804B1B786D2B11D1FFF79D
:1035800095F9012308203370FFF73AFA3378002BBE
:103590001BD002F073F8794B18600023337007B02A
:1035A000F0BD752BF2D1FFF7A9F9EAE77449381C91
:1035B00004F034FD0028E9D06F4B1B786E2BDED071
:1035C000752BE3D1FFF746F9DBE76E4B1E78002E33
:1035D00042D02B78002B01D1FFF7BCF9634B1F6859
:1035E000694B381C196804F019FF684B1860684B68
:1035F0001E78002E1CD106F0F1FD0B000221020006
:103600000091200002F01EFD6249200002F0E1FB63
:10361000594B09211B786E2B03D00621752B00D046
:10362000032149420A22200002F035FC012613E062
:10363000012E61D1504B1B786E2B58D0752B59D170
:10364000554904F0EBFE06F0C9FD0B000221020013
:103650000091200002F0FFFC504B514C1B78002BD6
:1036600000D1D2E02378002B09D04E494E4800F01B
:103670002BFF4E4B0A2268214D48FEF797FD01F0C3
:10368000FDFF4C4B18602B78002B01D1FFF762F93E
:10369000002E07D13C4B1968344B186804F0BEFE6D
:1036A0003A4B18603A4B1E78002E00D094E0374B0E
:1036B000186806F093FD0B0002213F4E02000091B6
:1036C000300002F0BFFC3349300002F082FB2A4B8D
:1036D00009211B786E2B03D00621752B00D0032106
:1036E00049420A22300002F0D6FB01268DE0FE217D
:1036F0008905A6E73149A4E7022E15D106F06EFD33
:103700001D4B1B786E2B1AD00022752B01D12C4B30
:1037100000E02C4B05F024FF0B0002210200009179
:10372000200002F098FC81E7032E0ED106F056FD32
:10373000114B1B786E2B05D00022752BE7D1224A46
:10374000224BE7E7224A234BE4E7042E00D06DE743
:10375000381C06F043FD0B00002102000091200000
:1037600002F079FC033E77E7620100206802002046
:103770000000C04064020020020000201802002067
:1037800000C073456A0100201C0200206C0100206B
:10379000660100202EC0000000007A4400000020D6
:1037A000680100208E2C0100780200200BE0000050
:1037B00070020020800100200811002000247449BC
:1037C0000000F03F00408F40FCA9F1D24D62503F15
:1037D0008DEDB5A0F7C6B03E012E00D006E1D44B6A
:1037E0001B786E2B00D1FCE0752B00D0FCE0D1489B
:1037F000D14B196804F012FE06F0F0FC0B00022118
:1038000002000091CD4802F026FC2378002B00D165
:10381000E0E001F033FFCA4C2368C01AB42800D896
:10382000D8E001F02BFF2B782060002B01D1FFF7AF
:1038300091F8002E07D1C34B1968C34B186804F0E8
:10384000EDFDBD4B1860C14800F03AFBC049BF48D0
:1038500000F03AFEFEF7B6FFBE49BC4800F034FE69
:10386000BD4B1C68201C06F0B9FCBC4ABC4B0600D2
:103870000F0004F08FFB002800D1F4E0B94B0A22BE
:103880007321B948FEF792FCB149B04800F01CFE24
:103890002978B64B002900D121E11A78B44B002ACF
:1038A00000D0B44B0C220021A84800F0CDFDAE4B57
:1038B000B14AB8331A60A44B186806F08FFC0B00AD
:1038C000002102000091A84802F0BCFBAB4B1B7822
:1038D000002B05D0AA4B1A2205219C4800F0B4FD0C
:1038E000A8499A4800F0F0FD914B19786D2900D154
:1038F00001E16A223723752900D03C239A48B83069
:103900000280994ABA321380752900D14031964815
:1039100002F063FA9C498D4800F0D6FD8022924B5C
:10392000D203B8331A60994B834C1B78002B00D11B
:10393000E3E025680021281C04F066FB002802D182
:1039400080231B06ED18281C06F048FC904A914B7A
:1039500004F02AFB002800D1D1E0206806F03EFCEC
:1039600006000F0025680021281C04F04DFB0124EF
:10397000002800D1C6E06F49281C04F04FFB002846
:1039800000D1041C0123E4B25C4000943B003200EF
:10399000754802F057FB7D4B1B78002B00D0B6E03A
:1039A000694B7D49186804F02FFB00280FD07B4934
:1039B000664800F089FD1C220021794B634800F025
:1039C00043FDDC211E220901012002F009FE5F48AF
:1039D00000F083FAFEF728FDFFF732F8FEF7ECFB64
:1039E000DDE5FE20800503E76E4801E7022E17D1D2
:1039F000514B186806F0F2FB4D4B1B786E2B1CD018
:103A00000022752B01D1684B00E0684B05F0A8FD42
:103A10000B00022102000091484802F01CFB64E602
:103A2000032E10D1444B186806F0D8FB404B1B788E
:103A30006E2B05D00022752BE5D15D4A5D4BE5E785
:103A40005D4A5E4BE2E7042E00D04EE63E4B033E5D
:103A5000186806F0C3FB0B000021020000913748F4
:103A600002F0F9FAD1E6564A564B3000390004F01C
:103A700091FA002801D0544B01E7454A534B3000DE
:103A8000390004F087FA002801D0514BF7E6514A7B
:103A9000514B3000390004F07DFA002801D04F4B23
:103AA000EDE64F49201C04F0AFFA002801D04D4B41
:103AB000E5E62A4A4C4B3000390004F06BFA002846
:103AC00001D04A4BDBE6254A494B3000390004F06F
:103AD00061FA002801D0474BD1E6474BCFE61B786F
:103AE000002B04D0454B0C22184800F0ADFC1E4BB7
:103AF000434AB833DEE66622FFE6206824E7002664
:103B000000272FE73F49281C04F074FA37E70E4BD3
:103B100000211C68201C04F077FA002802D03A49E2
:103B2000201C40E73949201C04F05AFA3DE7C04602
:103B30000200002000007A446C01002008110020DF
:103B4000300200201C0200206802002078020020C1
:103B5000FAC000008E2C01002C03002033333333D5
:103B6000333311403AE200007002002001000020CF
:103B7000B9BE0000B2BE00002A000C00780100208F
:103B800030C0000037DD0000762001006301002016
:103B90009A9999999999D93F00C0734572D20000BA
:103BA0003EC00000002474490000F03F00408F40F8
:103BB000FCA9F1D24D62503F8DEDB5A0F7C6B03EE5
:103BC00066666666666610404BE2000099990F4093
:103BD00049E20000CDCCCCCCCCCC0E4047E200007A
:103BE0000000704045E2000033330D4044E2000025
:103BF00033330B4043E2000042E20000B7BE000056
:103C00000C000C0000007AC400C0F34400C0F3C4F0
:103C10004378DB09FCD1704701235B420380033307
:103C200083700023C370037180239B01C3803F23F3
:103C300003727047F8B50F0009783E4A4B09DB0163
:103C40009B181F2211401E3A04008A400F2965D993
:103C50008020110C00060143374804260143996275
:103C600020005A60FFF7D4FF0222237820009343FC
:103C70002370FFF7CDFF082223792000934323719F
:103C80002379053AB34323712379012593432371A3
:103C9000FFF7BEFF6022237B200093432373FFF7CF
:103CA000B7FF1022237B200093432373FFF7B0FF5D
:103CB0000F22237B20009343237363792B4363718B
:103CC00023781E432670FFF7A3FF0222237A2000E9
:103CD00013432372FFF79CFF237A20002B432372A8
:103CE000FFF796FF0123FB56072B1ADC2000FFF796
:103CF0008FFF0122BA56237D95401D43EDB22575F5
:103D00002000FFF785FF2000FFF782FF02232278C3
:103D1000200013432370FFF77BFFF8BD91B2002012
:103D200099E70F2BEFDC083B9D40627D1543EDB218
:103D30006575E8E70044004100000151042370B5B7
:103D40000400022502780E0013430370FFF760FFA2
:103D5000237820002B432370FFF75AFF237A20009B
:103D60002B432372FFF754FFA37A20001D43A57253
:103D70000125FFF74DFFA37A20002B43A372FFF725
:103D800047FF2000FFF744FF0123F3560022072BD3
:103D90004DDC9D40EDB2257462742000FFF738FFC2
:103DA0000321F278E37E0A408B431343E37620003D
:103DB000FFF72EFF0721B278637B0A408B43134342
:103DC00063732000FFF724FF32791023002A34D1D7
:103DD000227B9A4322730F22237B93433F25237335
:103DE0002000FFF715FFF3882000DAB22276627E0A
:103DF0001B0AAA432B4013436376FFF709FF327A6D
:103E0000A37E2A40AB431343A3762000FFF700FFB5
:103E1000A422631CDA772000FFF7FAFE8023627B7E
:103E20005B42134363732000FFF7F2FE70BD083B53
:103E30009D40EDB222746574AFE70F21227B1343DE
:103E400023737279237B0A408B431343C6E7437B7A
:103E50000120DB095840704710B50400FFF7D8FE79
:103E6000237F607F0002184310BD0300F0B550337C
:103E70001B7885B0029303000500002651331F789C
:103E800003685B7C03932B68B0B21B7CF4B2D9004F
:103E90004143E86C89B241183A190091D2B200212D
:103EA000280000F071FE0134029BE4B2A34205D960
:103EB0000136BB19039ADBB29A42E4D805B0F0BDD3
:103EC00010B5036800211A7C030050331B78C06CC6
:103ED000DB005A4306F0E5FA10BD10B50400FFF709
:103EE000C4FF200000F072FE10BD030010B50400F6
:103EF00051331970836C1B689847A36C20005B6872
:103F0000984710BD030010B5AB331B780400002B9D
:103F100001D0FFF7D5FF00212000FFF7E6FF10BD1D
:103F200070B50400FFF7A1FF230051331D78013B5A
:103F30001B78ED182368EDB25B7CAB4204D82000FF
:103F400000F044FE002070BD2300AB331B78002B33
:103F500002D02000FFF7B4FF20002900FFF7C5FFC3
:103F60000120F0E710B50400FFF7CCFF2000FFF7B9
:103F7000D7FF011EFAD12000FFF7B7FF10BD0000E8
:103F80000823037000487047300300207FB50F25D9
:103F90000E006D44009308491300084A040000F025
:103FA0003DFE2800FFF7ECFF2A7801000096044B45
:103FB000200000F017FC7FBDE54A00004D490000DD
:103FC0002B460000411808784B780002C01880B2D8
:103FD00070470020704770B50B780D0003704B7868
:103FE000040043708B788370CB78C3700B790371B6
:103FF0004B7943718B798371CB79C3710B7A0372DF
:104000004B7A43728B7A8372CB7AC3720B7B0373C6
:104010004B7B43738B7B8373CB7BC3730B7C1121F3
:1040200003742800FFF7CEFF132160822800FFF7FA
:10403000C9FF1521A0822800FFF7C4FFE08270BDF0
:1040400070B50468067B257872183541D2B2EBB2A0
:10405000072A0AD9631C036063780824A41BE4B20E
:10406000A340083A2B43DBB2D2B202730122524280
:104070008A409343180070BD70B504000023783463
:104080008167237303000500903319782000FFF740
:10409000D7FF2B00A072913319782000FFF7D0FFD3
:1040A000AA35E0722B78A3735A425341E37370BD73
:1040B00010B50C00FFF7C4FF0123013CE4B2A3409C
:1040C000C01A40B210BD012B08D0002B03D0022B28
:1040D00006D0401A00E0801880B270474018FBE715
:1040E000801AF9E7012B08D0002B03D0022B06D051
:1040F000801800E0401880B27047801AFBE7401A31
:10410000F9E70300F0B504000F008DB00B9278338F
:104110001A7A04925B7A079325007835AB7A049A71
:104120009B1ADBB20593059A3B1C974201D96B465B
:104130001B7DDBB20893EB88A88810260A936B4698
:104140009E571B7F31005BB206932B7C069A03932C
:10415000FFF7C8FF039B0990069A31000A98FFF702
:10416000B2FF0B9B0200002B17D0A97B2300AA33C0
:1041700019706B4603991B8C20000091099900F07F
:10418000BCF9059B9F420DD3FF1A079BFFB2013379
:10419000DBB2079300230493BEE76B7B002BF0D1C7
:1041A000E97BE3E7049B7834FB1823726B461B7EA4
:1041B00063720DB0F0BDF0B5040089B00700FFF7E1
:1041C0005BFF230083331B7878375BB202932300B5
:1041D000923319783800FFF76BFF23000690933372
:1041E00019783800FFF764FF23009433197805002D
:1041F0003800FFF75DFF0A230790FB560393002B5F
:1042000059DD029B06995B195B425BB205933B7CCF
:10421000059A0493B888FFF765FF049BB880059A58
:10422000069906000500F888FFF74DFF049B020081
:104230000100F880032B62D8180003F0EBFD023F69
:104240004956039B0298F5181118ABB289B2009138
:104250002000310000F0D0F900282CD023000022EB
:10426000012580331A8023008E3319783800FFF738
:10427000E7FE230003908F3319783800FFF7E0FE44
:104280000600002203992000FFF73BFF31002000C9
:104290002A00FFF736FF29003800FFF7D1FE00287B
:1042A000EFD12300092278339A5602998A42DADB49
:1042B0009B7BAA342370079809B0F0BD029B03983A
:1042C000F61A013511180136ABB289B2B6B2BEE7A3
:1042D0000122039B0298D61AAE19AD18121A8A1839
:1042E0000131ABB289B292B2F0E7039A029B8A1A0B
:1042F000F51801320131ABB289B292B2A7E73300AF
:10430000A5E7F8B5046F0D001734FF2912D860290E
:104310000AD9A0300388E4186078002803D02378F5
:10432000AB4205D1A01CF8BD4029F5D99E30F1E77C
:104330002418F1E7A2300088022724182600002163
:104340003000FFF73FFE390024183000FFF73AFE37
:1043500004368542F3D8607823780002184340BAC7
:1043600080B20028DFD0854201D1E01CDBE7A378D2
:10437000E418F0E7F8B51F0003008833040018784C
:104380000E001500032808D8636F03F043FD0217E1
:104390001C20200098472D18ADB223007C33390033
:1043A0001E805D802000FFF7ACFF010000208142ED
:1043B00003D02000FFF7FFFE80B2F8BD2000984731
:1043C000361AB6B2E9E7200098472D1AE4E7200034
:1043D00098473618F5E70000F7B51F0006000C00F7
:1043E000150000F02BFA0023019373683978300030
:1043F0009847134A030090421FD0124A0137904257
:10440000F3D02A0021003000FFF7B4FF32008832D9
:1044100003001078032805D803F0FCFC02080B0DFC
:10442000E418A4B2019AD3189BB2DDE7ED18ADB23F
:10443000F8E7E41AF5E7ED1AF9E70198FEBDC04682
:10444000FFFF0000FEFF000010B5024C4460FFF7C4
:10445000C3FF10BD29480000036F70B5002B1DD0AD
:104460000300002605000124020099339E57A6355B
:104470002E701C57A73214700C331B78002B0DD0F4
:10448000012B0CD103009B331B785BB29E4200DAF8
:104490002B709C23C3569C4200DD137070BD03003B
:1044A000982196331B7841565BB25B189E4200DA26
:1044B0002B708C42F2DD1170F0E70000014B436776
:1044C0007047C046D33F0000036F10B504008B4215
:1044D00006D001678C30FFF77EFD2000FFF7BCFFA0
:1044E00010BD37B5050056352D8806AC2478521B13
:1044F000009492B2446CA04737BDF7B50500A435CF
:104500002D7808AC2478002D3FD0002B3DD0012B16
:1045100004D9022C30D10131C91A89B201252C40AD
:104520000500002C32D164352D8895422DD8050028
:1045300066352D88954228D905000600CB186035D0
:1045400062369BB22D8836888B421CD28E4219D996
:10455000731E9BB29D4218D22F1C8D4200D20F1C9D
:10456000B9B2351C9E4200D91D1C6B1A856C009493
:104570009BB2AC68A04708E0032CCFD10132D21A1D
:1045800092B2CBE729008E42E4D8F7BD60352D8882
:104590008D42FAD8050062352D888D42F5D9050087
:1045A000D31864352E889BB202352D88934211D2E0
:1045B00095420ED96B1E9BB29E42E6D2371C9642A4
:1045C00000D2171CBAB22E1C9D4200D91E1CB31A71
:1045D000CCE732009542D8D9EEE710B504008A4204
:1045E00006D20120A34202D893429B41584210BDFB
:1045F0008342F9D80020FAE770B50D0001000400ED
:104600001E00663104AB64301B8809880088FFF700
:10461000E4FF002808D02300603462331988208822
:1046200033002A00FFF7D9FF70BDF7B508AC247836
:104630000726019414003440A44601246546AC408A
:104640000500AA352F78E4B20025012F02D82500F5
:10465000012F29D0B24316000268127C724392B235
:104660005118C26C5118019A002A1FD00700012668
:10467000523701970A7807272A4362400A70624638
:1046800001321740013BBC469BB2002F18D1019A62
:10469000128889180200AA321278012A02D835003D
:1046A000012A11D034000FE00024D3E70A78013B3F
:1046B0002A4362409BB20A700131002BF6D1F7BD4C
:1046C0006D006400EDB2E4B2002BD3D1F7E7030034
:1046D000F0B550331D780168AAB2D4009C80040064
:1046E0000B7C5234DB002380030051331F78BEB2B1
:1046F000F300A3804C7CED19A54201DDA21B92B210
:104700000400D200583423809B1802005A321380D0
:1047100003008A8A5C331A80CB8A5E300380F0BD46
:1047200010B5FFF7D4FF10BD13B504AC2478009486
:10473000FFF7D7FE13BDF0B5060005000700040023
:1047400085B06E306A366C35683733882A88398888
:104750000390008800902000FFF74EFF2300A43351
:10476000002802D1187005B0F0BD01221A70230094
:1047700060333A881988914200D21A80230062334C
:1047800032881988914200D91A80230064332A881C
:104790001988914200D21A80039B66341B882288B4
:1047A0009A42E0D92380DEE703000022603310B58F
:1047B0001A8002005C3212885A8002005832128835
:1047C0009A8002005A321288DA80FFF7B4FF10BDD7
:1047D000034B10B58366C366836C5B68984710BD56
:1047E0000000FFFF70B50400636423000025503310
:1047F000E16425671A705D7035331D702200243323
:104800001D700123AA320498137053700368A064CA
:10481000200098472000FFF7DBFF20008834FFF7D7
:104820004DFE257070BD0000002902D088B20A2913
:1048300000D101487047C046FFFF00000023073049
:10484000C377704710B5130004690A001721A04709
:1048500010BD07B56B46DA1D11700121FFF7F2FF9D
:104860000EBD002310B51A0004691821A04710BD21
:10487000002310B51A0004691921A04710BD70B5B6
:10488000040016000D00FFF7ECFF40212000FFF7A9
:10489000E0FF33002A00172125692000A8472000E7
:1048A000FFF7E6FF70BD10B50A00C46800231521AC
:1048B000A04710BD10B50A00C46800231621A04708
:1048C00010BD10B51300C4680A001721A04710BD21
:1048D000002310B51A00C4681821A04710BD00239A
:1048E00010B51A00C4681921A04710BD73B50500A2
:1048F0000C002178172918D002D815290CD273BDC5
:1049000019291BD9FE29FAD16B4662782921280082
:10491000DA7100F062F906E06B4662782800DA711D
:10492000EE680023B0470234E3E76B46DA1D637894
:10493000012128001370FFF7C4FFF4E700232800CB
:104940001A00EE680134B047D3E700001439F8B517
:10495000040015001E000020052919D8080003F0E6
:1049600059FA3703181E4448274E3378002B02D0DB
:104970002000FFF77DFF2000FFF773FF00212000DC
:10498000FFF767FF29002000FFF763FF0120307069
:10499000F8BD11002000FFF75CFF0120F8E71A4F77
:1049A0003B78002B02D02000FFF762FF3200182D69
:1049B00006D829002000FFF762FF00233B70ECE7D8
:1049C00018212000183DFFF75AFFEDB21836EDE729
:1049D000631DDA7FFF2A01D1873ADA77276933002E
:1049E0002A0014212000B847D2E70022064B1A7093
:1049F000D3E7054D2B78002B02D02000FFF738FFBE
:104A000000232B70C9E7C046300700200B39F8B5EA
:104A1000040016001F000800042958D803F0FAF912
:104A200003570C1E2D002B49002A00D02A492000D4
:104A3000FFF75CFF0120F8BDE51C002A07D12749DC
:104A40002000FFF753FF23689B7CEB77F2E72449B4
:104A50002000FFF74BFF2368DB7CF6E72000FFF721
:104A600037FF81212000FFF71EFF31002000FFF7F4
:104A700021FF2000FFF733FFDCE72000FFF728FFCE
:104A8000E31C7D79D97FED006D1820004021FFF7F0
:104A90000AFF1021EDB22B0919432000FFF703FF95
:104AA0000F2120002940FFF705FFB023B97920002E
:104AB0001943FFF7FFFE3979013EC900C9B23A68D0
:104AC0002000F6B2FFF7FDFE002EF4D1D1E7002062
:104AD000B1E7C0465F560100645601001C56010054
:104AE0002356010070B504000D00FFF78FFF00286A
:104AF0000AD1092D0AD00A2D07D1200000F015F89F
:104B000005492000FFF7F2FE012070BD0349200097
:104B100000F006F8F8E7C0462A5601006C5601007E
:104B200001608B7C0330C3777047002370B51A0097
:104B3000282145690400A8470023E5681A001421CC
:104B40002000A847200001224B2100F046F82368EE
:104B500020001A79292100F040F8200000224B2182
:104B600000F03BF8236820001A79292100F035F87D
:104B7000200001224B2100F030F8236829215A79C6
:104B8000200000F02AF870BD13B56C462371049B19
:104B90006171A271009384686B4601220F21A047C6
:104BA00016BD002310B51A0084680921A04710BD66
:104BB000002310B51A0084680A21A04710BD10B563
:104BC0000A00846800230B21A04710BD002310B504
:104BD0001A0084681021A04710BD10B50023446955
:104BE000A04710BD0020704700230B4A036082607D
:104BF000C26002614261021DD377C21DD377836117
:104C0000421DFF33D37723321370423004321370C6
:104C100001328242FBD17047E54B0000F8B5040039
:104C20000F0016001D00FFF7DFFF069BA760E66080
:104C3000256163612000FFF7B4FFF8BD10B5054A98
:104C40000549064800F010F80022054B05491A7086
:104C50005A5410BD0104000000570100340B00201D
:104C6000310700200204000030B5094D094CAB6843
:104C70005B035B0F9B001C590460AB6801619BB236
:104C800043606343A4008360C460426130BDC0469A
:104C900000400041005C0100F7B580261A4D0191EB
:104CA0006F6803333E439B086E60002B2BD0174E7A
:104CB0002E802E7DF107FCD51E000768991BBF08CA
:104CC0008F4219D9002E17D0FF2117788C433C430F
:104CD0000F4957780C403F023C439778013E390416
:104CE0000C4F2740D478BFB20F43240601993C43B0
:104CF00010C101910432E0E7074B2B802B7DDB07CD
:104D0000FCD53300D1E7F7BD0040004144A5FFFFCB
:104D1000FF00FFFFFFFF00FF04A5FFFF044B054A54
:104D20004908D9611A801A7DD207FCD57047C04660
:104D30000040004102A5FFFF70B504000D00160001
:104D4000E36829002000B34205D2FFF7E7FFE368DC
:104D5000ED18F61AF4E7FFF7E1FF70BD10B510008B
:104D60001A0005F095FB10BD052370B5C356010070
:104D7000002001332DD072B622231648164A037044
:104D8000164B174E5D885C882D0514405C805C884E
:104D90002D0F344080265C801400F6015A88324280
:104DA000FCD15A882D0222402A435A8062B60D4A0D
:104DB00004315A80222202705A8832435A8080235A
:104DC000094A1B03106A034313620848FEF732FFC7
:104DD000012070BD020C0040FFF0FFFF000C0040FE
:104DE000FFBFFFFF2203000000040040004C004210
:104DF000011D10B50748FEF7A1FF0648FFF727F889
:104E0000002802D100F092FCF7E70248FFF724F8EF
:104E100010BDC046004C004210B50400FFF7E8FF8B
:104E20000200A079062805D802F0F4FF05070A0C55
:104E30000E101200074A100010BD53089AB2FAE78C
:104E40009308FBE7D308F9E71309F7E75309F5E7F8
:104E50009309F3E7FFFF000018230168094A4B4359
:104E6000D1189B564868002B03D10238052806D874
:104E70007047012B03D1092801D80630F8E701203B
:104E80004042F5E7FC5C0100F7B51E0008AB1B785B
:104E9000040004300D0017000193FEF7BDFE182337
:104EA00025605D430A4A2000AB565519013B594223
:104EB0004B416A685B019B182371FFF7CDFF6B467E
:104EC0001B796071A771E67120002372FEBDC04698
:104ED000FC5C010070B5060015002B2915D80120D7
:104EE0002A2939D2282927D029293CD000203F2936
:104EF00032D93F23194073182C331C78FF2C2AD049
:104F00000F2944D82900200013E02D292FD024D3C5
:104F10000B004C3B012BE9D83F24214041182C3198
:104F20000C000878002A2ED1012100F053FE290040
:104F3000207800F07FFE0EE0002423002C33F05C8C
:104F4000FF2805D001210F2C00D9022100F042FEDC
:104F50000134162CF1D1012070BD002AFBD01023A2
:104F6000013BFDD1F7E7100000F0BEFBF3E70223A1
:104F70009A4200D8033330200321584302F054FFF3
:104F80000138FDD1E7E7022100F024FEE3E7102914
:104F900001D100F0CBFB200000F078FE431E9841C9
:104FA0000836F077D7E710B50400373421700100D8
:104FB000393038310A70037010BD0000143970B5F3
:104FC000040008000C292AD802F024FF0D29290723
:104FD00019252929292929290B001900114800F030
:104FE00025F8012070BDA369002B04D123685A7BEA
:104FF0000D4B5343A3610B4800F072F8F1E7094DE4
:10500000A1692800053400F08BF8E17F28004908E9
:1050100000F094F8E5E7034800F005F9E1E7002027
:10502000E0E7C0464C0B0020A0860100F8B5050063
:105030000E0017000024BC4208D02B68315D1B68AD
:1050400028009847002801D00134F4E72000F8BD7B
:1050500070470300FC33196ADA69914203D01B6A76
:10506000C018007E704701204042FBE70300FC337C
:10507000D8691B6AC01A01D50130FF3070470000A3
:10508000F7B50193FA238026002504009B00836076
:10509000124B760008330F00456029000092036030
:1050A0003200183005F0FDF923002000FC332130D8
:1050B000DD6132001D622900FF3005F0F2F987231F
:1050C0009B00E3185D609D606B461B78276123752C
:1050D0006B461B79A57520006375FEBD205C010041
:1050E00070B5060018250C49006901F027FA3069EF
:1050F00001F0A2F82B000821307D084C4343E3184F
:10510000595600F0DBFD0821707D45436419615656
:1051100000F0D4FD70BDC046A0860100FC5C01001B
:1051200070B504000D00006901F09BF829002069AA
:1051300001F004FA206901F07FF870BD8A23002293
:105140009B00C1540C3BC3185A609A6001238375BD
:105150007047020010B5FC32536894680133DBB22B
:105160009C4202D054680155536010BD002210B516
:10517000837D93420DD087239B00C4186368A46885
:105180000133DBB2A34204D02130FF30FFF7E1FF4F
:105190000122100010BD0300FC3399685A68914247
:1051A00006D09A68805C9A680132D2B29A607047E1
:1051B00001204042FBE700228A2370B59B008275E4
:1051C00005000E00C15C006901F07EF8002806D1E0
:1051D0000321286901F062F80224200070BD8723B2
:1051E00028009B00EA18536894682130FF301C1B8C
:1051F00001D50134FF34002C0ED02C69FFF7CBFF12
:10520000C1B2200001F09EF80028E8D103212869EE
:1052100001F044F80324E0E7002EDED003212869E2
:1052200001F03CF8D9E710B50121FFF7C4FF10BD2C
:1052300010B51830FFF7AFFF10BD70B5040000695E
:1052400001F0A0F8002814D0206901F0A9F8002886
:1052500010D0206901F018F80321206901F01EF830
:105260008C239B00E558002D39D10023FC34E361E9
:10527000236270BD206901F09DF8002809D02069E3
:1052800001F093F8002804D0206901F098F8002874
:10529000DFD0206901F08EF8002826D1206901F0C6
:1052A0007AF80028E5D0206901F089F8002837D085
:1052B00087239B00E218536892689B1A01D501333B
:1052C000FF33FF21002B05D020002130FF30FFF7F6
:1052D00062FFC1B2206901F047F8A075C9E72368F1
:1052E00020001B699847A847BFE7206900F0CCFF62
:1052F0002069032100F0D2FF206901F060F8002846
:10530000B7D0872300229B00E3185A609A600123DC
:10531000A3758B239B00E3589342AAD09847A8E734
:105320002200FC32D369126A0133DBB22069934256
:1053300006D100F0A0FF0321206900F0AFFF98E73D
:1053400001F042F8010020001830FFF702FF206949
:1053500000F09AFFEFE7000010B50248FFF76DFF7D
:1053600010BDC0464C0B002010B515231422024975
:105370000248FFF785FE10BD101400204C0B0020E2
:10538000F0B5040085B01E000AAB1B781030019305
:105390000BAB1B78170002930CAB1B780D0003932B
:1053A00000F076F82000243000F072F8220000238C
:1053B0004832A363E36323646364137053706372BE
:1053C0009D4205D10A4B0B4A22210B4804F0FAFFFB
:1053D0006B461B79200063716B461B7A2560E37175
:1053E0006B461B7B2771A671237205B0F0BDC046CA
:1053F000445C0100A75C0100555C01001FB5094A2F
:10540000094B0A491360002353711371029301334E
:10541000019316330093162201330548FFF7B0FFBE
:1054200005B000BDCC0D002000093D001414002083
:10543000800D0020094B1868002809D1EFF3108275
:105440000749002A08D172B6BFF35F8F01320A7094
:105450001A6801321A6070470870F9E7D80D002009
:10546000D40D0020084B1A68002A0CD01A68013AA3
:105470001A601B68002B06D1044B1B78002B02D04E
:10548000BFF35F8F62B67047D80D0020D40D0020A7
:10549000FF23002110B504000370FC3B41708170B4
:1054A000C170017143710C22083004F0FAFF200032
:1054B00010BD000001220B0010B5134008D00D4BA9
:1054C0001A70042343708368002B00D0984710BDE6
:1054D0000222114204D007490A704370C368F3E7FF
:1054E00004231942F3D0034A137003334370036952
:1054F000EAE7C0464E48004110B5FFF79BFF0C4B52
:105500001B8C1B071B0F0B2B0FD80A4A99008858BE
:1055100000280AD00F2408490A78A24313430B70CD
:10552000064B1978C9B2FFF7C5FFFFF79BFF10BD07
:1055300000480041DC0D00203F4800414E4800413A
:1055400010B5024802F0B8FA10BDC0460C0E00209B
:1055500010B5024802F0B0FA10BDC0460811002094
:10556000F7B501240326154F1549380000F0CEFD8C
:105570001449154800F0CAFD1449154800F0C6FD4D
:105580001449154800F0C2FD1449154800F0BEFD4D
:10559000144D1549280000F0B9FD3900009623008C
:1055A00001940022114802F01BFA00962900019490
:1055B0001E231F220E4802F013FAF7BD0414002028
:1055C00000080042000C00420814002000100042B5
:1055D0000C14002000140042101400200018004297
:1055E0001414002018140020001C00420C0E00208F
:1055F00008110020FEE70000034B10B51B68002BCC
:1056000000D0984710BDC0461C14002070B50F494B
:105610000F4CA14204D100F08DF802F043FBFEE7ED
:105620000C4D00238D42F6D0CA18E818A24205D3CB
:10563000094B8242EFD00949002204E0006804339C
:105640001060F1E704C38B42FCD3E4E700000020C4
:10565000400100207464010040010020381A00203D
:1056600010B500F064F8002801D100F055F810BD25
:10567000014B18607047C0461C140020014B18688D
:105680007047C04620140020F7B513480122844615
:105690001249134C8E68636805689B0E1340019293
:1056A00088686268019F920E3A4067463F6893425D
:1056B0000ED1BD420CD186420AD35B19FA25486847
:1056C000AD00861B07486B437043000DC018FEBD3C
:1056D0003D0013000600E3E72014002010E000E086
:1056E00000ED00E05555000070B5041E10D0FFF726
:1056F000CBFF050000F01AF8FFF7C6FF054B401B73
:105700009842F7D9FA23013C9B00ED18002CF3D105
:1057100070BDC046E703000010B5034A13680133AB
:10572000136000F0B7FC10BD20140020704700206B
:10573000704700001E2270B54648474943689343AE
:105740001C3A1343436008238C6923438B61434C09
:10575000434B9C829C8A14439C82DC681442FCD09C
:105760000124404A14701578254203D055786DB253
:10577000002DF8DB01249460547864B2002CFBDB2C
:10578000394C5460547864B2002CFBDB8224E40171
:105790005480547864B2002CFBDB02249C840E34C9
:1057A000DD682542FCD0314CDC621024DD682542E6
:1057B000FCD09D8C2E4C2C439C841024DD6825420B
:1057C000FCD002249D8C80262C439C844024DD68E0
:1057D0003542FCD0DD682542F9D01024DD68254231
:1057E000FCD000249460547864B2002CFBDB214C84
:1057F0005460547864B2002CFBDB1C6A1E4D2C40B4
:1058000080251C621C6AAC431C62032393601B4B03
:10581000536053785BB2002BFBDB0023FF240B7239
:10582000174A4B728B72CB72164B1A60164B174A83
:105830001B6811689A065B01C90E2340520F1202C1
:105840000B431343124A138580234268134343607A
:1058500070BDC04600400041000400400C0600003E
:1058600000080040000C004001050100B905FF7D63
:10587000040A000000070300FFFCFFFF030601000D
:10588000006CDC022000002024608000206080008A
:1058900000400042FA212D4B10B51868890002F033
:1058A000C3FA2B4B013898424FD82A492A4A4860FC
:1058B000C020136A00061B021B0A03431362002365
:1058C0008B6007330B608021136A09061B021B0AD9
:1058D0000B431362FC22214B196A0A431A62FF220E
:1058E000196A12020A431A62A022196AD2020A43F2
:1058F0001A621B4B1C005A7852B2002AFBDB194A71
:105900005A80194B1A00597EC9090129FBD0C821B8
:10591000890099800521D970537EDB09012BFBD0CA
:10592000C02300205B011361907000F029F86378B8
:105930005BB2002BFBDB0D4B0D4A6380D379DB0997
:10594000012BFBD04123537010BDFEE72000002047
:10595000FFFFFF0010E000E000ED00E00004004069
:10596000000C00401E4000000040004221400000AA
:1059700000480042014B18607047C04624000020D8
:105980001F4900B50B004A7ED209012AFBD001381D
:105990000A282FD802F03EFA1B2E2E2E2E2E062E6F
:1059A0002E2411001A6917490A400F211A615A78EA
:1059B0008A43110001220A4310E01A6911490A4082
:1059C0000F211A615A788A4311000322F3E71A69FA
:1059D0000C490A400F211A615A788A435A7000BD57
:1059E0001A6908490A400F211A615A788A4311003E
:1059F0000222E0E7F022196912050A43F3E7C046E4
:105A000000400042FFFFFFF018234343F0B5684A0F
:105A10000E009B18D96885B004008A0718D50E2897
:105A200016D1644A1300D179C9090129FBD0B60502
:105A3000B60D1681DA79D209012AFBD00222197833
:105A40000A431A70DA79D209012AFBD005B0F0BDF9
:105A50000825594F294200D194E03A68102A02D013
:105A600044D9103AD64012255D5FCB0642D50421B9
:105A7000200000F023F92F12504BBA00D458504B9D
:105A8000EDB2DA5D002A5CD10132DA554D490F32B0
:105A9000684604F0FDFC6A467B009B5A8022D201D6
:105AA0001A43494B5A805A78D209012AFBD0022264
:105AB000974223D9238893432380E37BDB09FCD1DE
:105AC0002288403313432380E37BDB09FCD10C3570
:105AD000B6B26D002E53E37BDB09FCD12288023382
:105AE00013432380E37BDB09FCD1AFE71020821A4C
:105AF0009640B8E78B06A9D50521B9E723689343FB
:105B0000324A23601300A1681142FCD10222E16BEA
:105B10000A43E263A2681A42FCD11035AD00651950
:105B20006E60A2681A42FCD1294A2264A2681A4215
:105B3000FCD1022221680A432260A2681A42FCD1E9
:105B400084E7022F07D90C35B6B26D002E53E37BE4
:105B5000DB09FCD17AE702236279134363711B4BA3
:105B60001A00A1681942FCD11C35AD002E51A36862
:105B70001342FCD1022321790B432371A368134202
:105B8000FCD163E70121200000F024F83B68082BDA
:105B900002D009D9083BDE4000217F2E00D9012127
:105BA000200000F047F851E7EB1A9E40F4E7C046AA
:105BB000FC5C010000480042240000200800002096
:105BC000241400204C610100000C0040FF0F7F00F6
:105BD000FFFF0000182310B508244343134AD018D0
:105BE0000457013412D001249A5643689C4003297B
:105BF0000CD808000E49D2015218D318403302F0D5
:105C000009F90210060B02211970546010BD06211B
:105C1000197054609461F9E7062119705460546159
:105C2000F4E7022119709460F0E7C046FC5C0100C3
:105C3000004400411823F0B508245843114A1318B2
:105C40001C5701341BD0012635005F688356BD40C8
:105C50000D4ADB019A18906805420BD10C00601EBA
:105C60008441D2194032107834400336A400B04346
:105C700020431070044A9B18002901D15D61F0BDDA
:105C80009D61FCE7FC5C010000440041182310B555
:105C90000824434307490020CA181457013408D088
:105CA0005B560549DB015B18186A5368D84001232D
:105CB000184010BDFC5C0100004400411822424322
:105CC00070B52D4E0300B218127A52B21400013290
:105CD0000ED0481C00240C280AD802F09BF8071F9D
:105CE0001F1F1F1F1F1F1F0B0B0B0B0001246442E4
:105CF000200070BD092905D100211800FFF76AFFB7
:105D00000024F5E70A2901D10839F6E700240B2918
:105D1000EED10A391800FFF75DFFE9E718220120EC
:105D20005343F218F3565568144ADB016C089B186C
:105D3000C9B228401C1900280ED00F203034227818
:105D40000901024011434122C9B25B19217040335D
:105D500019780A431A70D3E722000F2630321478DC
:105D60005B19B44321431170412240331978040078
:105D70000A431A70BCE7C046FC5C010000440041C5
:105D8000F7B506000D000C008B180193019B671BF3
:105D90009C4207D0336821781B6830009847013453
:105DA0000028F3D13800FEBD70B5040008000D00D6
:105DB00004F0EEFE2368020029005B68200098478B
:105DC00070BD10B50B1E02D0FFF7EEFF03001800E8
:105DD00010BD10B5FFF7F5FF10BD10B503681B68C7
:105DE000984710BD10B50249FFF7DEFF10BDC04651
:105DF000F7C0000070B50400FFF7E3FF05002000C6
:105E0000FFF7F0FF401970BDF0B58BB06B46150081
:105E1000002205330600DA770800012D00D80A2594
:105E200009AC290002F086F8CAB213003733070024
:105E3000DBB2092902D813003033DBB2013C2370F6
:105E4000002FEED121003000FFF7BBFF0BB0F0BDFB
:105E5000F8B506000C00151E04D10368C9B21B6812
:105E60009847F8BD0A2A0CD100290BDA2D21FFF73B
:105E7000B4FF614207002A003000FFF7C5FF381861
:105E8000EFE7D2B221003000FFF7BEFFE9E710B51F
:105E9000FFF7DEFF10BD70B50400FFF7D9FF050066
:105EA0002000FFF79FFF401970BD10B5002A04D1F4
:105EB0000368C9B21B68984710BDD2B2FFF7A4FFB0
:105EC000FAE770B50400FFF7F0FF05002000FFF7C8
:105ED00089FF401970BD0000F7B51E0008AB1B78A4
:105EE00031000193050033001000170004F0F2F8B0
:105EF0004B49002814D10122740064085242494BD6
:105F00003800210004F0E6F800280FD10122454BAB
:105F100052423800210002F033F8002806D14249ED
:105F20002800FFF741FF04002000FEBDE0223F4BA8
:105F300012063800310002F02DF8002801D03C494B
:105F4000EEE7E0223B4B12063800310002F00EF87B
:105F50000028F4D1002200233800310002F006F8B6
:105F6000041E07D02D212800FFF737FF80230400EF
:105F70001B06F618002300202F490093019B009A6E
:105F8000934208D02D4B002202F0E0FE009B01332B
:105F9000DBB20093F2E733003A0002F0BBFB0F00E4
:105FA000060002F045F80A22019001002800FFF7E0
:105FB0002BFF009B0419002BB6D0019804F0DCF8ED
:105FC00002000B003000390003F03CFD06000F001A
:105FD00028001B49FFF7E8FE2418009B013BDBB2B9
:105FE0000093FF2BA0D0154B00223000390003F0A6
:105FF000B7FA0F00060002F01BF80A220100019018
:106000002800FFF701FF2418019804F0B5F80200FA
:106010000B003000390003F015FD06000F00DCE72F
:106020005C610100FFFFEF7F60610100FFFFEF4156
:1060300064610100FFFFEFC10000E03F0000244069
:1060400076C0000037B51D00069BDBB200932B0025
:10605000FFF742FF3EBD37B519000400069B200044
:10606000DBB200930B00FFF737FF05002000FFF7BE
:10607000B9FE40193EBD0000014B18607047C04694
:10608000280000200122024B52421A607047C0468D
:1060900028000020164A10B51368591C26D0013B71
:1060A0001360002B22D172B6124B134A0433934271
:1060B00013D9124A01211000147D0C42FCD020217A
:1060C000148BFF319B085B0021431183D3610C4B80
:1060D00013800123027D1A42FCD0BFF34F8F094B7E
:1060E000094ADA60BFF34F8FC046FDE710BDC046D6
:1060F00028000020002000000302000000400041B2
:1061000002A5FFFF00ED00E00400FA050160704702
:106110009446F0B59E1E721E96416246056892072F
:106120002F6836063A4332432A60072505AC2478A7
:106130000068A4012940214342680024022B00D0BA
:106140005C03114321434160F0BD30B5C0250368B5
:10615000AD031C6812052A402243C0240904A4028E
:1061600021401143196003685A6814435C6030BDD4
:106170000123026811680B43136003681A68D20791
:10618000FCD4DA69D207F9D4704702230268116897
:106190000B4313600268D3699B07FCD47047036804
:1061A0001A7ED20702D41A7E9207FCD570470022CD
:1061B00003685A8370470368187E4007C00F704712
:1061C0000368187EC0097047802302685B42117E15
:1061D0000B43137670470368588B8007C00F7047D6
:1061E00002230268518B0B43538370470368187E68
:1061F000C007C00F70470368188DC0B270470368AE
:106200001A7ED207FCD589B2012019857047012278
:1062100003689A757047012203681A757047012355
:10622000026811680B43136003681A68D207FCD434
:10623000DA69D207F9D470470223026811680B4368
:1062400013600368DA699207FCD430215A8B8A43C1
:10625000110010220A435A830268D3695B07FCD4F9
:1062600070470221026813688B4313600268D36988
:106270009B07FCD4704780230268DB0211685168D9
:106280000B43536070470000036803491A685A685B
:106290000A405A607047C046FFFFFBFF032230B53B
:1062A000036811401C68074D5A6809042A40E40637
:1062B0001143640F5960052C03D10268D3695B0751
:1062C000FCD430BDFFFFFCFF30B503680400588BE1
:1062D0008006800F022814D05D8B0020AD06AD0F24
:1062E000032D2ED0588B800705D55D8B0020AD0681
:1062F000AD0F012D25D100205D8BAD06AD0F854280
:106300001FD04800596A1043C90AC0B2C9020143EC
:1063100059622368002A08D11A7ED207FCD5588B0F
:106320004007C30F012058400BE0187E8007C00FC4
:10633000F5D11A7ED207F8D5C022596892020A43D5
:106340005A6030BD0368283319700368187EC0078F
:10635000C00F03D15A8BD207F8D57047588B40072E
:10636000C30F01205840F8E7036828331970036809
:1063700000201A7E520704D5588B01234007C00F16
:106380005840704703681868C006400F04384342FD
:106390005841C0B270470368187E4007C00F70476D
:1063A0000368187EC007C00F70470368588BC0068B
:1063B000C00F70470368187E8007C00F70470368DE
:1063C000588B0007C00F704703681A68D206520F37
:1063D000052A02D11A7E9207FCD528331878C0B25C
:1063E000704700000368104A934213D00F4A93424B
:1063F00012D00F4A934211D00E4A934210D00E4A47
:1064000093420FD001200D4A4042934201D1063001
:1064100040B270470020FBE70120F9E70220F7E7D0
:106420000320F5E70420F3E700080042000C0042D7
:10643000001000420014004200180042001C0042FC
:10644000F8B5FFF7CFFF00282EDBC3001C481F2242
:10645000C01805230579C35601201A409040032631
:10646000C022184952001E40F6008850813AB240BE
:10647000C024D243B440002B17DA0F263340083B28
:10648000114E9B089B009B19DE6932401443DC616E
:106490003F231D408023DB011D430C4B08605D80C2
:1064A0005A7852B2002AFBDBF8BD064E9B089B00CF
:1064B0009B19C026B6009F593A4014439C51E7E708
:1064C0006861010000E100E000ED00E0000C004028
:1064D000F8B504000F0016001D00FFF7B1FF200003
:1064E000FFF746FE1C21BB000B4071072268090C18
:1064F0000B431360842322689375012F1AD1102156
:10650000012E00D008390C4B69431868C00001F017
:106510008BFC0722216802408B895203DB04DB0CD1
:1065200013438B81226803049089DB0C400B4003EA
:1065300018439081F8BDC04620000020F8B5040043
:106540000F00FFF77DFF2000FFF769FE142223688C
:1065500079001A600C4B25681E68300001F064FC5D
:106560000A490400300001F05FFC7D23FA21584302
:10657000C90001F059FCFF23241AE868053C1C40BF
:1065800098430443EC60F8BD2000002040420F0017
:106590000221084B1A888A431A80DA7BD209FCD17F
:1065A00001321A80DA7BD209FCD11A88D207FCD4D6
:1065B0007047C04600340042074B10B51B780400FA
:1065C000002B08D0FFF7E4FF00212000FFF732FB8B
:1065D0000022024B1A7010BD2A1400204014002023
:1065E000F7B504000E1E019202D1FFF7E5FFF7BDDB
:1065F0008023514A5B03D367C022504D5200AB50F9
:106600004F4B1A78002A10D1C52101321A70890027
:106610006B58FE3293431A00402313436B50494A90
:10662000494B5A805A78D209FCD1484B1B78002B31
:1066300005D0474B1868A04201D0FFF7BDFF454B7E
:106640003100186801F0F0FB434A431E0093944662
:1066500000230427009A624510D901005A1CD1403A
:10666000013900911900B943C9B2032902D0D2B24D
:10667000062A01D10233DAB21300EBE7013B00270F
:10668000092B02D8354A5B009F5A019B002B4FD043
:10669000FA2158007043890001F0C6FB0023020074
:1066A0002F49304E0A604B60FFF772FF202332887B
:1066B00013431F433780F37BDB09FCD16B461B88F8
:1066C0003383F17BC909FCD11820274F6043BC46B6
:1066D000264B274FC356DB019C4462463A60254A4D
:1066E000254F9B183B600127204B1A1853683A002E
:1066F0009A40224B1A601023727B13437373144B1E
:106700001A68A24209D020001C60FFF793FA3900F2
:106710002000FFF75FFA0D4B1F70022332881343EE
:106720003380F37BDB09FCD180235B032B605EE7C6
:1067300001225242D317B3E704E100E000E100E098
:106740002A1400201C400000000C004040140020CF
:106750002C00002030000020FFFF000098610100A5
:1067600038140020003400421C440041FC5C01004D
:106770003414002014440041301400202C14002054
:10678000154B70B5186859680500144C0D4319D0A5
:10679000134A21681268116018685968002902DCE0
:1067A0000AD1002808D01868596801246442E51706
:1067B000001969411860596010230A4A917B0B4304
:1067C000937370BDFFF7E4FE074B22681B681A60E5
:1067D000064B1D70F5E7C046381400202C1400202D
:1067E00034140020003400423014002040140020F3
:1067F0003F20704713B56B460268D9710733546860
:1068000019000122A04716BD10B50221006900F051
:106810002BFC10BD10B50321006900F03BFC10BD3E
:1068200010B51300084A0400D279002A03D10123CD
:106830000020636010BD0A000069032100F016FD0E
:106840000028F4D0F6E7C0463800002010B5054C0B
:1068500023685A1C04D103685B69984703002060D1
:10686000180010BD84000020074B0200186810B506
:10687000411C03D0012252421A6010BD022110694E
:1068800000F0E6FCF9E7C0468400002010B503786C
:106890004222023303700249024800F093FD10BD0A
:1068A000400000206014002010B5017802004378F9
:1068B0000020A12908D1212B05D10722164917480C
:1068C00000F080FD012010BD2129FCD1202B13D127
:1068D00007221149114800F021FC96220E4BD200EC
:1068E000196891420ED10124D87904400AD1FA20C6
:1068F000FFF7C2FB0020E6E7222B06D19278064B79
:10690000DA71EAE7FFF7BEFBF4E7232BDBD152880D
:10691000034B1A60D7E7C0463800002060140020FF
:1069200034000020FA220021054B92009A60054AAB
:10693000596008321A60044A19761A617047C046D5
:1069400044140020AC61010060140020704770B551
:106950000F26CB1D013902003240D5B22C000009B0
:106960003034092A00DD07341C70013B8B42F2D120
:1069700070BD10B50400806903F080FDA06A03F0CB
:106980007DFD200010BD10B50400FFF7F2FF2000D0
:1069900001F0AEF9200010BD70B5032908D1324BCB
:1069A0008000C058002802D00368DB68984770BD9B
:1069B00082291FD1C3B22D4D5A01AA1891692C4CBE
:1069C00080010C40C0218905214391612949083388
:1069D0004018802150612A685B01D018047949422F
:1069E000214301717020995C8143080030210143EB
:1069F0009954DCE70029DAD1C024C1B21B4E4A0108
:106A0000B21893681A4DA4052B40234393601A4B88
:106A10008001C0180B0050603068072608335B0106
:106A2000195CB1430E0001213143195491690D40A5
:106A30002C43946170240F495161195CA1430C00EF
:106A400010212143195491680C4CC3180C4080212B
:106A50004903214391609168890B89039160402229
:106A600059790A435A71A2E76414002018190020CA
:106A7000FFFFFF8F8C1400204C160020FF3F00F01A
:106A8000EFF3108303600123436072B6704703681D
:106A9000002B02D162B6BFF36F8F704737B505691F
:106AA00004006846002D14D1FFF7EAFF019B621D28
:106AB000013B02D3D57FEDB2FAE768460193FFF7B9
:106AC000E6FF002D01D100203EBD206AE369C01A17
:106AD000FAE7FFF7D5FF22000025019B3432013B86
:106AE00002D31578EDB2FAE768460193FFF7CFFFBE
:106AF000002DE8D0206BE36AE9E70000FF2130B504
:106B00004368164D1A6883680B405B01D218012355
:106B10005218947A23439372836842680B405B0156
:106B2000D418C268A36892042B4012091343A360CF
:106B3000836842680B405B01D3189A68920B9203FA
:106B40009A6043681A6883680B4008335B01D31866
:106B5000402219790A431A7130BDC046FF3F00F048
:106B6000F7B5036904000E0017006846002B45D1F5
:106B7000FFF786FF019B611D013B5A1C0CD0CD7FA6
:106B80005A1EEDB2002D05D168460193FFF77FFF35
:106B90002800FEBD1300F0E7684601930025FFF7CB
:106BA00076FFE369AF420AD0226A9A4207D95A1C9B
:106BB000E261A269D3181B7873550135F1E7226AA7
:106BC0009A42E5D10023E361013323616846FFF770
:106BD00057FF22000021019B671D013B3532581CE5
:106BE000D2D0F97710785E1E002805D011702000F1
:106BF0000193FFF783FFECE73300F0E7FFF740FF77
:106C00002100019B3431013B5A1C06D00D785A1EDD
:106C1000EDB2002DB8D01300F6E7684601930025C9
:106C2000FFF735FFE36ABD4202D0226B9A421CD8BF
:106C3000226B9A42ACD100236846E3622361FFF7DE
:106C40001FFF270022000021019B3437013B353212
:106C5000581C99D0397010785E1E00280DD0117024
:106C600020000193FFF74AFFEBE75A1CE262A26A99
:106C7000D3181B7873550135D4E73300E8E7F7B52F
:106C8000FF21826843680A401B68083252019A1843
:106C9000D3790400DB072AD50125D57183684268C2
:106CA0000B405B01D3189A6840699204920C00284B
:106CB00021D12262226A002A3ED0A26A656168461A
:106CC0005A60FFF7DDFE27002100019B661D013B96
:106CD000343735315A1C2BD0F5773A78581ED2B25A
:106CE000002A05D0019368460D70FFF7D0FEF7BD6E
:106CF0000A700300EEE72263226B002A1CD00022F8
:106D00006261A26968465A60FFF7BAFE2600210058
:106D1000019B3436013B671D35315A1C08D0357054
:106D2000FA7F581ED2B2002ADCD10A700300F4E7C1
:106D300068460193FFF7ABFE2000FFF7DFFED6E7C2
:106D400037B56B46DC1D00230D0020002370FFF7D4
:106D50009DFD2B681818286001F002F8210000F052
:106D6000CBFF2B681818286020783EBD03290ED170
:106D700080220E4B62311B68FF31585C5242024345
:106D80005A5468226339FF32FF39995470470129F8
:106D9000FCD18022054B24311B68FF31585C5242E4
:106DA00002435A5428222339FF32EDE718190020F4
:106DB00000222C4B70B5012104001A201A70FEF736
:106DC00009FF01211A20FEF735FF2023264A0F2054
:106DD000D1690B43D361012224490B7813430B7013
:106DE000234B19788143197006211D7829431970A6
:106DF00020490D782A430A701A7802401A706022DE
:106E000019780A431A701C4B1C4A5A805A78D209C6
:106E1000FCD11B48FEF72CFC1A4D280000F0B2FFF5
:106E2000280000F0C7FF7F212A68C1201378800066
:106E30000B40137004232A6811780B430C21137044
:106E40002A6813898B43104913810B581B021B0AB4
:106E50000B5080230B6011787E3B0B431370012392
:106E6000237070BD8014002000040040584400418D
:106E70003C44004159440041000C004006400000E1
:106E8000157800001819002000E100E000780028C3
:106E900010D00121084B1B681A898A431A810822E5
:106EA000198B0A431A830422198B0A431A8300227E
:106EB000024B1A607047C0461819002010190020B4
:106EC00010B50F4A93699B0B9B03936113680222D1
:106ED000FF331A729879823A02439A711A7A9207AA
:106EE000FCD57F24074A2140937A0800A343190068
:106EF000802301439172917A5B420B43937210BDE0
:106F0000181900200050004110B50B790C00002B1F
:106F10000CD10800FFF7C8FC002801D0012010BDEB
:106F2000094A93699B0B9B039361F7E700F018FFF5
:106F3000210000F005FF0028F0D1034A93699B0B64
:106F40009B039361EBE7C04618190020F8B50D00CC
:106F5000832A19D1CBB2364C5A01A218916935480F
:106F6000AD010840C0218905014391613249206883
:106F70006D187021083355615B011A5C8A4311005A
:106F800040220A431A54F8BD022A4CD12B4A8B00E6
:106F90009858002802D003685B699847382000F0B1
:106FA000A3FE274B802703600023214E7F00421D54
:106FB000036203614361C36146608560C760D37744
:106FC0002F320400C362036313703800537003F060
:106FD0004BFAA061380003F047FA2A00A062FF20B4
:106FE0000240510171188B68124FAD001F40C02341
:106FF0009B053B438B6013003168072608335B0118
:107000005A5CB2431600032232435A54A3686268A2
:1070100003405B01D318A26920005A60FFF76EFDA0
:10702000064B5C51AFE711002800FFF7B5FCAAE75B
:1070300018190020FFFFFF8F8C140020641400201B
:10704000D861010070B505000124064BA200D2589A
:10705000002A05D021002800FFF778FF0134F4E76B
:1070600070BDC04688000020084B8A00D05810B57B
:10707000002803D003689B68984710BDC9B2044B31
:107080004901591888688004800CF6E764140020D0
:107090001819002010B50C00FFF7E6FF00280CD0EF
:1070A000064BE4B21B68083464011C198023627922
:1070B0005B42134363710223E37110BD1819002072
:1070C00070B5CBB2124A13485C01890189180219C4
:1070D00051609168104D08330D4080218902294389
:1070E000402591609168890B8903916001685A017C
:1070F0008A1816793543157195796D06FCD55B01B3
:10710000C918CB79DB07FCD500198068C0B270BD07
:107110004C16002018190020FF3F00F070B5140035
:1071200040220B4B0D001B68FF3359790A435A71FB
:107130000021FFF7C5FFA04200D920000023054928
:10714000A34203D0CA5CEA540133F9E770BDC046DC
:10715000181900204C16002010B5C9B20B4849017F
:10716000421893689B049B0C3F2B0BD99468403BBF
:107170009B04A40B9B0CA4032343936041188868D1
:10718000C0B210BD93689B0B9B03F6E71819002053
:10719000F0B51C002A4B85B01B6806000D0001925B
:1071A000002B49D0274B8A00D058002808D003680C
:1071B00022005B68019998470400200005B0F0BDEB
:1071C0003000FFF751FF844204D929003000FFF757
:1071D0004BFF040029003000FFF7BEFF0121EBB296
:1071E000194F03935B010293029A3B6801989B1825
:1071F000FF335A7A0A435A72144BA901C918220064
:1072000003F046F9002CD8D029003000FFF72CFFFE
:107210000028D2D14021039B3A6808335B01D31880
:107220001879014319710121D971029BD318FF33D9
:107230009A7A0A439A72C0E701246442BDE7C046C5
:107240001019002064140020181900204C1600208A
:1072500013B56B46DC1D22000123FFF799FF0128BF
:1072600001D1207816BD01204042FBE7F0B51E0099
:107270003A4B85B01B680F000192002B3FD0802352
:10728000DB019E423BD8364C2178C9B2002902D19D
:107290001A20FEF7CFFC642300252370314BBA017E
:1072A000D3180293002E2CD02F4B1B680393FF237F
:1072B0003B401C0000930834039B64011C19A37914
:1072C000DB0921D0294B2A49186800F0ADFD294B74
:1072D0001721584300F0A8FD274BE279920713D4F9
:1072E000DA5D002A01D10138F7D20122DA55009B7C
:1072F0005A011D4B9B189A69920B92039A610125C2
:107300006D42280005B0F0BD00221B4B3400DA5559
:10731000402E00D9402422000199029803F0B8F8C9
:10732000009BA1045A01104B890C9B18029A2D193D
:107330005A619A69361B920B92030A439A61009B29
:10734000039A08335B01D3180222DA715979823A21
:107350000A435A71019B1B190193A3E710190020DE
:10736000801400208C140020181900202000002018
:1073700040420F00701101008214002070B50D0012
:107380001C000D4BAE01F61811003000220003F076
:107390007FF8EDB209496D014D196E61AB69084A7C
:1073A00020001340AB61AB69A2049B0B920C9B03C2
:1073B0001343AB6170BDC0468C1400201819002027
:1073C000FF3F00F0F7B5104B01901B780F00150040
:1073D000002B0CD10D4B16001C78002C09D00C4E44
:1073E0000C4834882018641903F052F834802800BF
:1073F000FEBD002EFBD03A19330000210198FFF7A3
:10740000BDFF2418361AF4E70C1800200D190020CF
:107410000E1900200D180020F8B5002000AF0E0056
:107420001500012A27D9D31D6A46DB08DB00D31AD1
:107430009D46080003F0ACFB6C46032302220021AA
:107440000130400020706370AA420DD230780028CD
:107450000AD0531CDBB20136A0549D4203D0023245
:10746000E154D2B2F0E72A0021000448FFF7AAFF56
:10747000431E9841C0B2BD46F8BDC046601400200E
:10748000F0B50024012685B0184B0F0069461E7028
:1074900005000094FFF754FC154B01A90B806A3BD3
:1074A000FF3BCB716E3B0B72009B8C7109334B80A1
:1074B0000E4B4E7108711C703A00092F0FD00D4F02
:1074C00009223E700C4E280000943480FFF77AFFAA
:1074D00069462800FFF734FC328808493C702800D0
:1074E000FFF770FF012005B0F0BDC0460C1800206A
:1074F000090200000D1900200E1900200D180020AF
:10750000F0B5CF7893B005000E00022F09D1C988DD
:107510002B48FFF7B5FF441EA041C4B2200013B0B2
:10752000F0BD00F01DFC310000F0FAFB002803D094
:10753000C417241AE40FF1E7012F0BD1F288214977
:10754000112A11D8D2B2002A0ED02800FFF73AFF34
:107550000124E3E70400032FE0D1B378002B05D129
:10756000F2881949032AEDD90A78EEE7022B06D1F1
:10757000B27916492800FFF74FFF0400CEE7012B30
:1075800002D1B2791249F5E7032BC7D1114B01A9FA
:107590001868FFF7DCF9104B03A91868FFF7D7F953
:1075A0000E4B05A91868FFF7D2F90D4B07A918680B
:1075B000FFF7CDF96B460533DC77B27901A9D9E73E
:1075C000601400201662010002620100F0610100F7
:1075D000066201000CA0800040A0800044A0800052
:1075E00048A0800037B5050048780C000B2810D85B
:1075F00000F010FC061B0F2B0F41466E4A4D676AC8
:10760000097801AA002906D1022311802800FFF77A
:10761000B5FE01203EBD002313802E4B1B78012BAD
:1076200000D1137002230021F0E78A780023012A99
:1076300003D101AA1380284BF0E7264A1370274A8A
:1076400093699B0B9B039361E3E78C78012C06D134
:107650000021214B01AA1C7011702300D6E70020E5
:107660008442D7D11B4B01301C4A187093699B0B85
:107670009B039361CEE789782800FFF721FCC8E7D8
:107680002800FFF73DFFC5E70123154ACBE70B783C
:107690000020DB06BED12800FFF7D4FC2A200221FF
:1076A000A2780F4BFF301A600C4A13681C5C214310
:1076B0004A241954FF34195D2938FF3801431955FC
:1076C000D4E70123074AAEE78A78064B1A60B6E78B
:1076D00000209FE781140020891400201819002041
:1076E0001019002014190020434BF7B51C7807002F
:1076F000002C74D1414E33689B8B1B070ED52100A3
:107700002000FFF749F9326810231100FF31887A11
:1077100003438B723A4B1C600823938333689A8B24
:10772000520710D504229A83364A1378002B0AD0C8
:107730001378013BDBB213701378002B03D10121C6
:107740001A20FEF777FA3368FF331A7AD2061ED56D
:1077500010221A72597930320A435A7160232A4929
:1077600038000A781A423BD1FFF73CFF3368FF33F9
:10777000002838D08022997952420A439A711A7AA5
:10778000520604D540221A72597A0A435A72336853
:1077900000241D8C01239D43EDB20193E1B2002D25
:1077A0001DD02B002341019A134215D023003268CB
:1077B00008335B01D318DA79D20702D4DB799B074F
:1077C00007D5124BA200D058002810D003681B68C0
:1077D0009847019BA3409D430134092CDED1F7BD9E
:1077E000FFF792FBC2E72021094A9171C7E73800F1
:1077F000FFF7BCFAEDE7C0460D190020181900206C
:1078000010190020801400204C1600206414002061
:10781000FF50004110B50248FFF766FF10BDC0469B
:1078200060140020014B024A1A60704718190020AA
:10783000005000410120704710B50368014A1B6ADF
:10784000984710BD130400000300FC33D96F9A6FF2
:10785000914203D0DB6FC018007D70470120404289
:10786000FBE710B504000069FEF782FC220000234C
:10787000FC329367D3679E229200A4186366A366C6
:1078800010BDF02001403039484248417047F02394
:107890001B011940802306209B0099420AD0013326
:1078A000FF330130994205D0802302385B009942B2
:1078B00000D0002070470F2001400020012903D094
:1078C0000239481E8141481C70470000B923F0B5B9
:1078D000182685B002919B000400C05C330008218B
:1078E0004343324D1700EB185956FEF7E7F9304B7A
:1078F0000821E05C33004343EB185956FEF7DEF9EC
:107900002C4BE25C0393022A09D11133E05CFF287F
:1079100005D008214643AE197156FEF7CFF9BA26B5
:10792000B600A05DFF2819D00121FEF753F91822F7
:10793000A35D21495A43AB56AD18DB015818BB2152
:10794000890060501D4901225B18BC2189006350E9
:1079500069688A40BD21890062501A600122029B39
:1079600011002069FEF7B4FD39002000FFF78FFFFA
:10797000390005002000FFF79EFF390006002000B7
:10798000FFF77FFF33000090290020690122FEF7F6
:10799000BFFB0B4B2069E25C039BE15CFEF7D5FB70
:1079A0002069FEF7F2FB05B0F0BDC046FC5C0100AB
:1079B000E5020000E70200001844004114440041C1
:1079C000E6020000AF2210B504005200002102F0D0
:1079D00068FD23000022FC335A6620009A6610BD21
:1079E000F7B51D0008AB1B780400009309AB1B78AA
:1079F0001600019300234360FA239B008360114B20
:107A00000F00083303601430FFF7DCFF20007D30E7
:107A1000FF30FFF7D7FFB9236A469B002761E65482
:107A2000094B1278E554094B2000E2546A46084B92
:107A30001279E254BA22E93BFF3B9200A354103280
:107A4000A354FEBD28620100E5020000E60200002A
:107A5000E70200000300FC33586E9B6EC01A01D58C
:107A60005F30FF30704710B5040020007D30FF30DC
:107A7000FFF7F0FF0028F8D12069FEF790FB10BD5A
:107A800010B51430FFF7E6FF10BD0300FC33596E4C
:107A90009A6E914205DB5A6E986E801A5E30FF3006
:107AA0007047986E5B6EC01A0138F9E710B57D30EB
:107AB000FF30FFF7EAFF10BD70B504000069FEF764
:107AC0008AFB002805D02069FEF795FB2069FEF7A8
:107AD00087FB2069FEF76FFB002824D02069250072
