:1020000000800020E5610000CD610000CD6100008E
:1020100000000000000000000000000000000000C0
:10202000000000000000000000000000CD61000082
:102030000000000000000000CD61000039620000D7
:10204000CD610000CD610000CD610000CD610000D8
:10205000CD610000CD610000D1600000D1610000C1
:10206000CD61000019610000CD610000CD6100006C
:10207000315F0000CD61000029610000CD610000EA
:10208000CD610000CD610000CD610000CD61000098
:1020900059730000CD610000CD610000CD610000EA
:1020A000CD610000CD610000CD610000CD61000078
:1020B0000000000010B5064C2378002B07D1054B1B
:1020C000002B02D0044800E000BF0123237010BDA4
:1020D000B002002000000000EC6B0100044B10B5C2
:1020E000002B03D00349044800E000BF10BDC046E8
:1020F00000000000B4020020EC6B010000207047DB
:102100007047F8B507000C0000258E18B44207D0C0
:102110003B6821781B683800984701342D18F5E793
:102120002800F8BDF8B5070003000837B4331B6872
:10213000040038009847124A0300904214D8250042
:102140002600BA35B8362A883188380002F0FEFEFB
:10215000903403002078032806D806F07FFE02079B
:102160000B0E32889B1833800120F8BD2A889B18FB
:102170002B80F9E73288D31AF5E72A88D31AF7E7D4
:10218000FDFF000010B50A004369016903F070FB10
:1021900010BD10B54269016903F0BAFB10BD10B55E
:1021A0000A004369016903F0C5FB10BD10B5083092
:1021B00002F0CCFE10BD10B5083002F031FF10BDAA
:1021C000F0B5CD4B95B01D780400002D28D1CB4B38
:1021D0000222196811A806F03EFC11A9200006F0A1
:1021E0001FFC11A806F049FBC549200006F084FC3D
:1021F000C44B09211B78002B03D00321012B00D1F4
:10220000062149420A2211A806F0ACFB11A92000C0
:1022100006F06CFC11A806F030FB012015B0F0BDF3
:10222000012D0AD1B54B0222196811A806F013FC42
:1022300011A9200006F0F4FBECE7022D0ED1AF4B04
:10224000186809F00DFBB04AB04B08F091FC020091
:102250000B00009511A806F018FCD7E7032D0CD150
:10226000A64B186809F0FCFAA94AAA4B08F080FCB2
:102270000B00022102000091ECE7042D24D1A64BB3
:10228000002219680BA806F0E6FB0BA90EA806F0C1
:10229000BDFBA2490EA806F04BFC0500A04B002296
:1022A000196811A806F0D7FB11A9280006F033FC25
:1022B0000100200006F01AFC11A806F0DEFA0EA8B4
:1022C00006F0DBFA0BA8A6E7052DA6D1954D02A8CE
:1022D000290006F01AFB290005A806F016FB924912
:1022E00008A806F012FB854D864B2E681F78002F3C
:1022F0000BD0301C09F0B4FA834A844B08F038FC48
:1023000009F000FB013F061CF1E7884B1B78002B0E
:1023100000D1D9E08649301C06F084FF212700282F
:102320001AD18449301C06F069FF002814D1301CF2
:1023300009F096FA804A814B06000F0006F038FF3C
:10234000002808D039007C4A7D4B300006F01CFF85
:102350007E27002800D129277A4E0222316811A851
:1023600006F079FB11A902A806F05AFB11A806F0A5
:1023700084FA0021306806F05FFF002815D0202184
:102380000EA806F0E1FA0EA911A806F03FFB02A97B
:1023900011A806F0C0FB010002A806F027FB11A857
:1023A00006F06BFA0EA806F068FA0222296811A856
:1023B00006F051FB11A905A806F032FB11A806F0A2
:1023C0005CFA0021286806F037FF002815D020218C
:1023D0000EA806F0B9FA0EA911A806F017FB05A978
:1023E00011A806F098FB010005A806F0FFFA11A855
:1023F00006F043FA0EA806F040FA53490EA806F07C
:1024000084FA404B514A1B780BA8D15C06F09CFA29
:102410000BA90EA806F07FFB4D4906F089FB0500CD
:10242000390011A806F090FA11A9280006F073FBF4
:10243000484906F07DFB0100200006F0D7FA11A8FC
:1024400006F01BFA0BA806F018FA0EA806F015FA0B
:10245000049A0A9B08A99B1A0EA8002206F08CFB7E
:102460000EA911A806F0D2FA02A911A806F053FB92
:102470000100200006F03AFB11A806F0FEF90EA8B4
:1024800006F0FBF9079A0A9B08A99B1A0EA80022DE
:1024900006F072FB0EA911A806F0B8FA05A911A85A
:1024A00006F039FB0100200006F020FB11A806F021
:1024B000E4F90EA806F0E1F908A806F0DEF905A88F
:1024C00006F0DBF902A8A6E62349301C06F0AAFEB6
:1024D0002127002800D03FE72049301C06F08EFE5F
:1024E000002800D038E7301C09F0BAF9124A1C4B1A
:1024F00006F04AFE5D372CE7DD020020F0040020E4
:102500009D03010004030020FCA9F1D24D62503F5D
:102510008DEDB5A0F7C6B03EBC0400209F030100BE
:10252000C8040020A0030100A1030100D50200207F
:102530000000AF440000AFC4666666666666F6BF1C
:102540006666F63FBC030020B1030100B80301003A
:1025500060FD0000AF03010000002F450000E0C156
:1025600066660640F0B58B4B8FB01B78002B00D110
:10257000CFE2894902A806F0C8F9884B884D1B783C
:1025800028000093874B1C6802F086FA86492800D1
:1025900002F086FD854B1B78002B05D0844B0A2268
:1025A00068218448FFF702FE834B1B68181C0193C7
:1025B00009F056F9814A824B06000F0006F0F8FD3B
:1025C00000285BD07F4B0A2273217A48FFF7EEFD8B
:1025D00028007D4902F064FD7C4B1D78002D00D160
:1025E000CAE07B4B0A2200217248FFF7E4FD794BD9
:1025F0001B78012B00D080E0774B0A2222216D4806
:10260000FFF7D9FD754B1C680021201C06F00AFE5F
:10261000002800D189E07249201C06F003FE002842
:1026200000D0B0E06F49201C06F0FCFD0223061E1E
:10263000009313D16C49201C06F0F4FD002800D053
:10264000A5E06A49201C012506F0ECFD002800D118
:10265000051CEDB22A00531E9A410092009E002EE6
:1026600000D1F9E0201C09F0FBF8614A614B08F049
:102670007FFA09F047F9013E041CF0E75E4A5F4B20
:102680003000390006F094FD002801D05C4B9AE739
:102690005C4A5D4B3000390006F08AFD002801D00D
:1026A0005A4B90E75A4A5B4B3000390006F080FDE8
:1026B000002801D0584B86E75849019806F0B2FD32
:1026C000002801D0564B7EE73C4A564B300039007B
:1026D00006F06EFD002801D0534B74E7534B374A88
:1026E0003000390006F064FD031E324803D0504B21
:1026F0000A2273216AE74F4BFAE7023B012B83D88A
:102700004D4B22210A222B48FFF755FD4B4B002150
:102710001C68201C06F06CFD00282BD1484B211CA6
:10272000186806F04BFF041C6EE74649201C06F0B3
:1027300065FD002827D10021201C06F073FD00282C
:1027400000D06FE74049201C06F058FD0223061E0A
:10275000009383D13D49201C06F050FD0123350034
:102760000093002800D079E73949201C012506F0A4
:1027700045FD6BE70024F7E7364B0A2229000D4898
:10278000FFF719FD6AE700250223009366E735008D
:102790000123FAE7DF020020A00301000403002068
:1027A00008040020BC030020D4310100F003002005
:1027B0000BE0000000040020C0040020333333335A
:1027C000333311403AE200007F090100D4020020B7
:1027D0006DFD00009003002072FD0000DC0400206D
:1027E0008096184B0024744900401C4600007A442F
:1027F000FCA9F1D24D62503F66666666666610407F
:102800004BE200009A99999999990F4049E200008A
:10281000CDCCCCCCCCCC0E4047E2000000007040C8
:1028200045E2000033330D4044E2000033330B40F7
:1028300043E2000042E2000077FD0000D8040020DF
:10284000EC040020809618CB002474C900401CC6FC
:1028500000007AC47CFD0000D24B1F78002F00D10D
:1028600059E1D149201C06F0DDFC002800D062E1CE
:10287000CE49201C06F0C2FC002800D05DE13700E4
:10288000CB4B1968CB4B994200D15BE10A220BA8D4
:1028900006F07AF80BA908A806F0B8F8C64908A807
:1028A00006F046F9010005A806F0B0F8012605A9D2
:1028B00002A806F0BDF805A805F0DFFF002E05D040
:1028C00008A805F0DAFF0BA805F0D7FFBB4B1B7873
:1028D000002B00D13CE1BA490BA806F016F802A97A
:1028E0000BA806F018F9B74906F022F9010002A872
:1028F00006F07CF80BA805F0C0FF0621049B4942B6
:102900005943B14E6631029B0A2289B23000FFF76B
:1029100052FCAE49AE4802F0C3FB0022AD4B01921F
:102920001B78934265D0AC4B1B78023B012B2AD815
:1029300003F090FCFA21A94B89001B68C01A06F02D
:1029400097FA0A2201000BA806F01EF80BA908A8A6
:1029500006F05CF8984908A806F0EAF8010002A819
:1029600006F044F808A805F088FF0BA805F085FFDD
:102970000821049B494259434A3189B2029B1922DA
:102980003000FFF718FC0022934B01921B78032BB9
:102990002FD103F05FFCFA21904B89001B680126C0
:1029A000C01A06F065FA07F07DF9011C201C06F03C
:1029B000DDFF0021041C06F035FC002800D1D2E028
:1029C0008749201C06F038FC002800D1061C732320
:1029D000F6B20193002E0CD08149201C06F0EEFDCA
:1029E0008049041C06F01EFC002800D0C0E06823CB
:1029F00001937D4B009A08A8995C05F0A5FF08A9F2
:102A000005A806F003F8794905A806F091F8060034
:102A100001990BA805F098FF0BA9300006F07BF890
:102A2000010002A805F0E2FF0BA805F026FF05A8AB
:102A300005F023FF08A805F020FF0921049B494267
:102A40005943614E803189B2029B19223000FFF751
:102A5000B2FB002F0BD019220A21654B3000FFF783
:102A6000AAFBDC211E220901012004F0A5FB61491B
:102A7000574802F015FB4B4B1B78002B10D1201C44
:102A800008F0EEFE5C4A5D4B06F07EFB002800D0AD
:102A900071E00021201C06F0B1FB002800D071E09D
:102AA0000021201C06F0BEFB002865D05449201CE4
:102AB000012706F0C1FB002800D1071CFFB2002F40
:102AC00062D00022211C0BA805F0C5FF0BA908A8A5
:102AD00005F09CFF4B4908A806F02AF8010002A85F
:102AE00005F084FF08A805F0C8FE0BA805F0C5FE98
:102AF0001421049B494259437D3189B2029B4022F3
:102B00003000FFF758FB324801F0D3FF02A805F070
:102B1000B4FE0FB0F0BD3C49201C06F083FB00283A
:102B20000DD13A49201C06F069FB002800D1A7E628
:102B30000127364CA4E61C4CA2E61C4CA0E601275B
:102B4000314C9DE6324905A805F0DFFE0026AEE6D1
:102B5000304E0BA8310005F0D8FE02A90BA805F0F5
:102B6000DAFF3100C0E62C49201C06F051FB2BE7B0
:102B700037001C4C3BE7294C2949201C012706F053
:102B800047FB98E70024F7E72A00551EAA41211CBD
:102B900001320BA805F05FFF0BA902A805F040FF6A
:102BA000A3E7C046D50200200080BB440080BBC420
:102BB00008000020FFFF000081FD00000C03002042
:102BC00083FD000085FD000000040020F71A0100CD
:102BD00008040020D402002090030020D802002026
:102BE00000006145003C1C4693FD000087FD00008D
:102BF00089FD0000BC2501000AD7A3703D0AB7BFBC
:102C000000007A442E09010000803B45000020C1ED
:102C1000A0030100AF030100000061C50AD723BC77
:102C200000007AC402220F4B1A7080220E4B9201D0
:102C30009A618022D2015A61802212025A610B4AA3
:102C40001278002A0AD08021094A090111608022E5
:102C500052015A618022074BD2001A600222064BB1
:102C60001A7070470403002000440041DC02002079
:102C700098440041944400411403002001220F4B6A
:102C80001A7080220E4B92015A618022D2019A6101
:102C9000802212025A610B4A1278002A09D0802140
:102CA000094A090111608021490199618023DB00F3
:102CB00013600222054B1A707047C04604030020BF
:102CC00000440041DC020020944400411403002031
:102CD00000220F4B1A7080220E4B92015A61802203
:102CE000D2015A61802212029A610B4A1278002A9C
:102CF0000AD08021094A09011160802252015A61DB
:102D00008022074BD2001A600222064B1A707047CD
:102D10000403002000440041DC02002094440041F0
:102D20009844004114030020012310B5084C227878
:102D30005340237003F08EFA064B2178186004206C
:102D400003F064FD21780D2003F060FD10BDC04646
:102D5000DE020020A4030020012310B50A4C2278D3
:102D60005340237003F076FA084B0A211860237849
:102D7000002B01D0802189000E2003F031FC217846
:102D80000B2003F043FD10BDD5020020A803002056
:102D900010B503F05FFA044B044A18600123117860
:102DA0004B40137010BDC04610030020D402002019
:102DB00070B502000D0004000749012004F0FCF981
:102DC000002D07D00A2003F07BFA220003490120DE
:102DD00004F0F2F970BDC0465A10000094110000D2
:102DE000022210B50E4C002023789343237003F089
:102DF000B3FB627ED209FCD16178803A0A436270EB
:102E0000084AA280084A1268D2B2A2700722E27071
:102E10002178053A0A432270627ED209FCD110BDA6
:102E20000040004211020000CC02002070B51825BD
:102E30006843144C144B2018067C1F201A69064066
:102E4000824332431A611922002903D0694364186E
:102E5000227C024019690D48120201400A431A619E
:102E60005A7ED209FCD1197B02320A431A731A7EA8
:102E7000D207FCD501221A765A7ED209FCD1588B92
:102E800000B270BDFC61010000400042FFE0FFFFA6
:102E900010B503F0DFF9064C2368C01A054B9842C1
:102EA00005D9A522044B1A7203F0D4F9206010BD95
:102EB000E4020020571B00000010004070B5334DA5
:102EC0002C6803F0C7F9FA21314B8900E418201A65
:102ED00005F0CEFF2F4B304E1B88304C3060A342A4
:102EE0000AD02F4A93420BD12E4B1B78002B03D1D3
:102EF0002D4B1B78002B03D003F0ACF93460286015
:102F000003F0A8F92B68294AC01A294B90422ED900
:102F100001241C7003F09EF9264E3368C01AFA2370
:102F20005B0098420DD903F095F9234B30601A7875
:102F3000514251411970002A15D12049200004F056
:102F40003BF903F087F92B68C01A1D4B98421CD936
:102F500001211B2003F02AFC00211B2003F056FC5A
:102F6000FFF796FFFCE7200004F012F9E9E71A7872
:102F7000002A0AD0002210491B200A7001211A7071
:102F800003F044FC012004F003F970BD9803002015
:102F9000B42909000E03002008000020FFFF0000F4
:102FA000FEFF0000E10200200600002038140900A6
:102FB0000D030020080300200C0300206F0F000009
:102FC000C0270900154B164A10B59A60154A5A6079
:102FD0005A78D209FCD11449144C59802270E379F3
:102FE000DB09FCD12279013313430F22237163786B
:102FF00093431A000A2313430422637023789343F4
:103000002370E379DB09FCD1FFF742FF022322782A
:1030100013432370E379DB09FCD110BD000C0040A1
:1030200002040000020311000342000000100040EF
:10303000054B10B51868054906F098FC044906F0E0
:10304000BDFA044B186010BDA003002000007A44B4
:1030500000FEFF469C0300200A4B10B51B88002B86
:1030600005D10622084B1A60FFF7BAFE10BD012BEE
:1030700002D1054B0422F6E7022BF5D1024B0822C0
:10308000F1E7C04604000020CC02002037B51B4CFD
:103090001B49200003F09AFC1A49200003F085FC2C
:1030A000194B0A221968200003F0E1FC174920009F
:1030B00003F07BFC164B0A221968200003F0D7FCB2
:1030C0001449200003F071FC134B0325186808F025
:1030D000C7FB009502000B00200003F0A8FD0F497C
:1030E000200003F062FC0E4B186808F0B9FB009555
:1030F00002000B00200003F09AFD37BD0C160020E3
:103100001900010033000100B00300203B00010062
:10311000AC03002044000100940300204A00010099
:10312000A003002010B5264C2649200003F04EFCD9
:103130002549200003F039FC244B25491B78002B3E
:103140000CD02449012B09D02349022B06D0234956
:10315000032B03D02249042B00D02249200003F086
:1031600035FC2149200003F020FC204B20491B881E
:10317000002B06D01F49012B03D01F49022B00D082
:103180001849200003F022FC1C49200003F00DFC2C
:103190001B4B19881B4B994208D11B49200003F097
:1031A00015FC1A49200003F011FC10BD184B994280
:1031B00001D11849F2E70A22200003F058FCF0E799
:1031C0000C1600204F00010062000100DD0200200B
:1031D00014FF00002CFF000041FF000057FF00001B
:1031E0006DFF000071000100790001000400002063
:1031F0009BFF0000B2FF0000CAFF00008B0001002F
:103200000E030020FFFF0000D7FF0000A003010015
:10321000FEFF0000F8FF000010B53F4C3F492000C2
:1032200003F0D4FB3E49200003F0BFFB3D492000E2
:1032300003F0CCFB3C49200003F0B7FB3B4B0A22D8
:103240001978200003F029FC3949200003F0ADFB78
:10325000384B0A221978200003F01FFCFFF716FFF5
:10326000FFF760FF3449200003F0B0FB3349200032
:1032700003F09BFB0A22E1212000914003F0F3FBC5
:103280002F49200003F0A2FB2E49200003F09EFBF3
:103290002D49200003F09AFB2C49200003F096FBF7
:1032A0002B49200003F092FB2A49200003F08EFBFB
:1032B0002949200003F08AFB2849200003F086FBFF
:1032C0002749200003F082FB2649200003F07EFB03
:1032D0002549200003F07AFB2449200003F076FB07
:1032E0002349200003F072FB2249200003F06EFB0B
:1032F0002149200003F06AFB2049200003F066FB0F
:103300001F49200003F062FB1E49200003F05EFB12
:10331000200003F053FB10BD0C16002094000100A8
:10332000A7000100BA000100C00001000600002053
:10333000CD000100E1020020DB000100F7000100E8
:10334000160101001C010100480101005F0101009C
:10335000A5010100DF010100F701010012020100D7
:103360004A0201007702010095020100B802010043
:10337000D7020100F6020100170301003803010023
:10338000590301007A03010010B50C4B02001978B3
:10339000012910D002394B1E9941094B494219406D
:1033A000084BC918002A00D11432012003F004FF91
:1033B000FFF7D8F810BD0449F4E7C0460403002025
:1033C000E0FDFFFF4D0A00002D090000F8B502F0F6
:1033D00041FFC14F3B68C01A312847D9BF4BC04C91
:1033E0001B78002B22D0200002F002FBBD4D0A22E8
:1033F0000100280003F037FB0921280003F0D9FA67
:103400002000103002F0F4FA0A220100280003F034
:103410002AFB0921280003F0CCFA2000203002F01A
:10342000E7FA0A220100280003F021FB20002030E7
:1034300002F0DEFA06002000103002F0D9FA050092
:10344000200002F0D5FA040002F004FFC82338601F
:103450005B00A54F9E420AD99D420CD99C420AD9D5
:1034600002F0F8FEA14B186001233B70F8BD9D42AD
:1034700001D89C4253D902F0EDFE9C4B1860FF230B
:103480003B7091339E4200D8F9E09D4200D90EE195
:103490009C4219D8964E3368002B02D102F0DAFE16
:1034A0003060944B1B78022B3FD0934B1B78002B42
:1034B0003BD1FFF7B7FB1420FFF766FFC8235B0083
:1034C0009C42D3D99D42D1D802F0C4FE8B4B1B68DD
:1034D000C01AFA239B009842C8D9FFF759FC002173
:1034E0001420FFF765FC322002F0EAFE00211420D0
:1034F000FFF75EFC0022824B1A7002F0ABFE814B9C
:10350000814A186000231360804A1360804A136068
:10351000794B1B78002BA9D0FFF7DAFBA6E7002335
:10352000734A13607B4A1370A9E7754B1A78002A17
:1035300006D0714A1278002A02D000221A70BAE727
:103540003368002BBAD002F085FE3368C01AFA2324
:10355000DB009842B2D9704B704A1988914208D06A
:103560000122524214201A80FFF70EFF002333601D
:10357000A4E796229200F5E79C426FD85C4C236842
:10358000002B02D102F066FE20605A4B1B78012B03
:1035900009D0594B1B78002B05D1FFF76FFB142086
:1035A000FFF7F2FE62E7564B1A78012A06D0524A1C
:1035B0001278002A02D001221A70F0E72368002B4B
:1035C00000D153E702F046FE2368C01AFA23DB005D
:1035D000984200D84AE7484B1B78002B05D00022C0
:1035E0004B4B1A601420FFF7CFFE002323603DE70A
:1035F000434B1A78022A0ED02A78002A14D0454E5E
:103600003278002A10D1023214201A70FFF7BCFE63
:10361000012333702AE72A78002A05D03D4E3278FC
:10362000002A01D10332EFE72368002B00D11DE708
:1036300002F010FE2368C01AFA23DB00984200D87B
:1036400014E72B78002BD0D002F004FE2D4B2E4A2D
:103650001860002313602D4A1360C3E702F0FAFDDF
:103660002F4B1B68C01AFA239B00984200D8FDE636
:10367000FFF772FB00210320FFF79AFBF6E69D425D
:1036800000D979E79C4200D8F0E6194C2368002B5A
:1036900002D102F0DFFD2060164B174D1B78002B86
:1036A000A6D02B78002BA3D1FFF712FB77E79C4223
:1036B00000D9DBE602F0CEFD1A4B1B68C01AFA23D4
:1036C0009B00984200D8F9E6FFF72EFB002103206B
:1036D000FFF76EFBF2E6C046F4030020E002002094
:1036E000C00300200C160020FC03002098030020DB
:1036F000F803002004030020D4020020100300205F
:1037000090030020D8020020EC040020D804002000
:10371000DC040020F80200200E030020FFFF000060
:10372000A8030020A4030020F7B5324E0327300081
:1037300001F0B2F93000304901F0B2FC2F4C304BAF
:103740002500B8352B602F49200003F02EF93000FA
:103750002D4901F0A5FCA0235B032B602B49200021
:1037600003F023F92A4B0A222B602A4B2000196808
:1037700003F079F9284B0A222B60284B20001968A6
:1037800003F071F980239B032B602549200003F08F
:103790000CF9244B2B60244B186808F061F8009753
:1037A00002000B00200003F039FAB0239B032B60CA
:1037B0001E49200003F0F9F81D4B2B601D4B1868C3
:1037C00008F04EF8009702000B00200003F026FAE4
:1037D000E0239B032B601849200003F0E6F8174B09
:1037E00017492B60200003F0E0F8300001F061F988
:1037F000F7BDC04608040020681101000004002045
:103800000F000A003CFD00007F0901004AFD000096
:1038100040001400B003002060001400AC0300203E
:1038200053FD000040002000940300205BFD0000D9
:1038300040002C00A003002063FD00004000380081
:10384000BA00010010B5094B1B78002B01D0FFF71F
:103850006BFF074B074A1A60BFF34F8F064B074AAF
:10386000DA60BFF34F8FC046FDE7C046DF0200209D
:10387000FC7F0020EF6916F000ED00E00400FA057F
:1038800013B504000191FEF784FC01A92000FEF7A6
:1038900079FC13BD13B504000191FEF77AFC01A970
:1038A0002000FEF76FFC13BD10B5044B011C18601F
:1038B0000348FFF7EFFFFFF7BBFB10BDA00300209D
:1038C000600300200122F0B5B84E97B033680400C1
:1038D000B74F13420BD1B74D3900280005F015F84A
:1038E0000123B54AB5492800336005F0AFFA390025
:1038F00004A805F00AF802F0ADFCB14B1860632C87
:1039000000D179E276D83F2C00D1E9E12CD80D2CFA
:1039100000D1C2E213D80A2C00D1BEE2210013A8C4
:1039200005F012F8A34C13A9200005F0DFF813A846
:1039300004F0A3FFA368502B00D8C6E0FAE23C2CA9
:1039400000D1D3E03E2CE9D19E4C206807F088FFDF
:103950009D4A9E4B06F0E6F907F0D4FF2060FFF782
:10396000A3FF9B4D9B4920E05D2C0DD02BD85B2CF9
:10397000D4D1994C206807F073FF934A974B07F016
:1039800069FB07F0BFFF2060934C206807F068FFD9
:103990008D4A8E4B06F0C6F907F0B4FF011C20607B
:1039A0008F48FFF777FF8A4D8E49280002F0FDFF10
:1039B000206807F055FF0B0003210200009128004A
:1039C00003F035F981E0612C00D16EE1622CA5D1C4
:1039D000854B7F481A78854B002A00D1CBE01A78B6
:1039E0005142514119708249002A00D0814902F0A8
:1039F000EDFF6AE0732C00D13EE136D8672C00D190
:103A00008CE01AD8662C89D17B4C23780133DBB249
:103A1000052B00D9B2E0794D2370237813AE28002E
:103A20003370FEF7B6FB31002800FEF7ABFB2378BE
:103A3000002B00D0A4E0724929E0692C00D190E06D
:103A4000722C00D06AE7624D6E49280002F0ADFF8B
:103A50001F24013CE4B2002C54D00A2002F030FCB8
:103A60002E21280002F0A5FFF3E7762C00D13AE1E1
:103A70000FD8742C48D0752C00D04FE7624A1378C9
:103A80005942594111706149002B00D0604950489A
:103A9000ADE77B2C1ED000217D2C00D03EE75D4B96
:103AA00001311B784A4C002B17D05B4D5B482B68CB
:103AB000C9182960FFF7E4FE5949200002F075FF9C
:103AC0000A222968200002F0D2FF04A804F0D5FEE3
:103AD00017B0F0BD02214942E1E7524D52482B6830
:103AE000C9182960FFF7CCFE5049E6E7354C20683D
:103AF00007F0B6FE344A394B07F0ACFA07F002FF84
:103B0000206021E7FFF79EFE494A13785942594148
:103B100011704849002BBAD04749B8E7474A137893
:103B20005942594111704649002BB0D18024802060
:103B3000444B24011B78444A40014449022B09D1DB
:103B4000434D2C605061002B09D1414B8022D200A3
:103B50001A609CE73F4D2C60012BF3D190613D4BE7
:103B6000F4E7FFF7F9F82B4B3B491B78002B00D00B
:103B70008DE73A498BE71A70394938E700234AE75D
:103B80003849012B00D182E73749022B00D17EE76B
:103B90003649032B00D17AE73549042B00D176E76B
:103BA0003449052B00D090E771E7C046E8020020B9
:103BB000A0030100EC020020000000207B88000030
:103BC00098030020A0030020FCA9F1D24D62503FD1
:103BD0000C160020AFFE0000940300204D62603FF1
:103BE000180300205AFE0000D60200200600002024
:103BF00033FE000046FE0000DD02002078030020B6
:103C000005FF0000C0FE0000E102002097FD00005B
:103C1000ABFD0000D5020020AC03002030030020E3
:103C200075FE0000B00300204803002092FE000053
:103C3000E0020020C0FD0000D4FD0000DC020020F6
:103C400005FE00000403002000440041E9FD0000DF
:103C5000984400419444004122FE00002AFE0000E6
:103C6000DAFE00001DFF000032FF000048FF0000E8
:103C70005EFF000071FF0000B14A138801339BB260
:103C8000022B10D813801388AE49002B05D0AE4903
:103C9000012B02D0022B03D1AC49AD4802F096FEB5
:103CA000FFF7DAF911E70023ECE79625A94CAD0000
:103CB0002388A748AB4206D1A74902F087FE01231B
:103CC0005B42238001E7A54A934204D1A44902F054
:103CD0007DFE2580F9E6A34902F078FE0223EFE796
:103CE000FFF79AFAF1E602F0BBFA10210400112066
:103CF000FFF79CF8050002F0B3FA9B49041B10A8DB
:103D000004F003FE0A2221000DA804F03DFE0DA9D7
:103D100010A804F000FF954E310004F009FF0400E4
:103D20000A22290013A804F01DFE13A9200004F0A4
:103D3000F2FE010004A804F059FE13A804F09DFD52
:103D40000DA804F09AFD10A804F097FD804C04998A
:103D5000200002F03BFE02F083FA00210500132050
:103D6000FFF764F8070002F07BFA8149451B10A8B1
:103D700004F0CBFD0A2229000DA804F005FE0DA9D0
:103D800010A804F0C8FE310004F0D2FE05000A229B
:103D9000390013A804F0E6FD13A9280004F0BBFEC7
:103DA000010004A804F022FE13A804F066FD0DA88B
:103DB00004F063FD10A804F060FD0499200002F0F7
:103DC00005FE6C4913A804F0A0FD6B4B0222196894
:103DD00010A804F040FE10A913A804F09CFE0100F6
:103DE00004A804F003FE10A804F047FD13A804F093
:103DF00044FD04992000FAE5604C0AA8210004F073
:103E000084FD5F4B0A22196807A804F0ABFD07A9DF
:103E10000AA804F080FE210004F08AFE0500594B38
:103E20000A2219680DA804F09DFD0DA9280004F0D0
:103E300072FE210004F07CFE0500534B032219683A
:103E400010A804F008FE10A9280004F064FE210068
:103E500004F06EFE04004D4B0322196813A804F011
:103E6000FAFD13A9200004F056FE494904F060FE53
:103E7000010004A804F0BAFD13A804F0FEFC10A889
:103E800004F0FBFC0DA804F0F8FC07A804F0F5FC16
:103E90000AA804F0F2FC0499F9E500243D4E2C48F0
:103EA000316802F093FD0394039A3A21300004F044
:103EB00053FE00283ADB431C0393039AB368310096
:103EC00013A804F059FE13A804F084FE051C13A8DF
:103ED00004F0D3FC032C04D8200004F0BFFF040F2F
:103EE0001A220134E0E7281C05F072FE244B010081
:103EF00018602948FFF7C4FC0124D5E7281C05F009
:103F000067FE204B010018602448FFF7B9FC02242B
:103F1000CAE71D4B291C22481D600324FFF7BAFC89
:103F2000C2E7281CFFF7C0FC0424BDE7002C01D029
:103F3000FFF7ACF83900174804F082FDC5E5C0462C
:103F40000400002088FF00009FFF0000B7FF000072
:103F50000C1600200E030020CFFF0000FEFF000023
:103F6000E0FF0000F0FF0000FEFF00000400010081
:103F7000080001000E000100C004002061FD0000E7
:103F8000B0030020AC03002094030020A003002015
:103F900014000100EC020020480300203003002040
:103FA0001803002073B5284B284D294A2B602B009D
:103FB000B4331A602B000024264EB83330006C60F6
:103FC0001C6001F027FA244B30002B60234A244B5D
:103FD000244900F0C7FDFF2330001A00190001F04A
:103FE000CEFD214D2200280000940223082101F07B
:103FF00037FD28002200009402230921103001F02F
:104000002FFD28000223220000941221203001F00D
:1040100027FD04221549164801F012FC0422154917
:10402000154801F00DFC04221449154801F008FC64
:1040300004221449144801F003FC012213491448D6
:1040400001F0FEFB73BDC046B0FC00000004002080
:104050000154000008040020C8FC0000955B00002B
:10406000AD5A0000545B0100C003002000070100AE
:104070004803002000060100300300200005010075
:104080001803002000040100600300200008010064
:1040900078030020F0B532209BB002F011F9BD4C3E
:1040A000200001F009FE3C21200001F033FE200039
:1040B00001F0A5FE061E00D0B8E0B749B74802F0EF
:1040C00074FC0A223C21B54802F0D1FCB44C20001B
:1040D00001F05AFB200000F031FD3100200001F01A
:1040E0005AFBB04BB04A1A620122B04B1A70012140
:1040F0000E2002F05BFB0021112002F057FB002193
:10410000102002F053FB0021132002F04FFB02218C
:104110001B2002F04BFB01210B2002F047FB012189
:104120000D2002F043FB0121042002F03FFB01219E
:10413000080002F03BFB80229D4B92019A60802296
:10414000D2019A608022802112029A60994A090164
:1041500011608021490199608023974CDB00136036
:10416000200001F0EDFB2000103001F0E9FB200001
:10417000203001F0E5FB0A2002F0E8F90A210E20C8
:1041800002F02EFA8D4B1A88002A01D1023A1A80C9
:1041900001AD29008A48FEF702F82A78894B2900E8
:1041A00089481A70FDF7FBFF019A884B290088485F
:1041B0001A60FDF7F4FF019B864F290086483B609B
:1041C000FDF7EDFF019B854C290085482360FDF735
:1041D000E6FF844E019B3360FEF73EFF002130680E
:1041E00005F006F8002814D07F48FFF75DFB00219A
:1041F000764B75481960FE239B0539602360FFF7F5
:104200003FFB39687248FFF73BFB21687248FFF7B4
:1042100041FBFEF70DFF0A240023744E3370002388
:10422000F356002B07D1FFF7D1F8F8E770495B4848
:1042300002F0CCFB5BE7013C002CEDD1012B01D15E
:10424000FFF700FB594B1B78002B24D0FFF76CFACB
:1042500064226849280007F083FC2B19285B5E88DC
:1042600005F0D6FCFC211727890505F07FFB07F038
:10427000F7FA614B002205F055FD04F0E7FF7743A4
:1042800001003A00012002F097FF0434700102F0AF
:1042900017F8642CE1D15949404802F086FBE1212E
:1042A0000A2289023D4802F0DEFB55493B4802F0F4
:1042B0007CFB9620800002F003F8E121514C89023A
:1042C000200004F0A5F85049200002F06EFB01F038
:1042D000C1FF060001F0BEFF4C4B801B984211D875
:1042E000200004F0B9F90228F4D1200004F09CFA6F
:1042F0004F28EFD1200004F097FA4B28EAD1012291
:10430000434B1A70424E43493378002B00D1424947
:10431000224802F04AFB3378002B2ED13F4920007F
:1043200002F043FB01F096FF070001F093FFC01B72
:1043300031281AD8200004F08FF90428F5D1200084
:1043400004F072FA4F28F0D1200004F06DFA4B28E7
:10435000EBD1200004F068FA0D28E6D1200004F02B
:1043600063FA0A28E1D10123337033782949002BFD
:1043700000D12B49094802F029FB3278294B1A70E9
:10438000FEF74AFFFEF71EFEFEF74CFCFEF7CCFCE4
:104390001BB0F0BD100D00203D0901000C160020DF
:1043A0000804002000040020006A1800DF0200203A
:1043B0000044004188440041C00300200E03002057
:1043C00078030020DD02002048030020B003002015
:1043D00030030020AC0300201803002094030020C9
:1043E00060030020A003002033335340FC0300206F
:1043F0004E090100D8FC00000000E03F5F09010009
:1044000074090100CC120020B5020100E70300008E
:10441000D602002000090100040901007C09010006
:104420003009010006000020F0B5102187B01120EE
:10443000FEF7FCFC05F0ECFBBF4B186007F010FA30
:10444000BE4B04001B780D00002B30D0BC4B18680D
:1044500007F09AF90022BB4B05F080FF02000B0029
:104460002000290005F05EFC07F04CFAB64BB74E71
:104470001860B74B1C78B74BA400196805F076FAA2
:10448000B54B196805F072FAA15904F0FDFEFE2142
:10449000B24FA0518905E05904F0F6FEB04AE05150
:1044A00013680133072B04DC136007B0F0BDAD4B7C
:1044B000CDE70023082500241360AB49201C05F03C
:1044C00055FA7B59041C0021181C019304F090FE3E
:1044D000002808D10199705905F070F8011C201CC2
:1044E00004F0D2FE041C002373517B51043D2B1DAC
:1044F000E3D19E4A1378002B02D0013B1370D4E71E
:104500009B4D9C4E2868211C346004F0BDFE9A4AE5
:104510009A4F136828603D68013313600021281CFE
:1045200004F080FE002802D180231B06ED18002134
:10453000201C04F077FE211C002802D180231B06DA
:10454000E118281C04F05AFE002800D03C6001F05D
:1045500081FE8B4C2368984225D301F07BFEFA2321
:104560009B00C018206000211320FEF75FFC05F0BF
:104570004FFB07F075F90022824B05F0EFFE824BEE
:10458000040018680D0007F06BF902000B00200012
:10459000290006F0EDFA7D4B002206F0E9FA07F05B
:1045A000B1F97B4B18607B4C200002F019FF00280A
:1045B00006DD200002F044FFC0B2FFF783F9F2E706
:1045C000754B1B78002B0FD0744903A804F09DF99C
:1045D00003A8FDF7F5FD002803D00399200002F0A1
:1045E000F5F903A804F049F900226D4B1A706D4AE1
:1045F0001278002A11D00122684903A81A7004F029
:1046000084F903A8FDF7DCFD002803D00399664870
:1046100002F0DCF903A804F030F94D4B34681D7842
:10462000002D0BD0201C07F01BF9604A604B06F0F0
:104630009FFA07F067F9013D041CF1E75D4B1B7819
:10464000002B1BD001F006FE5B4B1B68984215D96E
:104650003A4B1B78002B62D05849201C04F0CEFD49
:10466000002805D15649201C04F0DCFD00283AD072
:10467000374B1B78002B31D1FEF700FB01F0EAFD30
:10468000504C2368984222D301F0E4FDF530FF300E
:104690002060394C364D206805F0BAFA011C2868B4
:1046A00004F08CFF484B011C186000232B60002392
:1046B0002360464C206804F0E7FDFE212060444C56
:1046C0008905206804F0E0FD2060FDF74BFFFEF750
:1046D000DFFBFEF77BFEFEF7F1FBE6E6012BCDD11B
:1046E000FEF7A0FACAE7201C07F0BAF8394A3A4B9D
:1046F00004000D0004F05CFD0028BFD0200029005C
:10470000344A364B04F040FD0028B7D0104B1B78DC
:10471000022BB1D0012BB1D1FEF7DAFAAEE7304966
:10472000201C04F07FFD0028A2D1201C07F098F87F
:10473000284A2C4BE6E7C046BC040020D5020020E6
:10474000AC03002000002440C8040020E004002046
:10475000040300209C03002094030020CC040020CC
:1047600000030020B003002000007A44140300205E
:10477000B8030020F0040020FC020020DC0400202C
:10478000C4040020C0FFDF40A00300200000F83F69
:10479000C00400200C160020E1020020A00301004C
:1047A000F003002006000020CC120020FCA9F1D26A
:1047B0004D62503FD4020020D00200200000AFC460
:1047C0000000AF44B4030020BC030020EC04002030
:1047D000D8040020CDCCCCCCCCCCF4BFCCCCF43F96
:1047E00000002F45CCCC04404378DB09FCD1704756
:1047F00001235B420380033383700023C370037182
:1048000080239B01C3803F2303727047F8B50F00DC
:1048100009783E4A4B09DB019B181F2211401E3AC2
:1048200004008A400F2965D98020110C000601433D
:10483000374804260143996220005A60FFF7D4FFED
:1048400002222378200093432370FFF7CDFF082234
:1048500023792000934323712379053AB3432371CD
:104860002379012593432371FFF7BEFF6022237B49
:10487000200093432373FFF7B7FF1022237B200010
:1048800093432373FFF7B0FF0F22237B2000934352
:10489000237363792B43637123781E432670FFF7DC
:1048A000A3FF0222237A200013432372FFF79CFF09
:1048B000237A20002B432372FFF796FF0123FB5638
:1048C000072B1ADC2000FFF78FFF0122BA56237D49
:1048D00095401D43EDB225752000FFF785FF2000B0
:1048E000FFF782FF02232278200013432370FFF793
:1048F0007BFFF8BD91B2002099E70F2BEFDC083B5E
:104900009D40627D1543EDB26575E8E700440041C6
:1049100000000151042370B50400022502780E0046
:1049200013430370FFF760FF237820002B432370AD
:10493000FFF75AFF237A20002B432372FFF754FF1F
:10494000A37A20001D43A5720125FFF74DFFA37A2E
:1049500020002B43A372FFF747FF2000FFF744FF1F
:104960000123F3560022072B4DDC9D40EDB2257448
:1049700062742000FFF738FF0321F278E37E0A40DB
:104980008B431343E3762000FFF72EFF0721B27815
:10499000637B0A408B43134363732000FFF724FFBC
:1049A00032791023002A34D1227B9A4322730F22BA
:1049B000237B93433F2523732000FFF715FFF388E4
:1049C0002000DAB22276627E1B0AAA432B401343F0
:1049D0006376FFF709FF327AA37E2A40AB43134385
:1049E000A3762000FFF700FFA422631CDA772000E3
:1049F000FFF7FAFE8023627B5B4213436373200060
:104A0000FFF7F2FE70BD083B9D40EDB22274657465
:104A1000AFE70F21227B134323737279237B0A4074
:104A20008B431343C6E7437B0120DB0958407047A3
:104A300010B50400FFF7D8FE237F607F0002184303
:104A400010BD0300F0B550331B7885B0029303000E
:104A50000500002651331F7803685B7C03932B68A5
:104A6000B0B21B7CF4B2D9004143E86C89B2411862
:104A70003A190091D2B20021280000F071FE0134F1
:104A8000029BE4B2A34205D90136BB19039ADBB2FB
:104A90009A42E4D805B0F0BD10B5036800211A7C35
:104AA000030050331B78C06CDB005A4307F074F8E6
:104AB00010BD10B50400FFF7C4FF200000F072FE27
:104AC00010BD030010B5040051331970836C1B68CE
:104AD0009847A36C20005B68984710BD030010B591
:104AE000AB331B780400002B01D0FFF7D5FF00216A
:104AF0002000FFF7E6FF10BD70B50400FFF7A1FF2F
:104B0000230051331D78013B1B78ED182368EDB26B
:104B10005B7CAB4204D8200000F044FE002070BD56
:104B20002300AB331B78002B02D02000FFF7B4FF2B
:104B300020002900FFF7C5FF0120F0E710B50400B1
:104B4000FFF7CCFF2000FFF7D7FF011EFAD12000AE
:104B5000FFF7B7FF10BD000008230370004870473F
:104B6000F40400207FB50F250E006D440093084922
:104B70001300084A040000F03DFE2800FFF7ECFF98
:104B80002A7801000096044B200000F017FC7FBD3E
:104B9000BD5600002555000003520000411808785A
:104BA0004B780002C01880B270470020704770B583
:104BB0000B780D0003704B78040043708B78837082
:104BC000CB78C3700B7903714B7943718B79837107
:104BD000CB79C3710B7A03724B7A43728B7A8372EF
:104BE000CB7AC3720B7B03734B7B43738B7B8373D7
:104BF000CB7BC3730B7C112103742800FFF7CEFF1E
:104C0000132160822800FFF7C9FF1521A082280028
:104C1000FFF7C4FFE08270BD70B50468067B25789D
:104C200072183541D2B2EBB2072A0AD9631C03606D
:104C300063780824A41BE4B2A340083A2B43DBB2F8
:104C4000D2B20273012252428A409343180070BDCF
:104C500070B50400002378348167237303000500D6
:104C6000903319782000FFF7D7FF2B00A072913303
:104C700019782000FFF7D0FFAA35E0722B78A373D4
:104C80005A425341E37370BD10B50C00FFF7C4FFE7
:104C90000123013CE4B2A340C01A40B210BD012B75
:104CA00008D0002B03D0022B06D0401A00E0801859
:104CB00080B270474018FBE7801AF9E7012B08D053
:104CC000002B03D0022B06D0801800E0401880B2E1
:104CD0007047801AFBE7401AF9E70300F0B50400BB
:104CE0000F008DB00B9278331A7A04925B7A079397
:104CF00025007835AB7A049A9B1ADBB20593059AA6
:104D00003B1C974201D96B461B7DDBB20893EB88B5
:104D1000A88810260A936B469E571B7F31005BB212
:104D200006932B7C069A0393FFF7C8FF039B099019
:104D3000069A31000A98FFF7B2FF0B9B0200002B86
:104D400017D0A97B2300AA3319706B4603991B8CDB
:104D500020000091099900F0BCF9059B9F420DD3FA
:104D6000FF1A079BFFB20133DBB2079300230493C2
:104D7000BEE76B7B002BF0D1E97BE3E7049B783443
:104D8000FB1823726B461B7E63720DB0F0BDF0B54D
:104D9000040089B00700FFF75BFF230083331B7813
:104DA00078375BB202932300923319783800FFF70B
:104DB0006BFF23000690933319783800FFF764FFE8
:104DC00023009433197805003800FFF75DFF0A23AC
:104DD0000790FB560393002B59DD029B06995B1944
:104DE0005B425BB205933B7C059A0493B888FFF75E
:104DF00065FF049BB880059A069906000500F888AF
:104E0000FFF74DFF049B02000100F880032B62D8DE
:104E1000180004F023F8023F4956039B0298F51846
:104E20001118ABB289B200912000310000F0D0F926
:104E300000282CD023000022012580331A80230073
:104E40008E3319783800FFF7E7FE230003908F3385
:104E500019783800FFF7E0FE0600002203992000D1
:104E6000FFF73BFF310020002A00FFF736FF290043
:104E70003800FFF7D1FE0028EFD123000922783354
:104E80009A5602998A42DADB9B7BAA3423700798F0
:104E900009B0F0BD029B0398F61A013511180136CE
:104EA000ABB289B2B6B2BEE70122039B0298D61A12
:104EB000AE19AD18121A8A180131ABB289B292B28A
:104EC000F0E7039A029B8A1AF51801320131ABB25E
:104ED00089B292B2A7E73300A5E7F8B5046F0D00D9
:104EE0001734FF2912D860290AD9A0300388E418A2
:104EF0006078002803D02378AB4205D1A01CF8BD10
:104F00004029F5D99E30F1E72418F1E7A230008856
:104F100002272418260000213000FFF73FFE390049
:104F200024183000FFF73AFE04368542F3D8607843
:104F300023780002184340BA80B20028DFD08542AF
:104F400001D1E01CDBE7A378E418F0E7F8B51F0017
:104F500003008833040018780E001500032808D8D1
:104F6000636F03F07BFF02171C20200098472D1869
:104F7000ADB223007C3339001E805D802000FFF736
:104F8000ACFF01000020814203D02000FFF7FFFEAC
:104F900080B2F8BD20009847361AB6B2E9E7200083
:104FA00098472D1AE4E7200098473618F5E70000E7
:104FB000F7B51F0006000C00150000F02BFA0023C7
:104FC00001937368397830009847134A0300904280
:104FD0001FD0124A01379042F3D02A00210030003E
:104FE000FFF7B4FF3200883203001078032805D899
:104FF00003F034FF02080B0DE418A4B2019AD31891
:105000009BB2DDE7ED18ADB2F8E7E41AF5E7ED1A6B
:10501000F9E70198FEBDC046FFFF0000FEFF00005B
:1050200010B5024C4460FFF7C3FF10BD01540000EF
:10503000036F70B5002B1DD003000026050001246E
:10504000020099339E57A6352E701C57A732147054
:105050000C331B78002B0DD0012B0CD103009B339C
:105060001B785BB29E4200DA2B709C23C3569C4295
:1050700000DD137070BD0300982196331B784156F4
:105080005BB25B189E4200DA2B708C42F2DD11702D
:10509000F0E70000014B43677047C046AB4B000090
:1050A000036F10B504008B4206D001678C30FFF708
:1050B0007EFD2000FFF7BCFF10BD37B5050056355B
:1050C0002D8806AC2478521B009492B2446CA04701
:1050D00037BDF7B50500A4352D7808AC2478002D30
:1050E0003FD0002B3DD0012B04D9022C30D101310F
:1050F000C91A89B201252C400500002C32D1643533
:105100002D8895422DD8050066352D88954228D9E1
:1051100005000600CB18603562369BB22D883688B4
:105120008B421CD28E4219D9731E9BB29D4218D25B
:105130002F1C8D4200D20F1CB9B2351C9E4200D9E3
:105140001D1C6B1A856C00949BB2AC68A04708E0EC
:10515000032CCFD10132D21A92B2CBE729008E4272
:10516000E4D8F7BD60352D888D42FAD80500623548
:105170002D888D42F5D90500D31864352E889BB251
:1051800002352D88934211D295420ED96B1E9BB2E7
:105190009E42E6D2371C964200D2171CBAB22E1C91
:1051A0009D4200D91E1CB31ACCE732009542D8D9D3
:1051B000EEE710B504008A4206D20120A34202D8CD
:1051C00093429B41584210BD8342F9D80020FAE730
:1051D00070B50D00010004001E00663104AB6430A0
:1051E0001B8809880088FFF7E4FF002808D0230007
:1051F000603462331988208833002A00FFF7D9FF12
:1052000070BDF7B508AC247807260194140034402B
:10521000A44601246546AC400500AA352F78E4B2C7
:105220000025012F02D82500012F29D0B2431600F6
:105230000268127C724392B25118C26C5118019AE2
:10524000002A1FD007000126523701970A78072746
:105250002A4362400A70624601321740013BBC4655
:105260009BB2002F18D1019A128889180200AA3225
:105270001278012A02D83500012A11D034000FE03B
:105280000024D3E70A78013B2A4362409BB20A70AC
:105290000131002BF6D1F7BD6D006400EDB2E4B230
:1052A000002BD3D1F7E70300F0B550331D78016828
:1052B000AAB2D4009C8004000B7C5234DB00238013
:1052C000030051331F78BEB2F300A3804C7CED196C
:1052D000A54201DDA21B92B20400D2005834238003
:1052E0009B1802005A32138003008A8A5C331A80AA
:1052F000CB8A5E300380F0BD10B5FFF7D4FF10BD40
:1053000013B504AC24780094FFF7D7FE13BDF0B5B5
:10531000060005000700040085B06E306A366C3563
:10532000683733882A8839880390008800902000E5
:10533000FFF74EFF2300A433002802D1187005B0F8
:10534000F0BD01221A70230060333A881988914217
:1053500000D21A802300623332881988914200D922
:105360001A80230064332A881988914200D21A8057
:10537000039B66341B8822889A42E0D92380DEE7AB
:1053800003000022603310B51A8002005C321288DC
:105390005A800200583212889A8002005A321288CB
:1053A000DA80FFF7B4FF10BD034B10B58366C36608
:1053B000836C5B68984710BD0000FFFF70B5040068
:1053C0006364230000255033E16425671A705D7023
:1053D00035331D70220024331D700123AA32049836
:1053E000137053700368A064200098472000FFF7F3
:1053F000DBFF20008834FFF74DFE257070BD0000F4
:10540000002902D088B20A2900D101487047C0465D
:10541000FFFF000000230730C377704710B513006B
:1054200004690A001721A04710BD07B56B46DA1DB5
:1054300011700121FFF7F2FF0EBD002310B51A0015
:1054400004691821A04710BD002310B51A00046993
:105450001921A04710BD70B5040016000D00FFF71C
:10546000ECFF40212000FFF7E0FF33002A00172166
:1054700025692000A8472000FFF7E6FF70BD10B5A2
:105480000A00C46800231521A04710BD10B50A000A
:10549000C46800231621A04710BD10B51300C468CE
:1054A0000A001721A04710BD002310B51A00C468D8
:1054B0001821A04710BD002310B51A00C468192197
:1054C000A04710BD73B505000C002178172918D02E
:1054D00002D815290CD273BD19291BD9FE29FAD17E
:1054E0006B46627829212800DA7100F062F906E043
:1054F0006B4662782800DA71EE680023B047023408
:10550000E3E76B46DA1D6378012128001370FFF78B
:10551000C4FFF4E7002328001A00EE680134B04706
:10552000D3E700001439F8B5040015001E00002070
:10553000052919D8080003F091FC3703181E4448C8
:10554000274E3378002B02D02000FFF77DFF20008C
:10555000FFF773FF00212000FFF767FF29002000FD
:10556000FFF763FF01203070F8BD11002000FFF746
:105570005CFF0120F8E71A4F3B78002B02D0200097
:10558000FFF762FF3200182D06D829002000FFF730
:1055900062FF00233B70ECE718212000183DFFF765
:1055A0005AFFEDB21836EDE7631DDA7FFF2A01D10D
:1055B000873ADA77276933002A0014212000B84798
:1055C000D2E70022064B1A70D3E7054D2B78002B4B
:1055D00002D02000FFF738FF00232B70C9E7C04638
:1055E000F40800200B39F8B5040016001F0008006D
:1055F000042958D803F032FC03570C1E2D002B4908
:10560000002A00D02A492000FFF75CFF0120F8BDE6
:10561000E51C002A07D127492000FFF753FF236824
:105620009B7CEB77F2E724492000FFF74BFF2368D0
:10563000DB7CF6E72000FFF737FF81212000FFF732
:105640001EFF31002000FFF721FF2000FFF733FF8E
:10565000DCE72000FFF728FFE31C7D79D97FED0010
:105660006D1820004021FFF70AFF1021EDB22B0931
:1056700019432000FFF703FF0F2120002940FFF707
:1056800005FFB023B97920001943FFF7FFFE3979F0
:10569000013EC900C9B23A682000F6B2FFF7FDFE2C
:1056A000002EF4D1D1E70020B1E7C046A35B010092
:1056B000A85B0100605B0100675B010070B504003E
:1056C0000D00FFF78FFF00280AD1092D0AD00A2DFF
:1056D00007D1200000F015F805492000FFF7F2FE81
:1056E000012070BD0349200000F006F8F8E7C0462D
:1056F0006E5B0100B05B010001608B7C0330C377FF
:105700007047002370B51A00282145690400A84796
:105710000023E5681A0014212000A8472000012278
:105720004B2100F046F8236820001A79292100F067
:1057300040F8200000224B2100F03BF823682000B5
:105740001A79292100F035F8200001224B2100F0C0
:1057500030F8236829215A79200000F02AF870BD1A
:1057600013B56C462371049B6171A2710093846828
:105770006B4601220F21A04716BD002310B51A0069
:1057800084680921A04710BD002310B51A00846861
:105790000A21A04710BD10B50A00846800230B2120
:1057A000A04710BD002310B51A0084681021A0473F
:1057B00010BD10B500234469A04710BD00207047FC
:1057C00000230B4A03608260C26002614261021DD5
:1057D000D377C21DD3778361421DFF33D377233242
:1057E000137042300432137001328242FBD1704791
:1057F000BD570000F8B504000F0016001D00FFF7AC
:10580000DFFF069BA760E660256163612000FFF76C
:10581000B4FFF8BD10B5054A0549064800F010F878
:105820000022054B05491A705A5410BD01040000AE
:10583000005C0100F80C0020F508002002040000C4
:1058400030B5094D094CAB685B035B0F9B001C59DD
:105850000460AB6801619BB243606343A400836052
:10586000C460426130BDC04600400041006101009B
:10587000F7B580261A4D01916F6803333E439B08AC
:105880006E60002B2BD0174E2E802E7DF107FCD59D
:105890001E000768991BBF088F4219D9002E17D028
:1058A000FF2117788C433C430F4957780C403F0247
:1058B0003C439778013E39040C4F2740D478BFB25F
:1058C0000F43240601993C4310C101910432E0E7E3
:1058D000074B2B802B7DDB07FCD53300D1E7F7BDD1
:1058E0000040004144A5FFFFFF00FFFFFFFF00FF56
:1058F00004A5FFFF044B054A4908D9611A801A7DA7
:10590000D207FCD57047C0460040004102A5FFFF0A
:1059100070B504000D001600E36829002000B342B2
:1059200005D2FFF7E7FFE368ED18F61AF4E7FFF793
:10593000E1FF70BD10B510001A0006F011F910BD9E
:10594000052370B5C3560100002001332DD072B677
:1059500022231648164A0370164B174E5D885C8842
:105960002D0514405C805C882D0F344080265C80BF
:105970001400F6015A883242FCD15A882D02224086
:105980002A435A8062B60D4A04315A80222202709C
:105990005A8832435A808023094A1B03106A034302
:1059A00013620848FEF732FF012070BD020C004070
:1059B000FFF0FFFF000C0040FFBFFFFF22030000CD
:1059C00000040040004C0042011D10B50748FEF7DE
:1059D000A1FF0648FFF727F8002802D100F092FC4B
:1059E000F7E70248FFF724F810BDC046004C00421C
:1059F00010B50400FFF7E8FF0200A079062805D8DB
:105A000003F02CFA05070A0C0E101200074A1000CA
:105A100010BD53089AB2FAE79308FBE7D308F9E7F9
:105A20001309F7E75309F5E79309F3E7FFFF0000D0
:105A300018230168094A4B43D1189B564868002B2C
:105A400003D10238052806D87047012B03D1092855
:105A500001D80630F8E701204042F5E7FC6101007B
:105A6000F7B51E0008AB1B78040004300D001700CA
:105A70000193FEF7BDFE182325605D430A4A20000E
:105A8000AB565519013B59424B416A685B019B1863
:105A90002371FFF7CDFF6B461B796071A771E6712B
:105AA00020002372FEBDC046FC61010070B50600F7
:105AB00015002B2915D801202A2939D2282927D0C9
:105AC00029293CD000203F2932D93F23194073189F
:105AD0002C331C78FF2C2AD00F2944D82900200011
:105AE00013E02D292FD024D30B004C3B012BE9D8F8
:105AF0003F24214041182C310C000878002A2ED177
:105B0000012100F053FE2900207800F07FFE0EE016
:105B1000002423002C33F05CFF2805D001210F2C3A
:105B200000D9022100F042FE0134162CF1D10120EF
:105B300070BD002AFBD01023013BFDD1F7E7100018
:105B400000F0BEFBF3E702239A4200D80333302073
:105B50000321584303F08CF90138FDD1E7E7022116
:105B600000F024FEE3E7102901D100F0CBFB200078
:105B700000F078FE431E98410836F077D7E710B55D
:105B80000400373421700100393038310A70037055
:105B900010BD0000143970B5040008000C292AD883
:105BA00003F05CF90D292907192529292929292913
:105BB0000B001900114800F025F8012070BDA36901
:105BC000002B04D123685A7B0D4B5343A3610B4830
:105BD00000F072F8F1E7094DA1692800053400F0E2
:105BE0008BF8E17F2800490800F094F8E5E70348C6
:105BF00000F005F9E1E70020E0E7C046100D0020C5
:105C0000A0860100F8B505000E0017000024BC4274
:105C100008D02B68315D1B6828009847002801D008
:105C20000134F4E72000F8BD70470300FC33196A23
:105C3000DA69914203D01B6AC018007E70470120C8
:105C40004042FBE70300FC33D8691B6AC01A01D548
:105C50000130FF3070470000F7B50193FA2380262A
:105C6000002504009B008360124B760008330F0070
:105C700045602900009203603200183005F08CFF67
:105C800023002000FC332130DD6132001D62290039
:105C9000FF3005F081FF87239B00E3185D609D6066
:105CA0006B461B78276123756B461B79A575200011
:105CB0006375FEBD2061010070B5060018250C4912
:105CC000006901F027FA306901F0A2F82B000821E1
:105CD000307D084C4343E318595600F0DBFD0821A2
:105CE000707D45436419615600F0D4FD70BDC04617
:105CF000A0860100FC61010070B504000D00006980
:105D000001F09BF82900206901F004FA206901F0F4
:105D10007FF870BD8A2300229B00C1540C3BC3183E
:105D20005A609A60012383757047020010B5FC32F7
:105D3000536894680133DBB29C4202D05468015529
:105D4000536010BD002210B5837D93420DD0872390
:105D50009B00C4186368A4680133DBB2A34204D07B
:105D60002130FF30FFF7E1FF0122100010BD0300DA
:105D7000FC3399685A68914206D09A68805C9A68A8
:105D80000132D2B29A60704701204042FBE7002204
:105D90008A2370B59B00827505000E00C15C006906
:105DA00001F07EF8002806D10321286901F062F88D
:105DB0000224200070BD872328009B00EA18536846
:105DC00094682130FF301C1B01D50134FF34002CB6
:105DD0000ED02C69FFF7CBFFC1B2200001F09EF876
:105DE0000028E8D10321286901F044F80324E0E702
:105DF000002EDED00321286901F03CF8D9E710B568
:105E00000121FFF7C4FF10BD10B51830FFF7AFFF39
:105E100010BD70B50400006901F0A0F8002814D08E
:105E2000206901F0A9F8002810D0206901F018F8C5
:105E30000321206901F01EF88C239B00E558002DFA
:105E400039D10023FC34E361236270BD206901F085
:105E50009DF8002809D0206901F093F8002804D0AB
:105E6000206901F098F80028DFD0206901F08EF851
:105E7000002826D1206901F07AF80028E5D02069B1
:105E800001F089F8002837D087239B00E218536877
:105E900092689B1A01D50133FF33FF21002B05D0F7
:105EA00020002130FF30FFF762FFC1B2206901F00E
:105EB00047F8A075C9E7236820001B699847A847E1
:105EC000BFE7206900F0CCFF2069032100F0D2FF7A
:105ED000206901F060F80028B7D0872300229B00DA
:105EE000E3185A609A600123A3758B239B00E35843
:105EF0009342AAD09847A8E72200FC32D369126ADD
:105F00000133DBB22069934206D100F0A0FF0321E8
:105F1000206900F0AFFF98E701F042F8010020008F
:105F20001830FFF702FF206900F09AFFEFE700004A
:105F300010B50248FFF76DFF10BDC046100D0020E0
:105F400010B51523142202490248FFF785FE10BD43
:105F5000D4150020100D0020F0B5040085B01E00FF
:105F60000AAB1B78103001930BAB1B781700029320
:105F70000CAB1B780D00039300F076F82000243062
:105F800000F072F8220000234832A363E363236425
:105F900063641370537063729D4205D10A4B0B4AC0
:105FA00022210B4805F050FD6B461B7920006371E0
:105FB0006B461B7A2560E3716B461B7B2771A671CC
:105FC000237205B0F0BDC04644610100A761010025
:105FD000556101001FB5094A094B0A4913600023A6
:105FE00053711371029301330193163300931622F8
:105FF00001330548FFF7B0FF05B000BD900F00204A
:1060000000093D00D8150020440F0020094B1868F6
:10601000002809D1EFF310820749002A08D172B68F
:10602000BFF35F8F01320A701A6801321A6070473D
:106030000870F9E79C0F0020980F0020084B1A68A1
:10604000002A0CD01A68013A1A601B68002B06D18E
:10605000044B1B78002B02D0BFF35F8F62B67047F2
:106060009C0F0020980F0020FF23002110B5040092
:106070000370FC3B41708170C170017143710C224F
:10608000083005F089FD200010BD000001220B0042
:1060900010B5134008D00D4B1A7004234370836869
:1060A000002B00D0984710BD0222114204D00749AE
:1060B0000A704370C368F3E704231942F3D0034A1C
:1060C0001370033343700369EAE7C0464E4800414A
:1060D00010B5FFF79BFF0C4B1B8C1B071B0F0B2BEB
:1060E0000FD80A4A9900885800280AD00F24084976
:1060F0000A78A24313430B70064B1978C9B2FFF715
:10610000C5FFFFF79BFF10BD00480041A00F002016
:106110003F4800414E48004110B5024802F0B8FA2D
:1061200010BDC046D00F002010B5024802F0B0FAF2
:1061300010BDC046CC120020F7B501240326154F30
:106140001549380000F0CEFD1449154800F0CAFD8D
:106150001449154800F0C6FD1449154800F0C2FD69
:106160001449154800F0BEFD144D1549280000F0F3
:10617000B9FD39000096230001940022114802F075
:106180001BFA0096290001941E231F220E4802F0DC
:1061900013FAF7BDC815002000080042000C0042A9
:1061A000CC15002000100042D01500200014004241
:1061B000D415002000180042D8150020DC1500205E
:1061C000001C0042D00F0020CC120020FEE700008F
:1061D000034B10B51B68002B00D0984710BDC0467C
:1061E000E015002070B50F490F4CA14204D100F01A
:1061F0008DF802F0F7FCFEE70C4D00238D42F6D03F
:10620000CA18E818A24205D3094B8242EFD00949C7
:10621000002204E0006804331060F1E704C38B42FD
:10622000FCD3E4E700000020B0020020F06B010086
:10623000B0020020001C002010B500F064F8002817
:1062400001D100F055F810BD014B18607047C046F1
:10625000E0150020014B18687047C046E415002087
:10626000F7B51348012284461249134C8E686368BF
:1062700005689B0E1340019288686268019F920E28
:106280003A4067463F6893420ED1BD420CD18642E8
:106290000AD35B19FA254868AD00861B07486B4393
:1062A0007043000DC018FEBD3D0013000600E3E77B
:1062B000E415002010E000E000ED00E0555500007E
:1062C00070B5041E10D0FFF7CBFF050000F01AF8E0
:1062D000FFF7C6FF054B401B9842F7D9FA23013C54
:1062E0009B00ED18002CF3D170BDC046E703000001
:1062F00010B5034A13680133136000F0B7FC10BDFA
:10630000E415002070470020704700001E2270B581
:1063100046484749436893431C3A13434360082364
:106320008C6923438B61434C434B9C829C8A14436E
:106330009C82DC681442FCD00124404A1470157819
:10634000254203D055786DB2002DF8DB012494600E
:10635000547864B2002CFBDB394C5460547864B23E
:10636000002CFBDB8224E4015480547864B2002CBE
:10637000FBDB02249C840E34DD682542FCD0314CCA
:10638000DC621024DD682542FCD09D8C2E4C2C4311
:106390009C841024DD682542FCD002249D8C80263C
:1063A0002C439C844024DD683542FCD0DD682542C6
:1063B000F9D01024DD682542FCD000249460547884
:1063C00064B2002CFBDB214C5460547864B2002C86
:1063D000FBDB1C6A1E4D2C4080251C621C6AAC43F2
:1063E0001C62032393601B4B536053785BB2002BFA
:1063F000FBDB0023FF240B72174A4B728B72CB72AC
:10640000164B1A60164B174A1B6811689A065B01F7
:10641000C90E2340520F12020B431343124A138535
:10642000802342681343436070BDC0460040004172
:10643000000400400C06000000080040000C004072
:1064400001050100B905FF7D040A000000070300F3
:10645000FFFCFFFF03060100006CDC0224000020AB
:10646000246080002060800000400042FA212D4B13
:1064700010B51868890002F0FBFC2B4B01389842DC
:106480004FD82A492A4A4860C020136A00061B02D6
:106490001B0A0343136200238B6007330B608021C8
:1064A000136A09061B021B0A0B431362FC22214BD1
:1064B000196A0A431A62FF22196A12020A431A620F
:1064C000A022196AD2020A431A621B4B1C005A7896
:1064D00052B2002AFBDB194A5A80194B1A00597E26
:1064E000C9090129FBD0C821890099800521D970EB
:1064F000537EDB09012BFBD0C02300205B0113611D
:10650000907000F029F863785BB2002BFBDB0D4B39
:106510000D4A6380D379DB09012BFBD041235370F3
:1065200010BDFEE724000020FFFFFF0010E000E0A8
:1065300000ED00E000040040000C00401E400000A0
:10654000004000422140000000480042014B18601A
:106550007047C046280000201F4900B50B004A7E46
:10656000D209012AFBD001380A282FD802F076FC84
:106570001B2E2E2E2E2E062E2E2411001A691749A0
:106580000A400F211A615A788A43110001220A43F6
:1065900010E01A6911490A400F211A615A788A439A
:1065A00011000322F3E71A690C490A400F211A610E
:1065B0005A788A435A7000BD1A6908490A400F2167
:1065C0001A615A788A4311000222E0E7F022196921
:1065D00012050A43F3E7C04600400042FFFFFFF008
:1065E00018234343F0B5684A0E009B18D96885B05C
:1065F00004008A0718D50E2816D1644A1300D179F1
:10660000C9090129FBD0B605B60D1681DA79D20980
:10661000012AFBD0022219780A431A70DA79D209CA
:10662000012AFBD005B0F0BD0825594F294200D101
:1066300094E03A68102A02D044D9103AD640122584
:106640005D5FCB0642D50421200000F023F92F1214
:10665000504BBA00D458504BEDB2DA5D002A5CD1F1
:106660000132DA554D490F32684605F079FA6A462B
:106670007B009B5A8022D2011A43494B5A805A7898
:10668000D209012AFBD00222974223D923889343BF
:106690002380E37BDB09FCD1228840331343238032
:1066A000E37BDB09FCD10C35B6B26D002E53E37BE6
:1066B000DB09FCD12288023313432380E37BDB090F
:1066C000FCD1AFE71020821A9640B8E78B06A9D517
:1066D0000521B9E723689343324A23601300A16878
:1066E0001142FCD10222E16B0A43E263A2681A4222
:1066F000FCD11035AD0065196E60A2681A42FCD15C
:10670000294A2264A2681A42FCD1022221680A4363
:106710002260A2681A42FCD184E7022F07D90C3507
:10672000B6B26D002E53E37BDB09FCD17AE702237E
:106730006279134363711B4B1A00A1681942FCD1A3
:106740001C35AD002E51A3681342FCD102232179E0
:106750000B432371A3681342FCD163E7012120009E
:1067600000F024F83B68082B02D009D9083BDE4032
:1067700000217F2E00D90121200000F047F851E7C9
:10678000EB1A9E40F4E7C046FC610100004800425D
:10679000280000200C000020E81500204C660100B5
:1067A000000C0040FF0F7F00FFFF0000182310B512
:1067B00008244343134AD0180457013412D001244B
:1067C0009A5643689C4003290CD808000E49D20110
:1067D0005218D318403302F041FB0210060B02217D
:1067E0001970546010BD0621197054609461F9E766
:1067F0000621197054605461F4E702211970946005
:10680000F0E7C046FC610100004400411823F0B5E8
:1068100008245843114A13181C5701341BD0012671
:1068200035005F688356BD400D4ADB019A189068B9
:1068300005420BD10C00601E8441D2194032107801
:1068400034400336A400B04320431070044A9B1820
:10685000002901D15D61F0BD9D61FCE7FC61010093
:1068600000440041182310B5082443430749002081
:10687000CA181457013408D05B560549DB015B1870
:10688000186A5368D8400123184010BDFC6101000C
:10689000004400411822424370B52D4E0300B21847
:1068A000127A52B2140001320ED0481C00240C2877
:1068B0000AD802F0D3FA071F1F1F1F1F1F1F1F0B2D
:1068C0000B0B0B0001246442200070BD092905D187
:1068D00000211800FFF76AFF0024F5E70A2901D11B
:1068E0000839F6E700240B29EED10A391800FFF722
:1068F0005DFFE9E7182201205343F218F35655686B
:10690000144ADB016C089B18C9B228401C190028E6
:106910000ED00F2030342278090102401143412269
:10692000C9B25B192170403319780A431A70D3E752
:1069300022000F26303214785B19B44321431170C2
:1069400041224033197804000A431A70BCE7C0465C
:10695000FC61010000440041F7B506000D000C0089
:106960008B180193019B671B9C4207D033682178E9
:106970001B683000984701340028F3D13800FEBD71
:1069800070B5040008000D0005F0A4FF23680200A4
:1069900029005B682000984770BD10B50B1E02D01F
:1069A000FFF7EEFF0300180010BD10B5FFF7F5FF6D
:1069B00010BD10B503681B68984710BD10B502499B
:1069C000FFF7DEFF10BDC0467C09010070B5040072
:1069D000FFF7E3FF05002000FFF7F0FF401970BD4F
:1069E000F0B58BB06B461500002205330600DA7750
:1069F0000800012D00D80A2509AC290002F0BEFAD2
:106A0000CAB2130037330700DBB2092902D81300DA
:106A10003033DBB2013C2370002FEED12100300077
:106A2000FFF7BBFF0BB0F0BDF8B506000C00151E5C
:106A300004D10368C9B21B689847F8BD0A2A0CD173
:106A400000290BDA2D21FFF7B4FF614207002A006D
:106A50003000FFF7C5FF3818EFE7D2B22100300051
:106A6000FFF7BEFFE9E710B5FFF7DEFF10BD70B519
:106A70000400FFF7D9FF05002000FFF79FFF401932
:106A800070BD10B5002A04D10368C9B21B689847CD
:106A900010BDD2B2FFF7A4FFFAE770B50400FFF70C
:106AA000F0FF05002000FFF789FF401970BD0000CE
:106AB000F7B51E0008AB1B783100019305003300C9
:106AC0001000170004F00EFE4B49002814D10122DB
:106AD000740064085242494B3800210004F002FE61
:106AE00000280FD10122454B52423800210002F00C
:106AF00055FB002806D142492800FFF741FF04005A
:106B00002000FEBDE0223F4B12063800310002F0AB
:106B10004FFB002801D03C49EEE7E0223B4B120638
:106B20003800310002F030FB0028F4D100220023AD
:106B30003800310002F028FB041E07D02D21280068
:106B4000FFF737FF802304001B06F6180023002000
:106B50002F490093019B009A934208D02D4B0022AD
:106B600003F0FCFB009B0133DBB20093F2E7330040
:106B70003A0003F0D7F80F00060002F067FB0A2284
:106B8000019001002800FFF72BFF009B0419002B48
:106B9000B6D0019804F032FE02000B00300039003C
:106BA00004F058FA06000F0028001B49FFF7E8FE22
:106BB0002418009B013BDBB20093FF2BA0D0154BA8
:106BC00000223000390003F0D3FF0F00060002F06E
:106BD0003DFB0A22010001902800FFF701FF241865
:106BE000019804F00BFE02000B003000390004F0A5
:106BF00031FA06000F00DCE75C660100FFFFEF7F63
:106C000060660100FFFFEF4164660100FFFFEFC116
:106C10000000E03F000024402E09010037B51D00B0
:106C2000069BDBB200932B00FFF742FF3EBD37B55A
:106C300019000400069B2000DBB200930B00FFF755
:106C400037FF05002000FFF7B9FE40193EBD0000E8
:106C5000014B18607047C0462C0000200122024BF7
:106C600052421A607047C0462C000020164A10B5E8
:106C70001368591C26D0013B1360002B22D172B639
:106C8000124B134A0433934213D9124A01211000C4
:106C9000147D0C42FCD02021148BFF319B085B003B
:106CA00021431183D3610C4B13800123027D1A42CF
:106CB000FCD0BFF34F8F094B094ADA60BFF34F8F07
:106CC000C046FDE710BDC0462C000020002000009B
:106CD000030200000040004102A5FFFF00ED00E0BC
:106CE0000400FA05016070479446F0B59E1E721EBE
:106CF00096416246056892072F6836063A4332434A
:106D00002A60072505AC24780068A40129402143A6
:106D100042680024022B00D05C03114321434160F0
:106D2000F0BD30B5C0250368AD031C6812052A40CC
:106D30002243C0240904A4022140114319600368BE
:106D40005A6814435C6030BD0123026811680B432C
:106D5000136003681A68D207FCD4DA69D207F9D441
:106D600070470223026811680B4313600268D369FD
:106D70009B07FCD4704703681A7ED20702D41A7EA0
:106D80009207FCD57047002203685A837047036856
:106D9000187E4007C00F70470368187EC00970470F
:106DA000802302685B42117E0B43137670470368B1
:106DB000588B8007C00F704702230268518B0B432A
:106DC000538370470368187EC007C00F704703687D
:106DD000188DC0B2704703681A7ED207FCD589B2FD
:106DE000012019857047012203689A7570470122B6
:106DF00003681A7570470123026811680B4313601A
:106E000003681A68D207FCD4DA69D207F9D470474C
:106E10000223026811680B4313600368DA69920762
:106E2000FCD430215A8B8A43110010220A435A8322
:106E30000268D3695B07FCD47047022102681368BB
:106E40008B4313600268D3699B07FCD4704780238F
:106E50000268DB02116851680B4353607047000001
:106E6000036803491A685A680A405A607047C04666
:106E7000FFFFFBFF032230B5036811401C68074D7C
:106E80005A6809042A40E4061143640F5960052C2E
:106E900003D10268D3695B07FCD430BDFFFFFCFF60
:106EA00030B503680400588B8006800F022814D088
:106EB0005D8B0020AD06AD0F032D2ED0588B8007C3
:106EC00005D55D8B0020AD06AD0F012D25D100202D
:106ED0005D8BAD06AD0F85421FD04800596A104347
:106EE000C90AC0B2C902014359622368002A08D105
:106EF0001A7ED207FCD5588B4007C30F012058409B
:106F00000BE0187E8007C00FF5D11A7ED207F8D5A6
:106F1000C022596892020A435A6030BD0368283380
:106F200019700368187EC007C00F03D15A8BD207AF
:106F3000F8D57047588B4007C30F01205840F8E739
:106F4000036828331970036800201A7E520704D59D
:106F5000588B01234007C00F5840704703681868DA
:106F6000C006400F043843425841C0B2704703681E
:106F7000187E4007C00F70470368187EC007C00F17
:106F800070470368588BC006C00F70470368187EAF
:106F90008007C00F70470368588B0007C00F704709
:106FA00003681A68D206520F052A02D11A7E920788
:106FB000FCD528331878C0B2704700000368104A27
:106FC000934213D00F4A934212D00F4A934211D0EA
:106FD0000E4A934210D00E4A93420FD001200D4A20
:106FE0004042934201D1063040B270470020FBE797
:106FF0000120F9E70220F7E70320F5E70420F3E793
:1070000000080042000C0042001000420014004240
:1070100000180042001C0042F8B5FFF7CFFF00281F
:107020002EDBC3001C481F22C01805230579C35658
:1070300001201A4090400326C022184952001E40E9
:10704000F6008850813AB240C024D243B440002BAD
:1070500017DA0F263340083B114E9B089B009B1903
:10706000DE6932401443DC613F231D408023DB0195
:107070001D430C4B08605D805A7852B2002AFBDB3E
:10708000F8BD064E9B089B009B19C026B6009F5971
:107090003A4014439C51E7E76866010000E100E0D4
:1070A00000ED00E0000C0040F8B504000F001600F1
:1070B0001D00FFF7B1FF2000FFF746FE1C21BB00BB
:1070C0000B4071072268090C0B431360842322686C
:1070D0009375012F1AD11021012E00D008390C4BC5
:1070E00069431868C00001F0C3FE0722216802400E
:1070F0008B895203DB04DB0C13438B81226803046E
:107100009089DB0C400B400318439081F8BDC046CA
:1071100024000020F8B504000F00FFF77DFF2000D9
:10712000FFF769FE1422236879001A600C4B25686A
:107130001E68300001F09CFE0A490400300001F096
:1071400097FE7D23FA215843C90001F091FEFF23E9
:10715000241AE868053C1C4098430443EC60F8BDE1
:107160002400002040420F000221084B1A888A4365
:107170001A80DA7BD209FCD101321A80DA7BD2097B
:10718000FCD11A88D207FCD47047C04600340042B4
:10719000074B10B51B780400002B08D0FFF7E4FF65
:1071A00000212000FFF732FB0022024B1A7010BDB5
:1071B000EE15002008160020F7B504000E1E0192FF
:1071C00002D1FFF7E5FFF7BD8023514A5B03D36788
:1071D000C022504D5200AB504F4B1A78002A10D1AC
:1071E000C52101321A7089006B58FE3293431A0090
:1071F000402313436B50494A494B5A805A78D2096D
:10720000FCD1484B1B78002B05D0474B1868A04297
:1072100001D0FFF7BDFF454B3100186801F028FE93
:10722000434A431E0093944600230427009A624574
:1072300010D901005A1CD140013900911900B943FD
:10724000C9B2032902D0D2B2062A01D10233DAB27E
:107250001300EBE7013B0027092B02D8354A5B00FE
:107260009F5A019B002B4FD0FA2158007043890090
:1072700001F0FEFD002302002F49304E0A604B60F2
:10728000FFF772FF2023328813431F433780F37BBD
:10729000DB09FCD16B461B883383F17BC909FCD128
:1072A0001820274F6043BC46264B274FC356DB01AF
:1072B0009C4462463A60254A254F9B183B60012753
:1072C000204B1A1853683A009A40224B1A60102338
:1072D000727B13437373144B1A68A24209D02000C7
:1072E0001C60FFF793FA39002000FFF75FFA0D4B9F
:1072F0001F700223328813433380F37BDB09FCD1F8
:1073000080235B032B605EE701225242D317B3E771
:1073100004E100E000E100E0EE1500201C40000068
:10732000000C00400816002030000020340000202F
:10733000FFFF0000986601000016002000340042A4
:107340001C440041FC610100F81500201444004178
:10735000F4150020F0150020154B70B51868596819
:107360000500144C0D4319D0134A216812681160AE
:1073700018685968002902DC0AD1002808D018686A
:10738000596801246442E517001969411860596081
:1073900010230A4A917B0B43937370BDFFF7E4FE01
:1073A000074B22681B681A60064B1D70F5E7C04644
:1073B00000160020F0150020F815002000340042CF
:1073C000F4150020081600203F20704713B56B46C7
:1073D0000268D9710733546819000122A04716BD0D
:1073E00010B50221006900F02BFC10BD10B503217F
:1073F000006900F03BFC10BD10B51300084A040002
:10740000D279002A03D101230020636010BD0A0055
:107410000069032100F016FD0028F4D0F6E7C0460D
:107420003C00002010B5054C23685A1C04D10368A9
:107430005B69984703002060180010BD8800002099
:10744000074B0200186810B5411C03D001225242BC
:107450001A6010BD0221106900F0E6FCF9E7C04691
:107460008800002010B503784222023303700249DD
:10747000024800F093FD10BD4400002028160020B3
:1074800010B50178020043780020A12908D1212BF2
:1074900005D107221649174800F080FD012010BDD4
:1074A0002129FCD1202B13D107221149114800F0CA
:1074B00021FC96220E4BD200196891420ED1012474
:1074C000D87904400AD1FA20FFF7C2FB0020E6E792
:1074D000222B06D19278064BDA71EAE7FFF7BEFB62
:1074E000F4E7232BDBD15288034B1A60D7E7C04661
:1074F0003C0000202816002038000020FA2200213D
:10750000054B92009A60054A596008321A60044A95
:1075100019761A617047C0460C160020AC6601004F
:1075200028160020704770B50F26CB1D01390200C8
:107530003240D5B22C0000093034092A00DD07346E
:107540001C70013B8B42F2D170BD10B50400806904
:1075500004F0EAFAA06A04F0E7FA200010BD10B5C2
:107560000400FFF7F2FF200001F062FB200010BDD5
:1075700070B5032908D1324B8000C058002802D0D2
:107580000368DB68984770BD82291FD1C3B22D4DB7
:107590005A01AA1891692C4C80010C40C021890520
:1075A00021439161294908334018802150612A689C
:1075B0005B01D01804794942214301717020995C24
:1075C00081430800302101439954DCE70029DAD1D6
:1075D000C024C1B21B4E4A01B21893681A4DA405CB
:1075E0002B40234393601A4B8001C0180B0050605E
:1075F0003068072608335B01195CB1430E00012196
:107600003143195491690D402C43946170240F4902
:107610005161195CA1430C00102121431954916858
:107620000C4CC3180C4080214903214391609168A0
:10763000890B89039160402259790A435A71A2E764
:107640002C160020E01A0020FFFFFF8F54160020A8
:1076500014180020FF3F00F0EFF3108303600123B4
:10766000436072B670470368002B02D162B6BFF365
:107670006F8F704737B5056904006846002D14D137
:10768000FFF7EAFF019B621D013B02D3D57FEDB2FC
:10769000FAE768460193FFF7E6FF002D01D10020CD
:1076A0003EBD206AE369C01AFAE7FFF7D5FF220062
:1076B0000025019B3432013B02D31578EDB2FAE785
:1076C00068460193FFF7CFFF002DE8D0206BE36AF7
:1076D000E9E70000FF2130B54368164D1A6883685A
:1076E0000B405B01D21801235218947A2343937202
:1076F000836842680B405B01D418C268A368920497
:107700002B4012091343A360836842680B405B015E
:10771000D3189A68920B92039A6043681A68836838
:107720000B4008335B01D318402219790A431A71C0
:1077300030BDC046FF3F00F0F7B5036904000E00FE
:1077400017006846002B45D1FFF786FF019B611D9E
:10775000013B5A1C0CD0CD7F5A1EEDB2002D05D135
:1077600068460193FFF77FFF2800FEBD1300F0E796
:10777000684601930025FFF776FFE369AF420AD020
:10778000226A9A4207D95A1CE261A269D3181B786F
:1077900073550135F1E7226A9A42E5D10023E3618E
:1077A000013323616846FFF757FF22000021019B48
:1077B000671D013B3532581CD2D0F97710785E1E18
:1077C000002805D0117020000193FFF783FFECE73C
:1077D0003300F0E7FFF740FF2100019B3431013B0C
:1077E0005A1C06D00D785A1EEDB2002DB8D01300E9
:1077F000F6E7684601930025FFF735FFE36ABD42CF
:1078000002D0226B9A421CD8226B9A42ACD1002340
:107810006846E3622361FFF71FFF27002200002173
:10782000019B3437013B3532581C99D039701078A0
:107830005E1E00280DD0117020000193FFF74AFF53
:10784000EBE75A1CE262A26AD3181B787355013524
:10785000D4E73300E8E7F7B5FF21826843680A40C0
:107860001B68083252019A18D3790400DB072AD525
:107870000125D571836842680B405B01D3189A6873
:1078800040699204920C002821D12262226A002AC7
:107890003ED0A26A656168465A60FFF7DDFE2700A8
:1078A0002100019B661D013B343735315A1C2BD01A
:1078B000F5773A78581ED2B2002A05D0019368466F
:1078C0000D70FFF7D0FEF7BD0A700300EEE72263EC
:1078D000226B002A1CD000226261A26968465A60AD
:1078E000FFF7BAFE26002100019B3436013B671DDD
:1078F00035315A1C08D03570FA7F581ED2B2002A92
:10790000DCD10A700300F4E768460193FFF7ABFE91
:107910002000FFF7DFFED6E737B56B46DC1D0023FE
:107920000D0020002370FFF79DFD2B6818182860BC
:1079300001F032FA210001F0FBF92B6818182860D9
:1079400020783EBD03290ED180220E4B62311B6888
:10795000FF31585C524202435A5468226339FF3265
:10796000FF39995470470129FCD18022054B2431FD
:107970001B68FF31585C524202435A542822233973
:10798000FF32EDE7E01A002000222C4B70B50121F8
:1079900004001A201A70FEF709FF01211A20FEF7D1
:1079A00035FF2023264A0F20D1690B43D3610122E2
:1079B00024490B7813430B70234B197881431970BA
:1079C00006211D782943197020490D782A430A7031
:1079D0001A7802401A70602219780A431A701C4BF8
:1079E0001C4A5A805A78D209FCD11B48FEF72CFC5D
:1079F0001A4D280001F0E2F9280001F0F7F97F2183
:107A00002A68C120137880000B40137004232A6871
:107A100011780B430C2113702A6813898B4310498A
:107A200013810B581B021B0A0B5080230B6011782B
:107A30007E3B0B4313700123237070BD481600205A
:107A400000040040584400413C4400415944004176
:107A5000000C004006400000ED830000E01A00200A
:107A600000E100E00078002810D00121084B1B68DD
:107A70001A898A431A810822198B0A431A8304221D
:107A8000198B0A431A830022024B1A607047C046C2
:107A9000E01A0020D81A002010B50F4A93699B0BFA
:107AA0009B03936113680222FF331A729879823A1A
:107AB00002439A711A7A9207FCD57F24074A214023
:107AC000937A0800A3431900802301439172917AAD
:107AD0005B420B43937210BDE01A0020005000413E
