:102000000080002011580000F9570000F957000027
:1020100000000000000000000000000000000000C0
:10202000000000000000000000000000F957000060
:102030000000000000000000F95700006558000093
:10204000F9570000F9570000F9570000F957000050
:10205000F9570000F9570000FD560000FD57000039
:10206000F957000045570000F9570000F9570000E4
:102070005D550000F957000055570000F957000062
:10208000F9570000F9570000F9570000F957000010
:1020900085690000F9570000F9570000F957000062
:1020A000F9570000F9570000F9570000F9570000F0
:1020B0000000000010B5064C2378002B07D1054B1B
:1020C000002B02D0044800E000BF0123237010BDA4
:1020D000B00200200000000094470100044B10B53E
:1020E000002B03D00349044800E000BF10BDC046E8
:1020F00000000000B4020020944701000020704757
:102100007047F8B507000C0000258E18B44207D0C0
:102110003B6821781B683800984701342D18F5E793
:102120002800F8BDF8B5070003000837B4331B6872
:10213000040038009847124A0300904214D8250042
:102140002600BA35B8362A883188380002F014FAE9
:10215000903403002078032806D806F0E3F802073D
:102160000B0E32889B1833800120F8BD2A889B18FB
:102170002B80F9E73288D31AF5E72A88D31AF7E7D4
:10218000FDFF000010B50A004369016902F086FEF8
:1021900010BD10B54269016902F0D0FE10BD10B546
:1021A0000A004369016902F0DBFE10BD10B508307A
:1021B00002F0E2F910BD000010B503F061FB0C4B1A
:1021C0000C4C186023785A425A412270002B05D1DA
:1021D000094B1B78002B01D000F034F82378002B3A
:1021E00005D0064B1B78002B01D100F009F810BD7B
:1021F000EC020020D2020020D3020020D7020020EF
:1022000010B50D4C23785A425341237003F038FB2C
:102210000A4B21781860042003F00EFE21780D206F
:1022200003F00AFE064B1B78002B04D02378002B0A
:1022300001D1FFF7C1FF10BDD70200209403002099
:10224000D202002010B5104C23785A42534123701B
:1022500003F016FB0D4B0A2118602378002B01D0E8
:10226000802189000E2003F0D1FC21780B2003F09F
:10227000E3FD074B1B78002B04D02378002B01D003
:10228000FFF79AFF10BDC046D30200209C03002038
:10229000D202002070B502000D00040007490120A1
:1022A00004F0A0FA002D07D00A2003F01FFB220043
:1022B0000349012004F096FA70BDC0465A10000090
:1022C0009411000002210E4B1A788A431A705A7E2C
:1022D000D209FCD15978803A0A435A708022920080
:1022E0009A80084A1268D2B29A700722DA70197876
:1022F000053A0A431A705A7ED209FCD17047C0468B
:1023000000400042CC020020182343430D48C0186F
:10231000017C1F200C4B01401A6982430A431A6159
:102320005A7ED209FCD1197B02320A431A731A7EF3
:10233000D207FCD501221A765A7ED209FCD1588BDD
:1023400080B27047FC3D01000040004210B503F030
:1023500097FA064C2368C01A054B984205D9A52266
:10236000044B1A7203F08CFA206010BDE0020020CA
:10237000571B00000010004070B5334D2C6803F06F
:102380007FFAFA21314B8900E418201A05F0D4FFB6
:102390002F4B304E1B88304C3060A3420AD02F4A5E
:1023A00093420BD12E4B1B78002B03D12D4B1B7866
:1023B000002B03D003F064FA3460286003F060FA65
:1023C0002B68294AC01A294B90422ED901241C702F
:1023D00003F056FA264E3368C01AFA235B0098427F
:1023E0000DD903F04DFA234B30601A785142514118
:1023F0001970002A15D12049200004F0F3F903F0E8
:102400003FFA2B68C01A1D4B98421CD901211B2092
:1024100003F0E2FC00211B2003F00EFDFFF796FF06
:10242000FCE7200004F0CAF9E9E71A78002A0AD08C
:10243000002210491B200A7001211A7003F0FCFCD5
:10244000012004F0BBF970BD88030020B429090005
:10245000EA02002004000020FFFF0000FEFF000051
:10246000DA0200200000002038140900E9020020F0
:10247000E4020020E80200206F0F0000C0270900DE
:10248000154B164A10B59A60154A5A605A78D20907
:10249000FCD11449144C59802270E379DB09FCD13A
:1024A0002279013313430F222371637893431A0077
:1024B0000A23134304226370237893432370E37940
:1024C000DB09FCD1FFF742FF02232278134323707C
:1024D000E379DB09FCD110BD000C004002040000D0
:1024E00002031100034200000010004010B5084B29
:1024F000084C1868084B1B78002B07D0074906F0DA
:10250000FFFA074906F024F9206010BD0549F6E7F7
:10251000900300208C030020010000200000FA43FB
:1025200000F07F4500007A4413B5074B074C186054
:1025300001902000FFF72DFE01A92000FFF722FEE9
:10254000FFF7D4FF13BDC0469003002054030020C2
:102550000A4B10B51B88002B05D14622084B1A6088
:10256000FFF7B0FE10BD012B02D1054B4422F6E768
:10257000022BF5D1024B4822F1E7C046D0020020E1
:10258000CC02002013B52E4C2E49200003F034FD60
:102590002D49200003F01FFD2C4B0A221968200052
:1025A00003F07BFD2A49200003F015FD294B0A2288
:1025B0001988200003F071FD2749200003F00BFD6E
:1025C000264B186808F07CF90B00032102000091EB
:1025D000200003F042FE2249200003F00DFD2149B6
:1025E000200003F0F8FC204B0A221978200003F0A9
:1025F0006AFD1E49200003F0EEFC1D4B0A221988DB
:10260000200003F04AFD1B49200003F0E4FC1A4BB4
:1026100019881A4B994208D11949200003F0ECFCA3
:102620001849200003F0E8FC13BD174B994201D173
:102630001649F2E70A22200003F02FFDF0E7C0461A
:10264000BC15002084D800009ED80000980300200C
:10265000A6D8000084030020ACD80000900300201E
:10266000B1D80000C4D80000D6020020D3D80000A2
:10267000D0020020E5D80000EA020020FFFF0000A1
:1026800001E40000F7E40000FEFF000022E4000087
:1026900010B5364C3649200003F0AEFC3549200019
:1026A00003F099FC3449200003F0A6FC33492000D4
:1026B00003F091FC324B0A221978200003F003FD4D
:1026C0003049200003F087FC2F4B0A2219782000A4
:1026D00003F0F9FCFFF756FF2C49200003F08CFCB7
:1026E0002B49200003F077FC0A22E12120009140D1
:1026F00003F0CFFC2749200003F07EFC2649200090
:1027000003F07AFC2549200003F076FC24492000E0
:1027100003F072FC2349200003F06EFC22492000E4
:1027200003F06AFC2149200003F066FC20492000E8
:1027300003F062FC1F49200003F05EFC1E492000EC
:1027400003F05AFC1D49200003F056FC1C492000F0
:1027500003F052FC1B49200003F04EFC1A492000F4
:1027600003F04AFC200003F03FFC10BDBC15002024
:10277000EED8000001D9000014D900001AD90000D9
:102780000000002027D90000DA02002035D900001F
:1027900051D9000070D9000076D90000B3D90000EB
:1027A000EDD9000008DA000040DA00006DDA000020
:1027B0008BDA0000AADA0000C9DA0000E7DA0000CC
:1027C00005DB000025DB000045DB0000074B10B5F2
:1027D00018700300581E83410A225B421A40100001
:1027E00003F0D0F9FFF782FE10BDC04601000020C3
:1027F000F8B503F045F81B4C2368984231D303F039
:102800003FF8194BC018194B20601D78002D02D0DD
:102810000020FFF7DBFF1320FFF776FD06F0A2FA9A
:10282000134C2060002D02D00120FFF7CFFF20685D
:1028300008F046F800220F4B06F0FAFD0E4B06009A
:1028400018680F0008F03CF802000B003000390057
:1028500007F0F8F90022094B07F0F4F908F082F8C4
:102860002060F8BDA40400208813000001000020AF
:10287000A004002000FEAF40900300200000F83FBD
:102880006D22104B10B51A7080220F4B92019A6185
:102890008022D2015A61802212025A610B4A1278B8
:1028A000002A0AD080210A4A0901116080225201BF
:1028B0005A618022074BD2001A600120FFF786FF81
:1028C00010BDC0460800002000440041D502002091
:1028D000984400419444004175220F4B10B51A7082
:1028E00080220E4B92015A618022D2019A6180228D
:1028F00012025A610A4A1278002A09D08021094A34
:10290000090111608021490199618023DB00136076
:102910000120FFF75BFF10BD0800002000440041CC
:10292000D5020020944400416E22104B10B51A705D
:1029300080220F4B92015A618022D2015A6180227B
:1029400012029A610B4A1278002A0AD080210A4AA0
:1029500009011160802252015A618022074BD20086
:102960001A600120FFF732FF10BDC04608000020AA
:1029700000440041D50200209444004198440041A5
:1029800010B51120FFF7C0FC04001020FFF7BCFCBD
:10299000114B201A1C68001906F0E4F90F4B041CB7
:1029A00018600F4B1B78002B0ED10E4905F09EFED0
:1029B000002810D00C49201C05F084FE00280AD005
:1029C0000120FFF703FFDCE7084905F099FE002826
:1029D00001D00020F5E710BD98030020D8030020A7
:1029E000010000200000C0400080A24400C07345E8
:1029F0000822074B00050905090D000DD8849984AC
:102A000099880A439A805A7ED209FCD17047C04601
:102A10000040004210B5034B1860034B1980FFF7CC
:102A2000E7FF10BD980300208403002010B50B4B76
:102A30000200197875290ED06D394B1E9941084B4B
:102A400049421940074BC918002A00D1143201200D
:102A500003F0C8FE10BD0449F6E7C0460800002098
:102A6000E0FDFFFF4D0A00002D090000F8B502F05F
:102A700007FF8D4F3B68C01A312800D895E08B4B7B
:102A80008B4C1B78002B22D0200002F0C7FA894D16
:102A90000A220100280003F0FCFA0921280003F0B3
:102AA0009EFA2000103002F0B9FA0A220100280034
:102AB00003F0EFFA0921280003F091FA20002030FA
:102AC00002F0ACFA0A220100280003F0E6FA200026
:102AD000203002F0A3FA05002000103002F09EFA28
:102AE0000600200002F09AFA040002F0C9FEC82392
:102AF00038605B009D4203D89E4201D89C4228D991
:102B000002F0BEFE6C4B18606C4B1A78C8235B0059
:102B1000002A00D06BE09D4200D89AE09E4200D986
:102B2000AAE09C4200D97BE0654F3B68002B02D1B4
:102B300002F0A6FE3860634B1B786D2B0DD0FFF7BB
:102B40009FFE1420FFF772FFC8235B009D4263D8ED
:102B50002BE000225A4B1A60D6E73B68002BF3D0DB
:102B600002F08EFE3B68C01AFA23DB009842EBD9D4
:102B70000122554B524214201A80FFF757FF0023C1
:102B80003B60E1E79C4200D97CE04D4C2368002B80
:102B900002D102F075FE20604A4B1B78752B05D0E0
:102BA000FFF79AFE1420FFF741FFF8BD2368002BC2
:102BB000FBD002F065FE2368C01AFA23DB009842BE
:102BC000F3D900232360F0E72368002BEDD002F057
:102BD00057FE2368C01AFA23DB009842E5D99622F3
:102BE000394B920014201A80FFF720FFE9E79E423C
:102BF000AAD99C4243D89D42D7D902F041FE334B1B
:102C00001B68C01AFA239B00984205D9FFF7F8FA0F
:102C100000210320FFF73EFBC8235B009C42C4D980
:102C2000C8235B009E42C0D802F02AFE284B1B68D6
:102C3000C01AFA239B009842B7D9FFF7BDFA0021CA
:102C40001420FFF727FB322002F050FE0021142051
:102C500026E09E4296D89C4200D875E7184C23681F
:102C6000002B02D102F00CFE2060164B1B786E2B5D
:102C7000AAD0FFF759FE95E79C42BED995E79D4241
:102C800000D992E702F0FCFD124B1B68C01AFA2330
:102C90009B00984200D888E7FFF7D4FA0021032070
:102CA000FFF7F8FA81E7C046DC030020D9020020D4
:102CB000A4030020BC15002088030020D2020020BD
:102CC000E003002008000020EA0200209403002016
:102CD000EC0200209C030020054B064A1A60BFF35B
:102CE0004F8F054B054ADA60BFF34F8FC046FDE7B3
:102CF000FC7F0020EF6916F000ED00E00400FA050B
:102D000037B56B4604009D1DD980FFF742FA2900B4
:102D10002000FFF737FA37BD73B52A4B2A4D2B4AEF
:102D20002B602B00B4331A602B000024284EB833DC
:102D300030006C601C6001F083FE264B30002B607D
:102D4000254A264B264901F023FAFF2330001A00BA
:102D5000190002F02AFA234D2200280000940223D1
:102D6000082102F093F9280022000094022309218F
:102D7000103002F08BF92800022322000094122167
:102D8000203002F083F904221749184802F06EF847
:102D900002221749174802F069F804221649174819
:102DA00002F064F802221649164802F05FF8012288
:102DB0001549164802F05AF801221549154802F043
:102DC00055F873BDF8D70000E40300202D4A000039
:102DD000EC03002010D80000C1510000D9500000C1
:102DE000D0360100A403002000DF000024030020EF
:102DF00000DE00000C03002000DC00005403002073
:102E000000DD00003C03002000E000006C03002017
:102E100000E10000F4020020F0B532209DB002F085
:102E200065FDDD4C200002F05DFA3C21200002F03F
:102E300087FA200002F0F9FA051E00D0A6E1D74972
:102E4000D74803F0C8F80A223C21D54803F025F9F9
:102E5000D44C200001F0AEFF200001F085F92900DC
:102E6000200001F0AEFFD04BD04A1A620123D04AB5
:102E7000137001210E2002F0AFFF0021112002F09B
:102E8000ABFF0021102002F0A7FF0021132002F069
:102E9000A3FF02211B2002F09FFF01210B2002F063
:102EA0009BFF01210D2002F097FF0121042002F079
:102EB00093FF0121080002F08FFF8022BD4B920199
:102EC0009A608022D2019A608022802112029A6048
:102ED000B94A090111608021490199608023B74CEA
:102EE000DB001360200002F041F82000103002F0F7
:102EF0003DF82000203002F039F80A2002F03CFEB4
:102F00000120FFF763FC0A210E2002F07FFEAC4C8B
:102F100003AE31002000FFF742F93288A94B002AA6
:102F200000D19DE11A803100A748FFF738F9A74D7D
:102F30003278A74B310028001A70FFF730F9039B55
:102F4000A44F3100A4483B60FFF729F93288A34B16
:102F50003100A3481A80FFF722F9039AA14B002100
:102F60001A60101C05F0A8FB002800D180E19E48E3
:102F7000FFF7DAFA9D483100FFF711F932789C4BE0
:102F80001A80FFF7E5FA954C2088002800D172E1FD
:102F900001003868FFF73EFD854B1B78002B78D089
:102FA000804801F08FF893497E4801F08FFB7E4CFA
:102FB000914B2500B8352B609049200003F00BF8A9
:102FC0008F49784801F082FBA0235B032B608D4979
:102FD000200003F000F88C4B0A222B603968200097
:102FE00003F057F880239B032B608849200002F0F0
:102FF000F2FF874B0A222B60784B2000198803F0E0
:1030000048F8B0239B032B608249200002F0E3FFC5
:10301000814B2B60734B186807F052FC0B000321A7
:1030200002000091200003F00FF9E0239B032B60C6
:103030007A49200002F0CFFF794B7A492B602000BB
:1030400002F0C9FF574801F04AF86422764930007F
:1030500007F0A2FD00243319305B5F8805F082FE83
:10306000FC211725890505F04BFD07F029FC6F4B66
:10307000002205F0C1FE05F04DFB7D4301002A0052
:10308000012003F0AFFB0434780102F02FFC642C24
:10309000E1D16749424802F09EFFE1210A228902FC
:1030A0003F4802F0F6FF63493D4802F094FF962046
:1030B000800002F01BFCE1215F4C8902200004F03B
:1030C000BDFC5E49200002F086FF02F0D9FB05003E
:1030D00002F0D6FB5A4B401B984211D8200004F056
:1030E000D1FD0228F4D1200004F0B4FE4F28EFD126
:1030F000200004F0AFFE4B28EAD10122514B1A7098
:10310000504D51492B78002B00D15049244802F0F2
:1031100062FF2B78002B2ED14D49200002F05BFF7F
:1031200002F0AEFB060002F0ABFB801B31281AD880
:10313000200004F0A7FD0428F5D1200004F08AFE49
:103140004F28F0D1200004F085FE4B28EBD1200061
:1031500004F080FE0D28E6D1200004F07BFE0A2852
:10316000E1D101232B702B783749002B00D139494D
:103170000B4802F041FF2A78374B1A70FFF788FAA4
:10318000FFF77EF9FFF73CF81DB0F0BD3349044866
:1031900002F032FF6DE6C046C40C002083E400005C
:1031A000BC150020EC030020E4030020006A180096
:1031B000D80200200044004188440041A4030020BC
:1031C0003C030020EA0200206C03002024030020BE
:1031D000D6020020980300200C0300208403002066
:1031E000540300209003002033335340F4020020A6
:1031F000D0020020E1EC00000F000A00A5E400006E
:10320000F8E40000B3E4000040001400BBE4000058
:1032100040002000C3E4000040002C00CBE400008C
:103220004000380014D9000020D800000000E03F22
:10323000D5E40000EAE4000080120020F2E400007F
:10324000E7030000D402002046E400004AE4000046
:10325000F5E4000076E400000000002094E40000A3
:1032600002220E49524220001A80FFF749FD5AE619
:10327000FFF73CF97EE680210901FFF7CBFB3B68B5
:1032800028000293FEF785FF02A92800FEF77AFFC7
:1032900021880348FFF734FD7EE6C046FEFF0000AC
:1032A0000C030020F0B595B0B84C200003F0AEFB45
:1032B000002800DCCCE1200003F0D8FB050002F080
:1032C000DFFAFF23B24E1D403060612D00D135E1A1
:1032D00042DC2F2D6CD01DDC2B2D6DD02D2D00D17F
:1032E00083E02A2DE0D1AB4D2988013189B2AA486B
:1032F0002980FFF705FDA94B29881868FFF778FB9F
:10330000A749200002F067FE0A222988200002F067
:10331000C4FEC9E73E2D73D03F2D00D132E13C2DD4
:10332000C2D1A04D286807F0CBFA9F4A9F4B06F008
:10333000FBFE07F017FBFFF7F7F89D49200002F0AE
:103340004AFE286807F0BCFA0B0003210200009136
:10335000200002F082FFA7E7722D5AD015DC662DFF
:1033600000D199E0672D71D0622D9DD1914B1A78D3
:10337000914B002A00D18CE01A78514251411970CA
:103380008E49002A10D08E490EE0742D54D000DAF8
:10339000AEE0752D88D18B4A13785942594111708E
:1033A0008949002B00D08949200002F025FE7BE7E7
:1033B000784D2988013999E7784D854E2B68300082
:1033C00001332B600693FEF7E4FE06A93000FEF7FA
:1033D000D9FE704B28681988FFF70AFB7D49200049
:1033E00002F0F9FD0A22296890E76C4D784E2B68AF
:1033F0003000013B2B600793FEF7CBFE07A9E5E702
:10340000684D286807F05CFA674A684B05F0F4FCE1
:103410008FE77149200002F0DEFD1F25013DEDB26E
:10342000002D07D00A2002F061FA2E21200002F0C0
:10343000D6FDF3E7FFF750FC684A1378594259412B
:1034400011706749002BAFD06649ADE7664A137823
:103450005942594111706549002BA5D18025802022
:10346000634B2D011B78634A400163496D2B09D1E1
:10347000624E356050616E2B09D1604B8022D200C4
:103480001A6091E75E4E3560752BF3D190615C4B0D
:10349000F4E71A705B4987E75B4D2B780133DBB2A9
:1034A000042B23D80E272B70584E02ABFF182B7815
:1034B00030003B70FEF76DFE39003000FEF762FE13
:1034C0002B785349002B00D16EE75249012B00D1D4
:1034D0006AE75149022B00D166E75049032B00D11E
:1034E00062E7042B00D0DFE64D495DE70023D9E712
:1034F0004C4D2B8801339BB2022B1DD82B802B887F
:103500004949002B05D04949012B02D0022B03D198
:103510004749200002F070FD0F26464C02ABF6181A
:103520002B8820003370FEF734FE31002000FEF7B8
:1035300029FEFFF70DF8B7E60023DFE796273E4D9B
:10354000BF002B88BB4207D13C49200002F054FD4C
:1035500001235B422B800AE0394A93420CD139495E
:10356000200002F049FD2F8002F08AF9306029889E
:103570003548FFF7C5FB97E63449200002F03CFDD3
:103580000223E6E7FFF784F88EE6C046BC1500206C
:1035900088030020840300200C03002098030020EF
:1035A000B8E2000090030020FCA9F1D24D62503F28
:1035B000F0E20000D4020020000000208BE20000B6
:1035C0009EE20000DA02002000E2000014E20000A7
:1035D00024030020D3E2000001E30000D902002010
:1035E00029E200003DE20000D50200206EE200006A
:1035F000080000200044004152E2000098440041CD
:10360000944400411BE30000D60200206C0300201C
:1036100046E300005EE3000073E3000089E300007E
:103620009FE30000D0020020B2E30000C9E30000E5
:10363000E1E30000F4020020EA020020F9E30000C8
:10364000FEFF00000AE400003C0300201AE4000032
:103650007D4D2B78002B34D0FFF792F97B4B7C49C2
:103660001F68381C05F038F87A4E00281AD07A4BBB
:103670001B786D2B11D1FFF72FF901230820337030
:10368000FFF7D4F93378002B1BD002F0F9F8734B15
:1036900018600023337015B0F0BD752BF2D1FFF721
:1036A00043F9EAE76E49381C05F02AF80028E9D00A
:1036B000694B1B786E2BDED0752BE3D1FFF7E0F85A
:1036C000DBE7684B1E78002E42D02B78002B01D10F
:1036D000FFF756F95D4B1F68634B381C196805F0FE
:1036E0000FFA624B1860624B1E78002E1CD107F057
:1036F000E7F80B00022102000091200002F0A4FD77
:103700005C49200002F067FC534B09211B786E2BAB
:1037100003D00321752B00D1062149420A22200043
:1037200002F0BBFC012613E0012E55D14A4B1B7859
:103730006E2B4CD0752B4DD04F4905F0E1F907F0B9
:10374000BFF80B00022102000091200002F085FD6D
:1037500000244A4B1B78A34200D1BDE002F090F850
:10376000474B18602B78A34201D1FFF709F9002ECF
:1037700007D13D4B1968354B186805F0C1F93B4B33
:1037800018603B4B1E78002E00D08BE0374B18683A
:1037900007F096F80B0002213A4C0200009120003D
:1037A00002F052FD3349200002F015FC2A4B09219A
:1037B0001B786E2B03D00321752B00D106214942C3
:1037C0000A22200002F069FC0124260084E0FE2188
:1037D0008905B2E72C49B0E7022E13D107F070F843
:1037E0001D4B1B786E2B1DD00022752B15D0274B3F
:1037F00006F028FA0B00022102000091200002F0DE
:103800002CFD8FE7032E10D107F05AF8124B1B78CE
:103810006E2B04D0752B05D000221D4BE8E71D4A06
:103820001D4BE5E71D4A1E4BE2E7042E00D079E769
:10383000381C07F045F80B00002102000091200021
:1038400002F00BFD033E83E7D2020020D8030020E4
:103850000000C040D403002008000020880300209E
:1038600000C07345DA0200208C030020DC02002037
:10387000D602002028E40000002474490000002043
:10388000F00200208012002000007A4400408F40A7
:103890000000F03F8DEDB5A0F7C6B03EFCA9F1D217
:1038A0004D62503F012E00D081E1DD4B1B786E2B25
:1038B00000D177E1752B00D177E1DA48DA4B0124AA
:1038C000196805F01DF906F0FBFF0B00022102004C
:1038D0000091D64802F0C1FCD54B1B78002B00D1DB
:1038E00059E101F0CDFFD34F3B68C01AFA2800D848
:1038F00051E1D14908A804F01EFB01F0C1FF2B786B
:103900003860002B01D1FFF73BF8002E07D1CB4BDD
:103910001968CB4B186805F0F3F8C34B1860C94819
:1039200000F0D0FBFEF764FFC749C64800F0CEFEAA
:10393000002C05D0C54B0A226821C548FEF736FC8D
:10394000C44B1C68201C06F0BBFFC34AC34B0600D7
:103950000F0004F091FE002800D1B9E1C04B0A220B
:103960007321BB48FEF722FCBE49B64800F0AEFE0C
:10397000BD4BBE491B78002B00D1BD4908A804F0FF
:1039800063FBAF4B0022196811A804F068FB11A972
:1039900008A804F097FB11A804F085FAA94C1C2193
:1039A000089B0A22200000F051FE2978002900D14E
:1039B000CDE10A220021AF4B200000F047FEAE4BC4
:1039C0001968AE4B994200D1C4E10A220BA804F059
:1039D000DFFA0BA90EA804F01DFBA9490EA804F0FC
:1039E00093FB010011A804F015FB012511A908A8FB
:1039F00004F022FB11A804F056FA002D05D00EA801
:103A000004F051FA0BA804F04EFA9E4B1B78002BE1
:103A100000D1A5E19C4911A804F08DFA08A911A8CC
:103A200004F065FB994904F06FFB010008A804F05D
:103A3000E1FA11A804F037FA06210A9B49425943DA
:103A40006631089B89B20A22200000F0FFFD9049F0
:103A5000200000F03BFE8F4B734D1B78002B00D1F4
:103A600089E12E680021301C04F040FE002802D1BC
:103A700080231B06F618301C06F022FF864A874B6F
:103A800004F004FE0026002800D02E682F680021D4
:103A9000381C04F02BFE01236A46D373002800D1A2
:103AA0006BE17F49381C04F02BFE002801D16B46E6
:103AB000D8736B460127DA7B311C7A4011A804F0D9
:103AC000CEFA11A908A804F0AFFA11A804F0EBF996
:103AD0002D680021281C04F009FE002800D151E1C6
:103AE0006F49281C04F00CFE002800D1071CFFB20F
:103AF000002F03D06B4908A804F0EAFA14210A9BAE
:103B0000494259437D31089B89B24022200000F090
:103B10009DFD6549200000F0D9FD414B19787529BC
:103B200000D140310EA804F025FA0EA911A804F026
:103B300071FA5E4911A804F0E7FA010008A804F040
:103B400059FA11A804F0AFF90EA804F0ACF9089BDB
:103B500019226E21200000F079FD4E4B1B78002BBE
:103B600000D014E1364B5249186804F0BFFD00281C
:103B70000BD01B220A214F4B200000F067FDDC21F7
:103B80001E220901012002F02DFE200000F0A7FAFC
:103B900008A804F088F9FEF7D9FBFEF767FFFEF7E7
:103BA000EBFB78E5FE20800588E63D4886E6022EA0
:103BB00015D11D4B186806F083FE194B1B786E2B30
:103BC0001FD00022752B17D03B4B06F03BF80B00A3
:103BD000020002210091154802F03FFBF4E5032E9C
:103BE00012D1114B186806F06BFE0D4B1B786E2B33
:103BF00004D0752B05D00022304BE6E7304A314B1C
:103C0000E3E7314A314BE0E7042E00D0DCE50C4B12
:103C1000186806F055FE0B0002000021DAE7C046E6
:103C20000800002000247449DC02002080120020DB
:103C3000D8020020A0030020F7E400008C0300203D
:103C4000D8030020EC0300204D0D01000BE0000024
:103C5000E4030020A0040020333333333333114016
:103C60003AE20000F8E4000001000020B2E20000A7
:103C7000B5E200002AE4000004000020FFFF00007D
:103C800034E40000E802002036E4000038E40000DC
:103C900035010100D30200209A9999999999D93F49
:103CA00000007A44B6E2000070F600003AE400003A
:103CB00000C073453CE4000000408F400000F03F2E
:103CC0008DEDB5A0F7C6B03EFCA9F1D24D62503FD4
:103CD000374A384B3000390004F0CEFC002801D0C0
:103CE000354B3CE6354A364B3000390004F0C4FC15
:103CF000002801D0334B32E6334A344B30003900D0
:103D000004F0BAFC002801D0314B28E63149201CD0
:103D100004F0ECFC002801D02F4B20E62F4A304B5A
:103D20003000390004F0A8FC002801D02D4B16E625
:103D30002D4B2A4A3000390004F09EFC031E2B480C
:103D400003D02B4B0A2273210CE62A4BFAE72A4BAD
:103D50000A2231E6294911A804F0EDF8002545E6CC
:103D6000274D11A8290004F0E6F808A911A804F0CD
:103D7000BEF9290057E628687EE62249381C04F07F
:103D8000ABFC92E61F49281C04F0A6FCACE61E4BD7
:103D900000211D68281C04F0A9FC002802D01B4942
:103DA000281CE2E61A49281C04F08CFCDFE6C04619
:103DB00066666666666610404BE200009A999999BD
:103DC00099990F4049E20000CDCCCCCCCCCC0E4030
:103DD00047E200000000704045E200003333333317
:103DE00033330D4044E2000033330B40E403002042
:103DF00043E2000042E200002FE40000F7E400008C
:103E0000B6E2000000007AC4D803002000C0F344EA
:103E100000C0F3C44378DB09FCD1704701235B4247
:103E20000380033383700023C370037180239B01DD
:103E3000C3803F2303727047F8B50F0009783E4AEC
:103E40004B09DB019B181F2211401E3A04008A40D7
:103E50000F2965D98020110C00060143374804263C
:103E60000143996220005A60FFF7D4FF02222378B1
:103E7000200093432370FFF7CDFF08222379200011
:103E8000934323712379053AB343237123790125A1
:103E900093432371FFF7BEFF6022237B20009343EF
:103EA0002373FFF7B7FF1022237B20009343237374
:103EB000FFF7B0FF0F22237B200093432373637926
:103EC0002B43637123781E432670FFF7A3FF022262
:103ED000237A200013432372FFF79CFF237A2000EC
:103EE0002B432372FFF796FF0123FB56072B1ADCA7
:103EF0002000FFF78FFF0122BA56237D95401D4316
:103F0000EDB225752000FFF785FF2000FFF782FF47
:103F100002232278200013432370FFF77BFFF8BDB4
:103F200091B2002099E70F2BEFDC083B9D40627DAA
:103F30001543EDB26575E8E700440041000001510A
:103F4000042370B50400022502780E0013430370A9
:103F5000FFF760FF237820002B432370FFF75AFF01
:103F6000237A20002B432372FFF754FFA37A20000B
:103F70001D43A5720125FFF74DFFA37A20002B43B7
:103F8000A372FFF747FF2000FFF744FF0123F3561A
:103F90000022072B4DDC9D40EDB225746274200099
:103FA000FFF738FF0321F278E37E0A408B43134387
:103FB000E3762000FFF72EFF0721B278637B0A40EB
:103FC0008B43134363732000FFF724FF32791023E0
:103FD000002A34D1227B9A4322730F22237B9343FE
:103FE0003F2523732000FFF715FFF3882000DAB286
:103FF0002276627E1B0AAA432B4013436376FFF7A7
:1040000009FF327AA37E2A40AB431343A3762000F4
:10401000FFF700FFA422631CDA772000FFF7FAFE07
:104020008023627B5B42134363732000FFF7F2FE41
:1040300070BD083B9D40EDB222746574AFE70F215F
:10404000227B134323737279237B0A408B431343F0
:10405000C6E7437B0120DB095840704710B50400D8
:10406000FFF7D8FE237F607F0002184310BD0300D6
:10407000F0B550331B7885B002930300050000268D
:1040800051331F7803685B7C03932B68B0B21B7CB1
:10409000F4B2D9004143E86C89B241183A19009151
:1040A000D2B20021280000F071FE0134029BE4B27C
:1040B000A34205D90136BB19039ADBB29A42E4D870
:1040C00005B0F0BD10B5036800211A7C0300503321
:1040D0001B78C06CDB005A4306F07AFD10BD10B5AA
:1040E0000400FFF7C4FF200000F072FE10BD0300C3
:1040F00010B5040051331970836C1B689847A36C8A
:1041000020005B68984710BD030010B5AB331B78E7
:104110000400002B01D0FFF7D5FF00212000FFF79E
:10412000E6FF10BD70B50400FFF7A1FF2300513377
:104130001D78013B1B78ED182368EDB25B7CAB4228
:1041400004D8200000F044FE002070BD2300AB33F3
:104150001B78002B02D02000FFF7B4FF20002900BD
:10416000FFF7C5FF0120F0E710B50400FFF7CCFF13
:104170002000FFF7D7FF011EFAD12000FFF7B7FF9D
:1041800010BD00000823037000487047A8040020F9
:104190007FB50F250E006D44009308491300084AAF
:1041A000040000F03DFE2800FFF7ECFF2A78010034
:1041B0000096044B200000F017FC7FBDE94C000086
:1041C000514B00002F480000411808784B7800023E
:1041D000C01880B270470020704770B50B780D0092
:1041E00003704B78040043708B788370CB78C37076
:1041F0000B7903714B7943718B798371CB79C371DF
:104200000B7A03724B7A43728B7A8372CB7AC372C6
:104210000B7B03734B7B43738B7B8373CB7BC373AE
:104220000B7C112103742800FFF7CEFF132160825D
:104230002800FFF7C9FF1521A0822800FFF7C4FF5F
:10424000E08270BD70B50468067B25787218354130
:10425000D2B2EBB2072A0AD9631C03606378082440
:10426000A41BE4B2A340083A2B43DBB2D2B20273E0
:10427000012252428A409343180070BD70B5040079
:104280000023783481672373030005009033197885
:104290002000FFF7D7FF2B00A07291331978200080
:1042A000FFF7D0FFAA35E0722B78A3735A4253412F
:1042B000E37370BD10B50C00FFF7C4FF0123013C90
:1042C000E4B2A340C01A40B210BD012B08D0002BAD
:1042D00003D0022B06D0401A00E0801880B270474D
:1042E0004018FBE7801AF9E7012B08D0002B03D018
:1042F000022B06D0801800E0401880B27047801A68
:10430000FBE7401AF9E70300F0B504000F008DB099
:104310000B9278331A7A04925B7A079325007835EA
:10432000AB7A049A9B1ADBB20593059A3B1C974221
:1043300001D96B461B7DDBB20893EB88A888102659
:104340000A936B469E571B7F31005BB206932B7C12
:10435000069A0393FFF7C8FF039B0990069A310062
:104360000A98FFF7B2FF0B9B0200002B17D0A97B26
:104370002300AA3319706B4603991B8C200000910F
:10438000099900F0BCF9059B9F420DD3FF1A079BCA
:10439000FFB20133DBB2079300230493BEE76B7BCC
:1043A000002BF0D1E97BE3E7049B7834FB18237200
:1043B0006B461B7E63720DB0F0BDF0B5040089B092
:1043C0000700FFF75BFF230083331B7878375BB26E
:1043D00002932300923319783800FFF76BFF230014
:1043E0000690933319783800FFF764FF2300943365
:1043F000197805003800FFF75DFF0A230790FB5688
:104400000393002B59DD029B06995B195B425BB25B
:1044100005933B7C059A0493B888FFF765FF049BDE
:10442000B880059A069906000500F888FFF74DFF49
:10443000049B02000100F880032B62D8180003F0EF
:1044400071FF023F4956039B0298F5181118ABB251
:1044500089B200912000310000F0D0F900282CD062
:1044600023000022012580331A8023008E3319781F
:104470003800FFF7E7FE230003908F3319783800E8
:10448000FFF7E0FE0600002203992000FFF73BFF44
:10449000310020002A00FFF736FF29003800FFF71F
:1044A000D1FE0028EFD12300092278339A560299D1
:1044B0008A42DADB9B7BAA342370079809B0F0BDEF
:1044C000029B0398F61A013511180136ABB289B276
:1044D000B6B2BEE70122039B0298D61AAE19AD18F8
:1044E000121A8A180131ABB289B292B2F0E7039A7C
:1044F000029B8A1AF51801320131ABB289B292B22D
:10450000A7E73300A5E7F8B5046F0D001734FF29BE
:1045100012D860290AD9A0300388E41860780028EE
:1045200003D02378AB4205D1A01CF8BD4029F5D9B2
:104530009E30F1E72418F1E7A23000880227241802
:10454000260000213000FFF73FFE3900241830001C
:10455000FFF73AFE04368542F3D8607823780002EC
:10456000184340BA80B20028DFD0854201D1E01C58
:10457000DBE7A378E418F0E7F8B51F000300883301
:10458000040018780E001500032808D8636F03F0A4
:10459000C9FE02171C20200098472D18ADB2230039
:1045A0007C3339001E805D802000FFF7ACFF0100E6
:1045B0000020814203D02000FFF7FFFE80B2F8BD4B
:1045C00020009847361AB6B2E9E7200098472D1A1E
:1045D000E4E7200098473618F5E70000F7B51F001C
:1045E00006000C00150000F02BFA002301937368FD
:1045F000397830009847134A030090421FD0124A7E
:1046000001379042F3D02A0021003000FFF7B4FFB9
:104610003200883203001078032805D803F082FEA8
:1046200002080B0DE418A4B2019AD3189BB2DDE77F
:10463000ED18ADB2F8E7E41AF5E7ED1AF9E70198DD
:10464000FEBDC046FFFF0000FEFF000010B5024C9B
:104650004460FFF7C3FF10BD2D4A0000036F70B523
:10466000002B1DD003000026050001240200993311
:104670009E57A6352E701C57A73214700C331B782A
:10468000002B0DD0012B0CD103009B331B785BB2A8
:104690009E4200DA2B709C23C3569C4200DD1370AF
:1046A00070BD0300982196331B7841565BB25B18AE
:1046B0009E4200DA2B708C42F2DD1170F0E70000B0
:1046C000014B43677047C046D7410000036F10B5E8
:1046D00004008B4206D001678C30FFF77EFD20007E
:1046E000FFF7BCFF10BD37B5050056352D8806AC69
:1046F0002478521B009492B2446CA04737BDF7B5A2
:104700000500A4352D7808AC2478002D3FD0002B6F
:104710003DD0012B04D9022C30D10131C91A89B204
:1047200001252C400500002C32D164352D8895429E
:104730002DD8050066352D88954228D9050006003C
:10474000CB18603562369BB22D8836888B421CD2DE
:104750008E4219D9731E9BB29D4218D22F1C8D42D6
:1047600000D20F1CB9B2351C9E4200D91D1C6B1A19
:10477000856C00949BB2AC68A04708E0032CCFD1B5
:104780000132D21A92B2CBE729008E42E4D8F7BDAB
:1047900060352D888D42FAD8050062352D888D420E
:1047A000F5D90500D31864352E889BB202352D88C3
:1047B000934211D295420ED96B1E9BB29E42E6D215
:1047C000371C964200D2171CBAB22E1C9D4200D94B
:1047D0001E1CB31ACCE732009542D8D9EEE710B5CB
:1047E00004008A4206D20120A34202D893429B4190
:1047F000584210BD8342F9D80020FAE770B50D0089
:10480000010004001E00663104AB64301B88098877
:104810000088FFF7E4FF002808D0230060346233EB
:104820001988208833002A00FFF7D9FF70BDF7B53B
:1048300008AC24780726019414003440A4460124CF
:104840006546AC400500AA352F78E4B20025012F5B
:1048500002D82500012F29D0B24316000268127C2D
:10486000724392B25118C26C5118019A002A1FD09B
:1048700007000126523701970A7807272A4362402A
:104880000A70624601321740013BBC469BB2002FC2
:1048900018D1019A128889180200AA321278012AC6
:1048A00002D83500012A11D034000FE00024D3E7EC
:1048B0000A78013B2A4362409BB20A700131002B07
:1048C000F6D1F7BD6D006400EDB2E4B2002BD3D198
:1048D000F7E70300F0B550331D780168AAB2D400A1
:1048E0009C8004000B7C5234DB0023800300513396
:1048F0001F78BEB2F300A3804C7CED19A54201DD08
:10490000A21B92B20400D200583423809B180200EC
:104910005A32138003008A8A5C331A80CB8A5E3055
:104920000380F0BD10B5FFF7D4FF10BD13B504AC84
:1049300024780094FFF7D7FE13BDF0B506000500FC
:104940000700040085B06E306A366C3568373388EE
:104950002A8839880390008800902000FFF74EFFD6
:104960002300A433002802D1187005B0F0BD012245
:104970001A70230060333A881988914200D21A8055
:104980002300623332881988914200D91A802300AB
:1049900064332A881988914200D21A80039B6634B6
:1049A0001B8822889A42E0D92380DEE70300002298
:1049B000603310B51A8002005C3212885A800200FF
:1049C000583212889A8002005A321288DA80FFF731
:1049D000B4FF10BD034B10B58366C366836C5B6880
:1049E000984710BD0000FFFF70B50400636423000A
:1049F00000255033E16425671A705D7035331D70F2
:104A0000220024331D700123AA32049813705370BE
:104A10000368A064200098472000FFF7DBFF200018
:104A20008834FFF74DFE257070BD0000002902D0CC
:104A300088B20A2900D101487047C046FFFF000034
:104A400000230730C377704710B5130004690A00CC
:104A50001721A04710BD07B56B46DA1D1170012163
:104A6000FFF7F2FF0EBD002310B51A0004691821EC
:104A7000A04710BD002310B51A0004691921A047F2
:104A800010BD70B5040016000D00FFF7ECFF4021CB
:104A90002000FFF7E0FF33002A00172125692000DE
:104AA000A8472000FFF7E6FF70BD10B50A00C468F4
:104AB00000231521A04710BD10B50A00C4680023CB
:104AC0001621A04710BD10B51300C4680A001721B5
:104AD000A04710BD002310B51A00C4681821A047D4
:104AE00010BD002310B51A00C4681921A04710BDDD
:104AF00073B505000C002178172918D002D81529A4
:104B00000CD273BD19291BD9FE29FAD16B466278E4
:104B100029212800DA7100F062F906E06B4662781C
:104B20002800DA71EE680023B0470234E3E76B46F1
:104B3000DA1D6378012128001370FFF7C4FFF4E742
:104B4000002328001A00EE680134B047D3E70000C4
:104B50001439F8B5040015001E000020052919D8E5
:104B6000080003F0DFFB3703181E4448274E337854
:104B7000002B02D02000FFF77DFF2000FFF773FF1E
:104B800000212000FFF767FF29002000FFF763FFE7
:104B900001203070F8BD11002000FFF75CFF0120FC
:104BA000F8E71A4F3B78002B02D02000FFF762FF96
:104BB0003200182D06D829002000FFF762FF0023DD
:104BC0003B70ECE718212000183DFFF75AFFEDB2CB
:104BD0001836EDE7631DDA7FFF2A01D1873ADA77CD
:104BE000276933002A0014212000B847D2E70022A9
:104BF000064B1A70D3E7054D2B78002B02D020000E
:104C0000FFF738FF00232B70C9E7C046A808002033
:104C10000B39F8B5040016001F000800042958D805
:104C200003F080FB03570C1E2D002B49002A00D0F7
:104C30002A492000FFF75CFF0120F8BDE51C002A8F
:104C400007D127492000FFF753FF23689B7CEB77B0
:104C5000F2E724492000FFF74BFF2368DB7CF6E7EF
:104C60002000FFF737FF81212000FFF71EFF3100F2
:104C70002000FFF721FF2000FFF733FFDCE72000D3
:104C8000FFF728FFE31C7D79D97FED006D18200028
:104C90004021FFF70AFF1021EDB22B091943200034
:104CA000FFF703FF0F2120002940FFF705FFB02386
:104CB000B97920001943FFF7FFFE3979013EC90099
:104CC000C9B23A682000F6B2FFF7FDFE002EF4D11B
:104CD000D1E70020B1E7C0461F37010024370100AB
:104CE000DC360100E336010070B504000D00FFF76B
:104CF0008FFF00280AD1092D0AD00A2D07D12000E4
:104D000000F015F805492000FFF7F2FE012070BD04
:104D10000349200000F006F8F8E7C046EA36010033
:104D20002C37010001608B7C0330C3777047002370
:104D300070B51A00282145690400A8470023E568DA
:104D40001A0014212000A847200001224B2100F066
:104D500046F8236820001A79292100F040F8200045
:104D600000224B2100F03BF8236820001A7929210A
:104D700000F035F8200001224B2100F030F82368C4
:104D800029215A79200000F02AF870BD13B56C462D
:104D90002371049B6171A271009384686B460122A8
:104DA0000F21A04716BD002310B51A008468092101
:104DB000A04710BD002310B51A0084680A21A0473F
:104DC00010BD10B50A00846800230B21A04710BD58
:104DD000002310B51A0084681021A04710BD10B53B
:104DE00000234469A04710BD0020704700230B4AF0
:104DF00003608260C26002614261021DD377C21DFE
:104E0000D3778361421DFF33D3772332137042304F
:104E10000432137001328242FBD17047E94D000029
:104E2000F8B504000F0016001D00FFF7DFFF069B1A
:104E3000A760E660256163612000FFF7B4FFF8BD5D
:104E400010B5054A0549064800F010F80022054B48
:104E500005491A705A5410BD0104000000380100C1
:104E6000AC0C0020A90800200204000030B5094D58
:104E7000094CAB685B035B0F9B001C590460AB687B
:104E800001619BB243606343A4008360C4604261DC
:104E900030BDC04600400041003D0100F7B580260E
:104EA0001A4D01916F6803333E439B086E60002BDF
:104EB0002BD0174E2E802E7DF107FCD51E000768E3
:104EC000991BBF088F4219D9002E17D0FF211778E0
:104ED0008C433C430F4957780C403F023C43977842
:104EE000013E39040C4F2740D478BFB20F4324064B
:104EF00001993C4310C101910432E0E7074B2B803C
:104F00002B7DDB07FCD53300D1E7F7BD0040004126
:104F100044A5FFFFFF00FFFFFFFF00FF04A5FFFF09
:104F2000044B054A4908D9611A801A7DD207FCD57D
:104F30007047C0460040004102A5FFFF70B5040065
:104F40000D001600E36829002000B34205D2FFF7E8
:104F5000E7FFE368ED18F61AF4E7FFF7E1FF70BD2D
:104F600010B510001A0005F017FE10BD052370B52E
:104F7000C3560100002001332DD072B622231648FB
:104F8000164A0370164B174E5D885C882D05144039
:104F90005C805C882D0F344080265C801400F60114
:104FA0005A883242FCD15A882D0222402A435A8024
:104FB00062B60D4A04315A80222202705A88324366
:104FC0005A808023094A1B03106A0343136208486E
:104FD000FEF732FF012070BD020C0040FFF0FFFF22
:104FE000000C0040FFBFFFFF220300000004004050
:104FF000004C0042011D10B50748FEF7A1FF06480E
:10500000FFF727F8002802D100F092FCF7E70248EA
:10501000FFF724F810BDC046004C004210B5040054
:10502000FFF7E8FF0200A079062805D803F07AF917
:1050300005070A0C0E101200074A100010BD530895
:105040009AB2FAE79308FBE7D308F9E71309F7E701
:105050005309F5E79309F3E7FFFF00001823016800
:10506000094A4B43D1189B564868002B03D102389C
:10507000052806D87047012B03D1092801D806302E
:10508000F8E701204042F5E7FC3D0100F7B51E00BE
:1050900008AB1B78040004300D0017000193FEF7E5
:1050A000BDFE182325605D430A4A2000AB56551902
:1050B000013B59424B416A685B019B182371FFF722
:1050C000CDFF6B461B796071A771E67120002372DA
:1050D000FEBDC046FC3D010070B5060015002B2941
:1050E00015D801202A2939D2282927D029293CD0AE
:1050F00000203F2932D93F23194073182C331C78E4
:10510000FF2C2AD00F2944D82900200013E02D2994
:105110002FD024D30B004C3B012BE9D83F24214056
:1051200041182C310C000878002A2ED1012100F002
:1051300053FE2900207800F07FFE0EE000242300BB
:105140002C33F05CFF2805D001210F2C00D902215F
:1051500000F042FE0134162CF1D1012070BD002A6E
:10516000FBD01023013BFDD1F7E7100000F0BEFBA0
:10517000F3E702239A4200D8033330200321584337
:1051800003F0DAF80138FDD1E7E7022100F024FE50
:10519000E3E7102901D100F0CBFB200000F078FEFE
:1051A000431E98410836F077D7E710B5040037342E
:1051B00021700100393038310A70037010BD0000D1
:1051C000143970B5040008000C292AD803F0AAF895
:1051D0000D29290719252929292929290B00190011
:1051E000114800F025F8012070BDA369002B04D1FF
:1051F00023685A7B0D4B5343A3610B4800F072F8B0
:10520000F1E7094DA1692800053400F08BF8E17F32
:105210002800490800F094F8E5E7034800F005F994
:10522000E1E70020E0E7C046C40C0020A0860100B2
:10523000F8B505000E0017000024BC4208D02B680A
:10524000315D1B6828009847002801D00134F4E73D
:105250002000F8BD70470300FC33196ADA699142F7
:1052600003D01B6AC018007E704701204042FBE754
:105270000300FC33D8691B6AC01A01D50130FF3026
:1052800070470000F7B50193FA238026002504003B
:105290009B008360124B760008330F0045602900A5
:1052A000009203603200183005F092FC23002000C9
:1052B000FC332130DD6132001D622900FF3005F032
:1052C00087FC87239B00E3185D609D606B461B781D
:1052D000276123756B461B79A57520006375FEBD9C
:1052E000203D010070B5060018250C49006901F049
:1052F00027FA306901F0A2F82B000821307D084C14
:105300004343E318595600F0DBFD0821707D454307
:105310006419615600F0D4FD70BDC046A08601003E
:10532000FC3D010070B504000D00006901F09BF820
:105330002900206901F004FA206901F07FF870BDAE
:105340008A2300229B00C1540C3BC3185A609A6008
:10535000012383757047020010B5FC3253689468CE
:105360000133DBB29C4202D054680155536010BD3A
:10537000002210B5837D93420DD087239B00C41873
:105380006368A4680133DBB2A34204D02130FF304C
:10539000FFF7E1FF0122100010BD0300FC33996804
:1053A0005A68914206D09A68805C9A680132D2B2FB
:1053B0009A60704701204042FBE700228A2370B5C3
:1053C0009B00827505000E00C15C006901F07EF84B
:1053D000002806D10321286901F062F80224200088
:1053E00070BD872328009B00EA1853689468213019
:1053F000FF301C1B01D50134FF34002C0ED02C696A
:10540000FFF7CBFFC1B2200001F09EF80028E8D1E1
:105410000321286901F044F80324E0E7002EDED0E0
:105420000321286901F03CF8D9E710B50121FFF705
:10543000C4FF10BD10B51830FFF7AFFF10BD70B539
:105440000400006901F0A0F8002814D0206901F0E0
:10545000A9F8002810D0206901F018F8032120696C
:1054600001F01EF88C239B00E558002D39D1002354
:10547000FC34E361236270BD206901F09DF80028CF
:1054800009D0206901F093F8002804D0206901F0C8
:1054900098F80028DFD0206901F08EF8002826D186
:1054A000206901F07AF80028E5D0206901F089F838
:1054B000002837D087239B00E218536892689B1A14
:1054C00001D50133FF33FF21002B05D0200021300F
:1054D000FF30FFF762FFC1B2206901F047F8A07505
:1054E000C9E7236820001B699847A847BFE72069E0
:1054F00000F0CCFF2069032100F0D2FF206901F009
:1055000060F80028B7D0872300229B00E3185A6078
:105510009A600123A3758B239B00E3589342AAD082
:105520009847A8E72200FC32D369126A0133DBB244
:105530002069934206D100F0A0FF0321206900F00A
:10554000AFFF98E701F042F8010020001830FFF7A4
:1055500002FF206900F09AFFEFE7000010B5024853
:10556000FFF76DFF10BDC046C40C002010B5152319
:10557000142202490248FFF785FE10BD881500205D
:10558000C40C0020F0B5040085B01E000AAB1B78E7
:10559000103001930BAB1B78170002930CAB1B78F8
:1055A0000D00039300F076F82000243000F072F82C
:1055B000220000234832A363E3632364636413700F
:1055C000537063729D4205D10A4B0B4A22210B484E
:1055D00005F06AFA6B461B79200063716B461B7AF3
:1055E0002560E3716B461B7B2771A671237205B0A2
:1055F000F0BDC046443D0100A73D0100553D0100FE
:105600001FB5094A094B0A491360002353711371EE
:105610000293013301931633009316220133054898
:10562000FFF7B0FF05B000BD440F002000093D00AA
:105630008C150020F80E0020094B1868002809D1AD
:10564000EFF310820749002A08D172B6BFF35F8FCB
:1056500001320A701A6801321A6070470870F9E75F
:10566000500F00204C0F0020084B1A68002A0CD065
:105670001A68013A1A601B68002B06D1044B1B788C
:10568000002B02D0BFF35F8F62B67047500F00202F
:105690004C0F0020FF23002110B504000370FC3BD9
:1056A00041708170C170017143710C22083005F0A6
:1056B0008FFA200010BD000001220B0010B513402E
:1056C00008D00D4B1A70042343708368002B00D060
:1056D000984710BD0222114204D007490A70437056
:1056E000C368F3E704231942F3D0034A137003336A
:1056F00043700369EAE7C0464E48004110B5FFF722
:105700009BFF0C4B1B8C1B071B0F0B2B0FD80A4A44
:105710009900885800280AD00F2408490A78A24323
:1057200013430B70064B1978C9B2FFF7C5FFFFF79B
:105730009BFF10BD00480041540F00203F4800412E
:105740004E48004110B5024802F0B8FA10BDC046FC
:10575000840F002010B5024802F0B0FA10BDC04618
:1057600080120020F7B501240326154F1549380093
:1057700000F0CEFD1449154800F0CAFD1449154843
:1057800000F0C6FD1449154800F0C2FD1449154843
:1057900000F0BEFD144D1549280000F0B9FD390098
:1057A0000096230001940022114802F01BFA009693
:1057B000290001941E231F220E4802F013FAF7BDA0
:1057C0007C15002000080042000C004280150020DB
:1057D00000100042841500200014004288150020AB
:1057E000001800428C15002090150020001C00427B
:1057F000840F002080120020FEE70000034B10B54C
:105800001B68002B00D0984710BDC046941500209F
:1058100070B50F490F4CA14204D100F08DF802F091
:1058200089FCFEE70C4D00238D42F6D0CA18E8181B
:10583000A24205D3094B8242EFD00949002204E07D
:10584000006804331060F1E704C38B42FCD3E4E743
:1058500000000020B002002098470100B0020020A4
:10586000B01B002010B500F064F8002801D100F052
:1058700055F810BD014B18607047C04694150020C4
:10588000014B18687047C04698150020F7B51348BB
:10589000012284461249134C8E68636805689B0E8A
:1058A0001340019288686268019F920E3A406746F1
:1058B0003F6893420ED1BD420CD186420AD35B1998
:1058C000FA254868AD00861B07486B437043000DFE
:1058D000C018FEBD3D0013000600E3E79815002048
:1058E00010E000E000ED00E05555000070B5041E2A
:1058F00010D0FFF7CBFF050000F01AF8FFF7C6FF46
:10590000054B401B9842F7D9FA23013C9B00ED1848
:10591000002CF3D170BDC046E703000010B5034A68
:1059200013680133136000F0B7FC10BD9815002018
:1059300070470020704700001E2270B54648474956
:10594000436893431C3A1343436008238C69234301
:105950008B61434C434B9C829C8A14439C82DC6841
:105960001442FCD00124404A14701578254203D01B
:1059700055786DB2002DF8DB01249460547864B240
:10598000002CFBDB394C5460547864B2002CFBDBF8
:105990008224E4015480547864B2002CFBDB02249E
:1059A0009C840E34DD682542FCD0314CDC6210242E
:1059B000DD682542FCD09D8C2E4C2C439C84102409
:1059C000DD682542FCD002249D8C80262C439C84DB
:1059D0004024DD683542FCD0DD682542F9D0102432
:1059E000DD682542FCD000249460547864B2002C19
:1059F000FBDB214C5460547864B2002CFBDB1C6A46
:105A00001E4D2C4080251C621C6AAC431C62032383
:105A100093601B4B536053785BB2002BFBDB00237E
:105A2000FF240B72174A4B728B72CB72164B1A60A3
:105A3000164B174A1B6811689A065B01C90E234072
:105A4000520F12020B431343124A138580234268FC
:105A50001343436070BDC046004000410004004055
:105A60000C06000000080040000C00400105010089
:105A7000B905FF7D040A000000070300FFFCFFFFDB
:105A800003060100006CDC0224000020246080007A
:105A90002060800000400042FA212D4B10B51868AC
:105AA000890002F049FC2B4B013898424FD82A4913
:105AB0002A4A4860C020136A00061B021B0A0343DF
:105AC000136200238B6007330B608021136A090681
:105AD0001B021B0A0B431362FC22214B196A0A4367
:105AE0001A62FF22196A12020A431A62A022196A74
:105AF000D2020A431A621B4B1C005A7852B2002A87
:105B0000FBDB194A5A80194B1A00597EC909012931
:105B1000FBD0C821890099800521D970537EDB090B
:105B2000012BFBD0C02300205B011361907000F0BB
:105B300029F863785BB2002BFBDB0D4B0D4A6380C9
:105B4000D379DB09012BFBD04123537010BDFEE755
:105B500024000020FFFFFF0010E000E000ED00E067
:105B600000040040000C00401E40000000400042C5
:105B70002140000000480042014B18607047C046B9
:105B8000280000201F4900B50B004A7ED209012AD7
:105B9000FBD001380A282FD802F0C4FB1B2E2E2E72
:105BA0002E2E062E2E2411001A6917490A400F21A5
:105BB0001A615A788A43110001220A4310E01A69D7
:105BC00011490A400F211A615A788A4311000322B1
:105BD000F3E71A690C490A400F211A615A788A437F
:105BE0005A7000BD1A6908490A400F211A615A7893
:105BF0008A4311000222E0E7F022196912050A43E4
:105C0000F3E7C04600400042FFFFFFF01823434384
:105C1000F0B5684A0E009B18D96885B004008A0761
:105C200018D50E2816D1644A1300D179C909012963
:105C3000FBD0B605B60D1681DA79D209012AFBD060
:105C4000022219780A431A70DA79D209012AFBD0A4
:105C500005B0F0BD0825594F294200D194E03A68BB
:105C6000102A02D044D9103AD64012255D5FCB06E7
:105C700042D50421200000F023F92F12504BBA0026
:105C8000D458504BEDB2DA5D002A5CD10132DA55BE
:105C90004D490F32684604F07FFF6A467B009B5AED
:105CA0008022D2011A43494B5A805A78D209012ADC
:105CB000FBD00222974223D9238893432380E37B9E
:105CC000DB09FCD12288403313432380E37BDB09CB
:105CD000FCD10C35B6B26D002E53E37BDB09FCD151
:105CE0002288023313432380E37BDB09FCD1AFE737
:105CF0001020821A9640B8E78B06A9D50521B9E78E
:105D000023689343324A23601300A1681142FCD1F7
:105D10000222E16B0A43E263A2681A42FCD1103509
:105D2000AD0065196E60A2681A42FCD1294A22644E
:105D3000A2681A42FCD1022221680A432260A268AA
:105D40001A42FCD184E7022F07D90C35B6B26D0098
:105D50002E53E37BDB09FCD17AE7022362791343FC
:105D600063711B4B1A00A1681942FCD11C35AD00B0
:105D70002E51A3681342FCD1022321790B432371D6
:105D8000A3681342FCD163E70121200000F024F84E
:105D90003B68082B02D009D9083BDE4000217F2E4A
:105DA00000D90121200000F047F851E7EB1A9E408E
:105DB000F4E7C046FC3D01000048004228000020F6
:105DC0000C0000209C1500204C420100000C0040FB
:105DD000FF0F7F00FFFF0000182310B50824434386
:105DE000134AD0180457013412D001249A5643683C
:105DF0009C4003290CD808000E49D2015218D31830
:105E0000403302F08FFA0210060B02211970546021
:105E100010BD0621197054609461F9E706211970CC
:105E200054605461F4E7022119709460F0E7C046B1
:105E3000FC3D0100004400411823F0B508245843FC
:105E4000114A13181C5701341BD0012635005F6816
:105E50008356BD400D4ADB019A18906805420BD16C
:105E60000C00601E8441D219403210783440033651
:105E7000A400B04320431070044A9B18002901D1AC
:105E80005D61F0BD9D61FCE7FC3D01000044004107
:105E9000182310B50824434307490020CA18145793
:105EA000013408D05B560549DB015B18186A53685A
:105EB000D8400123184010BDFC3D010000440041C2
:105EC0001822424370B52D4E0300B218127A52B216
:105ED000140001320ED0481C00240C280AD802F00D
:105EE00021FA071F1F1F1F1F1F1F1F0B0B0B0B006C
:105EF00001246442200070BD092905D10021180049
:105F0000FFF76AFF0024F5E70A2901D10839F6E70F
:105F100000240B29EED10A391800FFF75DFFE9E7ED
:105F2000182201205343F218F3565568144ADB0136
:105F30006C089B18C9B228401C1900280ED00F20ED
:105F4000303422780901024011434122C9B25B1961
:105F50002170403319780A431A70D3E722000F26C4
:105F6000303214785B19B44321431170412240331D
:105F7000197804000A431A70BCE7C046FC3D0100D2
:105F800000440041F7B506000D000C008B1801938A
:105F9000019B671B9C4207D0336821781B68300047
:105FA000984701340028F3D13800FEBD70B50400D5
:105FB00008000D0005F09CFC2368020029005B68C6
:105FC0002000984770BD10B50B1E02D0FFF7EEFF02
:105FD0000300180010BD10B5FFF7F5FF10BD10B598
:105FE00003681B68984710BD10B50249FFF7DEFF34
:105FF00010BDC046F5E4000070B50400FFF7E3FFF4
:1060000005002000FFF7F0FF401970BDF0B58BB020
:106010006B461500002205330600DA770800012DD3
:1060200000D80A2509AC290002F00CFACAB2130004
:1060300037330700DBB2092902D813003033DBB253
:10604000013C2370002FEED121003000FFF7BBFF91
:106050000BB0F0BDF8B506000C00151E04D10368A6
:10606000C9B21B689847F8BD0A2A0CD100290BDA7F
:106070002D21FFF7B4FF614207002A003000FFF72F
:10608000C5FF3818EFE7D2B221003000FFF7BEFF9E
:10609000E9E710B5FFF7DEFF10BD70B50400FFF7AC
:1060A000D9FF05002000FFF79FFF401970BD10B514
:1060B000002A04D10368C9B21B68984710BDD2B248
:1060C000FFF7A4FFFAE770B50400FFF7F0FF050043
:1060D0002000FFF789FF401970BD0000F7B51E00D2
:1060E00008AB1B7831000193050033001000170046
:1060F00004F062FB4B49002814D1012274006408AB
:106100005242494B3800210004F056FB00280FD1C1
:106110000122454B52423800210002F0A3FA002828
:1061200006D142492800FFF741FF04002000FEBDD0
:10613000E0223F4B12063800310002F09DFA0028A1
:1061400001D03C49EEE7E0223B4B1206380031001B
:1061500002F07EFA0028F4D100220023380031003A
:1061600002F076FA041E07D02D212800FFF737FF32
:10617000802304001B06F618002300202F490093FB
:10618000019B009A934208D02D4B002203F050F956
:10619000009B0133DBB20093F2E733003A0002F0D8
:1061A0002BFE0F00060002F0B5FA0A220190010052
:1061B0002800FFF72BFF009B0419002BB6D0019895
:1061C00004F04CFB02000B003000390003F0ACFF80
:1061D00006000F0028001B49FFF7E8FE2418009B6B
:1061E000013BDBB20093FF2BA0D0154B0022300007
:1061F000390003F027FD0F00060002F08BFA0A2297
:10620000010001902800FFF701FF2418019804F015
:1062100025FB02000B003000390003F085FF06006B
:106220000F00DCE75C420100FFFFEF7F60420100EE
:10623000FFFFEF4164420100FFFFEFC10000E03FBC
:106240000000244074E4000037B51D00069BDBB25B
:1062500000932B00FFF742FF3EBD37B51900040045
:10626000069B2000DBB200930B00FFF737FF050011
:106270002000FFF7B9FE40193EBD0000014B186039
:106280007047C0462C0000200122024B52421A6087
:106290007047C0462C000020164A10B51368591CE0
:1062A00026D0013B1360002B22D172B6124B134A49
:1062B0000433934213D9124A01211000147D0C4279
:1062C000FCD02021148BFF319B085B0021431183FC
:1062D000D3610C4B13800123027D1A42FCD0BFF323
:1062E0004F8F094B094ADA60BFF34F8FC046FDE775
:1062F00010BDC0462C00002000200000030200005A
:106300000040004102A5FFFF00ED00E00400FA0597
:10631000016070479446F0B59E1E721E964162461B
:10632000056892072F6836063A4332432A600725EC
:1063300005AC24780068A401294021434268002468
:10634000022B00D05C03114321434160F0BD30B506
:10635000C0250368AD031C6812052A402243C024EF
:106360000904A40221401143196003685A681443C8
:106370005C6030BD0123026811680B431360036841
:106380001A68D207FCD4DA69D207F9D4704702231D
:10639000026811680B4313600268D3699B07FCD441
:1063A000704703681A7ED20702D41A7E9207FCD582
:1063B0007047002203685A8370470368187E4007BD
:1063C000C00F70470368187EC009704780230268B9
:1063D0005B42117E0B43137670470368588B80072E
:1063E000C00F704702230268518B0B4353837047E1
:1063F0000368187EC007C00F70470368188DC0B2CD
:10640000704703681A7ED207FCD589B2012019852E
:106410007047012203689A757047012203681A7554
:1064200070470123026811680B43136003681A6800
:10643000D207FCD4DA69D207F9D470470223026884
:1064400011680B4313600368DA699207FCD43021AA
:106450005A8B8A43110010220A435A830268D36977
:106460005B07FCD470470221026813688B431360FA
:106470000268D3699B07FCD4704780230268DB0263
:10648000116851680B43536070470000036803496B
:106490001A685A680A405A607047C046FFFFFBFFFF
:1064A000032230B5036811401C68074D5A6809047F
:1064B0002A40E4061143640F5960052C03D1026899
:1064C000D3695B07FCD430BDFFFFFCFF30B5036828
:1064D0000400588B8006800F022814D05D8B0020AA
:1064E000AD06AD0F032D2ED0588B800705D55D8BE3
:1064F0000020AD06AD0F012D25D100205D8BAD062E
:10650000AD0F85421FD04800596A1043C90AC0B276
:10651000C902014359622368002A08D11A7ED207B2
:10652000FCD5588B4007C30F012058400BE0187E64
:106530008007C00FF5D11A7ED207F8D5C02259685E
:1065400092020A435A6030BD036828331970036809
:10655000187EC007C00F03D15A8BD207F8D57047F9
:10656000588B4007C30F01205840F8E703682833D1
:106570001970036800201A7E520704D5588B012336
:106580004007C00F5840704703681868C006400FA6
:10659000043843425841C0B270470368187E400730
:1065A000C00F70470368187EC007C00F70470368AC
:1065B000588BC006C00F70470368187E8007C00F55
:1065C00070470368588B0007C00F704703681A684C
:1065D000D206520F052A02D11A7E9207FCD5283323
:1065E0001878C0B2704700000368104A934213D075
:1065F0000F4A934212D00F4A934211D00E4A93424F
:1066000010D00E4A93420FD001200D4A40429342CF
:1066100001D1063040B270470020FBE70120F9E7C6
:106620000220F7E70320F5E70420F3E70008004223
:10663000000C00420010004200140042001800420A
:10664000001C0042F8B5FFF7CFFF00282EDBC30087
:106650001C481F22C01805230579C35601201A4083
:1066600090400326C022184952001E40F600885070
:10667000813AB240C024D243B440002B17DA0F262F
:106680003340083B114E9B089B009B19DE6932404A
:106690001443DC613F231D408023DB011D430C4B71
:1066A00008605D805A7852B2002AFBDBF8BD064EC6
:1066B0009B089B009B19C026B6009F593A40144383
:1066C0009C51E7E76842010000E100E000ED00E0D6
:1066D000000C0040F8B504000F0016001D00FFF785
:1066E000B1FF2000FFF746FE1C21BB000B407107E5
:1066F0002268090C0B431360842322689375012FD1
:106700001AD11021012E00D008390C4B69431868AA
:10671000C00001F011FE0722216802408B8952035C
:10672000DB04DB0C13438B81226803049089DB0CB0
:10673000400B400318439081F8BDC0462400002060
:10674000F8B504000F00FFF77DFF2000FFF769FE9A
:106750001422236879001A600C4B25681E683000EB
:1067600001F0EAFD0A490400300001F0E5FD7D2357
:10677000FA215843C90001F0DFFDFF23241AE8681D
:10678000053C1C4098430443EC60F8BD2400002005
:1067900040420F000221084B1A888A431A80DA7B94
:1067A000D209FCD101321A80DA7BD209FCD11A88D5
:1067B000D207FCD47047C04600340042074B10B5E6
:1067C0001B780400002B08D0FFF7E4FF0021200015
:1067D000FFF732FB0022024B1A7010BDA2150020F9
:1067E000B8150020F7B504000E1E019202D1FFF784
:1067F000E5FFF7BD8023514A5B03D367C022504DAC
:106800005200AB504F4B1A78002A10D1C5210132EB
:106810001A7089006B58FE3293431A0040231343C9
:106820006B50494A494B5A805A78D209FCD1484B9F
:106830001B78002B05D0474B1868A04201D0FFF70A
:10684000BDFF454B3100186801F076FD434A431EF9
:106850000093944600230427009A624510D9010052
:106860005A1CD140013900911900B943C9B203291A
:1068700002D0D2B2062A01D10233DAB21300EBE71A
:10688000013B0027092B02D8354A5B009F5A019B28
:10689000002B4FD0FA2158007043890001F04CFDC5
:1068A000002302002F49304E0A604B60FFF772FF51
:1068B0002023328813431F433780F37BDB09FCD14D
:1068C0006B461B883383F17BC909FCD11820274F05
:1068D0006043BC46264B274FC356DB019C446246AF
:1068E0003A60254A254F9B183B600127204B1A1818
:1068F00053683A009A40224B1A601023727B13436C
:106900007373144B1A68A24209D020001C60FFF771
:1069100093FA39002000FFF75FFA0D4B1F70022336
:10692000328813433380F37BDB09FCD180235B0384
:106930002B605EE701225242D317B3E704E100E087
:1069400000E100E0A21500201C400000000C004007
:10695000B81500203000002034000020FFFF0000A8
:1069600098420100B0150020003400421C44004150
:10697000FC3D0100AC15002014440041A815002086
:10698000A4150020154B70B5186859680500144C03
:106990000D4319D0134A21681268116018685968AC
:1069A000002902DC0AD1002808D01868596801249F
:1069B0006442E517001969411860596010230A4ABA
:1069C000917B0B43937370BDFFF7E4FE074B226886
:1069D0001B681A60064B1D70F5E7C046B015002015
:1069E000A4150020AC15002000340042A81500209A
:1069F000B81500203F20704713B56B460268D97167
:106A00000733546819000122A04716BD10B50221B2
:106A1000006900F02BFC10BD10B50321006900F0E7
:106A20003BFC10BD10B51300084A0400D279002ABF
:106A300003D101230020636010BD0A000069032117
:106A400000F016FD0028F4D0F6E7C0463C00002018
:106A500010B5054C23685A1C04D103685B6998473C
:106A600003002060180010BD88000020074B0200C2
:106A7000186810B5411C03D0012252421A6010BDA3
:106A80000221106900F0E6FCF9E7C046880000200A
:106A900010B503784222023303700249024800F025
:106AA00093FD10BD44000020D815002010B50178DA
:106AB000020043780020A12908D1212B05D107220B
:106AC0001649174800F080FD012010BD2129FCD196
:106AD000202B13D107221149114800F021FC9622E6
:106AE0000E4BD200196891420ED10124D87904408E
:106AF0000AD1FA20FFF7C2FB0020E6E7222B06D1DD
:106B00009278064BDA71EAE7FFF7BEFBF4E7232B36
:106B1000DBD15288034B1A60D7E7C0463C00002007
:106B2000D815002038000020FA220021054B9200E1
:106B30009A60054A596008321A60044A19761A6147
:106B40007047C046BC150020AC420100D81500209B
:106B5000704770B50F26CB1D013902003240D5B207
:106B60002C0000093034092A00DD07341C70013B79
:106B70008B42F2D170BD10B50400806903F0F0FFC4
:106B8000A06A03F0EDFF200010BD10B50400FFF770
:106B9000F2FF200001F0F4FA200010BD70B50329C7
:106BA00008D1324B8000C058002802D00368DB684F
:106BB000984770BD82291FD1C3B22D4D5A01AA1822
:106BC00091692C4C80010C40C021890521439161C1
:106BD000294908334018802150612A685B01D01888
:106BE00004794942214301717020995C8143080076
:106BF000302101439954DCE70029DAD1C024C1B225
:106C00001B4E4A01B21893681A4DA4052B4023432A
:106C100093601A4B8001C0180B0050603068072643
:106C200008335B01195CB1430E0001213143195453
:106C300091690D402C43946170240F495161195C96
:106C4000A1430C0010212143195491680C4CC31826
:106C50000C4080214903214391609168890B89038D
:106C60009160402259790A435A71A2E7DC1500204D
:106C7000901A0020FFFFFF8F04160020C417002089
:106C8000FF3F00F0EFF3108303600123436072B60F
:106C900070470368002B02D162B6BFF36F8F704755
:106CA00037B5056904006846002D14D1FFF7EAFFE7
:106CB000019B621D013B02D3D57FEDB2FAE7684626
:106CC0000193FFF7E6FF002D01D100203EBD206AB1
:106CD000E369C01AFAE7FFF7D5FF22000025019B00
:106CE0003432013B02D31578EDB2FAE768460193DE
:106CF000FFF7CFFF002DE8D0206BE36AE9E7000043
:106D0000FF2130B54368164D1A6883680B405B015C
:106D1000D21801235218947A2343937283684268ED
:106D20000B405B01D418C268A36892042B4012097F
:106D30001343A360836842680B405B01D3189A68D1
:106D4000920B92039A6043681A6883680B40083379
:106D50005B01D318402219790A431A7130BDC0462D
:106D6000FF3F00F0F7B5036904000E001700684606
:106D7000002B45D1FFF786FF019B611D013B5A1C8B
:106D80000CD0CD7F5A1EEDB2002D05D1684601937F
:106D9000FFF77FFF2800FEBD1300F0E76846019370
:106DA0000025FFF776FFE369AF420AD0226A9A42D4
:106DB00007D95A1CE261A269D3181B7873550135B3
:106DC000F1E7226A9A42E5D10023E36101332361AE
:106DD0006846FFF757FF22000021019B671D013B1A
:106DE0003532581CD2D0F97710785E1E002805D0B5
:106DF000117020000193FFF783FFECE73300F0E709
:106E0000FFF740FF2100019B3431013B5A1C06D0A3
:106E10000D785A1EEDB2002DB8D01300F6E7684683
:106E200001930025FFF735FFE36ABD4202D0226BD4
:106E30009A421CD8226B9A42ACD100236846E36286
:106E40002361FFF71FFF270022000021019B343739
:106E5000013B3532581C99D0397010785E1E0028DD
:106E60000DD0117020000193FFF74AFFEBE75A1C89
:106E7000E262A26AD3181B7873550135D4E7330058
:106E8000E8E7F7B5FF21826843680A401B680832CB
:106E900052019A18D3790400DB072AD50125D57150
:106EA000836842680B405B01D3189A68406992047A
:106EB000920C002821D12262226A002A3ED0A26AC6
:106EC000656168465A60FFF7DDFE27002100019BDF
:106ED000661D013B343735315A1C2BD0F5773A7893
:106EE000581ED2B2002A05D0019368460D70FFF7F4
:106EF000D0FEF7BD0A700300EEE72263226B002A82
:106F00001CD000226261A26968465A60FFF7BAFE8F
:106F100026002100019B3436013B671D35315A1C88
:106F200008D03570FA7F581ED2B2002ADCD10A7020
:106F30000300F4E768460193FFF7ABFE2000FFF77C
:106F4000DFFED6E737B56B46DC1D00230D002000C1
:106F50002370FFF79DFD2B681818286001F088F951
:106F6000210001F050F92B681818286020783EBDE8
:106F700003290ED180220E4B62311B68FF31585C11
:106F8000524202435A5468226339FF32FF399954FE
:106F900070470129FCD18022054B24311B68FF3149
:106FA000585C524202435A5428222339FF32EDE7FB
:106FB000901A002000222C4B70B5012104001A20E9
:106FC0001A70FEF709FF01211A20FEF735FF202372
:106FD000264A0F20D1690B43D361012224490B7843
:106FE00013430B70234B19788143197006211D78C8
:106FF0002943197020490D782A430A701A780240F3
:107000001A70602219780A431A701C4B1C4A5A8065
:107010005A78D209FCD11B48FEF72CFC1A4D2800E7
:1070200001F038F9280001F04DF97F212A68C120CC
:10703000137880000B40137004232A6811780B43E7
:107040000C2113702A6813898B43104913810B5844
:107050001B021B0A0B5080230B6011787E3B0B43F5
:1070600013700123237070BDF81500200004004048
:10707000584400413C44004159440041000C004048
:1070800006400000197A0000901A002000E100E09C
:107090000078002810D00121084B1B681A898A4308
:1070A0001A810822198B0A431A830422198B0A4376
:1070B0001A830022024B1A607047C046901A0020C3
:1070C000881A002010B50F4A93699B0B9B039361AC
:1070D00013680222FF331A729879823A02439A7136
:1070E0001A7A9207FCD57F24074A2140937A080038
:1070F000A3431900802301439172917A5B420B43B1
:10710000937210BD901A00200050004110B50B7909
:107110000C00002B0CD10800FFF7C8FC002801D0A0
:10712000012010BD094A93699B0B9B039361F7E70C
:1071300001F09EF8210001F08AF80028F0D1034AFE
:1071400093699B0B9B039361EBE7C046901A002069
:10715000F8B50D00832A19D1CBB2364C5A01A218CA
:1071600091693548AD010840C0218905014391610D
:10717000324920686D187021083355615B011A5C33
:107180008A43110040220A431A54F8BD022A4CD106
:107190002B4A8B009858002802D003685B699847F7
:1071A000382000F0E9FF274B802703600023214EA1
:1071B0007F00421D036203614361C36146608560D5
:1071C000C760D3772F320400C362036313703800A3
:1071D000537003F0BBFCA061380003F0B7FC2A0039
:1071E000A062FF200240510171188B68124FAD0060
:1071F0001F40C0239B053B438B601300316807266B
:1072000008335B015A5CB2431600032232435A54DE
:10721000A368626803405B01D318A26920005A602A
:10722000FFF76EFD064B5C51AFE711002800FFF73A
:10723000B5FCAAE7901A0020FFFFFF8F041600207C
:10724000DC150020D842010070B505000124064B72
:10725000A200D258002A05D021002800FFF778FFAD
:107260000134F4E770BDC0468C000020084B8A0052
:10727000D05810B5002803D003689B68984710BD0C
:10728000C9B2044B4901591888688004800CF6E79C
:10729000DC150020901A002010B50C00FFF7E6FF67
:1072A00000280CD0064BE4B21B68083464011C199A
:1072B000802362795B42134363710223E37110BD43
:1072C000901A002070B5CBB2124A13485C018901B4
:1072D0008918021951609168104D08330D408021C2
:1072E00089022943402591609168890B8903916047
:1072F00001685A018A1816793543157195796D061A
:10730000FCD55B01C918CB79DB07FCD50019806877
:10731000C0B270BDC4170020901A0020FF3F00F0DB
:1073200070B5140040220B4B0D001B68FF335979D8
:107330000A435A710021FFF7C5FFA04200D920007F
:1073400000230549A34203D0CA5CEA540133F9E79C
:1073500070BDC046901A0020C417002010B5C9B2F5
:107360000B484901421893689B049B0C3F2B0BD997
:107370009468403B9B04A40B9B0CA40323439360A1
:1073800041188868C0B210BD93689B0B9B03F6E759
:10739000901A0020F0B51C002A4B85B01B6806002F
:1073A0000D000192002B49D0274B8A00D0580028AD
:1073B00008D0036822005B68019998470400200008
:1073C00005B0F0BD3000FFF751FF844204D9290019
:1073D0003000FFF74BFF040029003000FFF7BEFF2D
:1073E0000121EBB2194F03935B010293029A3B68B0
:1073F00001989B18FF335A7A0A435A72144BA90119
:10740000C918220003F0C8FB002CD8D02900300096
:10741000FFF72CFF0028D2D14021039B3A680833A4
:107420005B01D3181879014319710121D971029BAD
:10743000D318FF339A7A0A439A72C0E70124644250
:10744000BDE7C046881A0020DC150020901A0020F5
:10745000C417002013B56B46DC1D22000123FFF783
:1074600099FF012801D1207816BD01204042FBE799
:10747000F0B51E003A4B85B01B680F000192002B3F
:107480003FD08023DB019E423BD8364C2178C9B2E5
:10749000002902D11A20FEF7CFFC642300252370B7
:1074A000314BBA01D3180293002E2CD02F4B1B68FE
:1074B0000393FF233B401C0000930834039B6401AB
:1074C0001C19A379DB0921D0294B2A49186800F03F
:1074D00033FF294B1721584300F02EFF274BE27949
:1074E000920713D4DA5D002A01D10138F7D20122C4
:1074F000DA55009B5A011D4B9B189A69920B920317
:107500009A6101256D42280005B0F0BD00221B4B99
:107510003400DA55402E00D9402422000199029807
:1075200003F03AFB009BA1045A01104B890C9B18F5
:10753000029A2D195A619A69361B920B92030A43DB
:107540009A61009B039A08335B01D3180222DA7117
:107550005979823A0A435A71019B1B190193A3E797
:10756000881A0020F815002004160020901A002028
:107570002400002040420F0070110100FA15002085
:1075800070B50D001C000D4BAE01F6181100300057
:10759000220003F001FBEDB209496D014D196E6146
:1075A000AB69084A20001340AB61AB69A2049B0B96
:1075B000920C9B031343AB6170BDC04604160020C0
:1075C000901A0020FF3F00F0F7B5104B01901B7898
:1075D0000F001500002B0CD10D4B16001C78002C51
:1075E00009D00C4E0C4834882018641903F0D4FAE2
:1075F00034802800FEBD002EFBD03A193300002154
:107600000198FFF7BDFF2418361AF4E7841900200B
:10761000851A0020861A002085190020F8B5002060
:1076200000AF0E001500012A27D9D31D6A46DB08DA
:10763000DB00D31A9D46080004F05AF96C46032378
:10764000022200210130400020706370AA420DD256
:10765000307800280AD0531CDBB20136A0549D427A
:1076600003D00232E154D2B2F0E72A0021000448EC
:10767000FFF7AAFF431E9841C0B2BD46F8BDC04601
:10768000D8150020F0B50024012685B0184B0F0056
:1076900069461E7005000094FFF754FC154B01A9C4
:1076A0000B806A3BFF3BCB716E3B0B72009B8C7176
:1076B00009334B800E4B4E7108711C703A00092F34
:1076C0000FD00D4F09223E700C4E280000943480DC
:1076D000FFF77AFF69462800FFF734FC3288084933
:1076E0003C702800FFF770FF012005B0F0BDC046D8
:1076F0008419002009020000851A0020861A002043
:1077000085190020F0B5CF7893B005000E00022F48
:1077100009D1C9882B48FFF7B5FF441EA041C4B268
:10772000200013B0F0BD00F0A3FD310000F07FFD9C
:10773000002803D0C417241AE40FF1E7012F0BD15E
:10774000F2882149112A11D8D2B2002A0ED028007D
:10775000FFF73AFF0124E3E70400032FE0D1B378F9
:10776000002B05D1F2881949032AEDD90A78EEE7F2
:10777000022B06D1B27916492800FFF74FFF04000B
:10778000CEE7012B02D1B2791249F5E7032BC7D11D
:10779000114B01A91868FFF7DCF9104B03A9186811
:1077A000FFF7D7F90E4B05A91868FFF7D2F90D4B73
:1077B00007A91868FFF7CDF96B460533DC77B27976
:1077C00001A9D9E7D81500201643010002430100A2
:1077D000F0420100064301000CA0800040A08000A0
:1077E00044A0800048A0800037B5050048780C0010
:1077F0000B2810D800F096FD061B0F2B0F41466E8C
:107800004A4D676A097801AA002906D1022311802E
:107810002800FFF7B5FE01203EBD002313802E4B4C
:107820001B78012B00D1137002230021F0E78A7826
:107830000023012A03D101AA1380284BF0E7264A2E
:107840001370274A93699B0B9B039361E3E78C7842
:10785000012C06D10021214B01AA1C7011702300BC
:10786000D6E700208442D7D11B4B01301C4A187048
:1078700093699B0B9B039361CEE789782800FFF700
:1078800021FCC8E72800FFF73DFFC5E70123154AA3
:10789000CBE70B780020DB06BED12800FFF7D4FC35
:1078A0002A200221A2780F4BFF301A600C4A13687D
:1078B0001C5C21434A241954FF34195D2938FF38D0
:1078C00001431955D4E70123074AAEE78A78064BEE
:1078D0001A60B6E700209FE7F91500200116002086
:1078E000901A0020881A00208C1A0020434BF7B50C
:1078F0001C780700002C74D1414E33689B8B1B070A
:107900000ED521002000FFF749F93268102311003D
:10791000FF31887A03438B723A4B1C6008239383B0
:1079200033689A8B520710D504229A83364A13780B
:10793000002B0AD01378013BDBB213701378002BB5
:1079400003D101211A20FEF777FA3368FF331A7A40
:10795000D2061ED510221A72597930320A435A7152
:1079600060232A4938000A781A423BD1FFF73CFFCE
:107970003368FF33002838D08022997952420A4375
:107980009A711A7A520604D540221A72597A0A4319
:107990005A72336800241D8C01239D43EDB201937C
:1079A000E1B2002D1DD02B002341019A134215D0C6
:1079B0002300326808335B01D318DA79D20702D486
:1079C000DB799B0707D5124BA200D058002810D0B6
:1079D00003681B689847019BA3409D430134092C11
:1079E000DED1F7BDFFF792FBC2E72021094A917172
:1079F000C7E73800FFF7BCFAEDE7C046851A00205C
:107A0000901A0020881A0020F8150020C4170020C2
:107A1000DC150020FF50004110B50248FFF766FF5B
:107A200010BDC046D8150020014B024A1A607047AD
:107A3000901A0020005000410120704710B50368E3
:107A4000014A1B6A984710BD130400000300FC3371
:107A5000D96F9A6F914203D0DB6FC018007D7047D9
:107A600001204042FBE710B504000069FEF782FCEC
:107A700022000023FC329367D3679E229200A41851
:107A80006366A36610BDF02001403039484248418A
:107A90007047F0231B011940802306209B00994268
:107AA0000AD00133FF330130994205D080230238D8
:107AB0005B00994200D0002070470F200140002059
:107AC000012903D00239481E8141481C704700003B
:107AD000B923F0B5182685B002919B000400C05C64
